{
  "_format": "hh-sol-artifact-1",
  "contractName": "Auction",
  "sourceName": "contracts/Auction.sol",
  "abi": [
    {
      "anonymous": false,
      "inputs": [
        {
          "indexed": false,
          "internalType": "address",
          "name": "nftOwner",
          "type": "address"
        },
        {
          "indexed": false,
          "internalType": "uint256",
          "name": "nftId",
          "type": "uint256"
        }
      ],
      "name": "Burn",
      "type": "event"
    },
    {
      "anonymous": false,
      "inputs": [
        {
          "indexed": false,
          "internalType": "address",
          "name": "creator",
          "type": "address"
        },
        {
          "indexed": false,
          "internalType": "uint256",
          "name": "startedPrice",
          "type": "uint256"
        },
        {
          "indexed": false,
          "internalType": "uint256",
          "name": "auctionId",
          "type": "uint256"
        },
        {
          "indexed": false,
          "internalType": "uint256",
          "name": "nftId",
          "type": "uint256"
        }
      ],
      "name": "CreateAuction",
      "type": "event"
    },
    {
      "anonymous": false,
      "inputs": [
        {
          "indexed": false,
          "internalType": "address",
          "name": "nftCreator",
          "type": "address"
        },
        {
          "indexed": false,
          "internalType": "string",
          "name": "imageHash",
          "type": "string"
        },
        {
          "indexed": false,
          "internalType": "string",
          "name": "imageName",
          "type": "string"
        },
        {
          "indexed": false,
          "internalType": "string",
          "name": "description",
          "type": "string"
        }
      ],
      "name": "CreateNFT",
      "type": "event"
    },
    {
      "anonymous": false,
      "inputs": [
        {
          "indexed": false,
          "internalType": "uint256",
          "name": "nftId",
          "type": "uint256"
        },
        {
          "indexed": false,
          "internalType": "uint256",
          "name": "createdAt",
          "type": "uint256"
        },
        {
          "indexed": false,
          "internalType": "uint256",
          "name": "price",
          "type": "uint256"
        },
        {
          "indexed": false,
          "internalType": "address",
          "name": "nftOwner",
          "type": "address"
        }
      ],
      "name": "CreateSaleNFT",
      "type": "event"
    },
    {
      "anonymous": false,
      "inputs": [
        {
          "indexed": false,
          "internalType": "address",
          "name": "seller",
          "type": "address"
        },
        {
          "indexed": false,
          "internalType": "address",
          "name": "buyer",
          "type": "address"
        },
        {
          "indexed": false,
          "internalType": "uint256",
          "name": "finalPrice",
          "type": "uint256"
        },
        {
          "indexed": false,
          "internalType": "uint256",
          "name": "auctionCounter",
          "type": "uint256"
        },
        {
          "indexed": false,
          "internalType": "uint256",
          "name": "nftId",
          "type": "uint256"
        }
      ],
      "name": "EndAuction",
      "type": "event"
    },
    {
      "anonymous": false,
      "inputs": [
        {
          "indexed": false,
          "internalType": "uint256",
          "name": "auctionId",
          "type": "uint256"
        },
        {
          "indexed": false,
          "internalType": "uint256",
          "name": "nftId",
          "type": "uint256"
        },
        {
          "indexed": false,
          "internalType": "address",
          "name": "bidder",
          "type": "address"
        },
        {
          "indexed": false,
          "internalType": "uint256",
          "name": "amount",
          "type": "uint256"
        }
      ],
      "name": "NewBid",
      "type": "event"
    },
    {
      "anonymous": false,
      "inputs": [
        {
          "indexed": false,
          "internalType": "address",
          "name": "seller",
          "type": "address"
        },
        {
          "indexed": false,
          "internalType": "address",
          "name": "buyer",
          "type": "address"
        },
        {
          "indexed": false,
          "internalType": "uint256",
          "name": "price",
          "type": "uint256"
        },
        {
          "indexed": false,
          "internalType": "uint256",
          "name": "sellCounter",
          "type": "uint256"
        },
        {
          "indexed": false,
          "internalType": "uint256",
          "name": "nftId",
          "type": "uint256"
        }
      ],
      "name": "SellNft",
      "type": "event"
    },
    {
      "anonymous": false,
      "inputs": [
        {
          "indexed": false,
          "internalType": "uint256",
          "name": "newMinBid",
          "type": "uint256"
        },
        {
          "indexed": false,
          "internalType": "uint256",
          "name": "auctionId",
          "type": "uint256"
        }
      ],
      "name": "SetMinimalBid",
      "type": "event"
    },
    {
      "anonymous": false,
      "inputs": [
        {
          "indexed": false,
          "internalType": "address",
          "name": "from",
          "type": "address"
        },
        {
          "indexed": false,
          "internalType": "address",
          "name": "to",
          "type": "address"
        },
        {
          "indexed": false,
          "internalType": "uint256",
          "name": "nftId",
          "type": "uint256"
        }
      ],
      "name": "Transfer",
      "type": "event"
    },
    {
      "stateMutability": "payable",
      "type": "fallback"
    },
    {
      "inputs": [],
      "name": "AAtest",
      "outputs": [],
      "stateMutability": "payable",
      "type": "function"
    },
    {
      "inputs": [
        {
          "internalType": "uint256",
          "name": "_nftId",
          "type": "uint256"
        }
      ],
      "name": "burn",
      "outputs": [],
      "stateMutability": "nonpayable",
      "type": "function"
    },
    {
      "inputs": [
        {
          "internalType": "uint256",
          "name": "_nftId",
          "type": "uint256"
        }
      ],
      "name": "buyAuctionNft",
      "outputs": [],
      "stateMutability": "payable",
      "type": "function"
    },
    {
      "inputs": [
        {
          "internalType": "uint256",
          "name": "_nftId",
          "type": "uint256"
        }
      ],
      "name": "buyNft",
      "outputs": [],
      "stateMutability": "payable",
      "type": "function"
    },
    {
      "inputs": [
        {
          "internalType": "uint256",
          "name": "_nftId",
          "type": "uint256"
        }
      ],
      "name": "cancelAuction",
      "outputs": [],
      "stateMutability": "nonpayable",
      "type": "function"
    },
    {
      "inputs": [
        {
          "internalType": "uint256",
          "name": "_nftId",
          "type": "uint256"
        }
      ],
      "name": "cancelSellNft",
      "outputs": [],
      "stateMutability": "nonpayable",
      "type": "function"
    },
    {
      "inputs": [
        {
          "internalType": "uint256",
          "name": "_nftId",
          "type": "uint256"
        },
        {
          "internalType": "uint256",
          "name": "_newPrice",
          "type": "uint256"
        }
      ],
      "name": "changeAuctionNftPrice",
      "outputs": [],
      "stateMutability": "nonpayable",
      "type": "function"
    },
    {
      "inputs": [
        {
          "internalType": "uint256",
          "name": "_nftId",
          "type": "uint256"
        }
      ],
      "name": "claimPrize",
      "outputs": [],
      "stateMutability": "nonpayable",
      "type": "function"
    },
    {
      "inputs": [
        {
          "internalType": "uint256",
          "name": "_startingPrice",
          "type": "uint256"
        },
        {
          "internalType": "uint256",
          "name": "_sellPrice",
          "type": "uint256"
        },
        {
          "internalType": "uint256",
          "name": "_nftId",
          "type": "uint256"
        },
        {
          "internalType": "uint256",
          "name": "_auctionEndTime",
          "type": "uint256"
        }
      ],
      "name": "createAuction",
      "outputs": [],
      "stateMutability": "nonpayable",
      "type": "function"
    },
    {
      "inputs": [
        {
          "internalType": "string",
          "name": "_imageHash",
          "type": "string"
        },
        {
          "internalType": "string",
          "name": "_title",
          "type": "string"
        },
        {
          "internalType": "string",
          "name": "_description",
          "type": "string"
        },
        {
          "internalType": "uint8",
          "name": "_royaltyFee",
          "type": "uint8"
        }
      ],
      "name": "createNFT",
      "outputs": [],
      "stateMutability": "nonpayable",
      "type": "function"
    },
    {
      "inputs": [
        {
          "internalType": "uint256",
          "name": "_sellPrice",
          "type": "uint256"
        },
        {
          "internalType": "uint256",
          "name": "_nftId",
          "type": "uint256"
        }
      ],
      "name": "createSellNft",
      "outputs": [],
      "stateMutability": "nonpayable",
      "type": "function"
    },
    {
      "inputs": [],
      "name": "getActiveNFTs",
      "outputs": [
        {
          "components": [
            {
              "internalType": "uint256",
              "name": "id",
              "type": "uint256"
            },
            {
              "internalType": "bool",
              "name": "onAuction",
              "type": "bool"
            },
            {
              "internalType": "bool",
              "name": "onSale",
              "type": "bool"
            },
            {
              "internalType": "uint8",
              "name": "royaltyFee",
              "type": "uint8"
            },
            {
              "internalType": "bytes32",
              "name": "PartOfMetadataURI",
              "type": "bytes32"
            },
            {
              "internalType": "bytes32",
              "name": "PartOfMetadataURIAndName",
              "type": "bytes32"
            },
            {
              "internalType": "string",
              "name": "description",
              "type": "string"
            },
            {
              "internalType": "address",
              "name": "owner",
              "type": "address"
            },
            {
              "internalType": "address",
              "name": "creator",
              "type": "address"
            }
          ],
          "internalType": "struct Auction.NFT[]",
          "name": "",
          "type": "tuple[]"
        }
      ],
      "stateMutability": "view",
      "type": "function"
    },
    {
      "inputs": [],
      "name": "getAllNFTs",
      "outputs": [
        {
          "components": [
            {
              "internalType": "uint256",
              "name": "id",
              "type": "uint256"
            },
            {
              "internalType": "bool",
              "name": "onAuction",
              "type": "bool"
            },
            {
              "internalType": "bool",
              "name": "onSale",
              "type": "bool"
            },
            {
              "internalType": "uint8",
              "name": "royaltyFee",
              "type": "uint8"
            },
            {
              "internalType": "bytes32",
              "name": "PartOfMetadataURI",
              "type": "bytes32"
            },
            {
              "internalType": "bytes32",
              "name": "PartOfMetadataURIAndName",
              "type": "bytes32"
            },
            {
              "internalType": "string",
              "name": "description",
              "type": "string"
            },
            {
              "internalType": "address",
              "name": "owner",
              "type": "address"
            },
            {
              "internalType": "address",
              "name": "creator",
              "type": "address"
            }
          ],
          "internalType": "struct Auction.NFT[]",
          "name": "",
          "type": "tuple[]"
        }
      ],
      "stateMutability": "view",
      "type": "function"
    },
    {
      "inputs": [
        {
          "internalType": "uint256",
          "name": "nftId",
          "type": "uint256"
        }
      ],
      "name": "getAuctionBids",
      "outputs": [
        {
          "components": [
            {
              "internalType": "uint256",
              "name": "amount",
              "type": "uint256"
            },
            {
              "internalType": "uint256",
              "name": "time",
              "type": "uint256"
            },
            {
              "internalType": "address",
              "name": "bidder",
              "type": "address"
            }
          ],
          "internalType": "struct Auction.bids[]",
          "name": "",
          "type": "tuple[]"
        }
      ],
      "stateMutability": "view",
      "type": "function"
    },
    {
      "inputs": [],
      "name": "getAuctionCount",
      "outputs": [
        {
          "internalType": "uint256",
          "name": "",
          "type": "uint256"
        }
      ],
      "stateMutability": "view",
      "type": "function"
    },
    {
      "inputs": [
        {
          "internalType": "uint256",
          "name": "_nftId",
          "type": "uint256"
        }
      ],
      "name": "getAuctionHighestBid",
      "outputs": [
        {
          "internalType": "uint256",
          "name": "",
          "type": "uint256"
        }
      ],
      "stateMutability": "view",
      "type": "function"
    },
    {
      "inputs": [
        {
          "internalType": "uint256",
          "name": "_nftId",
          "type": "uint256"
        }
      ],
      "name": "getAuctionHighestBidder",
      "outputs": [
        {
          "internalType": "address",
          "name": "",
          "type": "address"
        }
      ],
      "stateMutability": "view",
      "type": "function"
    },
    {
      "inputs": [
        {
          "internalType": "uint256",
          "name": "_nftId",
          "type": "uint256"
        }
      ],
      "name": "getAuctionInfoById",
      "outputs": [
        {
          "components": [
            {
              "internalType": "bool",
              "name": "progress",
              "type": "bool"
            },
            {
              "internalType": "uint256",
              "name": "nftId",
              "type": "uint256"
            },
            {
              "internalType": "uint256",
              "name": "endTime",
              "type": "uint256"
            },
            {
              "internalType": "uint256",
              "name": "startedTime",
              "type": "uint256"
            },
            {
              "internalType": "uint256",
              "name": "minBid",
              "type": "uint256"
            },
            {
              "internalType": "uint256",
              "name": "salePrice",
              "type": "uint256"
            },
            {
              "internalType": "address",
              "name": "nftOwner",
              "type": "address"
            }
          ],
          "internalType": "struct Auction.AuctionInfo",
          "name": "",
          "type": "tuple"
        }
      ],
      "stateMutability": "view",
      "type": "function"
    },
    {
      "inputs": [
        {
          "internalType": "uint256",
          "name": "_nftId",
          "type": "uint256"
        }
      ],
      "name": "getAuctionMinBid",
      "outputs": [
        {
          "internalType": "uint256",
          "name": "",
          "type": "uint256"
        }
      ],
      "stateMutability": "view",
      "type": "function"
    },
    {
      "inputs": [
        {
          "internalType": "uint256",
          "name": "auctionId",
          "type": "uint256"
        }
      ],
      "name": "getAuctionNFTprice",
      "outputs": [
        {
          "internalType": "uint256",
          "name": "",
          "type": "uint256"
        }
      ],
      "stateMutability": "view",
      "type": "function"
    },
    {
      "inputs": [],
      "name": "getAuctionNFTs",
      "outputs": [
        {
          "components": [
            {
              "internalType": "uint256",
              "name": "id",
              "type": "uint256"
            },
            {
              "internalType": "bool",
              "name": "onAuction",
              "type": "bool"
            },
            {
              "internalType": "bool",
              "name": "onSale",
              "type": "bool"
            },
            {
              "internalType": "uint8",
              "name": "royaltyFee",
              "type": "uint8"
            },
            {
              "internalType": "bytes32",
              "name": "PartOfMetadataURI",
              "type": "bytes32"
            },
            {
              "internalType": "bytes32",
              "name": "PartOfMetadataURIAndName",
              "type": "bytes32"
            },
            {
              "internalType": "string",
              "name": "description",
              "type": "string"
            },
            {
              "internalType": "address",
              "name": "owner",
              "type": "address"
            },
            {
              "internalType": "address",
              "name": "creator",
              "type": "address"
            }
          ],
          "internalType": "struct Auction.NFT[]",
          "name": "",
          "type": "tuple[]"
        }
      ],
      "stateMutability": "view",
      "type": "function"
    },
    {
      "inputs": [
        {
          "internalType": "uint256",
          "name": "_nftId",
          "type": "uint256"
        }
      ],
      "name": "getAuctionTime",
      "outputs": [
        {
          "internalType": "uint256",
          "name": "",
          "type": "uint256"
        },
        {
          "internalType": "uint256",
          "name": "",
          "type": "uint256"
        },
        {
          "internalType": "uint256",
          "name": "",
          "type": "uint256"
        },
        {
          "internalType": "uint256",
          "name": "",
          "type": "uint256"
        }
      ],
      "stateMutability": "view",
      "type": "function"
    },
    {
      "inputs": [],
      "name": "getBalance",
      "outputs": [
        {
          "internalType": "uint256",
          "name": "",
          "type": "uint256"
        }
      ],
      "stateMutability": "view",
      "type": "function"
    },
    {
      "inputs": [],
      "name": "getNFTcount",
      "outputs": [
        {
          "internalType": "uint256",
          "name": "",
          "type": "uint256"
        }
      ],
      "stateMutability": "view",
      "type": "function"
    },
    {
      "inputs": [
        {
          "internalType": "uint256",
          "name": "nftId",
          "type": "uint256"
        }
      ],
      "name": "getNFThistory",
      "outputs": [
        {
          "components": [
            {
              "internalType": "uint256",
              "name": "time",
              "type": "uint256"
            },
            {
              "internalType": "uint256",
              "name": "sellPrice",
              "type": "uint256"
            },
            {
              "internalType": "address",
              "name": "boughtBy",
              "type": "address"
            }
          ],
          "internalType": "struct Auction.NFThistory[]",
          "name": "",
          "type": "tuple[]"
        }
      ],
      "stateMutability": "view",
      "type": "function"
    },
    {
      "inputs": [
        {
          "internalType": "address",
          "name": "owner",
          "type": "address"
        }
      ],
      "name": "getNFTsByOwner",
      "outputs": [
        {
          "components": [
            {
              "internalType": "uint256",
              "name": "id",
              "type": "uint256"
            },
            {
              "internalType": "bool",
              "name": "onAuction",
              "type": "bool"
            },
            {
              "internalType": "bool",
              "name": "onSale",
              "type": "bool"
            },
            {
              "internalType": "uint8",
              "name": "royaltyFee",
              "type": "uint8"
            },
            {
              "internalType": "bytes32",
              "name": "PartOfMetadataURI",
              "type": "bytes32"
            },
            {
              "internalType": "bytes32",
              "name": "PartOfMetadataURIAndName",
              "type": "bytes32"
            },
            {
              "internalType": "string",
              "name": "description",
              "type": "string"
            },
            {
              "internalType": "address",
              "name": "owner",
              "type": "address"
            },
            {
              "internalType": "address",
              "name": "creator",
              "type": "address"
            }
          ],
          "internalType": "struct Auction.NFT[]",
          "name": "",
          "type": "tuple[]"
        }
      ],
      "stateMutability": "view",
      "type": "function"
    },
    {
      "inputs": [
        {
          "internalType": "uint256",
          "name": "_nftId",
          "type": "uint256"
        }
      ],
      "name": "getNftById",
      "outputs": [
        {
          "components": [
            {
              "internalType": "uint256",
              "name": "id",
              "type": "uint256"
            },
            {
              "internalType": "bool",
              "name": "onAuction",
              "type": "bool"
            },
            {
              "internalType": "bool",
              "name": "onSale",
              "type": "bool"
            },
            {
              "internalType": "uint8",
              "name": "royaltyFee",
              "type": "uint8"
            },
            {
              "internalType": "bytes32",
              "name": "PartOfMetadataURI",
              "type": "bytes32"
            },
            {
              "internalType": "bytes32",
              "name": "PartOfMetadataURIAndName",
              "type": "bytes32"
            },
            {
              "internalType": "string",
              "name": "description",
              "type": "string"
            },
            {
              "internalType": "address",
              "name": "owner",
              "type": "address"
            },
            {
              "internalType": "address",
              "name": "creator",
              "type": "address"
            }
          ],
          "internalType": "struct Auction.NFT",
          "name": "",
          "type": "tuple"
        }
      ],
      "stateMutability": "view",
      "type": "function"
    },
    {
      "inputs": [
        {
          "internalType": "uint256",
          "name": "_nftId",
          "type": "uint256"
        }
      ],
      "name": "getNftPicHash",
      "outputs": [
        {
          "internalType": "string",
          "name": "",
          "type": "string"
        }
      ],
      "stateMutability": "view",
      "type": "function"
    },
    {
      "inputs": [
        {
          "internalType": "uint256",
          "name": "_nftId",
          "type": "uint256"
        }
      ],
      "name": "getNftPicName",
      "outputs": [
        {
          "internalType": "string",
          "name": "",
          "type": "string"
        }
      ],
      "stateMutability": "view",
      "type": "function"
    },
    {
      "inputs": [
        {
          "internalType": "uint256",
          "name": "_nftId",
          "type": "uint256"
        }
      ],
      "name": "getNftSaleInfoById",
      "outputs": [
        {
          "components": [
            {
              "internalType": "uint256",
              "name": "price",
              "type": "uint256"
            },
            {
              "internalType": "uint256",
              "name": "createdAt",
              "type": "uint256"
            }
          ],
          "internalType": "struct Auction.SaleInfo",
          "name": "",
          "type": "tuple"
        }
      ],
      "stateMutability": "view",
      "type": "function"
    },
    {
      "inputs": [
        {
          "internalType": "uint256",
          "name": "_nftId",
          "type": "uint256"
        }
      ],
      "name": "getNftSalepriceById",
      "outputs": [
        {
          "internalType": "uint256",
          "name": "",
          "type": "uint256"
        }
      ],
      "stateMutability": "view",
      "type": "function"
    },
    {
      "inputs": [],
      "name": "getSaleNFTs",
      "outputs": [
        {
          "components": [
            {
              "internalType": "uint256",
              "name": "id",
              "type": "uint256"
            },
            {
              "internalType": "bool",
              "name": "onAuction",
              "type": "bool"
            },
            {
              "internalType": "bool",
              "name": "onSale",
              "type": "bool"
            },
            {
              "internalType": "uint8",
              "name": "royaltyFee",
              "type": "uint8"
            },
            {
              "internalType": "bytes32",
              "name": "PartOfMetadataURI",
              "type": "bytes32"
            },
            {
              "internalType": "bytes32",
              "name": "PartOfMetadataURIAndName",
              "type": "bytes32"
            },
            {
              "internalType": "string",
              "name": "description",
              "type": "string"
            },
            {
              "internalType": "address",
              "name": "owner",
              "type": "address"
            },
            {
              "internalType": "address",
              "name": "creator",
              "type": "address"
            }
          ],
          "internalType": "struct Auction.NFT[]",
          "name": "",
          "type": "tuple[]"
        }
      ],
      "stateMutability": "view",
      "type": "function"
    },
    {
      "inputs": [],
      "name": "getSellCount",
      "outputs": [
        {
          "internalType": "uint256",
          "name": "",
          "type": "uint256"
        }
      ],
      "stateMutability": "view",
      "type": "function"
    },
    {
      "inputs": [],
      "name": "getTopCreators",
      "outputs": [
        {
          "components": [
            {
              "internalType": "uint256",
              "name": "countNFT",
              "type": "uint256"
            },
            {
              "internalType": "address",
              "name": "creator",
              "type": "address"
            }
          ],
          "internalType": "struct Auction.creatorsNFT[]",
          "name": "",
          "type": "tuple[]"
        }
      ],
      "stateMutability": "view",
      "type": "function"
    },
    {
      "inputs": [],
      "name": "getTransferCount",
      "outputs": [
        {
          "internalType": "uint256",
          "name": "",
          "type": "uint256"
        }
      ],
      "stateMutability": "view",
      "type": "function"
    },
    {
      "inputs": [
        {
          "internalType": "uint256",
          "name": "_nftId",
          "type": "uint256"
        }
      ],
      "name": "isEnded",
      "outputs": [
        {
          "internalType": "bool",
          "name": "",
          "type": "bool"
        }
      ],
      "stateMutability": "view",
      "type": "function"
    },
    {
      "inputs": [
        {
          "internalType": "uint256",
          "name": "nftId",
          "type": "uint256"
        }
      ],
      "name": "ownerOf",
      "outputs": [
        {
          "internalType": "address",
          "name": "",
          "type": "address"
        }
      ],
      "stateMutability": "view",
      "type": "function"
    },
    {
      "inputs": [
        {
          "internalType": "uint256",
          "name": "_nftId",
          "type": "uint256"
        }
      ],
      "name": "placeBid",
      "outputs": [],
      "stateMutability": "payable",
      "type": "function"
    },
    {
      "inputs": [
        {
          "internalType": "uint256",
          "name": "nftId",
          "type": "uint256"
        }
      ],
      "name": "setAuctionTime",
      "outputs": [],
      "stateMutability": "nonpayable",
      "type": "function"
    },
    {
      "inputs": [
        {
          "internalType": "uint256",
          "name": "_nftId",
          "type": "uint256"
        },
        {
          "internalType": "uint256",
          "name": "_minBid",
          "type": "uint256"
        }
      ],
      "name": "setMinBid",
      "outputs": [],
      "stateMutability": "nonpayable",
      "type": "function"
    },
    {
      "stateMutability": "payable",
      "type": "receive"
    }
  ],
  "bytecode": "0x608060405234801561001057600080fd5b506155f980620000216000396000f3fe60806040526004361061028f5760003560e01c806396b5a75511610156578063d2718b6d116100bf578063ecefb95511610079578063f8dd8d3711610061578063f8dd8d371461085c578063fabbcc681461087c578063fd9aa2cb1461088457005b8063ecefb955146107fc578063f1b424351461081c57005b8063dfab114b116100a7578063dfab114b14610791578063e0391b09146107c7578063e2afe8b3146107dc57005b8063d2718b6d1461075c578063d70981541461077157005b8063baa4e55711610110578063bf07e7c6116100f8578063bf07e7c6146106fa578063c26e748c1461071a578063c44e66401461074757005b8063baa4e557146106ad578063bb24aa43146106da57005b80639b84309b1161013e5780639b84309b1461062b578063a54c88991461064b578063b66f7a8b1461066b57005b806396b5a755146105f85780639979ef451461061857005b8063484eae10116101f857806370b4768e116101b25780637ea338891161019a5780637ea338891461057c578063839792461461059e57806395a81b8f146105cb57005b806370b4768e146104ce57806373df8a1b146104fb57005b80635fdac09c116101e05780635fdac09c1461045f5780636352211e146104745780636750bf97146104ac57005b8063484eae101461042c57806359f482711461043f57005b806333eb59191161024957806334db89e01161023157806334db89e01461037857806342966c68146103ec578063431f21da1461040c57005b806333eb591914610333578063345160381461036357005b80630f611e19116102775780630f611e19146102ed57806312065fe01461030d578063243adbdd1461032057005b8063040e55f5146102985780630b53ff3e146102c057005b3661029657005b005b3480156102a457600080fd5b506102ad610899565b6040519081526020015b60405180910390f35b3480156102cc57600080fd5b506102e06102db366004614eb9565b6108a9565b6040516102b79190614f22565b3480156102f957600080fd5b506102e0610308366004614eb9565b6109a9565b34801561031957600080fd5b50476102ad565b61029661032e366004614eb9565b610b00565b34801561033f57600080fd5b506102ad61034e366004614eb9565b6000908152600a602052604090206005015490565b34801561036f57600080fd5b506102ad610f11565b34801561038457600080fd5b506103d1610393366004614eb9565b604080518082019091526000808252602082015250600090815260086020908152604091829020825180840190935280548352600101549082015290565b604080518251815260209283015192810192909252016102b7565b3480156103f857600080fd5b50610296610407366004614eb9565b610f1c565b34801561041857600080fd5b50610296610427366004614f3c565b611177565b61029661043a366004614eb9565b6115c6565b34801561044b57600080fd5b5061029661045a366004614eb9565b6118b2565b34801561046b57600080fd5b506000546102ad565b34801561048057600080fd5b5061049461048f366004614eb9565b611a36565b6040516001600160a01b0390911681526020016102b7565b3480156104b857600080fd5b506104c1611aa4565b6040516102b79190614f6e565b3480156104da57600080fd5b506104ee6104e9366004614eb9565b611e57565b6040516102b79190614fc6565b34801561050757600080fd5b5061051b610516366004614eb9565b611eec565b6040516102b79190600060e0820190508251151582526020830151602083015260408301516040830152606083015160608301526080830151608083015260a083015160a08301526001600160a01b0360c08401511660c083015292915050565b34801561058857600080fd5b50610591611fa8565b6040516102b791906150d2565b3480156105aa57600080fd5b506102ad6105b9366004614eb9565b60009081526008602052604090205490565b3480156105d757600080fd5b506105eb6105e6366004614eb9565b61228a565b6040516102b79190615134565b34801561060457600080fd5b50610296610613366004614eb9565b6123f7565b610296610626366004614eb9565b61260a565b34801561063757600080fd5b50610296610646366004615147565b6129f3565b34801561065757600080fd5b50610296610666366004614eb9565b612b9d565b34801561067757600080fd5b5061069d610686366004614eb9565b6000908152600a6020526040902060020154421190565b60405190151581526020016102b7565b3480156106b957600080fd5b506106cd6106c8366004614eb9565b612bd1565b6040516102b79190615169565b3480156106e657600080fd5b506102966106f536600461526b565b612c51565b34801561070657600080fd5b50610296610715366004615147565b613122565b34801561072657600080fd5b506102ad610735366004614eb9565b60009081526005602052604090205490565b34801561075357600080fd5b506102ad6132ed565b34801561076857600080fd5b506105916132f8565b34801561077d57600080fd5b5061029661078c366004614eb9565b613569565b34801561079d57600080fd5b506104946107ac366004614eb9565b6000908152600660205260409020546001600160a01b031690565b3480156107d357600080fd5b506105916136f1565b3480156107e857600080fd5b506105916107f736600461530c565b61394c565b34801561080857600080fd5b50610296610817366004615147565b613bc6565b34801561082857600080fd5b5061083c610837366004614eb9565b613e90565b6040805194855260208501939093529183015260608201526080016102b7565b34801561086857600080fd5b506102ad610877366004614eb9565b613f2e565b610296613f55565b34801561089057600080fd5b506105916141b4565b60006108a460035490565b905090565b600081815260076020526040808220600301548151601280825281840190935260609391926020820181803683370190505090506000600e5b838160ff16602081106108f7576108f7615335565b1a60f81b7fff00000000000000000000000000000000000000000000000000000000000000161561099f57838160ff166020811061093757610937615335565b1a60f81b838360ff168151811061095057610950615335565b60200101907effffffffffffffffffffffffffffffffffffffffffffffffffffffffffffff1916908160001a9053508161098981615361565b925050808061099790615361565b9150506108e2565b5090949350505050565b60008181526007602052604080822060028101546003909101548251602e80825260608281019095529394929391929160208201818036833701905050905060005b60208160ff161015610a6657838160ff1660208110610a0c57610a0c615335565b1a60f81b828260ff1681518110610a2557610a25615335565b60200101907effffffffffffffffffffffffffffffffffffffffffffffffffffffffffffff1916908160001a90535080610a5e81615361565b9150506109eb565b50602060005b602e8260ff161015610af557838160ff1660208110610a8d57610a8d615335565b1a60f81b838360ff1681518110610aa657610aa6615335565b60200101907effffffffffffffffffffffffffffffffffffffffffffffffffffffffffffff1916908160001a90535080610adf81615361565b9150508180610aed90615361565b925050610a6c565b509095945050505050565b6000818152600860205260409020543414610b885760405162461bcd60e51b815260206004820152603760248201527f546f206275792074686973204e465420776974686f757420626964732c20796f60448201527f752073686f756c64207061792066756c6c20707269636500000000000000000060648201526084015b60405180910390fd5b6000818152600760205260409020600501546001600160a01b03163303610bf15760405162461bcd60e51b815260206004820152601960248201527f53656c6c65722063616e2774206275792074686973204e4654000000000000006044820152606401610b7f565b600081815260076020526040902060010154610100900460ff16610c575760405162461bcd60e51b815260206004820152601c60248201527f4e4654206973206e6f742073656c6c696e67207269676874206e6f77000000006044820152606401610b7f565b6000818152600760209081526040808320600101546008909252822054606491610c8b916201000090910460ff1690615380565b610c959190615397565b9050600081118015610cb4575060008281526009602052604090205415155b15610cc857610cc3828261441b565b610d8d565b600081118015610ce45750600082815260096020526040902054155b15610d8d57610cf2816145f7565b6000828152600760205260408082206005015490517f73656e74526f79616c7479546f43726561746f722065726f720000000000000081526001600160a01b0390911690839060190160006040518083038185875af1925050503d8060008114610d78576040519150601f19603f3d011682016040523d82523d6000602084013e610d7d565b606091505b5050905080610d8b57600080fd5b505b600082815260086020526040812054610da79083906153b9565b6000848152600760205260408082206005015490517f53656c6c65722065726f72000000000000000000000000000000000000000000815292935090916001600160a01b03909116908390600b0160006040518083038185875af1925050503d8060008114610e32576040519150601f19603f3d011682016040523d82523d6000602084013e610e37565b606091505b5050905080610e4557600080fd5b610e4e826145f7565b600084815260076020526040902060050154610e74906001600160a01b0316338661466a565b600084815260076020908152604080832060018101805461ff00191690556005015460088352928190205460025482516001600160a01b039095168552339385019390935283820152606083019190915260808201869052517f9bc40851c28662339b844c9d56e2248d22e2e3791cbff2491e9762a7c46aec4e9181900360a00190a1505050600090815260086020526040812081815560010155565b60006108a460025490565b6000818152600760205260409020600501546001600160a01b0316610f835760405162461bcd60e51b815260206004820152600f60248201527f556e617661696c61626c65204e465400000000000000000000000000000000006044820152606401610b7f565b600081815260076020526040902060010154610100900460ff1615610fea5760405162461bcd60e51b815260206004820152601260248201527f4e4654206e6f772069732073656c6c696e6700000000000000000000000000006044820152606401610b7f565b60008181526007602052604090206001015460ff161561104c5760405162461bcd60e51b815260206004820152601560248201527f4e4654206e6f77206973206f6e2041756374696f6e00000000000000000000006044820152606401610b7f565b6000818152600760205260409020600501546001600160a01b031633146110bf5760405162461bcd60e51b815260206004820152602160248201527f596f7520617265206e6f7420746865206f776e6572206f662074686973204e466044820152601560fa1b6064820152608401610b7f565b600081815260076020818152604080842060028101805486526004808552928620805460ff191690558686529390925283825560018201805462ffffff191690559183905560038101839055919061111990830182614e6b565b506005810180546001600160a01b031990811690915560069091018054909116905560408051338152602081018390527fcc16f5dbb4873280815c1ee09dbd06736cffcc184412cf7a71a0fdb75d397ca5910160405180910390a150565b336000818152600c602052604090205460ff16156111c85760405162461bcd60e51b815260206004820152600e60248201526d4e6f2072652d656e7472616e637960901b6044820152606401610b7f565b6001600160a01b0381166000908152600c60205260409020805460ff19166001179055836112475760405162461bcd60e51b815260206004820152602660248201527f4d696e696d616c2070726963652073686f756c6420626520677265617465722060448201526507468616e20360d41b6064820152608401610b7f565b3361125184611a36565b6001600160a01b0316816001600160a01b0316146112bb5760405162461bcd60e51b815260206004820152602160248201527f596f7520617265206e6f7420746865206f776e6572206f662074686973204e466044820152601560fa1b6064820152608401610b7f565b60008481526007602052604090206001015460ff161561131d5760405162461bcd60e51b815260206004820152601a60248201527f4e465420697320616c726561647920696e2041756374696f6e210000000000006044820152606401610b7f565b600084815260076020526040902060010154610100900460ff16156113845760405162461bcd60e51b815260206004820152601760248201527f4e465420697320616c7265616479206f6e2053616c65210000000000000000006044820152606401610b7f565b8486106113f95760405162461bcd60e51b815260206004820152603060248201527f53746172742070726963652063616e277420626520677265617465207468617460448201527f2066756c6c2073656c6c207072696365000000000000000000000000000000006064820152608401610b7f565b611407600180546001019055565b6040518060e00160405280600115158152602001858152602001848152602001428152602001878152602001868152602001826001600160a01b0316815250600a600086815260200190815260200160002060008201518160000160006101000a81548160ff0219169083151502179055506020820151816001015560408201518160020155606082015181600301556080820151816004015560a0820151816005015560c08201518160060160006101000a8154816001600160a01b0302191690836001600160a01b03160217905550905050806006600086815260200190815260200160002060006101000a8154816001600160a01b0302191690836001600160a01b0316021790555060016007600086815260200190815260200160002060010160006101000a81548160ff0219169083151502179055507f5e4dbe799442580e0983dedea209e02d0497b6e3383338a9e1ac3aa117b491ec8186868760405161159894939291906001600160a01b0394909416845260208401929092526040830152606082015260800190565b60405180910390a1506001600160a01b03166000908152600c60205260409020805460ff1916905550505050565b6000818152600a602052604090206002015442111561164d5760405162461bcd60e51b815260206004820152602d60248201527f41756374696f6e20697320616c72656164792066696e6973686564206f72206460448201527f6f65736e277420657869737473000000000000000000000000000000000000006064820152608401610b7f565b6000818152600a602052604090206005015434146116d35760405162461bcd60e51b815260206004820152603760248201527f546f206275792074686977204e465420776974686f757420626964732c20796f60448201527f752073686f756c64207061792066756c6c2070726963650000000000000000006064820152608401610b7f565b600081815260056020818152604080842054600a9092529092200154116117885760405162461bcd60e51b815260206004820152604260248201527f596f752063616e2774206275792074686973204e46542069662062696473206160448201527f726520616c7265616479206269676765722c207468616e2073656c6c2070726960648201527f6365000000000000000000000000000000000000000000000000000000000000608482015260a401610b7f565b6000818152600a60205260409020600601546001600160a01b031633036117f15760405162461bcd60e51b815260206004820152601f60248201527f41756374696f6e2063726561746f722063616e2774206d616b652062696473006044820152606401610b7f565b6000818152600a602090815260408083206005908101549252822080549192909161181d9084906153cc565b909155505060008181526006602090815260408083208054336001600160a01b03199182168117909255600b845282852083516060810185523481524281870190815294810193845281546001818101845592885295909620955160039095029095019384559151938301939093559151600290910180549092166001600160a01b039091161790556118af8161485a565b50565b336000818152600c602052604090205460ff16156119035760405162461bcd60e51b815260206004820152600e60248201526d4e6f2072652d656e7472616e637960901b6044820152606401610b7f565b6001600160a01b0381166000908152600c60205260409020805460ff191660011790553361193083611a36565b6001600160a01b0316146119865760405162461bcd60e51b815260206004820152601a60248201527f416c6c6f776564206f6e6c7920666f72204e4654206f776e65720000000000006044820152606401610b7f565b600082815260076020526040902060010154610100900460ff166119ec5760405162461bcd60e51b815260206004820152601560248201527f53616c65206973206e6f7420617661696c61626c6500000000000000000000006044820152606401610b7f565b60009182526007602090815260408084206001908101805461ff001916905560088352818520858155018490556001600160a01b039092168352600c90529020805460ff19169055565b6000818152600760205260408120600501546001600160a01b031680611a9e5760405162461bcd60e51b815260206004820152600e60248201527f496e76616c6964204e46542049440000000000000000000000000000000000006044820152606401610b7f565b92915050565b6060600080611ab260005490565b67ffffffffffffffff811115611aca57611aca6151c8565b604051908082528060200260200182016040528015611af3578160200160208202803683370190505b50905060015b6000548111611bd5576000818152600760205260409020600601546001600160a01b031680611b285750611bc3565b6000805b85811015611b8157826001600160a01b0316858281518110611b5057611b50615335565b60200260200101516001600160a01b031603611b6f5760019150611b81565b80611b79816153df565b915050611b2c565b5080611bc05781848681518110611b9a57611b9a615335565b6001600160a01b039092166020928302919091019091015284611bbc816153df565b9550505b50505b80611bcd816153df565b915050611af9565b5060008267ffffffffffffffff811115611bf157611bf16151c8565b604051908082528060200260200182016040528015611c3657816020015b6040805180820190915260008082526020820152815260200190600190039081611c0f5790505b50905060005b83811015611d23576000838281518110611c5857611c58615335565b60200260200101519050600080600190505b6000548111611cb7576000818152600760205260409020600601546001600160a01b03808516911603611ca55781611ca1816153df565b9250505b80611caf816153df565b915050611c6a565b5081848481518110611ccb57611ccb615335565b6020026020010151602001906001600160a01b031690816001600160a01b03168152505080848481518110611d0257611d02615335565b60209081029190910101515250819050611d1b816153df565b915050611c3c565b5060005b611d326001856153b9565b811015611e4f5760005b6001611d4883876153b9565b611d5291906153b9565b811015611e3c5782611d658260016153cc565b81518110611d7557611d75615335565b602002602001015160000151838281518110611d9357611d93615335565b6020026020010151600001511015611e2a5782611db18260016153cc565b81518110611dc157611dc1615335565b6020026020010151838281518110611ddb57611ddb615335565b6020026020010151848381518110611df557611df5615335565b6020026020010185846001611e0a91906153cc565b81518110611e1a57611e1a615335565b6020026020010182905282905250505b80611e34816153df565b915050611d3c565b5080611e47816153df565b915050611d27565b509392505050565b6060600b6000838152602001908152602001600020805480602002602001604051908101604052809291908181526020016000905b82821015611ee1576000848152602090819020604080516060810182526003860290920180548352600180820154848601526002909101546001600160a01b0316918301919091529083529092019101611e8c565b505050509050919050565b611f376040518060e00160405280600015158152602001600081526020016000815260200160008152602001600081526020016000815260200160006001600160a01b031681525090565b506000908152600a6020908152604091829020825160e081018452815460ff16151581526001820154928101929092526002810154928201929092526003820154606082015260048201546080820152600582015460a08201526006909101546001600160a01b031660c082015290565b60606000805b600054811161202b57600081815260076020526040902060010154610100900460ff1680611fed575060008181526007602052604090206001015460ff165b8015612006575060008181526007602052604090205415155b156120195781612015816153df565b9250505b80612023816153df565b915050611fae565b5060008167ffffffffffffffff811115612047576120476151c8565b6040519080825280602002602001820160405280156120bd57816020015b60408051610120810182526000808252602080830182905292820181905260608083018290526080830182905260a0830182905260c083015260e0820181905261010082015282526000199092019101816120655790505b5090506000915060005b600054811161228357600081815260076020526040902060010154610100900460ff1680612106575060008181526007602052604090206001015460ff165b801561211f575060008181526007602052604090205415155b156122715760008181526007602090815260409182902082516101208101845281548152600182015460ff8082161515948301949094526101008104841615159482019490945262010000909304909116606083015260028101546080830152600381015460a083015260048101805460c08401919061219e906153f8565b80601f01602080910402602001604051908101604052809291908181526020018280546121ca906153f8565b80156122175780601f106121ec57610100808354040283529160200191612217565b820191906000526020600020905b8154815290600101906020018083116121fa57829003601f168201915b505050918352505060058201546001600160a01b039081166020830152600690920154909116604090910152825183908590811061225757612257615335565b6020026020010181905250828061226d906153df565b9350505b8061227b816153df565b9150506120c7565b5092915050565b604080516101208101825260008082526020820181905291810182905260608082018390526080820183905260a0820183905260c082015260e0810182905261010081019190915260008281526007602090815260409182902082516101208101845281548152600182015460ff8082161515948301949094526101008104841615159482019490945262010000909304909116606083015260028101546080830152600381015460a083015260048101805460c08401919061234c906153f8565b80601f0160208091040260200160405190810160405280929190818152602001828054612378906153f8565b80156123c55780601f1061239a576101008083540402835291602001916123c5565b820191906000526020600020905b8154815290600101906020018083116123a857829003601f168201915b505050918352505060058201546001600160a01b03908116602083015260069092015490911660409091015292915050565b336000818152600c602052604090205460ff16156124485760405162461bcd60e51b815260206004820152600e60248201526d4e6f2072652d656e7472616e637960901b6044820152606401610b7f565b6001600160a01b0381166000908152600c60205260409020805460ff191660011790553361247583611a36565b6001600160a01b0316146124cb5760405162461bcd60e51b815260206004820152601a60248201527f416c6c6f776564206f6e6c7920666f72204e4654206f776e65720000000000006044820152606401610b7f565b60008281526007602052604090206001015460ff1661252c5760405162461bcd60e51b815260206004820152601860248201527f41756374696f6e206973206e6f7420617661696c61626c6500000000000000006044820152606401610b7f565b600082815260056020526040902054156125885760405162461bcd60e51b815260206004820152601860248201527f41756374696f6e2063616e27742062652063616e63656c6400000000000000006044820152606401610b7f565b60009182526007602090815260408084206001908101805460ff19908116909155600a845282862080548216815591820186905560028201869055600382018690556004820186905560058201869055600690910180546001600160a01b03191690556001600160a01b03939093168452600c90915290912080549091169055565b6000818152600a60205260409020600201544211156126915760405162461bcd60e51b815260206004820152602d60248201527f41756374696f6e20697320616c72656164792066696e6973686564206f72206460448201527f6f65736e277420657869737473000000000000000000000000000000000000006064820152608401610b7f565b6000818152600a602052604090206006015433906001600160a01b031681036126fc5760405162461bcd60e51b815260206004820152601f60248201527f41756374696f6e2063726561746f722063616e2774206d616b652062696473006044820152606401610b7f565b6000828152600a60209081526040808320600401546005909252909120543491612725916153cc565b8110156127745760405162461bcd60e51b815260206004820152601860248201527f596f75722062696420697320756e73756666696369656e7400000000000000006044820152606401610b7f565b604051600090309083908381818185875af1925050503d80600081146127b6576040519150601f19603f3d011682016040523d82523d6000602084013e6127bb565b606091505b505090508061280c5760405162461bcd60e51b815260206004820152600660248201527f6572726f723100000000000000000000000000000000000000000000000000006044820152606401610b7f565b60008481526006602090815260408083205460059092528083205490516001600160a01b03909216918381818185875af1925050503d806000811461286d576040519150601f19603f3d011682016040523d82523d6000602084013e612872565b606091505b50509050806128c35760405162461bcd60e51b815260206004820152600660248201527f6572726f723200000000000000000000000000000000000000000000000000006044820152606401610b7f565b60008581526005602090815260408083208690556006825280832080546001600160a01b03808a166001600160a01b031992831617909255600b845282852083516060810185523481524281870181815233838801908152845460018181018755958b52898b209451600390910290940193845590519383019390935591516002918201805491909516931692909217909255898552600a9093529220015461012c9161296f916153b9565b101561299d576000858152600a60205260408120600201805460b492906129979084906153cc565b90915550505b60408051868152602081018790526001600160a01b038616818301526060810185905290517f68ca22619736ce52a19d1b37cfeea709881038c1f6c94062b4cf60527b5e3a129181900360800190a15050505050565b6000828152600a60205260409020600601546001600160a01b03163314612a665760405162461bcd60e51b815260206004820152602160248201527f596f7520617265206e6f7420746865206f776e6572206f662074686973204e466044820152601560fa1b6064820152608401610b7f565b6000828152600a602052604090205460ff16612ac45760405162461bcd60e51b815260206004820152601860248201527f41756374696f6e206973206e6f7420617661696c61626c6500000000000000006044820152606401610b7f565b6000828152600a6020526040902060040154819003612b4b5760405162461bcd60e51b815260206004820152602f60248201527f596f7527726520747279696e67207365742074686520616c726561647920696e60448201527f7374616c6c6564206d696e2062696400000000000000000000000000000000006064820152608401610b7f565b6000828152600a602090815260409182902060040183905581518381529081018490527f10e824432bca887a0638381fc4c4c8c2ee186bb69b4813ad619f04a0da94a2e4910160405180910390a15050565b612ba84260646153cc565b6000828152600a602052604081206002018054909190612bc99084906153cc565b909155505050565b6000818152600960209081526040808320805482518185028101850190935280835260609492939192909184018215611ee1576000848152602090819020604080516060810182526003860290920180548352600180820154848601526002909101546001600160a01b0316918301919091529083529092019101611e8c565b336000818152600c602052604090205460ff1615612ca25760405162461bcd60e51b815260206004820152600e60248201526d4e6f2072652d656e7472616e637960901b6044820152606401610b7f565b6001600160a01b0381166000908152600c60205260409020805460ff191660011790558451602e14612d165760405162461bcd60e51b815260206004820152601660248201527f496e76616c6964204e465420696d6167652068617368000000000000000000006044820152606401610b7f565b6000845111612d675760405162461bcd60e51b815260206004820152601060248201527f496e76616c6964204e4654206e616d65000000000000000000000000000000006044820152606401610b7f565b6000835111612db85760405162461bcd60e51b815260206004820152601760248201527f496e76616c6964204e4654206465736372697074696f6e0000000000000000006044820152606401610b7f565b33612e055760405162461bcd60e51b815260206004820152600960248201527f41646472657373203000000000000000000000000000000000000000000000006044820152606401610b7f565b60148260ff161115612e7f5760405162461bcd60e51b815260206004820152602360248201527f6d6178696d756d206665652073686f756c64206265206c657373207468616e2060448201527f32302500000000000000000000000000000000000000000000000000000000006064820152608401610b7f565b6020858101516000818152600490925260409091205460ff1615612f315760405162461bcd60e51b815260206004820152604360248201527f496d6167652068617368206973206e6f7420756e697175652e20596f7520617260448201527f6520747279696e6720746f2075706c6f616420616e206578697374656420696d60648201527f6167650000000000000000000000000000000000000000000000000000000000608482015260a401610b7f565b6000808787604051602001612f47929190615432565b60408051601f1981840301815291815281015192509050612f6c600080546001019055565b604051806101200160405280612f8160005490565b81526020016000151581526020016000151581526020018660ff168152602001848152602001838152602001878152602001336001600160a01b03168152602001336001600160a01b031681525060076000612fdc60005490565b81526020808201929092526040908101600020835181559183015160018301805492850151606086015160ff16620100000262ff0000199115156101000261ff00199415159490941661ffff199095169490941792909217919091169190911790556080820151600282015560a0820151600382015560c0820151600482019061306690826154b0565b5060e08201516005820180546001600160a01b03199081166001600160a01b03938416179091556101009093015160069092018054909316911617905560008381526004602052604090819020805460ff19166001179055517f66b86f98fa6b1ee4ce95041a06ebceaa1c0a078864c2d67e2a974f116158844e906130f29033908b908b908b90615570565b60405180910390a15050506001600160a01b03166000908152600c60205260409020805460ff1916905550505050565b3361312c83611a36565b6001600160a01b0316146131825760405162461bcd60e51b815260206004820152601a60248201527f416c6c6f776564206f6e6c7920666f72204e4654206f776e65720000000000006044820152606401610b7f565b6000828152600a602052604090205460ff166131e05760405162461bcd60e51b815260206004820152601860248201527f41756374696f6e206973206e6f7420617661696c61626c6500000000000000006044820152606401610b7f565b600082815260056020526040902054156132885760405162461bcd60e51b815260206004820152604260248201527f596f752063616e2774206368616e676520746865207072696365206f66204e4660448201527f542c20796f7520736f6d65626f647920616c7265616479206d6164652061206260648201527f6964000000000000000000000000000000000000000000000000000000000000608482015260a401610b7f565b600081116132d85760405162461bcd60e51b815260206004820152601760248201527f796f752063616e2774206d616b65204e465420667265650000000000000000006044820152606401610b7f565b6000918252600a602052604090912060050155565b60006108a460015490565b60606000805b600054811161334657600081815260076020526040902060010154610100900460ff16156133345781613330816153df565b9250505b8061333e816153df565b9150506132fe565b5060008167ffffffffffffffff811115613362576133626151c8565b6040519080825280602002602001820160405280156133d857816020015b60408051610120810182526000808252602080830182905292820181905260608083018290526080830182905260a0830182905260c083015260e0820181905261010082015282526000199092019101816133805790505b5060009250905060015b600054811161228357600081815260076020526040902060010154610100900460ff16156135575760008181526007602090815260409182902082516101208101845281548152600182015460ff8082161515948301949094526101008104841615159482019490945262010000909304909116606083015260028101546080830152600381015460a083015260048101805460c084019190613484906153f8565b80601f01602080910402602001604051908101604052809291908181526020018280546134b0906153f8565b80156134fd5780601f106134d2576101008083540402835291602001916134fd565b820191906000526020600020905b8154815290600101906020018083116134e057829003601f168201915b505050918352505060058201546001600160a01b039081166020830152600690920154909116604090910152825183908590811061353d5761353d615335565b60200260200101819052508280613553906153df565b9350505b80613561816153df565b9150506133e2565b6000818152600a6020526040902060060154336001600160a01b039091160361359157600080fd5b6000818152600a602052604090205460ff166135ef5760405162461bcd60e51b815260206004820152601860248201527f41756374696f6e206973206e6f7420617661696c61626c6500000000000000006044820152606401610b7f565b6000818152600a6020526040902060020154421061364f5760405162461bcd60e51b815260206004820152601860248201527f41756374696f6e206973207374696c6c2072756e6e696e6700000000000000006044820152606401610b7f565b6000818152600a60205260409020600601546136769033906001600160a01b031683614d95565b6136e85760405162461bcd60e51b815260206004820152602260248201527f596f7520617265206e6f74207468652077696e6e6572206f662074686973204e60448201527f46540000000000000000000000000000000000000000000000000000000000006064820152608401610b7f565b6118af8161485a565b60606000805b60005481116137345760008181526007602052604090205415613722578161371e816153df565b9250505b8061372c816153df565b9150506136f7565b5060008167ffffffffffffffff811115613750576137506151c8565b6040519080825280602002602001820160405280156137c657816020015b60408051610120810182526000808252602080830182905292820181905260608083018290526080830182905260a0830182905260c083015260e08201819052610100820152825260001990920191018161376e5790505b5090506000915060005b6000548111612283576000818152600760205260409020541561393a5760008181526007602090815260409182902082516101208101845281548152600182015460ff8082161515948301949094526101008104841615159482019490945262010000909304909116606083015260028101546080830152600381015460a083015260048101805460c084019190613867906153f8565b80601f0160208091040260200160405190810160405280929190818152602001828054613893906153f8565b80156138e05780601f106138b5576101008083540402835291602001916138e0565b820191906000526020600020905b8154815290600101906020018083116138c357829003601f168201915b505050918352505060058201546001600160a01b039081166020830152600690920154909116604090910152825183908590811061392057613920615335565b60200260200101819052508280613936906153df565b9350505b80613944816153df565b9150506137d0565b6060600060015b60005481116139a0576000818152600760205260409020600501546001600160a01b0380861691160361398e578161398a816153df565b9250505b80613998816153df565b915050613953565b5060008167ffffffffffffffff8111156139bc576139bc6151c8565b604051908082528060200260200182016040528015613a3257816020015b60408051610120810182526000808252602080830182905292820181905260608083018290526080830182905260a0830182905260c083015260e0820181905261010082015282526000199092019101816139da5790505b509050600060015b600054811161099f576000818152600760205260409020600501546001600160a01b03808816911603613bb45760008181526007602090815260409182902082516101208101845281548152600182015460ff8082161515948301949094526101008104841615159482019490945262010000909304909116606083015260028101546080830152600381015460a083015260048101805460c084019190613ae1906153f8565b80601f0160208091040260200160405190810160405280929190818152602001828054613b0d906153f8565b8015613b5a5780601f10613b2f57610100808354040283529160200191613b5a565b820191906000526020600020905b815481529060010190602001808311613b3d57829003601f168201915b505050918352505060058201546001600160a01b0390811660208301526006909201549091166040909101528351849084908110613b9a57613b9a615335565b60200260200101819052508180613bb0906153df565b9250505b80613bbe816153df565b915050613a3a565b336000818152600c602052604090205460ff1615613c175760405162461bcd60e51b815260206004820152600e60248201526d4e6f2072652d656e7472616e637960901b6044820152606401610b7f565b6001600160a01b0381166000908152600c60209081526040808320805460ff191660019081179091558584526007909252909120015460ff1615613c9d5760405162461bcd60e51b815260206004820152601a60248201527f4e465420697320616c726561647920696e2041756374696f6e210000000000006044820152606401610b7f565b600082815260076020526040902060010154610100900460ff1615613d045760405162461bcd60e51b815260206004820152601760248201527f4e465420697320616c7265616479206f6e2053616c65210000000000000000006044820152606401610b7f565b60008311613d635760405162461bcd60e51b815260206004820152602660248201527f4d696e696d616c2070726963652073686f756c6420626520677265617465722060448201526507468616e20360d41b6064820152608401610b7f565b613d6c82611a36565b6001600160a01b0316336001600160a01b031614613dd65760405162461bcd60e51b815260206004820152602160248201527f596f7520617265206e6f7420746865206f776e6572206f662074686973204e466044820152601560fa1b6064820152608401610b7f565b604080518082018252848152426020808301918252600086815260088252848120935184559151600193840155600790529190912001805461ff001916610100179055613e27600280546001019055565b604080518381524260208201529081018490523360608201527fcd9b206d1405f2cf68cd4aaa665d590ed89ca3f1369bb7586aad6dad30a0c7589060800160405180910390a16001600160a01b03166000908152600c60205260409020805460ff191690555050565b6000818152600a60209081526040808320815160e081018352815460ff1615158152600182015493810193909352600281015491830182905260038101546060840181905260048201546080850152600582015460a08501526006909101546001600160a01b031660c084015283928392839290613f0e82826153b9565b428460400151613f1e91906153b9565b9450945094509450509193509193565b6000818152600a60209081526040808320600401546005909252822054611a9e91906153cc565b604051600090309034908381818185875af1925050503d8060008114613f97576040519150601f19603f3d011682016040523d82523d6000602084013e613f9c565b606091505b5050905080613faa57600080fd5b604080518082018252600c81527f3120706963206b6f7374696c00000000000000000000000000000000000000006020808301919091528251610120810184526000808252818301818152948201818152606083018281527f516d4e6f535670764a33646e4d773963413750725a687567637753397276344c608085018181527f4335436841716a44316e526f37375a45524f2050415449454e5400000000000060a0870181815260c088018a81523060e08a01819052610100808b0191909152978052600790995287517f6d5257204ebe7d88fd91ae87941cb2dd9d8062b64ae5a2bd2d28ec40b9fbf6df9081559a517f6d5257204ebe7d88fd91ae87941cb2dd9d8062b64ae5a2bd2d28ec40b9fbf6e080549751965160ff16620100000262ff00001997151590990261ff00199215159290921661ffff199098169790971717949094169590951790935591517f6d5257204ebe7d88fd91ae87941cb2dd9d8062b64ae5a2bd2d28ec40b9fbf6e155517f6d5257204ebe7d88fd91ae87941cb2dd9d8062b64ae5a2bd2d28ec40b9fbf6e255925192949093927f6d5257204ebe7d88fd91ae87941cb2dd9d8062b64ae5a2bd2d28ec40b9fbf6e39061417190826154b0565b5060e08201516005820180546001600160a01b03199081166001600160a01b03938416179091556101009093015160069092018054909316911617905550505050565b60606000805b60005481116141fd5760008181526007602052604090206001015460ff16156141eb57816141e7816153df565b9250505b806141f5816153df565b9150506141ba565b5060008167ffffffffffffffff811115614219576142196151c8565b60405190808252806020026020018201604052801561428f57816020015b60408051610120810182526000808252602080830182905292820181905260608083018290526080830182905260a0830182905260c083015260e0820181905261010082015282526000199092019101816142375790505b5090506000915060005b60005481116122835760008181526007602052604090206001015460ff16156144095760008181526007602090815260409182902082516101208101845281548152600182015460ff8082161515948301949094526101008104841615159482019490945262010000909304909116606083015260028101546080830152600381015460a083015260048101805460c084019190614336906153f8565b80601f0160208091040260200160405190810160405280929190818152602001828054614362906153f8565b80156143af5780601f10614384576101008083540402835291602001916143af565b820191906000526020600020905b81548152906001019060200180831161439257829003601f168201915b505050918352505060058201546001600160a01b03908116602083015260069092015490911660409091015282518390859081106143ef576143ef615335565b60200260200101819052508280614405906153df565b9350505b80614413816153df565b915050614299565b6000828152600960205260408120546144359060016153cc565b9050614440816145f7565b600061444c8284615397565b9050614457826145f7565b60005b6144656001846153b9565b81101561455657600085815260096020526040812080548390811061448c5761448c615335565b60009182526020909120600260039092020101546001600160a01b031690506144b481614dd8565b6000816001600160a01b0316846040516144f1907f53656e64696e6720746f2070726576696f7573204f776e6572206572726f72008152601f0190565b60006040518083038185875af1925050503d806000811461452e576040519150601f19603f3d011682016040523d82523d6000602084013e614533565b606091505b505090508061454157600080fd5b5050808061454e906153df565b91505061445a565b506000848152600760205260408082206006015490517f53656e64696e6720746f2063726561746f72206572726f72000000000000000081526001600160a01b0390911690839060180160006040518083038185875af1925050503d80600081146145dd576040519150601f19603f3d011682016040523d82523d6000602084013e6145e2565b606091505b50509050806145f057600080fd5b5050505050565b6118af8160405160240161460d91815260200190565b60408051601f198184030181529190526020810180517bffffffffffffffffffffffffffffffffffffffffffffffffffffffff167ff82c50f100000000000000000000000000000000000000000000000000000000179052614e4a565b826001600160a01b031661467d82611a36565b6001600160a01b0316146146d35760405162461bcd60e51b815260206004820152601d60248201527f7472616e736665722066726f6d20696e636f7272656374206f776e65720000006044820152606401610b7f565b6001600160a01b0382166147295760405162461bcd60e51b815260206004820152601c60248201527f7472616e7366657220746f20746865207a65726f2061646472657373000000006044820152606401610b7f565b600081815260076020526040812060010154610100900460ff161561475d575060008181526008602052604090205461476e565b506000818152600560205260409020545b600082815260096020908152604080832081516060810183524281528084018681526001600160a01b03808a16838601818152855460018181018855968a52888a2095516003918202909601958655935195850195909555935160029093018054939091166001600160a01b031993841617905587865260079094529190932060050180549091169092179091556148099080546001019055565b604080516001600160a01b038087168252851660208201529081018390527fddf252ad1be2c89b69c2b068fc378daa952ba7f163c4a11628f55a4df523b3ef9060600160405180910390a150505050565b336000818152600c602052604090205460ff16156148ab5760405162461bcd60e51b815260206004820152600e60248201526d4e6f2072652d656e7472616e637960901b6044820152606401610b7f565b6001600160a01b038082166000908152600c60209081526040808320805460ff19166001908117909155868452600a835292819020815160e081018352815460ff16151580825294820154938101939093526002810154918301919091526003810154606083015260048101546080830152600581015460a08301526006015490921660c083015261497f5760405162461bcd60e51b815260206004820152601860248201527f41756374696f6e206973206e6f7420617661696c61626c6500000000000000006044820152606401610b7f565b60008381526007602090815260408083206001015460089092528220546064916149b3916201000090910460ff1690615380565b6149bd9190615397565b90506000811180156149dc575060008481526009602052604090205415155b156149f0576149eb848261441b565b614ab5565b600081118015614a0c5750600084815260096020526040902054155b15614ab557614a1a816145f7565b6000848152600760205260408082206005015490517f73656e74526f79616c7479546f43726561746f722065726f720000000000000081526001600160a01b0390911690839060190160006040518083038185875af1925050503d8060008114614aa0576040519150601f19603f3d011682016040523d82523d6000602084013e614aa5565b606091505b5050905080614ab357600080fd5b505b600084815260056020526040812054614acf9083906153b9565b6000868152600760205260408082206005015490517f53656c6c65722065726f72000000000000000000000000000000000000000000815292935090916001600160a01b03909116908390600b0160006040518083038185875af1925050503d8060008114614b5a576040519150601f19603f3d011682016040523d82523d6000602084013e614b5f565b606091505b5050905080614b6d57600080fd5b60c084015160008781526006602090815260409091205490860151614b9c92916001600160a01b03169061466a565b60008681526009602090815260408083208151606080820184524282528b865260058552838620548286019081528c8752600680875285882080546001600160a01b03908116868901908152875460018082018a55988c528a8c20975160039091029097019687559351968601969096559151600290940180546001600160a01b0319169486169490941790935560c08b0151968d905291855290548985015184519684168752921693850193909352908301527fddf252ad1be2c89b69c2b068fc378daa952ba7f163c4a11628f55a4df523b3ef910160405180910390a160c08401516000878152600660209081526040808320546005835292819020548289015182516001600160a01b03968716815295909416928501929092528301526060820188905260808201527f3d3a66899db8385fd8af5fc229a533c64a8c8a994016aa79653b2029c5688e899060a00160405180910390a1505050600092835250600a60209081526040808420805460ff19908116825560018083018790556002830187905560038301879055600483018790556005808401889055600693840180546001600160a01b03199081169091559086528488208890559285528387208054909316909255600784528286209091018054821690556001600160a01b03939093168452600c90915290912080549091169055565b6000826001600160a01b0316846001600160a01b03161480614dd057506000828152600660205260409020546001600160a01b038581169116145b949350505050565b6040516001600160a01b03821660248201526118af9060440160408051601f198184030181529190526020810180517bffffffffffffffffffffffffffffffffffffffffffffffffffffffff167f2c2ecbc2000000000000000000000000000000000000000000000000000000001790525b80516a636f6e736f6c652e6c6f67602083016000808483855afa5050505050565b508054614e77906153f8565b6000825580601f10614e87575050565b601f0160209004906000526020600020908101906118af91905b80821115614eb55760008155600101614ea1565b5090565b600060208284031215614ecb57600080fd5b5035919050565b60005b83811015614eed578181015183820152602001614ed5565b50506000910152565b60008151808452614f0e816020860160208601614ed2565b601f01601f19169290920160200192915050565b602081526000614f356020830184614ef6565b9392505050565b60008060008060808587031215614f5257600080fd5b5050823594602084013594506040840135936060013592509050565b602080825282518282018190526000919060409081850190868401855b82811015614fb9578151805185528601516001600160a01b0316868501529284019290850190600101614f8b565b5091979650505050505050565b6020808252825182820181905260009190848201906040850190845b818110156150255761501283855180518252602080820151908301526040908101516001600160a01b0316910152565b9284019260609290920191600101614fe2565b50909695505050505050565b6000610120825184526020830151151560208501526040830151615059604086018215159052565b50606083015161506e606086018260ff169052565b506080830151608085015260a083015160a085015260c08301518160c086015261509a82860182614ef6565b91505060e08301516150b760e08601826001600160a01b03169052565b50610100838101516001600160a01b0381168683015261099f565b6000602080830181845280855180835260408601915060408160051b870101925083870160005b8281101561512757603f19888603018452615115858351615031565b945092850192908501906001016150f9565b5092979650505050505050565b602081526000614f356020830184615031565b6000806040838503121561515a57600080fd5b50508035926020909101359150565b6020808252825182820181905260009190848201906040850190845b81811015615025576151b583855180518252602080820151908301526040908101516001600160a01b0316910152565b9284019260609290920191600101615185565b634e487b7160e01b600052604160045260246000fd5b600082601f8301126151ef57600080fd5b813567ffffffffffffffff8082111561520a5761520a6151c8565b604051601f8301601f19908116603f01168101908282118183101715615232576152326151c8565b8160405283815286602085880101111561524b57600080fd5b836020870160208301376000602085830101528094505050505092915050565b6000806000806080858703121561528157600080fd5b843567ffffffffffffffff8082111561529957600080fd5b6152a5888389016151de565b955060208701359150808211156152bb57600080fd5b6152c7888389016151de565b945060408701359150808211156152dd57600080fd5b506152ea878288016151de565b925050606085013560ff8116811461530157600080fd5b939692955090935050565b60006020828403121561531e57600080fd5b81356001600160a01b0381168114614f3557600080fd5b634e487b7160e01b600052603260045260246000fd5b634e487b7160e01b600052601160045260246000fd5b600060ff821660ff81036153775761537761534b565b60010192915050565b8082028115828204841417611a9e57611a9e61534b565b6000826153b457634e487b7160e01b600052601260045260246000fd5b500490565b81810381811115611a9e57611a9e61534b565b80820180821115611a9e57611a9e61534b565b6000600182016153f1576153f161534b565b5060010190565b600181811c9082168061540c57607f821691505b60208210810361542c57634e487b7160e01b600052602260045260246000fd5b50919050565b60008351615444818460208801614ed2565b835190830190615458818360208801614ed2565b01949350505050565b601f8211156154ab57600081815260208120601f850160051c810160208610156154885750805b601f850160051c820191505b818110156154a757828155600101615494565b5050505b505050565b815167ffffffffffffffff8111156154ca576154ca6151c8565b6154de816154d884546153f8565b84615461565b602080601f83116001811461551357600084156154fb5750858301515b600019600386901b1c1916600185901b1785556154a7565b600085815260208120601f198616915b8281101561554257888601518255948401946001909101908401615523565b50858210156155605787850151600019600388901b60f8161c191681555b5050505050600190811b01905550565b6001600160a01b03851681526080602082015260006155926080830186614ef6565b82810360408401526155a48186614ef6565b905082810360608401526155b88185614ef6565b97965050505050505056fea26469706673582212206d224ad9df2c2b30518de6d7bd1106b2e34ada2a8cc99fbb0235821156c8277c64736f6c63430008110033",
  "linkReferences": {},
  "deployedLinkReferences": {},
  "networkType": "ethereum"
}