{"contracts/Auction.sol":{"Auction":{"abi":[{"anonymous":false,"inputs":[{"indexed":false,"internalType":"address","name":"nftOwner","type":"address"},{"indexed":false,"internalType":"uint256","name":"nftId","type":"uint256"}],"name":"Burn","type":"event"},{"anonymous":false,"inputs":[{"indexed":false,"internalType":"address","name":"creator","type":"address"},{"indexed":false,"internalType":"uint256","name":"startedPrice","type":"uint256"},{"indexed":false,"internalType":"uint256","name":"auctionId","type":"uint256"},{"indexed":false,"internalType":"uint256","name":"nftId","type":"uint256"}],"name":"CreateAuction","type":"event"},{"anonymous":false,"inputs":[{"indexed":false,"internalType":"address","name":"nftCreator","type":"address"},{"indexed":false,"internalType":"string","name":"imageHash","type":"string"},{"indexed":false,"internalType":"string","name":"imageName","type":"string"},{"indexed":false,"internalType":"string","name":"description","type":"string"}],"name":"CreateNFT","type":"event"},{"anonymous":false,"inputs":[{"indexed":false,"internalType":"uint256","name":"nftId","type":"uint256"},{"indexed":false,"internalType":"uint256","name":"createdAt","type":"uint256"},{"indexed":false,"internalType":"uint256","name":"price","type":"uint256"},{"indexed":false,"internalType":"address","name":"nftOwner","type":"address"}],"name":"CreateSaleNFT","type":"event"},{"anonymous":false,"inputs":[{"indexed":false,"internalType":"address","name":"seller","type":"address"},{"indexed":false,"internalType":"address","name":"buyer","type":"address"},{"indexed":false,"internalType":"uint256","name":"finalPrice","type":"uint256"},{"indexed":false,"internalType":"uint256","name":"auctionCounter","type":"uint256"},{"indexed":false,"internalType":"uint256","name":"nftId","type":"uint256"}],"name":"EndAuction","type":"event"},{"anonymous":false,"inputs":[{"indexed":false,"internalType":"uint256","name":"auctionId","type":"uint256"},{"indexed":false,"internalType":"uint256","name":"nftId","type":"uint256"},{"indexed":false,"internalType":"address","name":"bidder","type":"address"},{"indexed":false,"internalType":"uint256","name":"amount","type":"uint256"}],"name":"NewBid","type":"event"},{"anonymous":false,"inputs":[{"indexed":false,"internalType":"address","name":"seller","type":"address"},{"indexed":false,"internalType":"address","name":"buyer","type":"address"},{"indexed":false,"internalType":"uint256","name":"price","type":"uint256"},{"indexed":false,"internalType":"uint256","name":"sellCounter","type":"uint256"},{"indexed":false,"internalType":"uint256","name":"nftId","type":"uint256"}],"name":"SellNft","type":"event"},{"anonymous":false,"inputs":[{"indexed":false,"internalType":"uint256","name":"newMinBid","type":"uint256"},{"indexed":false,"internalType":"uint256","name":"auctionId","type":"uint256"}],"name":"SetMinimalBid","type":"event"},{"anonymous":false,"inputs":[{"indexed":false,"internalType":"address","name":"from","type":"address"},{"indexed":false,"internalType":"address","name":"to","type":"address"},{"indexed":false,"internalType":"uint256","name":"nftId","type":"uint256"}],"name":"Transfer","type":"event"},{"stateMutability":"payable","type":"fallback"},{"inputs":[{"internalType":"uint256","name":"_nftId","type":"uint256"}],"name":"_burn","outputs":[],"stateMutability":"nonpayable","type":"function"},{"inputs":[{"internalType":"uint256","name":"_nftId","type":"uint256"}],"name":"buyAuctionNft","outputs":[],"stateMutability":"payable","type":"function"},{"inputs":[{"internalType":"uint256","name":"_nftId","type":"uint256"}],"name":"buyNft","outputs":[],"stateMutability":"payable","type":"function"},{"inputs":[{"internalType":"uint256","name":"_nftId","type":"uint256"}],"name":"cancelAuction","outputs":[],"stateMutability":"nonpayable","type":"function"},{"inputs":[{"internalType":"uint256","name":"_nftId","type":"uint256"}],"name":"cancelSellNft","outputs":[],"stateMutability":"nonpayable","type":"function"},{"inputs":[{"internalType":"uint256","name":"_nftId","type":"uint256"},{"internalType":"uint256","name":"_newPrice","type":"uint256"}],"name":"changeAuctionNftPrice","outputs":[],"stateMutability":"nonpayable","type":"function"},{"inputs":[{"internalType":"uint256","name":"_nftId","type":"uint256"}],"name":"claimPrize","outputs":[],"stateMutability":"nonpayable","type":"function"},{"inputs":[{"internalType":"uint256","name":"_startingPrice","type":"uint256"},{"internalType":"uint256","name":"_sellPrice","type":"uint256"},{"internalType":"uint256","name":"_nftId","type":"uint256"},{"internalType":"uint16","name":"_auctionTime","type":"uint16"}],"name":"createAuction","outputs":[],"stateMutability":"nonpayable","type":"function"},{"inputs":[{"internalType":"string","name":"_imageHash","type":"string"},{"internalType":"string","name":"_title","type":"string"},{"internalType":"string","name":"_description","type":"string"},{"internalType":"uint8","name":"_royaltyFee","type":"uint8"}],"name":"createNFT","outputs":[],"stateMutability":"nonpayable","type":"function"},{"inputs":[{"internalType":"uint256","name":"_sellPrice","type":"uint256"},{"internalType":"uint256","name":"_nftId","type":"uint256"}],"name":"createSellNft","outputs":[],"stateMutability":"nonpayable","type":"function"},{"inputs":[],"name":"getAllNFTs","outputs":[{"components":[{"internalType":"uint256","name":"id","type":"uint256"},{"internalType":"bool","name":"onAuction","type":"bool"},{"internalType":"bool","name":"onSale","type":"bool"},{"internalType":"uint8","name":"royaltyFee","type":"uint8"},{"internalType":"bytes32","name":"PartOfMetadataURI","type":"bytes32"},{"internalType":"bytes32","name":"PartOfMetadataURIAndName","type":"bytes32"},{"internalType":"string","name":"description","type":"string"},{"internalType":"address","name":"owner","type":"address"},{"internalType":"address","name":"creator","type":"address"}],"internalType":"struct Auction.NFT[]","name":"","type":"tuple[]"}],"stateMutability":"view","type":"function"},{"inputs":[],"name":"getAuctionCount","outputs":[{"internalType":"uint256","name":"","type":"uint256"}],"stateMutability":"view","type":"function"},{"inputs":[{"internalType":"uint256","name":"_nftId","type":"uint256"}],"name":"getAuctionHighestBid","outputs":[{"internalType":"uint256","name":"","type":"uint256"}],"stateMutability":"view","type":"function"},{"inputs":[{"internalType":"uint256","name":"_nftId","type":"uint256"}],"name":"getAuctionHighestBidder","outputs":[{"internalType":"address","name":"","type":"address"}],"stateMutability":"view","type":"function"},{"inputs":[{"internalType":"uint256","name":"_nftId","type":"uint256"}],"name":"getAuctionInfoById","outputs":[{"components":[{"internalType":"bool","name":"progress","type":"bool"},{"internalType":"uint256","name":"nftId","type":"uint256"},{"internalType":"uint256","name":"endTime","type":"uint256"},{"internalType":"uint256","name":"startedTime","type":"uint256"},{"internalType":"uint256","name":"minBid","type":"uint256"},{"internalType":"uint256","name":"salePrice","type":"uint256"},{"internalType":"address","name":"nftOwner","type":"address"}],"internalType":"struct Auction.AuctionInfo","name":"","type":"tuple"}],"stateMutability":"view","type":"function"},{"inputs":[{"internalType":"uint256","name":"auctionId","type":"uint256"}],"name":"getAuctionNFTprice","outputs":[{"internalType":"uint256","name":"","type":"uint256"}],"stateMutability":"view","type":"function"},{"inputs":[],"name":"getAuctionNFTs","outputs":[{"components":[{"internalType":"uint256","name":"id","type":"uint256"},{"internalType":"bool","name":"onAuction","type":"bool"},{"internalType":"bool","name":"onSale","type":"bool"},{"internalType":"uint8","name":"royaltyFee","type":"uint8"},{"internalType":"bytes32","name":"PartOfMetadataURI","type":"bytes32"},{"internalType":"bytes32","name":"PartOfMetadataURIAndName","type":"bytes32"},{"internalType":"string","name":"description","type":"string"},{"internalType":"address","name":"owner","type":"address"},{"internalType":"address","name":"creator","type":"address"}],"internalType":"struct Auction.NFT[]","name":"","type":"tuple[]"}],"stateMutability":"view","type":"function"},{"inputs":[{"internalType":"uint256","name":"_nftId","type":"uint256"}],"name":"getAuctionTime","outputs":[{"internalType":"uint256","name":"","type":"uint256"},{"internalType":"uint256","name":"","type":"uint256"},{"internalType":"uint256","name":"","type":"uint256"},{"internalType":"uint256","name":"","type":"uint256"}],"stateMutability":"view","type":"function"},{"inputs":[],"name":"getBalance","outputs":[{"internalType":"uint256","name":"","type":"uint256"}],"stateMutability":"view","type":"function"},{"inputs":[],"name":"getNFTcount","outputs":[{"internalType":"uint256","name":"","type":"uint256"}],"stateMutability":"view","type":"function"},{"inputs":[{"internalType":"uint256","name":"nftId","type":"uint256"}],"name":"getNFThistory","outputs":[{"components":[{"internalType":"uint256","name":"time","type":"uint256"},{"internalType":"uint256","name":"sellPrice","type":"uint256"},{"internalType":"address","name":"boughtBy","type":"address"}],"internalType":"struct Auction.NFThistory[]","name":"","type":"tuple[]"}],"stateMutability":"view","type":"function"},{"inputs":[{"internalType":"uint256","name":"_nftId","type":"uint256"}],"name":"getNftById","outputs":[{"components":[{"internalType":"uint256","name":"id","type":"uint256"},{"internalType":"bool","name":"onAuction","type":"bool"},{"internalType":"bool","name":"onSale","type":"bool"},{"internalType":"uint8","name":"royaltyFee","type":"uint8"},{"internalType":"bytes32","name":"PartOfMetadataURI","type":"bytes32"},{"internalType":"bytes32","name":"PartOfMetadataURIAndName","type":"bytes32"},{"internalType":"string","name":"description","type":"string"},{"internalType":"address","name":"owner","type":"address"},{"internalType":"address","name":"creator","type":"address"}],"internalType":"struct Auction.NFT","name":"","type":"tuple"}],"stateMutability":"view","type":"function"},{"inputs":[{"internalType":"string","name":"_imageHash","type":"string"}],"name":"getNftIdByImageHash","outputs":[{"internalType":"uint256","name":"","type":"uint256"}],"stateMutability":"view","type":"function"},{"inputs":[{"internalType":"uint256","name":"_nftId","type":"uint256"}],"name":"getNftPicHash","outputs":[{"internalType":"string","name":"","type":"string"}],"stateMutability":"view","type":"function"},{"inputs":[{"internalType":"uint256","name":"_nftId","type":"uint256"}],"name":"getNftPicName","outputs":[{"internalType":"string","name":"","type":"string"}],"stateMutability":"view","type":"function"},{"inputs":[{"internalType":"uint256","name":"_nftId","type":"uint256"}],"name":"getNftSaleInfoById","outputs":[{"components":[{"internalType":"uint256","name":"price","type":"uint256"},{"internalType":"uint256","name":"createdAt","type":"uint256"}],"internalType":"struct Auction.SaleInfo","name":"","type":"tuple"}],"stateMutability":"view","type":"function"},{"inputs":[{"internalType":"uint256","name":"_nftId","type":"uint256"}],"name":"getNftSalepriceById","outputs":[{"internalType":"uint256","name":"","type":"uint256"}],"stateMutability":"view","type":"function"},{"inputs":[],"name":"getSaleNFTs","outputs":[{"components":[{"internalType":"uint256","name":"id","type":"uint256"},{"internalType":"bool","name":"onAuction","type":"bool"},{"internalType":"bool","name":"onSale","type":"bool"},{"internalType":"uint8","name":"royaltyFee","type":"uint8"},{"internalType":"bytes32","name":"PartOfMetadataURI","type":"bytes32"},{"internalType":"bytes32","name":"PartOfMetadataURIAndName","type":"bytes32"},{"internalType":"string","name":"description","type":"string"},{"internalType":"address","name":"owner","type":"address"},{"internalType":"address","name":"creator","type":"address"}],"internalType":"struct Auction.NFT[]","name":"","type":"tuple[]"}],"stateMutability":"view","type":"function"},{"inputs":[],"name":"getSellCount","outputs":[{"internalType":"uint256","name":"","type":"uint256"}],"stateMutability":"view","type":"function"},{"inputs":[],"name":"getTest","outputs":[{"internalType":"uint256","name":"","type":"uint256"}],"stateMutability":"view","type":"function"},{"inputs":[],"name":"getTransferCount","outputs":[{"internalType":"uint256","name":"","type":"uint256"}],"stateMutability":"view","type":"function"},{"inputs":[],"name":"getUserNFTs","outputs":[{"components":[{"internalType":"uint256","name":"id","type":"uint256"},{"internalType":"bool","name":"onAuction","type":"bool"},{"internalType":"bool","name":"onSale","type":"bool"},{"internalType":"uint8","name":"royaltyFee","type":"uint8"},{"internalType":"bytes32","name":"PartOfMetadataURI","type":"bytes32"},{"internalType":"bytes32","name":"PartOfMetadataURIAndName","type":"bytes32"},{"internalType":"string","name":"description","type":"string"},{"internalType":"address","name":"owner","type":"address"},{"internalType":"address","name":"creator","type":"address"}],"internalType":"struct Auction.NFT[]","name":"","type":"tuple[]"}],"stateMutability":"view","type":"function"},{"inputs":[{"internalType":"uint256","name":"_nftId","type":"uint256"}],"name":"isEnded","outputs":[{"internalType":"bool","name":"","type":"bool"}],"stateMutability":"view","type":"function"},{"inputs":[{"internalType":"uint256","name":"nftId","type":"uint256"}],"name":"ownerOf","outputs":[{"internalType":"address","name":"","type":"address"}],"stateMutability":"view","type":"function"},{"inputs":[{"internalType":"uint256","name":"_nftId","type":"uint256"}],"name":"placeBid","outputs":[],"stateMutability":"payable","type":"function"},{"inputs":[{"internalType":"uint256","name":"_nftId","type":"uint256"},{"internalType":"uint256","name":"_minBid","type":"uint256"}],"name":"setMinBid","outputs":[],"stateMutability":"nonpayable","type":"function"},{"stateMutability":"payable","type":"receive"}],"devdoc":{"kind":"dev","methods":{},"version":1},"evm":{"bytecode":{"linkReferences":{},"object":"608060405234801561001057600080fd5b50614900806100206000396000f3fe60806040526004361061022f5760003560e01c80639b1f9e7411610126578063d1c09173116100a7578063e0391b0911610079578063f1b4243511610061578063f1b424351461074e578063fd9aa2cb1461078e578063fdc5ab8e146107a357005b8063e0391b0914610719578063ecefb9551461072e57005b8063d1c0917314610681578063d2718b6d146106a1578063d7098154146106c3578063dfab114b146106e357005b8063baa4e557116100f8578063bf07e7c6116100e0578063bf07e7c61461061f578063c26e748c1461063f578063c44e66401461066c57005b8063baa4e557146105d2578063bb24aa43146105ff57005b80639b1f9e741461053a5780639b84309b1461055a578063a8cd0a801461057a578063b66f7a8b1461059057005b8063484eae10116101b057806373df8a1b1161018257806395a81b8f1161016a57806395a81b8f146104da57806396b5a755146105075780639979ef451461052757005b806373df8a1b1461042c57806383979246146104ad57005b8063484eae10146103ac57806359f48271146103bf5780635fdac09c146103df5780636352211e146103f457005b8063243adbdd1161020157806333eb5919116101e957806333eb5919146102f3578063345160381461032357806334db89e01461033857005b8063243adbdd146102c0578063306466a0146102d357005b8063040e55f5146102385780630b53ff3e146102605780630f611e191461028d57806312065fe0146102ad57005b3661023657005b005b34801561024457600080fd5b5061024d6107b8565b6040519081526020015b60405180910390f35b34801561026c57600080fd5b5061028061027b366004614224565b6107c8565b604051610257919061428d565b34801561029957600080fd5b506102806102a8366004614224565b6108c8565b3480156102b957600080fd5b504761024d565b6102366102ce366004614224565b610a1f565b3480156102df57600080fd5b506102366102ee3660046142a7565b610d21565b3480156102ff57600080fd5b5061024d61030e366004614224565b6000908152600b602052604090206005015490565b34801561032f57600080fd5b5061024d611094565b34801561034457600080fd5b50610391610353366004614224565b604080518082019091526000808252602082015250600090815260096020908152604091829020825180840190935280548352600101549082015290565b60408051825181526020928301519281019290925201610257565b6102366103ba366004614224565b61109f565b3480156103cb57600080fd5b506102366103da366004614224565b611439565b3480156103eb57600080fd5b5060005461024d565b34801561040057600080fd5b5061041461040f366004614224565b6115bd565b6040516001600160a01b039091168152602001610257565b34801561043857600080fd5b5061044c610447366004614224565b61162b565b6040516102579190600060e0820190508251151582526020830151602083015260408301516040830152606083015160608301526080830151608083015260a083015160a08301526001600160a01b0360c08401511660c083015292915050565b3480156104b957600080fd5b5061024d6104c8366004614224565b60009081526009602052604090205490565b3480156104e657600080fd5b506104fa6104f5366004614224565b6116e7565b6040516102579190614390565b34801561051357600080fd5b50610236610522366004614224565b611854565b610236610535366004614224565b611a67565b34801561054657600080fd5b50610236610555366004614224565b611e20565b34801561056657600080fd5b506102366105753660046143a3565b612083565b34801561058657600080fd5b506222cf7961024d565b34801561059c57600080fd5b506105c26105ab366004614224565b6000908152600b6020526040902060020154421190565b6040519015158152602001610257565b3480156105de57600080fd5b506105f26105ed366004614224565b61222d565b60405161025791906143c5565b34801561060b57600080fd5b5061023661061a3660046144ca565b6122c2565b34801561062b57600080fd5b5061023661063a3660046143a3565b6127d0565b34801561064b57600080fd5b5061024d61065a366004614224565b60009081526005602052604090205490565b34801561067857600080fd5b5061024d61299b565b34801561068d57600080fd5b5061024d61069c366004614560565b6129a6565b3480156106ad57600080fd5b506106b66129f5565b6040516102579190614595565b3480156106cf57600080fd5b506102366106de366004614224565b612c6d565b3480156106ef57600080fd5b506104146106fe366004614224565b6000908152600660205260409020546001600160a01b031690565b34801561072557600080fd5b506106b6612df5565b34801561073a57600080fd5b506102366107493660046143a3565b613027565b34801561075a57600080fd5b5061076e610769366004614224565b6132f1565b604080519485526020850193909352918301526060820152608001610257565b34801561079a57600080fd5b506106b661338f565b3480156107af57600080fd5b506106b66135f6565b60006107c360035490565b905090565b600081815260086020526040808220600301548151601280825281840190935260609391926020820181803683370190505090506000600e5b838160ff1660208110610816576108166145f7565b1a60f81b7fff0000000000000000000000000000000000000000000000000000000000000016156108be57838160ff1660208110610856576108566145f7565b1a60f81b838360ff168151811061086f5761086f6145f7565b60200101907effffffffffffffffffffffffffffffffffffffffffffffffffffffffffffff1916908160001a905350816108a881614623565b92505080806108b690614623565b915050610801565b5090949350505050565b60008181526008602052604080822060028101546003909101548251602e80825260608281019095529394929391929160208201818036833701905050905060005b60208160ff16101561098557838160ff166020811061092b5761092b6145f7565b1a60f81b828260ff1681518110610944576109446145f7565b60200101907effffffffffffffffffffffffffffffffffffffffffffffffffffffffffffff1916908160001a9053508061097d81614623565b91505061090a565b50602060005b602e8260ff161015610a1457838160ff16602081106109ac576109ac6145f7565b1a60f81b838360ff16815181106109c5576109c56145f7565b60200101907effffffffffffffffffffffffffffffffffffffffffffffffffffffffffffff1916908160001a905350806109fe81614623565b9150508180610a0c90614623565b92505061098b565b509095945050505050565b6000818152600960205260409020543414610aa75760405162461bcd60e51b815260206004820152603760248201527f546f206275792074686973204e465420776974686f757420626964732c20796f60448201527f752073686f756c64207061792066756c6c20707269636500000000000000000060648201526084015b60405180910390fd5b6000818152600860205260409020600501546001600160a01b03163303610b105760405162461bcd60e51b815260206004820152601f60248201527f41756374696f6e2063726561746f722063616e2774206d616b652062696473006044820152606401610a9e565b600081815260086020526040902060010154610100900460ff16610b765760405162461bcd60e51b815260206004820152601c60248201527f4e4654206973206e6f742073656c6c696e67207269676874206e6f77000000006044820152606401610a9e565b60008181526008602052604090206001015462010000900460ff1615610ba057610ba0813461386f565b6000818152600860209081526040808320600101546009909252822054606491610bd4916201000090910460ff1690614642565b610bde9190614659565b600083815260096020526040902054610bf7919061467b565b60008381526008602052604080822060050154905192935090916001600160a01b039091169083908381818185875af1925050503d8060008114610c57576040519150601f19603f3d011682016040523d82523d6000602084013e610c5c565b606091505b5050905080610c6a57600080fd5b600083815260086020526040902060050154610c90906001600160a01b031633856139e9565b60008381526008602090815260408083206001808201805461ff001916905560098452828520858155018490556005015460025482516001600160a01b039092168252339382019390935280820193909352606083019190915260808201859052517f9bc40851c28662339b844c9d56e2248d22e2e3791cbff2491e9762a7c46aec4e9181900360a00190a1505050565b336000818152600d602052604090205460ff1615610d725760405162461bcd60e51b815260206004820152600e60248201526d4e6f2072652d656e7472616e637960901b6044820152606401610a9e565b6001600160a01b0381166000908152600d60205260409020805460ff1916600117905583610df15760405162461bcd60e51b815260206004820152602660248201527f4d696e696d616c2070726963652073686f756c6420626520677265617465722060448201526507468616e20360d41b6064820152608401610a9e565b33610dfb846115bd565b6001600160a01b0316816001600160a01b031614610e655760405162461bcd60e51b815260206004820152602160248201527f596f7520617265206e6f7420746865206f776e6572206f662074686973204e466044820152601560fa1b6064820152608401610a9e565b60008481526008602052604090206001015460ff1615610ec75760405162461bcd60e51b815260206004820152601a60248201527f4e465420697320616c726561647920696e2041756374696f6e210000000000006044820152606401610a9e565b600084815260086020526040902060010154610100900460ff1615610f2e5760405162461bcd60e51b815260206004820152601760248201527f4e465420697320616c7265616479206f6e2053616c65210000000000000000006044820152606401610a9e565b610f3c600180546001019055565b6040805160e0810182526001815260208101869052908101610f5f85603c61468e565b610f6d9061ffff16426146b4565b81524260208083019190915260408083018a905260608084018a90526001600160a01b03868116608095860181905260008b8152600b86528481208851815490151560ff19918216178255898801516001808401919091558a88015160028401558a87015160038401558a8a0151600484015560a08b0151600584015560c0909a015160069283018054919096166001600160a01b03199182161790955590875285822080549094168317909355600886528490208701805490921690961790558151948552918401899052830187905282018690527f5e4dbe799442580e0983dedea209e02d0497b6e3383338a9e1ac3aa117b491ec910160405180910390a1506001600160a01b03166000908152600d60205260409020805460ff1916905550505050565b60006107c360025490565b6110dd6040518060400160405280601281526020017f2d2d2d2d2d2d2d2d2d2d2d2d2d2d2d2d2d2d0000000000000000000000000000815250613bd9565b6110e634613c4a565b6111246040518060400160405280601281526020017f2d2d2d2d2d2d2d2d2d2d2d2d2d2d2d2d2d2d0000000000000000000000000000815250613bd9565b6000818152600b602052604090206005015461113f90613c4a565b61117d6040518060400160405280601281526020017f2d2d2d2d2d2d2d2d2d2d2d2d2d2d2d2d2d2d0000000000000000000000000000815250613bd9565b6000818152600b60205260409020600201544211156112045760405162461bcd60e51b815260206004820152602d60248201527f41756374696f6e20697320616c72656164792066696e6973686564206f72206460448201527f6f65736e277420657869737473000000000000000000000000000000000000006064820152608401610a9e565b6000818152600b6020526040902060050154341461128a5760405162461bcd60e51b815260206004820152603760248201527f546f206275792074686977204e465420776974686f757420626964732c20796f60448201527f752073686f756c64207061792066756c6c2070726963650000000000000000006064820152608401610a9e565b600081815260056020818152604080842054600b90925290922001541161133f5760405162461bcd60e51b815260206004820152604260248201527f596f752063616e2774206275792074686973204e46542069662062696473206160448201527f726520616c7265616479206269676765722c207468616e2073656c6c2070726960648201527f6365000000000000000000000000000000000000000000000000000000000000608482015260a401610a9e565b6000818152600b60205260409020600601546001600160a01b031633036113a85760405162461bcd60e51b815260206004820152601f60248201527f41756374696f6e2063726561746f722063616e2774206d616b652062696473006044820152606401610a9e565b6000818152600b60209081526040808320600590810154925282208054919290916113d49084906146b4565b9091555050600081815260066020908152604080832080546001600160a01b03191633908117909155600b835281842060050154600c8452828520918552925282208054919290916114279084906146b4565b90915550611436905081613cbd565b50565b336000818152600d602052604090205460ff161561148a5760405162461bcd60e51b815260206004820152600e60248201526d4e6f2072652d656e7472616e637960901b6044820152606401610a9e565b6001600160a01b0381166000908152600d60205260409020805460ff19166001179055336114b7836115bd565b6001600160a01b03161461150d5760405162461bcd60e51b815260206004820152601a60248201527f416c6c6f776564206f6e6c7920666f72204e4654206f776e65720000000000006044820152606401610a9e565b600082815260086020526040902060010154610100900460ff166115735760405162461bcd60e51b815260206004820152601560248201527f53616c65206973206e6f7420617661696c61626c6500000000000000000000006044820152606401610a9e565b60009182526008602090815260408084206001908101805461ff001916905560098352818520858155018490556001600160a01b039092168352600d90529020805460ff19169055565b6000818152600860205260408120600501546001600160a01b0316806116255760405162461bcd60e51b815260206004820152600e60248201527f496e76616c6964204e46542049440000000000000000000000000000000000006044820152606401610a9e565b92915050565b6116766040518060e00160405280600015158152602001600081526020016000815260200160008152602001600081526020016000815260200160006001600160a01b031681525090565b506000908152600b6020908152604091829020825160e081018452815460ff16151581526001820154928101929092526002810154928201929092526003820154606082015260048201546080820152600582015460a08201526006909101546001600160a01b031660c082015290565b604080516101208101825260008082526020820181905291810182905260608082018390526080820183905260a0820183905260c082015260e0810182905261010081019190915260008281526008602090815260409182902082516101208101845281548152600182015460ff8082161515948301949094526101008104841615159482019490945262010000909304909116606083015260028101546080830152600381015460a083015260048101805460c0840191906117a9906146c7565b80601f01602080910402602001604051908101604052809291908181526020018280546117d5906146c7565b80156118225780601f106117f757610100808354040283529160200191611822565b820191906000526020600020905b81548152906001019060200180831161180557829003601f168201915b505050918352505060058201546001600160a01b03908116602083015260069092015490911660409091015292915050565b336000818152600d602052604090205460ff16156118a55760405162461bcd60e51b815260206004820152600e60248201526d4e6f2072652d656e7472616e637960901b6044820152606401610a9e565b6001600160a01b0381166000908152600d60205260409020805460ff19166001179055336118d2836115bd565b6001600160a01b0316146119285760405162461bcd60e51b815260206004820152601a60248201527f416c6c6f776564206f6e6c7920666f72204e4654206f776e65720000000000006044820152606401610a9e565b60008281526008602052604090206001015460ff166119895760405162461bcd60e51b815260206004820152601860248201527f41756374696f6e206973206e6f7420617661696c61626c6500000000000000006044820152606401610a9e565b600082815260056020526040902054156119e55760405162461bcd60e51b815260206004820152601860248201527f41756374696f6e2063616e27742062652063616e63656c6400000000000000006044820152606401610a9e565b60009182526008602090815260408084206001908101805460ff19908116909155600b845282862080548216815591820186905560028201869055600382018690556004820186905560058201869055600690910180546001600160a01b03191690556001600160a01b03939093168452600d90915290912080549091169055565b6000818152600b6020526040902060020154421115611aee5760405162461bcd60e51b815260206004820152602d60248201527f41756374696f6e20697320616c72656164792066696e6973686564206f72206460448201527f6f65736e277420657869737473000000000000000000000000000000000000006064820152608401610a9e565b6000818152600b602052604090206006015433906001600160a01b03168103611b595760405162461bcd60e51b815260206004820152601f60248201527f41756374696f6e2063726561746f722063616e2774206d616b652062696473006044820152606401610a9e565b6000828152600b60209081526040808320600401546005909252909120543491611b82916146b4565b811015611bd15760405162461bcd60e51b815260206004820152601860248201527f596f75722062696420697320756e73756666696369656e7400000000000000006044820152606401610a9e565b604051600090309083908381818185875af1925050503d8060008114611c13576040519150601f19603f3d011682016040523d82523d6000602084013e611c18565b606091505b5050905080611c695760405162461bcd60e51b815260206004820152600660248201527f6572726f723100000000000000000000000000000000000000000000000000006044820152606401610a9e565b60008481526006602090815260408083205460059092528083205490516001600160a01b03909216918381818185875af1925050503d8060008114611cca576040519150601f19603f3d011682016040523d82523d6000602084013e611ccf565b606091505b5050905080611d205760405162461bcd60e51b815260206004820152600660248201527f6572726f723200000000000000000000000000000000000000000000000000006044820152606401610a9e565b60008581526005602090815260408083208690556006825280832080546001600160a01b0319166001600160a01b038916908117909155600c835281842090845290915281208054859290611d769084906146b4565b90915550506000858152600b602052604090206002015461012c90611d9c90429061467b565b1015611dca576000858152600b60205260408120600201805460b49290611dc49084906146b4565b90915550505b60408051868152602081018790526001600160a01b038616818301526060810185905290517f68ca22619736ce52a19d1b37cfeea709881038c1f6c94062b4cf60527b5e3a129181900360800190a15050505050565b6000818152600860205260409020600501546001600160a01b0316611e875760405162461bcd60e51b815260206004820152600f60248201527f556e617661696c61626c65204e465400000000000000000000000000000000006044820152606401610a9e565b600081815260086020526040902060010154610100900460ff16611eed5760405162461bcd60e51b815260206004820152601260248201527f4e4654206e6f772069732073656c6c696e6700000000000000000000000000006044820152606401610a9e565b60008181526008602052604090206001015460ff16611f4e5760405162461bcd60e51b815260206004820152601560248201527f4e4654206e6f77206973206f6e2041756374696f6e00000000000000000000006044820152606401610a9e565b6000818152600860205260409020600501546001600160a01b03163314611fc15760405162461bcd60e51b815260206004820152602160248201527f596f7520617265206e6f7420746865206f776e6572206f662074686973204e466044820152601560fa1b6064820152608401610a9e565b600081815260086020818152604080842060028101805486526004808552928620805460ff191690558686529390925283825560018201805462ffffff191690559183905560038101839055919061201b908301826141d6565b506005810180546001600160a01b0319908116909155600690910180549091169055612047600061411b565b60408051338152602081018390527fcc16f5dbb4873280815c1ee09dbd06736cffcc184412cf7a71a0fdb75d397ca5910160405180910390a150565b6000828152600b60205260409020600601546001600160a01b031633146120f65760405162461bcd60e51b815260206004820152602160248201527f596f7520617265206e6f7420746865206f776e6572206f662074686973204e466044820152601560fa1b6064820152608401610a9e565b6000828152600b602052604090205460ff166121545760405162461bcd60e51b815260206004820152601860248201527f41756374696f6e206973206e6f7420617661696c61626c6500000000000000006044820152606401610a9e565b6000828152600b60205260409020600401548190036121db5760405162461bcd60e51b815260206004820152602f60248201527f596f7527726520747279696e67207365742074686520616c726561647920696e60448201527f7374616c6c6564206d696e2062696400000000000000000000000000000000006064820152608401610a9e565b6000828152600b602090815260409182902060040183905581518381529081018490527f10e824432bca887a0638381fc4c4c8c2ee186bb69b4813ad619f04a0da94a2e4910160405180910390a15050565b6060600a6000838152602001908152602001600020805480602002602001604051908101604052809291908181526020016000905b828210156122b7576000848152602090819020604080516060810182526003860290920180548352600180820154848601526002909101546001600160a01b0316918301919091529083529092019101612262565b505050509050919050565b336000818152600d602052604090205460ff16156123135760405162461bcd60e51b815260206004820152600e60248201526d4e6f2072652d656e7472616e637960901b6044820152606401610a9e565b6001600160a01b0381166000908152600d60205260409020805460ff191660011790558451602e146123875760405162461bcd60e51b815260206004820152601660248201527f496e76616c6964204e465420696d6167652068617368000000000000000000006044820152606401610a9e565b60008451116123d85760405162461bcd60e51b815260206004820152601060248201527f496e76616c6964204e4654206e616d65000000000000000000000000000000006044820152606401610a9e565b60008351116124295760405162461bcd60e51b815260206004820152601760248201527f496e76616c6964204e4654206465736372697074696f6e0000000000000000006044820152606401610a9e565b336124765760405162461bcd60e51b815260206004820152600960248201527f41646472657373203000000000000000000000000000000000000000000000006044820152606401610a9e565b60148260ff1611156124f05760405162461bcd60e51b815260206004820152602360248201527f6d6178696d756d206665652073686f756c64206265206c657373207468616e2060448201527f32302500000000000000000000000000000000000000000000000000000000006064820152608401610a9e565b6020858101516000818152600490925260409091205460ff16156125a25760405162461bcd60e51b815260206004820152604360248201527f496d6167652068617368206973206e6f7420756e697175652e20596f7520617260448201527f6520747279696e6720746f2075706c6f616420616e206578697374656420696d60648201527f6167650000000000000000000000000000000000000000000000000000000000608482015260a401610a9e565b60008087876040516020016125b8929190614701565b60408051601f19818403018152918152810151925090506125dd600080546001019055565b6040518061012001604052806125f260005490565b81526020016000151581526020016000151581526020018660ff168152602001848152602001838152602001878152602001336001600160a01b03168152602001336001600160a01b03168152506008600061264d60005490565b81526020808201929092526040908101600020835181559183015160018301805492850151606086015160ff16620100000262ff0000199115156101000261ff00199415159490941661ffff199095169490941792909217919091169190911790556080820151600282015560a0820151600382015560c082015160048201906126d7908261477b565b5060e08201516005820180546001600160a01b03199081166001600160a01b0393841617909155610100909301516006909201805490931691161790556000838152600460209081526040808320805460ff1916600117905533835260079091528120805463ffffffff169161274c8361483b565b91906101000a81548163ffffffff021916908363ffffffff160217905550507f66b86f98fa6b1ee4ce95041a06ebceaa1c0a078864c2d67e2a974f116158844e338989896040516127a0949392919061485e565b60405180910390a15050506001600160a01b03166000908152600d60205260409020805460ff1916905550505050565b336127da836115bd565b6001600160a01b0316146128305760405162461bcd60e51b815260206004820152601a60248201527f416c6c6f776564206f6e6c7920666f72204e4654206f776e65720000000000006044820152606401610a9e565b6000828152600b602052604090205460ff1661288e5760405162461bcd60e51b815260206004820152601860248201527f41756374696f6e206973206e6f7420617661696c61626c6500000000000000006044820152606401610a9e565b600082815260056020526040902054156129365760405162461bcd60e51b815260206004820152604260248201527f596f752063616e2774206368616e676520746865207072696365206f66204e4660448201527f542c20796f7520736f6d65626f647920616c7265616479206d6164652061206260648201527f6964000000000000000000000000000000000000000000000000000000000000608482015260a401610a9e565b600081116129865760405162461bcd60e51b815260206004820152601760248201527f796f752063616e2774206d616b65204e465420667265650000000000000000006044820152606401610a9e565b6000918252600b602052604090912060050155565b60006107c360015490565b6020810151600090815b60005481116129eb576000818152600860205260409020600201548290036129d9579392505050565b806129e3816148b1565b9150506129b0565b5060009392505050565b60606000805b6000548111612a4357600081815260086020526040902060010154610100900460ff1615612a315781612a2d816148b1565b9250505b80612a3b816148b1565b9150506129fb565b5060008167ffffffffffffffff811115612a5f57612a5f614427565b604051908082528060200260200182016040528015612ad557816020015b60408051610120810182526000808252602080830182905292820181905260608083018290526080830182905260a0830182905260c083015260e082018190526101008201528252600019909201910181612a7d5790505b5060009250905060015b6000548111612c6657600081815260086020526040902060010154610100900460ff1615612c545760008181526008602090815260409182902082516101208101845281548152600182015460ff8082161515948301949094526101008104841615159482019490945262010000909304909116606083015260028101546080830152600381015460a083015260048101805460c084019190612b81906146c7565b80601f0160208091040260200160405190810160405280929190818152602001828054612bad906146c7565b8015612bfa5780601f10612bcf57610100808354040283529160200191612bfa565b820191906000526020600020905b815481529060010190602001808311612bdd57829003601f168201915b505050918352505060058201546001600160a01b0390811660208301526006909201549091166040909101528251839085908110612c3a57612c3a6145f7565b60200260200101819052508280612c50906148b1565b9350505b80612c5e816148b1565b915050612adf565b5092915050565b6000818152600b6020526040902060060154336001600160a01b0390911603612c9557600080fd5b6000818152600b602052604090205460ff16612cf35760405162461bcd60e51b815260206004820152601860248201527f41756374696f6e206973206e6f7420617661696c61626c6500000000000000006044820152606401610a9e565b6000818152600b60205260409020600201544210612d535760405162461bcd60e51b815260206004820152601860248201527f41756374696f6e206973207374696c6c2072756e6e696e6700000000000000006044820152606401610a9e565b6000818152600b6020526040902060060154612d7a9033906001600160a01b031683614172565b612dec5760405162461bcd60e51b815260206004820152602260248201527f596f7520617265206e6f74207468652077696e6e6572206f662074686973204e60448201527f46540000000000000000000000000000000000000000000000000000000000006064820152608401610a9e565b61143681613cbd565b60606000612e0260005490565b67ffffffffffffffff811115612e1a57612e1a614427565b604051908082528060200260200182016040528015612e9057816020015b60408051610120810182526000808252602080830182905292820181905260608083018290526080830182905260a0830182905260c083015260e082018190526101008201528252600019909201910181612e385790505b5090506000805b600054811161301f576000818152600860205260409020600501546001600160a01b03161561300d5760008181526008602090815260409182902082516101208101845281548152600182015460ff8082161515948301949094526101008104841615159482019490945262010000909304909116606083015260028101546080830152600381015460a083015260048101805460c084019190612f3a906146c7565b80601f0160208091040260200160405190810160405280929190818152602001828054612f66906146c7565b8015612fb35780601f10612f8857610100808354040283529160200191612fb3565b820191906000526020600020905b815481529060010190602001808311612f9657829003601f168201915b505050918352505060058201546001600160a01b0390811660208301526006909201549091166040909101528351849084908110612ff357612ff36145f7565b60200260200101819052508180613009906148b1565b9250505b80613017816148b1565b915050612e97565b509092915050565b336000818152600d602052604090205460ff16156130785760405162461bcd60e51b815260206004820152600e60248201526d4e6f2072652d656e7472616e637960901b6044820152606401610a9e565b6001600160a01b0381166000908152600d60209081526040808320805460ff191660019081179091558584526008909252909120015460ff16156130fe5760405162461bcd60e51b815260206004820152601a60248201527f4e465420697320616c726561647920696e2041756374696f6e210000000000006044820152606401610a9e565b600082815260086020526040902060010154610100900460ff16156131655760405162461bcd60e51b815260206004820152601760248201527f4e465420697320616c7265616479206f6e2053616c65210000000000000000006044820152606401610a9e565b600083116131c45760405162461bcd60e51b815260206004820152602660248201527f4d696e696d616c2070726963652073686f756c6420626520677265617465722060448201526507468616e20360d41b6064820152608401610a9e565b6131cd826115bd565b6001600160a01b0316336001600160a01b0316146132375760405162461bcd60e51b815260206004820152602160248201527f596f7520617265206e6f7420746865206f776e6572206f662074686973204e466044820152601560fa1b6064820152608401610a9e565b604080518082018252848152426020808301918252600086815260098252848120935184559151600193840155600890529190912001805461ff001916610100179055613288600280546001019055565b604080518381524260208201529081018490523360608201527fcd9b206d1405f2cf68cd4aaa665d590ed89ca3f1369bb7586aad6dad30a0c7589060800160405180910390a16001600160a01b03166000908152600d60205260409020805460ff191690555050565b6000818152600b60209081526040808320815160e081018352815460ff1615158152600182015493810193909352600281015491830182905260038101546060840181905260048201546080850152600582015460a08501526006909101546001600160a01b031660c08401528392839283929061336f828261467b565b42846040015161337f919061467b565b9450945094509450509193509193565b60606000805b60005481116133d85760008181526008602052604090206001015460ff16156133c657816133c2816148b1565b9250505b806133d0816148b1565b915050613395565b5060008167ffffffffffffffff8111156133f4576133f4614427565b60405190808252806020026020018201604052801561346a57816020015b60408051610120810182526000808252602080830182905292820181905260608083018290526080830182905260a0830182905260c083015260e0820181905261010082015282526000199092019101816134125790505b5090506000915060005b6000548111612c665760008181526008602052604090206001015460ff16156135e45760008181526008602090815260409182902082516101208101845281548152600182015460ff8082161515948301949094526101008104841615159482019490945262010000909304909116606083015260028101546080830152600381015460a083015260048101805460c084019190613511906146c7565b80601f016020809104026020016040519081016040528092919081815260200182805461353d906146c7565b801561358a5780601f1061355f5761010080835404028352916020019161358a565b820191906000526020600020905b81548152906001019060200180831161356d57829003601f168201915b505050918352505060058201546001600160a01b03908116602083015260069092015490911660409091015282518390859081106135ca576135ca6145f7565b602002602001018190525082806135e0906148b1565b9350505b806135ee816148b1565b915050613474565b60606000805b600054811161364857600081815260086020526040902060050154336001600160a01b03909116036136365781613632816148b1565b9250505b80613640816148b1565b9150506135fc565b5060008167ffffffffffffffff81111561366457613664614427565b6040519080825280602002602001820160405280156136da57816020015b60408051610120810182526000808252602080830182905292820181905260608083018290526080830182905260a0830182905260c083015260e0820181905261010082015282526000199092019101816136825790505b5090506000915060005b6000548111612c6657600081815260086020526040902060050154336001600160a01b039091160361385d5760008181526008602090815260409182902082516101208101845281548152600182015460ff8082161515948301949094526101008104841615159482019490945262010000909304909116606083015260028101546080830152600381015460a083015260048101805460c08401919061378a906146c7565b80601f01602080910402602001604051908101604052809291908181526020018280546137b6906146c7565b80156138035780601f106137d857610100808354040283529160200191613803565b820191906000526020600020905b8154815290600101906020018083116137e657829003601f168201915b505050918352505060058201546001600160a01b0390811660208301526006909201549091166040909101528251839085908110613843576138436145f7565b60200260200101819052508280613859906148b1565b9350505b80613867816148b1565b9150506136e4565b6000828152600860205260408120600101546064906138979062010000900460ff1684614642565b6138a19190614659565b6000848152600a60205260408120549192506138bd8284614659565b905060005b82811015613972576000868152600a602052604081208054839081106138ea576138ea6145f7565b60009182526020822060039190910201600201546040516001600160a01b039091169250829085908381818185875af1925050503d806000811461394a576040519150601f19603f3d011682016040523d82523d6000602084013e61394f565b606091505b505090508061395d57600080fd5b5050808061396a906148b1565b9150506138c2565b506000858152600860205260408082206006015490516001600160a01b039091169085908381818185875af1925050503d80600081146139ce576040519150601f19603f3d011682016040523d82523d6000602084013e6139d3565b606091505b50509050806139e157600080fd5b505050505050565b826001600160a01b03166139fc826115bd565b6001600160a01b031614613a525760405162461bcd60e51b815260206004820152601d60248201527f7472616e736665722066726f6d20696e636f7272656374206f776e65720000006044820152606401610a9e565b6001600160a01b038216613aa85760405162461bcd60e51b815260206004820152601c60248201527f7472616e7366657220746f20746865207a65726f2061646472657373000000006044820152606401610a9e565b600081815260086020526040812060010154610100900460ff1615613adc5750600081815260096020526040902054613aed565b506000818152600560205260409020545b6000828152600a6020908152604080832081516060810183524281528084018681526001600160a01b03808a16838601818152855460018181018855968a52888a2095516003918202909601958655935195850195909555935160029093018054939091166001600160a01b03199384161790558786526008909452919093206005018054909116909217909155613b889080546001019055565b604080516001600160a01b038087168252851660208201529081018390527fddf252ad1be2c89b69c2b068fc378daa952ba7f163c4a11628f55a4df523b3ef9060600160405180910390a150505050565b61143681604051602401613bed919061428d565b60408051601f198184030181529190526020810180517bffffffffffffffffffffffffffffffffffffffffffffffffffffffff167f41304fac000000000000000000000000000000000000000000000000000000001790526141b5565b61143681604051602401613c6091815260200190565b60408051601f198184030181529190526020810180517bffffffffffffffffffffffffffffffffffffffffffffffffffffffff167ff82c50f1000000000000000000000000000000000000000000000000000000001790526141b5565b336000818152600d602052604090205460ff1615613d0e5760405162461bcd60e51b815260206004820152600e60248201526d4e6f2072652d656e7472616e637960901b6044820152606401610a9e565b6001600160a01b038082166000908152600d60209081526040808320805460ff19166001908117909155868452600b835292819020815160e081018352815460ff16151580825294820154938101939093526002810154918301919091526003810154606083015260048101546080830152600581015460a08301526006015490921660c0830152613de25760405162461bcd60e51b815260206004820152601860248201527f41756374696f6e206973206e6f7420617661696c61626c6500000000000000006044820152606401610a9e565b60208181015160009081526008909152604090206001015462010000900460ff1615613e2957613e298160200151600560008681526020019081526020016000205461386f565b60208181015160009081526008825260408082206001015486835260059093528120549091606491613e649162010000900460ff1690614642565b613e6e9190614659565b600085815260056020526040902054613e87919061467b565b905060008260c001516001600160a01b03168260405160006040518083038185875af1925050503d8060008114613eda576040519150601f19603f3d011682016040523d82523d6000602084013e613edf565b606091505b5050905080613eed57600080fd5b60c083015160008681526006602090815260409091205490850151613f1c92916001600160a01b0316906139e9565b602083810180516000908152600a835260408082208151606080820184524282528b855260058752838520548288019081528c8652600680895285872080546001600160a01b03908116868901908152875460018082018a55988b528c8b20975160039091029097019687559351968601969096559151600290940180546001600160a01b0319169486169490941790935560c08b0151958d9052918752905494518351948316855294909116948301949094528101919091527fddf252ad1be2c89b69c2b068fc378daa952ba7f163c4a11628f55a4df523b3ef910160405180910390a160c08301516000868152600660209081526040808320546005835292819020548288015182516001600160a01b03968716815295909416928501929092528301526060820187905260808201527f3d3a66899db8385fd8af5fc229a533c64a8c8a994016aa79653b2029c5688e899060a00160405180910390a150506000928352600b60209081526040808520805460ff19908116825560018083018890556002830188905560038301889055600483018890556005808401899055600693840180546001600160a01b0319908116909155908652848920899055928552838820805490931690925593830151865260088352818620018054841690556001600160a01b03939093168452600d9052912080549091169055565b80548061416a5760405162461bcd60e51b815260206004820152601b60248201527f436f756e7465723a2064656372656d656e74206f766572666c6f7700000000006044820152606401610a9e565b600019019055565b6000826001600160a01b0316846001600160a01b031614806141ad57506000828152600660205260409020546001600160a01b038581169116145b949350505050565b80516a636f6e736f6c652e6c6f67602083016000808483855afa5050505050565b5080546141e2906146c7565b6000825580601f106141f2575050565b601f01602090049060005260206000209081019061143691905b80821115614220576000815560010161420c565b5090565b60006020828403121561423657600080fd5b5035919050565b60005b83811015614258578181015183820152602001614240565b50506000910152565b6000815180845261427981602086016020860161423d565b601f01601f19169290920160200192915050565b6020815260006142a06020830184614261565b9392505050565b600080600080608085870312156142bd57600080fd5b843593506020850135925060408501359150606085013561ffff811681146142e457600080fd5b939692955090935050565b6000610120825184526020830151151560208501526040830151614317604086018215159052565b50606083015161432c606086018260ff169052565b506080830151608085015260a083015160a085015260c08301518160c086015261435882860182614261565b91505060e083015161437560e08601826001600160a01b03169052565b50610100838101516001600160a01b038116868301526108be565b6020815260006142a060208301846142ef565b600080604083850312156143b657600080fd5b50508035926020909101359150565b602080825282518282018190526000919060409081850190868401855b8281101561441a5781518051855286810151878601528501516001600160a01b031685850152606090930192908501906001016143e2565b5091979650505050505050565b634e487b7160e01b600052604160045260246000fd5b600082601f83011261444e57600080fd5b813567ffffffffffffffff8082111561446957614469614427565b604051601f8301601f19908116603f0116810190828211818310171561449157614491614427565b816040528381528660208588010111156144aa57600080fd5b836020870160208301376000602085830101528094505050505092915050565b600080600080608085870312156144e057600080fd5b843567ffffffffffffffff808211156144f857600080fd5b6145048883890161443d565b9550602087013591508082111561451a57600080fd5b6145268883890161443d565b9450604087013591508082111561453c57600080fd5b506145498782880161443d565b925050606085013560ff811681146142e457600080fd5b60006020828403121561457257600080fd5b813567ffffffffffffffff81111561458957600080fd5b6141ad8482850161443d565b6000602080830181845280855180835260408601915060408160051b870101925083870160005b828110156145ea57603f198886030184526145d88583516142ef565b945092850192908501906001016145bc565b5092979650505050505050565b634e487b7160e01b600052603260045260246000fd5b634e487b7160e01b600052601160045260246000fd5b600060ff821660ff81036146395761463961460d565b60010192915050565b80820281158282048414176116255761162561460d565b60008261467657634e487b7160e01b600052601260045260246000fd5b500490565b818103818111156116255761162561460d565b61ffff8181168382160280821691908281146146ac576146ac61460d565b505092915050565b808201808211156116255761162561460d565b600181811c908216806146db57607f821691505b6020821081036146fb57634e487b7160e01b600052602260045260246000fd5b50919050565b6000835161471381846020880161423d565b83519083019061472781836020880161423d565b01949350505050565b601f82111561477657600081815260208120601f850160051c810160208610156147575750805b601f850160051c820191505b818110156139e157828155600101614763565b505050565b815167ffffffffffffffff81111561479557614795614427565b6147a9816147a384546146c7565b84614730565b602080601f8311600181146147de57600084156147c65750858301515b600019600386901b1c1916600185901b1785556139e1565b600085815260208120601f198616915b8281101561480d578886015182559484019460019091019084016147ee565b508582101561482b5787850151600019600388901b60f8161c191681555b5050505050600190811b01905550565b600063ffffffff8083168181036148545761485461460d565b6001019392505050565b6001600160a01b03851681526080602082015260006148806080830186614261565b82810360408401526148928186614261565b905082810360608401526148a68185614261565b979650505050505050565b6000600182016148c3576148c361460d565b506001019056fea26469706673582212204147927a75eda41d1ad1f324741b878bbebf240fb98716f4a20056f27ffdacba64736f6c63430008110033","opcodes":"PUSH1 0x80 PUSH1 0x40 MSTORE CALLVALUE DUP1 ISZERO PUSH2 0x10 JUMPI PUSH1 0x0 DUP1 REVERT JUMPDEST POP PUSH2 0x4900 DUP1 PUSH2 0x20 PUSH1 0x0 CODECOPY PUSH1 0x0 RETURN INVALID PUSH1 0x80 PUSH1 0x40 MSTORE PUSH1 0x4 CALLDATASIZE LT PUSH2 0x22F JUMPI PUSH1 0x0 CALLDATALOAD PUSH1 0xE0 SHR DUP1 PUSH4 0x9B1F9E74 GT PUSH2 0x126 JUMPI DUP1 PUSH4 0xD1C09173 GT PUSH2 0xA7 JUMPI DUP1 PUSH4 0xE0391B09 GT PUSH2 0x79 JUMPI DUP1 PUSH4 0xF1B42435 GT PUSH2 0x61 JUMPI DUP1 PUSH4 0xF1B42435 EQ PUSH2 0x74E JUMPI DUP1 PUSH4 0xFD9AA2CB EQ PUSH2 0x78E JUMPI DUP1 PUSH4 0xFDC5AB8E EQ PUSH2 0x7A3 JUMPI STOP JUMPDEST DUP1 PUSH4 0xE0391B09 EQ PUSH2 0x719 JUMPI DUP1 PUSH4 0xECEFB955 EQ PUSH2 0x72E JUMPI STOP JUMPDEST DUP1 PUSH4 0xD1C09173 EQ PUSH2 0x681 JUMPI DUP1 PUSH4 0xD2718B6D EQ PUSH2 0x6A1 JUMPI DUP1 PUSH4 0xD7098154 EQ PUSH2 0x6C3 JUMPI DUP1 PUSH4 0xDFAB114B EQ PUSH2 0x6E3 JUMPI STOP JUMPDEST DUP1 PUSH4 0xBAA4E557 GT PUSH2 0xF8 JUMPI DUP1 PUSH4 0xBF07E7C6 GT PUSH2 0xE0 JUMPI DUP1 PUSH4 0xBF07E7C6 EQ PUSH2 0x61F JUMPI DUP1 PUSH4 0xC26E748C EQ PUSH2 0x63F JUMPI DUP1 PUSH4 0xC44E6640 EQ PUSH2 0x66C JUMPI STOP JUMPDEST DUP1 PUSH4 0xBAA4E557 EQ PUSH2 0x5D2 JUMPI DUP1 PUSH4 0xBB24AA43 EQ PUSH2 0x5FF JUMPI STOP JUMPDEST DUP1 PUSH4 0x9B1F9E74 EQ PUSH2 0x53A JUMPI DUP1 PUSH4 0x9B84309B EQ PUSH2 0x55A JUMPI DUP1 PUSH4 0xA8CD0A80 EQ PUSH2 0x57A JUMPI DUP1 PUSH4 0xB66F7A8B EQ PUSH2 0x590 JUMPI STOP JUMPDEST DUP1 PUSH4 0x484EAE10 GT PUSH2 0x1B0 JUMPI DUP1 PUSH4 0x73DF8A1B GT PUSH2 0x182 JUMPI DUP1 PUSH4 0x95A81B8F GT PUSH2 0x16A JUMPI DUP1 PUSH4 0x95A81B8F EQ PUSH2 0x4DA JUMPI DUP1 PUSH4 0x96B5A755 EQ PUSH2 0x507 JUMPI DUP1 PUSH4 0x9979EF45 EQ PUSH2 0x527 JUMPI STOP JUMPDEST DUP1 PUSH4 0x73DF8A1B EQ PUSH2 0x42C JUMPI DUP1 PUSH4 0x83979246 EQ PUSH2 0x4AD JUMPI STOP JUMPDEST DUP1 PUSH4 0x484EAE10 EQ PUSH2 0x3AC JUMPI DUP1 PUSH4 0x59F48271 EQ PUSH2 0x3BF JUMPI DUP1 PUSH4 0x5FDAC09C EQ PUSH2 0x3DF JUMPI DUP1 PUSH4 0x6352211E EQ PUSH2 0x3F4 JUMPI STOP JUMPDEST DUP1 PUSH4 0x243ADBDD GT PUSH2 0x201 JUMPI DUP1 PUSH4 0x33EB5919 GT PUSH2 0x1E9 JUMPI DUP1 PUSH4 0x33EB5919 EQ PUSH2 0x2F3 JUMPI DUP1 PUSH4 0x34516038 EQ PUSH2 0x323 JUMPI DUP1 PUSH4 0x34DB89E0 EQ PUSH2 0x338 JUMPI STOP JUMPDEST DUP1 PUSH4 0x243ADBDD EQ PUSH2 0x2C0 JUMPI DUP1 PUSH4 0x306466A0 EQ PUSH2 0x2D3 JUMPI STOP JUMPDEST DUP1 PUSH4 0x40E55F5 EQ PUSH2 0x238 JUMPI DUP1 PUSH4 0xB53FF3E EQ PUSH2 0x260 JUMPI DUP1 PUSH4 0xF611E19 EQ PUSH2 0x28D JUMPI DUP1 PUSH4 0x12065FE0 EQ PUSH2 0x2AD JUMPI STOP JUMPDEST CALLDATASIZE PUSH2 0x236 JUMPI STOP JUMPDEST STOP JUMPDEST CALLVALUE DUP1 ISZERO PUSH2 0x244 JUMPI PUSH1 0x0 DUP1 REVERT JUMPDEST POP PUSH2 0x24D PUSH2 0x7B8 JUMP JUMPDEST PUSH1 0x40 MLOAD SWAP1 DUP2 MSTORE PUSH1 0x20 ADD JUMPDEST PUSH1 0x40 MLOAD DUP1 SWAP2 SUB SWAP1 RETURN JUMPDEST CALLVALUE DUP1 ISZERO PUSH2 0x26C JUMPI PUSH1 0x0 DUP1 REVERT JUMPDEST POP PUSH2 0x280 PUSH2 0x27B CALLDATASIZE PUSH1 0x4 PUSH2 0x4224 JUMP JUMPDEST PUSH2 0x7C8 JUMP JUMPDEST PUSH1 0x40 MLOAD PUSH2 0x257 SWAP2 SWAP1 PUSH2 0x428D JUMP JUMPDEST CALLVALUE DUP1 ISZERO PUSH2 0x299 JUMPI PUSH1 0x0 DUP1 REVERT JUMPDEST POP PUSH2 0x280 PUSH2 0x2A8 CALLDATASIZE PUSH1 0x4 PUSH2 0x4224 JUMP JUMPDEST PUSH2 0x8C8 JUMP JUMPDEST CALLVALUE DUP1 ISZERO PUSH2 0x2B9 JUMPI PUSH1 0x0 DUP1 REVERT JUMPDEST POP SELFBALANCE PUSH2 0x24D JUMP JUMPDEST PUSH2 0x236 PUSH2 0x2CE CALLDATASIZE PUSH1 0x4 PUSH2 0x4224 JUMP JUMPDEST PUSH2 0xA1F JUMP JUMPDEST CALLVALUE DUP1 ISZERO PUSH2 0x2DF JUMPI PUSH1 0x0 DUP1 REVERT JUMPDEST POP PUSH2 0x236 PUSH2 0x2EE CALLDATASIZE PUSH1 0x4 PUSH2 0x42A7 JUMP JUMPDEST PUSH2 0xD21 JUMP JUMPDEST CALLVALUE DUP1 ISZERO PUSH2 0x2FF JUMPI PUSH1 0x0 DUP1 REVERT JUMPDEST POP PUSH2 0x24D PUSH2 0x30E CALLDATASIZE PUSH1 0x4 PUSH2 0x4224 JUMP JUMPDEST PUSH1 0x0 SWAP1 DUP2 MSTORE PUSH1 0xB PUSH1 0x20 MSTORE PUSH1 0x40 SWAP1 KECCAK256 PUSH1 0x5 ADD SLOAD SWAP1 JUMP JUMPDEST CALLVALUE DUP1 ISZERO PUSH2 0x32F JUMPI PUSH1 0x0 DUP1 REVERT JUMPDEST POP PUSH2 0x24D PUSH2 0x1094 JUMP JUMPDEST CALLVALUE DUP1 ISZERO PUSH2 0x344 JUMPI PUSH1 0x0 DUP1 REVERT JUMPDEST POP PUSH2 0x391 PUSH2 0x353 CALLDATASIZE PUSH1 0x4 PUSH2 0x4224 JUMP JUMPDEST PUSH1 0x40 DUP1 MLOAD DUP1 DUP3 ADD SWAP1 SWAP2 MSTORE PUSH1 0x0 DUP1 DUP3 MSTORE PUSH1 0x20 DUP3 ADD MSTORE POP PUSH1 0x0 SWAP1 DUP2 MSTORE PUSH1 0x9 PUSH1 0x20 SWAP1 DUP2 MSTORE PUSH1 0x40 SWAP2 DUP3 SWAP1 KECCAK256 DUP3 MLOAD DUP1 DUP5 ADD SWAP1 SWAP4 MSTORE DUP1 SLOAD DUP4 MSTORE PUSH1 0x1 ADD SLOAD SWAP1 DUP3 ADD MSTORE SWAP1 JUMP JUMPDEST PUSH1 0x40 DUP1 MLOAD DUP3 MLOAD DUP2 MSTORE PUSH1 0x20 SWAP3 DUP4 ADD MLOAD SWAP3 DUP2 ADD SWAP3 SWAP1 SWAP3 MSTORE ADD PUSH2 0x257 JUMP JUMPDEST PUSH2 0x236 PUSH2 0x3BA CALLDATASIZE PUSH1 0x4 PUSH2 0x4224 JUMP JUMPDEST PUSH2 0x109F JUMP JUMPDEST CALLVALUE DUP1 ISZERO PUSH2 0x3CB JUMPI PUSH1 0x0 DUP1 REVERT JUMPDEST POP PUSH2 0x236 PUSH2 0x3DA CALLDATASIZE PUSH1 0x4 PUSH2 0x4224 JUMP JUMPDEST PUSH2 0x1439 JUMP JUMPDEST CALLVALUE DUP1 ISZERO PUSH2 0x3EB JUMPI PUSH1 0x0 DUP1 REVERT JUMPDEST POP PUSH1 0x0 SLOAD PUSH2 0x24D JUMP JUMPDEST CALLVALUE DUP1 ISZERO PUSH2 0x400 JUMPI PUSH1 0x0 DUP1 REVERT JUMPDEST POP PUSH2 0x414 PUSH2 0x40F CALLDATASIZE PUSH1 0x4 PUSH2 0x4224 JUMP JUMPDEST PUSH2 0x15BD JUMP JUMPDEST PUSH1 0x40 MLOAD PUSH1 0x1 PUSH1 0x1 PUSH1 0xA0 SHL SUB SWAP1 SWAP2 AND DUP2 MSTORE PUSH1 0x20 ADD PUSH2 0x257 JUMP JUMPDEST CALLVALUE DUP1 ISZERO PUSH2 0x438 JUMPI PUSH1 0x0 DUP1 REVERT JUMPDEST POP PUSH2 0x44C PUSH2 0x447 CALLDATASIZE PUSH1 0x4 PUSH2 0x4224 JUMP JUMPDEST PUSH2 0x162B JUMP JUMPDEST PUSH1 0x40 MLOAD PUSH2 0x257 SWAP2 SWAP1 PUSH1 0x0 PUSH1 0xE0 DUP3 ADD SWAP1 POP DUP3 MLOAD ISZERO ISZERO DUP3 MSTORE PUSH1 0x20 DUP4 ADD MLOAD PUSH1 0x20 DUP4 ADD MSTORE PUSH1 0x40 DUP4 ADD MLOAD PUSH1 0x40 DUP4 ADD MSTORE PUSH1 0x60 DUP4 ADD MLOAD PUSH1 0x60 DUP4 ADD MSTORE PUSH1 0x80 DUP4 ADD MLOAD PUSH1 0x80 DUP4 ADD MSTORE PUSH1 0xA0 DUP4 ADD MLOAD PUSH1 0xA0 DUP4 ADD MSTORE PUSH1 0x1 PUSH1 0x1 PUSH1 0xA0 SHL SUB PUSH1 0xC0 DUP5 ADD MLOAD AND PUSH1 0xC0 DUP4 ADD MSTORE SWAP3 SWAP2 POP POP JUMP JUMPDEST CALLVALUE DUP1 ISZERO PUSH2 0x4B9 JUMPI PUSH1 0x0 DUP1 REVERT JUMPDEST POP PUSH2 0x24D PUSH2 0x4C8 CALLDATASIZE PUSH1 0x4 PUSH2 0x4224 JUMP JUMPDEST PUSH1 0x0 SWAP1 DUP2 MSTORE PUSH1 0x9 PUSH1 0x20 MSTORE PUSH1 0x40 SWAP1 KECCAK256 SLOAD SWAP1 JUMP JUMPDEST CALLVALUE DUP1 ISZERO PUSH2 0x4E6 JUMPI PUSH1 0x0 DUP1 REVERT JUMPDEST POP PUSH2 0x4FA PUSH2 0x4F5 CALLDATASIZE PUSH1 0x4 PUSH2 0x4224 JUMP JUMPDEST PUSH2 0x16E7 JUMP JUMPDEST PUSH1 0x40 MLOAD PUSH2 0x257 SWAP2 SWAP1 PUSH2 0x4390 JUMP JUMPDEST CALLVALUE DUP1 ISZERO PUSH2 0x513 JUMPI PUSH1 0x0 DUP1 REVERT JUMPDEST POP PUSH2 0x236 PUSH2 0x522 CALLDATASIZE PUSH1 0x4 PUSH2 0x4224 JUMP JUMPDEST PUSH2 0x1854 JUMP JUMPDEST PUSH2 0x236 PUSH2 0x535 CALLDATASIZE PUSH1 0x4 PUSH2 0x4224 JUMP JUMPDEST PUSH2 0x1A67 JUMP JUMPDEST CALLVALUE DUP1 ISZERO PUSH2 0x546 JUMPI PUSH1 0x0 DUP1 REVERT JUMPDEST POP PUSH2 0x236 PUSH2 0x555 CALLDATASIZE PUSH1 0x4 PUSH2 0x4224 JUMP JUMPDEST PUSH2 0x1E20 JUMP JUMPDEST CALLVALUE DUP1 ISZERO PUSH2 0x566 JUMPI PUSH1 0x0 DUP1 REVERT JUMPDEST POP PUSH2 0x236 PUSH2 0x575 CALLDATASIZE PUSH1 0x4 PUSH2 0x43A3 JUMP JUMPDEST PUSH2 0x2083 JUMP JUMPDEST CALLVALUE DUP1 ISZERO PUSH2 0x586 JUMPI PUSH1 0x0 DUP1 REVERT JUMPDEST POP PUSH3 0x22CF79 PUSH2 0x24D JUMP JUMPDEST CALLVALUE DUP1 ISZERO PUSH2 0x59C JUMPI PUSH1 0x0 DUP1 REVERT JUMPDEST POP PUSH2 0x5C2 PUSH2 0x5AB CALLDATASIZE PUSH1 0x4 PUSH2 0x4224 JUMP JUMPDEST PUSH1 0x0 SWAP1 DUP2 MSTORE PUSH1 0xB PUSH1 0x20 MSTORE PUSH1 0x40 SWAP1 KECCAK256 PUSH1 0x2 ADD SLOAD TIMESTAMP GT SWAP1 JUMP JUMPDEST PUSH1 0x40 MLOAD SWAP1 ISZERO ISZERO DUP2 MSTORE PUSH1 0x20 ADD PUSH2 0x257 JUMP JUMPDEST CALLVALUE DUP1 ISZERO PUSH2 0x5DE JUMPI PUSH1 0x0 DUP1 REVERT JUMPDEST POP PUSH2 0x5F2 PUSH2 0x5ED CALLDATASIZE PUSH1 0x4 PUSH2 0x4224 JUMP JUMPDEST PUSH2 0x222D JUMP JUMPDEST PUSH1 0x40 MLOAD PUSH2 0x257 SWAP2 SWAP1 PUSH2 0x43C5 JUMP JUMPDEST CALLVALUE DUP1 ISZERO PUSH2 0x60B JUMPI PUSH1 0x0 DUP1 REVERT JUMPDEST POP PUSH2 0x236 PUSH2 0x61A CALLDATASIZE PUSH1 0x4 PUSH2 0x44CA JUMP JUMPDEST PUSH2 0x22C2 JUMP JUMPDEST CALLVALUE DUP1 ISZERO PUSH2 0x62B JUMPI PUSH1 0x0 DUP1 REVERT JUMPDEST POP PUSH2 0x236 PUSH2 0x63A CALLDATASIZE PUSH1 0x4 PUSH2 0x43A3 JUMP JUMPDEST PUSH2 0x27D0 JUMP JUMPDEST CALLVALUE DUP1 ISZERO PUSH2 0x64B JUMPI PUSH1 0x0 DUP1 REVERT JUMPDEST POP PUSH2 0x24D PUSH2 0x65A CALLDATASIZE PUSH1 0x4 PUSH2 0x4224 JUMP JUMPDEST PUSH1 0x0 SWAP1 DUP2 MSTORE PUSH1 0x5 PUSH1 0x20 MSTORE PUSH1 0x40 SWAP1 KECCAK256 SLOAD SWAP1 JUMP JUMPDEST CALLVALUE DUP1 ISZERO PUSH2 0x678 JUMPI PUSH1 0x0 DUP1 REVERT JUMPDEST POP PUSH2 0x24D PUSH2 0x299B JUMP JUMPDEST CALLVALUE DUP1 ISZERO PUSH2 0x68D JUMPI PUSH1 0x0 DUP1 REVERT JUMPDEST POP PUSH2 0x24D PUSH2 0x69C CALLDATASIZE PUSH1 0x4 PUSH2 0x4560 JUMP JUMPDEST PUSH2 0x29A6 JUMP JUMPDEST CALLVALUE DUP1 ISZERO PUSH2 0x6AD JUMPI PUSH1 0x0 DUP1 REVERT JUMPDEST POP PUSH2 0x6B6 PUSH2 0x29F5 JUMP JUMPDEST PUSH1 0x40 MLOAD PUSH2 0x257 SWAP2 SWAP1 PUSH2 0x4595 JUMP JUMPDEST CALLVALUE DUP1 ISZERO PUSH2 0x6CF JUMPI PUSH1 0x0 DUP1 REVERT JUMPDEST POP PUSH2 0x236 PUSH2 0x6DE CALLDATASIZE PUSH1 0x4 PUSH2 0x4224 JUMP JUMPDEST PUSH2 0x2C6D JUMP JUMPDEST CALLVALUE DUP1 ISZERO PUSH2 0x6EF JUMPI PUSH1 0x0 DUP1 REVERT JUMPDEST POP PUSH2 0x414 PUSH2 0x6FE CALLDATASIZE PUSH1 0x4 PUSH2 0x4224 JUMP JUMPDEST PUSH1 0x0 SWAP1 DUP2 MSTORE PUSH1 0x6 PUSH1 0x20 MSTORE PUSH1 0x40 SWAP1 KECCAK256 SLOAD PUSH1 0x1 PUSH1 0x1 PUSH1 0xA0 SHL SUB AND SWAP1 JUMP JUMPDEST CALLVALUE DUP1 ISZERO PUSH2 0x725 JUMPI PUSH1 0x0 DUP1 REVERT JUMPDEST POP PUSH2 0x6B6 PUSH2 0x2DF5 JUMP JUMPDEST CALLVALUE DUP1 ISZERO PUSH2 0x73A JUMPI PUSH1 0x0 DUP1 REVERT JUMPDEST POP PUSH2 0x236 PUSH2 0x749 CALLDATASIZE PUSH1 0x4 PUSH2 0x43A3 JUMP JUMPDEST PUSH2 0x3027 JUMP JUMPDEST CALLVALUE DUP1 ISZERO PUSH2 0x75A JUMPI PUSH1 0x0 DUP1 REVERT JUMPDEST POP PUSH2 0x76E PUSH2 0x769 CALLDATASIZE PUSH1 0x4 PUSH2 0x4224 JUMP JUMPDEST PUSH2 0x32F1 JUMP JUMPDEST PUSH1 0x40 DUP1 MLOAD SWAP5 DUP6 MSTORE PUSH1 0x20 DUP6 ADD SWAP4 SWAP1 SWAP4 MSTORE SWAP2 DUP4 ADD MSTORE PUSH1 0x60 DUP3 ADD MSTORE PUSH1 0x80 ADD PUSH2 0x257 JUMP JUMPDEST CALLVALUE DUP1 ISZERO PUSH2 0x79A JUMPI PUSH1 0x0 DUP1 REVERT JUMPDEST POP PUSH2 0x6B6 PUSH2 0x338F JUMP JUMPDEST CALLVALUE DUP1 ISZERO PUSH2 0x7AF JUMPI PUSH1 0x0 DUP1 REVERT JUMPDEST POP PUSH2 0x6B6 PUSH2 0x35F6 JUMP JUMPDEST PUSH1 0x0 PUSH2 0x7C3 PUSH1 0x3 SLOAD SWAP1 JUMP JUMPDEST SWAP1 POP SWAP1 JUMP JUMPDEST PUSH1 0x0 DUP2 DUP2 MSTORE PUSH1 0x8 PUSH1 0x20 MSTORE PUSH1 0x40 DUP1 DUP3 KECCAK256 PUSH1 0x3 ADD SLOAD DUP2 MLOAD PUSH1 0x12 DUP1 DUP3 MSTORE DUP2 DUP5 ADD SWAP1 SWAP4 MSTORE PUSH1 0x60 SWAP4 SWAP2 SWAP3 PUSH1 0x20 DUP3 ADD DUP2 DUP1 CALLDATASIZE DUP4 CALLDATACOPY ADD SWAP1 POP POP SWAP1 POP PUSH1 0x0 PUSH1 0xE JUMPDEST DUP4 DUP2 PUSH1 0xFF AND PUSH1 0x20 DUP2 LT PUSH2 0x816 JUMPI PUSH2 0x816 PUSH2 0x45F7 JUMP JUMPDEST BYTE PUSH1 0xF8 SHL PUSH32 0xFF00000000000000000000000000000000000000000000000000000000000000 AND ISZERO PUSH2 0x8BE JUMPI DUP4 DUP2 PUSH1 0xFF AND PUSH1 0x20 DUP2 LT PUSH2 0x856 JUMPI PUSH2 0x856 PUSH2 0x45F7 JUMP JUMPDEST BYTE PUSH1 0xF8 SHL DUP4 DUP4 PUSH1 0xFF AND DUP2 MLOAD DUP2 LT PUSH2 0x86F JUMPI PUSH2 0x86F PUSH2 0x45F7 JUMP JUMPDEST PUSH1 0x20 ADD ADD SWAP1 PUSH31 0xFFFFFFFFFFFFFFFFFFFFFFFFFFFFFFFFFFFFFFFFFFFFFFFFFFFFFFFFFFFFFF NOT AND SWAP1 DUP2 PUSH1 0x0 BYTE SWAP1 MSTORE8 POP DUP2 PUSH2 0x8A8 DUP2 PUSH2 0x4623 JUMP JUMPDEST SWAP3 POP POP DUP1 DUP1 PUSH2 0x8B6 SWAP1 PUSH2 0x4623 JUMP JUMPDEST SWAP2 POP POP PUSH2 0x801 JUMP JUMPDEST POP SWAP1 SWAP5 SWAP4 POP POP POP POP JUMP JUMPDEST PUSH1 0x0 DUP2 DUP2 MSTORE PUSH1 0x8 PUSH1 0x20 MSTORE PUSH1 0x40 DUP1 DUP3 KECCAK256 PUSH1 0x2 DUP2 ADD SLOAD PUSH1 0x3 SWAP1 SWAP2 ADD SLOAD DUP3 MLOAD PUSH1 0x2E DUP1 DUP3 MSTORE PUSH1 0x60 DUP3 DUP2 ADD SWAP1 SWAP6 MSTORE SWAP4 SWAP5 SWAP3 SWAP4 SWAP2 SWAP3 SWAP2 PUSH1 0x20 DUP3 ADD DUP2 DUP1 CALLDATASIZE DUP4 CALLDATACOPY ADD SWAP1 POP POP SWAP1 POP PUSH1 0x0 JUMPDEST PUSH1 0x20 DUP2 PUSH1 0xFF AND LT ISZERO PUSH2 0x985 JUMPI DUP4 DUP2 PUSH1 0xFF AND PUSH1 0x20 DUP2 LT PUSH2 0x92B JUMPI PUSH2 0x92B PUSH2 0x45F7 JUMP JUMPDEST BYTE PUSH1 0xF8 SHL DUP3 DUP3 PUSH1 0xFF AND DUP2 MLOAD DUP2 LT PUSH2 0x944 JUMPI PUSH2 0x944 PUSH2 0x45F7 JUMP JUMPDEST PUSH1 0x20 ADD ADD SWAP1 PUSH31 0xFFFFFFFFFFFFFFFFFFFFFFFFFFFFFFFFFFFFFFFFFFFFFFFFFFFFFFFFFFFFFF NOT AND SWAP1 DUP2 PUSH1 0x0 BYTE SWAP1 MSTORE8 POP DUP1 PUSH2 0x97D DUP2 PUSH2 0x4623 JUMP JUMPDEST SWAP2 POP POP PUSH2 0x90A JUMP JUMPDEST POP PUSH1 0x20 PUSH1 0x0 JUMPDEST PUSH1 0x2E DUP3 PUSH1 0xFF AND LT ISZERO PUSH2 0xA14 JUMPI DUP4 DUP2 PUSH1 0xFF AND PUSH1 0x20 DUP2 LT PUSH2 0x9AC JUMPI PUSH2 0x9AC PUSH2 0x45F7 JUMP JUMPDEST BYTE PUSH1 0xF8 SHL DUP4 DUP4 PUSH1 0xFF AND DUP2 MLOAD DUP2 LT PUSH2 0x9C5 JUMPI PUSH2 0x9C5 PUSH2 0x45F7 JUMP JUMPDEST PUSH1 0x20 ADD ADD SWAP1 PUSH31 0xFFFFFFFFFFFFFFFFFFFFFFFFFFFFFFFFFFFFFFFFFFFFFFFFFFFFFFFFFFFFFF NOT AND SWAP1 DUP2 PUSH1 0x0 BYTE SWAP1 MSTORE8 POP DUP1 PUSH2 0x9FE DUP2 PUSH2 0x4623 JUMP JUMPDEST SWAP2 POP POP DUP2 DUP1 PUSH2 0xA0C SWAP1 PUSH2 0x4623 JUMP JUMPDEST SWAP3 POP POP PUSH2 0x98B JUMP JUMPDEST POP SWAP1 SWAP6 SWAP5 POP POP POP POP POP JUMP JUMPDEST PUSH1 0x0 DUP2 DUP2 MSTORE PUSH1 0x9 PUSH1 0x20 MSTORE PUSH1 0x40 SWAP1 KECCAK256 SLOAD CALLVALUE EQ PUSH2 0xAA7 JUMPI PUSH1 0x40 MLOAD PUSH3 0x461BCD PUSH1 0xE5 SHL DUP2 MSTORE PUSH1 0x20 PUSH1 0x4 DUP3 ADD MSTORE PUSH1 0x37 PUSH1 0x24 DUP3 ADD MSTORE PUSH32 0x546F206275792074686973204E465420776974686F757420626964732C20796F PUSH1 0x44 DUP3 ADD MSTORE PUSH32 0x752073686F756C64207061792066756C6C207072696365000000000000000000 PUSH1 0x64 DUP3 ADD MSTORE PUSH1 0x84 ADD JUMPDEST PUSH1 0x40 MLOAD DUP1 SWAP2 SUB SWAP1 REVERT JUMPDEST PUSH1 0x0 DUP2 DUP2 MSTORE PUSH1 0x8 PUSH1 0x20 MSTORE PUSH1 0x40 SWAP1 KECCAK256 PUSH1 0x5 ADD SLOAD PUSH1 0x1 PUSH1 0x1 PUSH1 0xA0 SHL SUB AND CALLER SUB PUSH2 0xB10 JUMPI PUSH1 0x40 MLOAD PUSH3 0x461BCD PUSH1 0xE5 SHL DUP2 MSTORE PUSH1 0x20 PUSH1 0x4 DUP3 ADD MSTORE PUSH1 0x1F PUSH1 0x24 DUP3 ADD MSTORE PUSH32 0x41756374696F6E2063726561746F722063616E2774206D616B65206269647300 PUSH1 0x44 DUP3 ADD MSTORE PUSH1 0x64 ADD PUSH2 0xA9E JUMP JUMPDEST PUSH1 0x0 DUP2 DUP2 MSTORE PUSH1 0x8 PUSH1 0x20 MSTORE PUSH1 0x40 SWAP1 KECCAK256 PUSH1 0x1 ADD SLOAD PUSH2 0x100 SWAP1 DIV PUSH1 0xFF AND PUSH2 0xB76 JUMPI PUSH1 0x40 MLOAD PUSH3 0x461BCD PUSH1 0xE5 SHL DUP2 MSTORE PUSH1 0x20 PUSH1 0x4 DUP3 ADD MSTORE PUSH1 0x1C PUSH1 0x24 DUP3 ADD MSTORE PUSH32 0x4E4654206973206E6F742073656C6C696E67207269676874206E6F7700000000 PUSH1 0x44 DUP3 ADD MSTORE PUSH1 0x64 ADD PUSH2 0xA9E JUMP JUMPDEST PUSH1 0x0 DUP2 DUP2 MSTORE PUSH1 0x8 PUSH1 0x20 MSTORE PUSH1 0x40 SWAP1 KECCAK256 PUSH1 0x1 ADD SLOAD PUSH3 0x10000 SWAP1 DIV PUSH1 0xFF AND ISZERO PUSH2 0xBA0 JUMPI PUSH2 0xBA0 DUP2 CALLVALUE PUSH2 0x386F JUMP JUMPDEST PUSH1 0x0 DUP2 DUP2 MSTORE PUSH1 0x8 PUSH1 0x20 SWAP1 DUP2 MSTORE PUSH1 0x40 DUP1 DUP4 KECCAK256 PUSH1 0x1 ADD SLOAD PUSH1 0x9 SWAP1 SWAP3 MSTORE DUP3 KECCAK256 SLOAD PUSH1 0x64 SWAP2 PUSH2 0xBD4 SWAP2 PUSH3 0x10000 SWAP1 SWAP2 DIV PUSH1 0xFF AND SWAP1 PUSH2 0x4642 JUMP JUMPDEST PUSH2 0xBDE SWAP2 SWAP1 PUSH2 0x4659 JUMP JUMPDEST PUSH1 0x0 DUP4 DUP2 MSTORE PUSH1 0x9 PUSH1 0x20 MSTORE PUSH1 0x40 SWAP1 KECCAK256 SLOAD PUSH2 0xBF7 SWAP2 SWAP1 PUSH2 0x467B JUMP JUMPDEST PUSH1 0x0 DUP4 DUP2 MSTORE PUSH1 0x8 PUSH1 0x20 MSTORE PUSH1 0x40 DUP1 DUP3 KECCAK256 PUSH1 0x5 ADD SLOAD SWAP1 MLOAD SWAP3 SWAP4 POP SWAP1 SWAP2 PUSH1 0x1 PUSH1 0x1 PUSH1 0xA0 SHL SUB SWAP1 SWAP2 AND SWAP1 DUP4 SWAP1 DUP4 DUP2 DUP2 DUP2 DUP6 DUP8 GAS CALL SWAP3 POP POP POP RETURNDATASIZE DUP1 PUSH1 0x0 DUP2 EQ PUSH2 0xC57 JUMPI PUSH1 0x40 MLOAD SWAP2 POP PUSH1 0x1F NOT PUSH1 0x3F RETURNDATASIZE ADD AND DUP3 ADD PUSH1 0x40 MSTORE RETURNDATASIZE DUP3 MSTORE RETURNDATASIZE PUSH1 0x0 PUSH1 0x20 DUP5 ADD RETURNDATACOPY PUSH2 0xC5C JUMP JUMPDEST PUSH1 0x60 SWAP2 POP JUMPDEST POP POP SWAP1 POP DUP1 PUSH2 0xC6A JUMPI PUSH1 0x0 DUP1 REVERT JUMPDEST PUSH1 0x0 DUP4 DUP2 MSTORE PUSH1 0x8 PUSH1 0x20 MSTORE PUSH1 0x40 SWAP1 KECCAK256 PUSH1 0x5 ADD SLOAD PUSH2 0xC90 SWAP1 PUSH1 0x1 PUSH1 0x1 PUSH1 0xA0 SHL SUB AND CALLER DUP6 PUSH2 0x39E9 JUMP JUMPDEST PUSH1 0x0 DUP4 DUP2 MSTORE PUSH1 0x8 PUSH1 0x20 SWAP1 DUP2 MSTORE PUSH1 0x40 DUP1 DUP4 KECCAK256 PUSH1 0x1 DUP1 DUP3 ADD DUP1 SLOAD PUSH2 0xFF00 NOT AND SWAP1 SSTORE PUSH1 0x9 DUP5 MSTORE DUP3 DUP6 KECCAK256 DUP6 DUP2 SSTORE ADD DUP5 SWAP1 SSTORE PUSH1 0x5 ADD SLOAD PUSH1 0x2 SLOAD DUP3 MLOAD PUSH1 0x1 PUSH1 0x1 PUSH1 0xA0 SHL SUB SWAP1 SWAP3 AND DUP3 MSTORE CALLER SWAP4 DUP3 ADD SWAP4 SWAP1 SWAP4 MSTORE DUP1 DUP3 ADD SWAP4 SWAP1 SWAP4 MSTORE PUSH1 0x60 DUP4 ADD SWAP2 SWAP1 SWAP2 MSTORE PUSH1 0x80 DUP3 ADD DUP6 SWAP1 MSTORE MLOAD PUSH32 0x9BC40851C28662339B844C9D56E2248D22E2E3791CBFF2491E9762A7C46AEC4E SWAP2 DUP2 SWAP1 SUB PUSH1 0xA0 ADD SWAP1 LOG1 POP POP POP JUMP JUMPDEST CALLER PUSH1 0x0 DUP2 DUP2 MSTORE PUSH1 0xD PUSH1 0x20 MSTORE PUSH1 0x40 SWAP1 KECCAK256 SLOAD PUSH1 0xFF AND ISZERO PUSH2 0xD72 JUMPI PUSH1 0x40 MLOAD PUSH3 0x461BCD PUSH1 0xE5 SHL DUP2 MSTORE PUSH1 0x20 PUSH1 0x4 DUP3 ADD MSTORE PUSH1 0xE PUSH1 0x24 DUP3 ADD MSTORE PUSH14 0x4E6F2072652D656E7472616E6379 PUSH1 0x90 SHL PUSH1 0x44 DUP3 ADD MSTORE PUSH1 0x64 ADD PUSH2 0xA9E JUMP JUMPDEST PUSH1 0x1 PUSH1 0x1 PUSH1 0xA0 SHL SUB DUP2 AND PUSH1 0x0 SWAP1 DUP2 MSTORE PUSH1 0xD PUSH1 0x20 MSTORE PUSH1 0x40 SWAP1 KECCAK256 DUP1 SLOAD PUSH1 0xFF NOT AND PUSH1 0x1 OR SWAP1 SSTORE DUP4 PUSH2 0xDF1 JUMPI PUSH1 0x40 MLOAD PUSH3 0x461BCD PUSH1 0xE5 SHL DUP2 MSTORE PUSH1 0x20 PUSH1 0x4 DUP3 ADD MSTORE PUSH1 0x26 PUSH1 0x24 DUP3 ADD MSTORE PUSH32 0x4D696E696D616C2070726963652073686F756C64206265206772656174657220 PUSH1 0x44 DUP3 ADD MSTORE PUSH6 0x7468616E203 PUSH1 0xD4 SHL PUSH1 0x64 DUP3 ADD MSTORE PUSH1 0x84 ADD PUSH2 0xA9E JUMP JUMPDEST CALLER PUSH2 0xDFB DUP5 PUSH2 0x15BD JUMP JUMPDEST PUSH1 0x1 PUSH1 0x1 PUSH1 0xA0 SHL SUB AND DUP2 PUSH1 0x1 PUSH1 0x1 PUSH1 0xA0 SHL SUB AND EQ PUSH2 0xE65 JUMPI PUSH1 0x40 MLOAD PUSH3 0x461BCD PUSH1 0xE5 SHL DUP2 MSTORE PUSH1 0x20 PUSH1 0x4 DUP3 ADD MSTORE PUSH1 0x21 PUSH1 0x24 DUP3 ADD MSTORE PUSH32 0x596F7520617265206E6F7420746865206F776E6572206F662074686973204E46 PUSH1 0x44 DUP3 ADD MSTORE PUSH1 0x15 PUSH1 0xFA SHL PUSH1 0x64 DUP3 ADD MSTORE PUSH1 0x84 ADD PUSH2 0xA9E JUMP JUMPDEST PUSH1 0x0 DUP5 DUP2 MSTORE PUSH1 0x8 PUSH1 0x20 MSTORE PUSH1 0x40 SWAP1 KECCAK256 PUSH1 0x1 ADD SLOAD PUSH1 0xFF AND ISZERO PUSH2 0xEC7 JUMPI PUSH1 0x40 MLOAD PUSH3 0x461BCD PUSH1 0xE5 SHL DUP2 MSTORE PUSH1 0x20 PUSH1 0x4 DUP3 ADD MSTORE PUSH1 0x1A PUSH1 0x24 DUP3 ADD MSTORE PUSH32 0x4E465420697320616C726561647920696E2041756374696F6E21000000000000 PUSH1 0x44 DUP3 ADD MSTORE PUSH1 0x64 ADD PUSH2 0xA9E JUMP JUMPDEST PUSH1 0x0 DUP5 DUP2 MSTORE PUSH1 0x8 PUSH1 0x20 MSTORE PUSH1 0x40 SWAP1 KECCAK256 PUSH1 0x1 ADD SLOAD PUSH2 0x100 SWAP1 DIV PUSH1 0xFF AND ISZERO PUSH2 0xF2E JUMPI PUSH1 0x40 MLOAD PUSH3 0x461BCD PUSH1 0xE5 SHL DUP2 MSTORE PUSH1 0x20 PUSH1 0x4 DUP3 ADD MSTORE PUSH1 0x17 PUSH1 0x24 DUP3 ADD MSTORE PUSH32 0x4E465420697320616C7265616479206F6E2053616C6521000000000000000000 PUSH1 0x44 DUP3 ADD MSTORE PUSH1 0x64 ADD PUSH2 0xA9E JUMP JUMPDEST PUSH2 0xF3C PUSH1 0x1 DUP1 SLOAD PUSH1 0x1 ADD SWAP1 SSTORE JUMP JUMPDEST PUSH1 0x40 DUP1 MLOAD PUSH1 0xE0 DUP2 ADD DUP3 MSTORE PUSH1 0x1 DUP2 MSTORE PUSH1 0x20 DUP2 ADD DUP7 SWAP1 MSTORE SWAP1 DUP2 ADD PUSH2 0xF5F DUP6 PUSH1 0x3C PUSH2 0x468E JUMP JUMPDEST PUSH2 0xF6D SWAP1 PUSH2 0xFFFF AND TIMESTAMP PUSH2 0x46B4 JUMP JUMPDEST DUP2 MSTORE TIMESTAMP PUSH1 0x20 DUP1 DUP4 ADD SWAP2 SWAP1 SWAP2 MSTORE PUSH1 0x40 DUP1 DUP4 ADD DUP11 SWAP1 MSTORE PUSH1 0x60 DUP1 DUP5 ADD DUP11 SWAP1 MSTORE PUSH1 0x1 PUSH1 0x1 PUSH1 0xA0 SHL SUB DUP7 DUP2 AND PUSH1 0x80 SWAP6 DUP7 ADD DUP2 SWAP1 MSTORE PUSH1 0x0 DUP12 DUP2 MSTORE PUSH1 0xB DUP7 MSTORE DUP5 DUP2 KECCAK256 DUP9 MLOAD DUP2 SLOAD SWAP1 ISZERO ISZERO PUSH1 0xFF NOT SWAP2 DUP3 AND OR DUP3 SSTORE DUP10 DUP9 ADD MLOAD PUSH1 0x1 DUP1 DUP5 ADD SWAP2 SWAP1 SWAP2 SSTORE DUP11 DUP9 ADD MLOAD PUSH1 0x2 DUP5 ADD SSTORE DUP11 DUP8 ADD MLOAD PUSH1 0x3 DUP5 ADD SSTORE DUP11 DUP11 ADD MLOAD PUSH1 0x4 DUP5 ADD SSTORE PUSH1 0xA0 DUP12 ADD MLOAD PUSH1 0x5 DUP5 ADD SSTORE PUSH1 0xC0 SWAP1 SWAP11 ADD MLOAD PUSH1 0x6 SWAP3 DUP4 ADD DUP1 SLOAD SWAP2 SWAP1 SWAP7 AND PUSH1 0x1 PUSH1 0x1 PUSH1 0xA0 SHL SUB NOT SWAP2 DUP3 AND OR SWAP1 SWAP6 SSTORE SWAP1 DUP8 MSTORE DUP6 DUP3 KECCAK256 DUP1 SLOAD SWAP1 SWAP5 AND DUP4 OR SWAP1 SWAP4 SSTORE PUSH1 0x8 DUP7 MSTORE DUP5 SWAP1 KECCAK256 DUP8 ADD DUP1 SLOAD SWAP1 SWAP3 AND SWAP1 SWAP7 OR SWAP1 SSTORE DUP2 MLOAD SWAP5 DUP6 MSTORE SWAP2 DUP5 ADD DUP10 SWAP1 MSTORE DUP4 ADD DUP8 SWAP1 MSTORE DUP3 ADD DUP7 SWAP1 MSTORE PUSH32 0x5E4DBE799442580E0983DEDEA209E02D0497B6E3383338A9E1AC3AA117B491EC SWAP2 ADD PUSH1 0x40 MLOAD DUP1 SWAP2 SUB SWAP1 LOG1 POP PUSH1 0x1 PUSH1 0x1 PUSH1 0xA0 SHL SUB AND PUSH1 0x0 SWAP1 DUP2 MSTORE PUSH1 0xD PUSH1 0x20 MSTORE PUSH1 0x40 SWAP1 KECCAK256 DUP1 SLOAD PUSH1 0xFF NOT AND SWAP1 SSTORE POP POP POP POP JUMP JUMPDEST PUSH1 0x0 PUSH2 0x7C3 PUSH1 0x2 SLOAD SWAP1 JUMP JUMPDEST PUSH2 0x10DD PUSH1 0x40 MLOAD DUP1 PUSH1 0x40 ADD PUSH1 0x40 MSTORE DUP1 PUSH1 0x12 DUP2 MSTORE PUSH1 0x20 ADD PUSH32 0x2D2D2D2D2D2D2D2D2D2D2D2D2D2D2D2D2D2D0000000000000000000000000000 DUP2 MSTORE POP PUSH2 0x3BD9 JUMP JUMPDEST PUSH2 0x10E6 CALLVALUE PUSH2 0x3C4A JUMP JUMPDEST PUSH2 0x1124 PUSH1 0x40 MLOAD DUP1 PUSH1 0x40 ADD PUSH1 0x40 MSTORE DUP1 PUSH1 0x12 DUP2 MSTORE PUSH1 0x20 ADD PUSH32 0x2D2D2D2D2D2D2D2D2D2D2D2D2D2D2D2D2D2D0000000000000000000000000000 DUP2 MSTORE POP PUSH2 0x3BD9 JUMP JUMPDEST PUSH1 0x0 DUP2 DUP2 MSTORE PUSH1 0xB PUSH1 0x20 MSTORE PUSH1 0x40 SWAP1 KECCAK256 PUSH1 0x5 ADD SLOAD PUSH2 0x113F SWAP1 PUSH2 0x3C4A JUMP JUMPDEST PUSH2 0x117D PUSH1 0x40 MLOAD DUP1 PUSH1 0x40 ADD PUSH1 0x40 MSTORE DUP1 PUSH1 0x12 DUP2 MSTORE PUSH1 0x20 ADD PUSH32 0x2D2D2D2D2D2D2D2D2D2D2D2D2D2D2D2D2D2D0000000000000000000000000000 DUP2 MSTORE POP PUSH2 0x3BD9 JUMP JUMPDEST PUSH1 0x0 DUP2 DUP2 MSTORE PUSH1 0xB PUSH1 0x20 MSTORE PUSH1 0x40 SWAP1 KECCAK256 PUSH1 0x2 ADD SLOAD TIMESTAMP GT ISZERO PUSH2 0x1204 JUMPI PUSH1 0x40 MLOAD PUSH3 0x461BCD PUSH1 0xE5 SHL DUP2 MSTORE PUSH1 0x20 PUSH1 0x4 DUP3 ADD MSTORE PUSH1 0x2D PUSH1 0x24 DUP3 ADD MSTORE PUSH32 0x41756374696F6E20697320616C72656164792066696E6973686564206F722064 PUSH1 0x44 DUP3 ADD MSTORE PUSH32 0x6F65736E27742065786973747300000000000000000000000000000000000000 PUSH1 0x64 DUP3 ADD MSTORE PUSH1 0x84 ADD PUSH2 0xA9E JUMP JUMPDEST PUSH1 0x0 DUP2 DUP2 MSTORE PUSH1 0xB PUSH1 0x20 MSTORE PUSH1 0x40 SWAP1 KECCAK256 PUSH1 0x5 ADD SLOAD CALLVALUE EQ PUSH2 0x128A JUMPI PUSH1 0x40 MLOAD PUSH3 0x461BCD PUSH1 0xE5 SHL DUP2 MSTORE PUSH1 0x20 PUSH1 0x4 DUP3 ADD MSTORE PUSH1 0x37 PUSH1 0x24 DUP3 ADD MSTORE PUSH32 0x546F206275792074686977204E465420776974686F757420626964732C20796F PUSH1 0x44 DUP3 ADD MSTORE PUSH32 0x752073686F756C64207061792066756C6C207072696365000000000000000000 PUSH1 0x64 DUP3 ADD MSTORE PUSH1 0x84 ADD PUSH2 0xA9E JUMP JUMPDEST PUSH1 0x0 DUP2 DUP2 MSTORE PUSH1 0x5 PUSH1 0x20 DUP2 DUP2 MSTORE PUSH1 0x40 DUP1 DUP5 KECCAK256 SLOAD PUSH1 0xB SWAP1 SWAP3 MSTORE SWAP1 SWAP3 KECCAK256 ADD SLOAD GT PUSH2 0x133F JUMPI PUSH1 0x40 MLOAD PUSH3 0x461BCD PUSH1 0xE5 SHL DUP2 MSTORE PUSH1 0x20 PUSH1 0x4 DUP3 ADD MSTORE PUSH1 0x42 PUSH1 0x24 DUP3 ADD MSTORE PUSH32 0x596F752063616E2774206275792074686973204E465420696620626964732061 PUSH1 0x44 DUP3 ADD MSTORE PUSH32 0x726520616C7265616479206269676765722C207468616E2073656C6C20707269 PUSH1 0x64 DUP3 ADD MSTORE PUSH32 0x6365000000000000000000000000000000000000000000000000000000000000 PUSH1 0x84 DUP3 ADD MSTORE PUSH1 0xA4 ADD PUSH2 0xA9E JUMP JUMPDEST PUSH1 0x0 DUP2 DUP2 MSTORE PUSH1 0xB PUSH1 0x20 MSTORE PUSH1 0x40 SWAP1 KECCAK256 PUSH1 0x6 ADD SLOAD PUSH1 0x1 PUSH1 0x1 PUSH1 0xA0 SHL SUB AND CALLER SUB PUSH2 0x13A8 JUMPI PUSH1 0x40 MLOAD PUSH3 0x461BCD PUSH1 0xE5 SHL DUP2 MSTORE PUSH1 0x20 PUSH1 0x4 DUP3 ADD MSTORE PUSH1 0x1F PUSH1 0x24 DUP3 ADD MSTORE PUSH32 0x41756374696F6E2063726561746F722063616E2774206D616B65206269647300 PUSH1 0x44 DUP3 ADD MSTORE PUSH1 0x64 ADD PUSH2 0xA9E JUMP JUMPDEST PUSH1 0x0 DUP2 DUP2 MSTORE PUSH1 0xB PUSH1 0x20 SWAP1 DUP2 MSTORE PUSH1 0x40 DUP1 DUP4 KECCAK256 PUSH1 0x5 SWAP1 DUP2 ADD SLOAD SWAP3 MSTORE DUP3 KECCAK256 DUP1 SLOAD SWAP2 SWAP3 SWAP1 SWAP2 PUSH2 0x13D4 SWAP1 DUP5 SWAP1 PUSH2 0x46B4 JUMP JUMPDEST SWAP1 SWAP2 SSTORE POP POP PUSH1 0x0 DUP2 DUP2 MSTORE PUSH1 0x6 PUSH1 0x20 SWAP1 DUP2 MSTORE PUSH1 0x40 DUP1 DUP4 KECCAK256 DUP1 SLOAD PUSH1 0x1 PUSH1 0x1 PUSH1 0xA0 SHL SUB NOT AND CALLER SWAP1 DUP2 OR SWAP1 SWAP2 SSTORE PUSH1 0xB DUP4 MSTORE DUP2 DUP5 KECCAK256 PUSH1 0x5 ADD SLOAD PUSH1 0xC DUP5 MSTORE DUP3 DUP6 KECCAK256 SWAP2 DUP6 MSTORE SWAP3 MSTORE DUP3 KECCAK256 DUP1 SLOAD SWAP2 SWAP3 SWAP1 SWAP2 PUSH2 0x1427 SWAP1 DUP5 SWAP1 PUSH2 0x46B4 JUMP JUMPDEST SWAP1 SWAP2 SSTORE POP PUSH2 0x1436 SWAP1 POP DUP2 PUSH2 0x3CBD JUMP JUMPDEST POP JUMP JUMPDEST CALLER PUSH1 0x0 DUP2 DUP2 MSTORE PUSH1 0xD PUSH1 0x20 MSTORE PUSH1 0x40 SWAP1 KECCAK256 SLOAD PUSH1 0xFF AND ISZERO PUSH2 0x148A JUMPI PUSH1 0x40 MLOAD PUSH3 0x461BCD PUSH1 0xE5 SHL DUP2 MSTORE PUSH1 0x20 PUSH1 0x4 DUP3 ADD MSTORE PUSH1 0xE PUSH1 0x24 DUP3 ADD MSTORE PUSH14 0x4E6F2072652D656E7472616E6379 PUSH1 0x90 SHL PUSH1 0x44 DUP3 ADD MSTORE PUSH1 0x64 ADD PUSH2 0xA9E JUMP JUMPDEST PUSH1 0x1 PUSH1 0x1 PUSH1 0xA0 SHL SUB DUP2 AND PUSH1 0x0 SWAP1 DUP2 MSTORE PUSH1 0xD PUSH1 0x20 MSTORE PUSH1 0x40 SWAP1 KECCAK256 DUP1 SLOAD PUSH1 0xFF NOT AND PUSH1 0x1 OR SWAP1 SSTORE CALLER PUSH2 0x14B7 DUP4 PUSH2 0x15BD JUMP JUMPDEST PUSH1 0x1 PUSH1 0x1 PUSH1 0xA0 SHL SUB AND EQ PUSH2 0x150D JUMPI PUSH1 0x40 MLOAD PUSH3 0x461BCD PUSH1 0xE5 SHL DUP2 MSTORE PUSH1 0x20 PUSH1 0x4 DUP3 ADD MSTORE PUSH1 0x1A PUSH1 0x24 DUP3 ADD MSTORE PUSH32 0x416C6C6F776564206F6E6C7920666F72204E4654206F776E6572000000000000 PUSH1 0x44 DUP3 ADD MSTORE PUSH1 0x64 ADD PUSH2 0xA9E JUMP JUMPDEST PUSH1 0x0 DUP3 DUP2 MSTORE PUSH1 0x8 PUSH1 0x20 MSTORE PUSH1 0x40 SWAP1 KECCAK256 PUSH1 0x1 ADD SLOAD PUSH2 0x100 SWAP1 DIV PUSH1 0xFF AND PUSH2 0x1573 JUMPI PUSH1 0x40 MLOAD PUSH3 0x461BCD PUSH1 0xE5 SHL DUP2 MSTORE PUSH1 0x20 PUSH1 0x4 DUP3 ADD MSTORE PUSH1 0x15 PUSH1 0x24 DUP3 ADD MSTORE PUSH32 0x53616C65206973206E6F7420617661696C61626C650000000000000000000000 PUSH1 0x44 DUP3 ADD MSTORE PUSH1 0x64 ADD PUSH2 0xA9E JUMP JUMPDEST PUSH1 0x0 SWAP2 DUP3 MSTORE PUSH1 0x8 PUSH1 0x20 SWAP1 DUP2 MSTORE PUSH1 0x40 DUP1 DUP5 KECCAK256 PUSH1 0x1 SWAP1 DUP2 ADD DUP1 SLOAD PUSH2 0xFF00 NOT AND SWAP1 SSTORE PUSH1 0x9 DUP4 MSTORE DUP2 DUP6 KECCAK256 DUP6 DUP2 SSTORE ADD DUP5 SWAP1 SSTORE PUSH1 0x1 PUSH1 0x1 PUSH1 0xA0 SHL SUB SWAP1 SWAP3 AND DUP4 MSTORE PUSH1 0xD SWAP1 MSTORE SWAP1 KECCAK256 DUP1 SLOAD PUSH1 0xFF NOT AND SWAP1 SSTORE JUMP JUMPDEST PUSH1 0x0 DUP2 DUP2 MSTORE PUSH1 0x8 PUSH1 0x20 MSTORE PUSH1 0x40 DUP2 KECCAK256 PUSH1 0x5 ADD SLOAD PUSH1 0x1 PUSH1 0x1 PUSH1 0xA0 SHL SUB AND DUP1 PUSH2 0x1625 JUMPI PUSH1 0x40 MLOAD PUSH3 0x461BCD PUSH1 0xE5 SHL DUP2 MSTORE PUSH1 0x20 PUSH1 0x4 DUP3 ADD MSTORE PUSH1 0xE PUSH1 0x24 DUP3 ADD MSTORE PUSH32 0x496E76616C6964204E4654204944000000000000000000000000000000000000 PUSH1 0x44 DUP3 ADD MSTORE PUSH1 0x64 ADD PUSH2 0xA9E JUMP JUMPDEST SWAP3 SWAP2 POP POP JUMP JUMPDEST PUSH2 0x1676 PUSH1 0x40 MLOAD DUP1 PUSH1 0xE0 ADD PUSH1 0x40 MSTORE DUP1 PUSH1 0x0 ISZERO ISZERO DUP2 MSTORE PUSH1 0x20 ADD PUSH1 0x0 DUP2 MSTORE PUSH1 0x20 ADD PUSH1 0x0 DUP2 MSTORE PUSH1 0x20 ADD PUSH1 0x0 DUP2 MSTORE PUSH1 0x20 ADD PUSH1 0x0 DUP2 MSTORE PUSH1 0x20 ADD PUSH1 0x0 DUP2 MSTORE PUSH1 0x20 ADD PUSH1 0x0 PUSH1 0x1 PUSH1 0x1 PUSH1 0xA0 SHL SUB AND DUP2 MSTORE POP SWAP1 JUMP JUMPDEST POP PUSH1 0x0 SWAP1 DUP2 MSTORE PUSH1 0xB PUSH1 0x20 SWAP1 DUP2 MSTORE PUSH1 0x40 SWAP2 DUP3 SWAP1 KECCAK256 DUP3 MLOAD PUSH1 0xE0 DUP2 ADD DUP5 MSTORE DUP2 SLOAD PUSH1 0xFF AND ISZERO ISZERO DUP2 MSTORE PUSH1 0x1 DUP3 ADD SLOAD SWAP3 DUP2 ADD SWAP3 SWAP1 SWAP3 MSTORE PUSH1 0x2 DUP2 ADD SLOAD SWAP3 DUP3 ADD SWAP3 SWAP1 SWAP3 MSTORE PUSH1 0x3 DUP3 ADD SLOAD PUSH1 0x60 DUP3 ADD MSTORE PUSH1 0x4 DUP3 ADD SLOAD PUSH1 0x80 DUP3 ADD MSTORE PUSH1 0x5 DUP3 ADD SLOAD PUSH1 0xA0 DUP3 ADD MSTORE PUSH1 0x6 SWAP1 SWAP2 ADD SLOAD PUSH1 0x1 PUSH1 0x1 PUSH1 0xA0 SHL SUB AND PUSH1 0xC0 DUP3 ADD MSTORE SWAP1 JUMP JUMPDEST PUSH1 0x40 DUP1 MLOAD PUSH2 0x120 DUP2 ADD DUP3 MSTORE PUSH1 0x0 DUP1 DUP3 MSTORE PUSH1 0x20 DUP3 ADD DUP2 SWAP1 MSTORE SWAP2 DUP2 ADD DUP3 SWAP1 MSTORE PUSH1 0x60 DUP1 DUP3 ADD DUP4 SWAP1 MSTORE PUSH1 0x80 DUP3 ADD DUP4 SWAP1 MSTORE PUSH1 0xA0 DUP3 ADD DUP4 SWAP1 MSTORE PUSH1 0xC0 DUP3 ADD MSTORE PUSH1 0xE0 DUP2 ADD DUP3 SWAP1 MSTORE PUSH2 0x100 DUP2 ADD SWAP2 SWAP1 SWAP2 MSTORE PUSH1 0x0 DUP3 DUP2 MSTORE PUSH1 0x8 PUSH1 0x20 SWAP1 DUP2 MSTORE PUSH1 0x40 SWAP2 DUP3 SWAP1 KECCAK256 DUP3 MLOAD PUSH2 0x120 DUP2 ADD DUP5 MSTORE DUP2 SLOAD DUP2 MSTORE PUSH1 0x1 DUP3 ADD SLOAD PUSH1 0xFF DUP1 DUP3 AND ISZERO ISZERO SWAP5 DUP4 ADD SWAP5 SWAP1 SWAP5 MSTORE PUSH2 0x100 DUP2 DIV DUP5 AND ISZERO ISZERO SWAP5 DUP3 ADD SWAP5 SWAP1 SWAP5 MSTORE PUSH3 0x10000 SWAP1 SWAP4 DIV SWAP1 SWAP2 AND PUSH1 0x60 DUP4 ADD MSTORE PUSH1 0x2 DUP2 ADD SLOAD PUSH1 0x80 DUP4 ADD MSTORE PUSH1 0x3 DUP2 ADD SLOAD PUSH1 0xA0 DUP4 ADD MSTORE PUSH1 0x4 DUP2 ADD DUP1 SLOAD PUSH1 0xC0 DUP5 ADD SWAP2 SWAP1 PUSH2 0x17A9 SWAP1 PUSH2 0x46C7 JUMP JUMPDEST DUP1 PUSH1 0x1F ADD PUSH1 0x20 DUP1 SWAP2 DIV MUL PUSH1 0x20 ADD PUSH1 0x40 MLOAD SWAP1 DUP2 ADD PUSH1 0x40 MSTORE DUP1 SWAP3 SWAP2 SWAP1 DUP2 DUP2 MSTORE PUSH1 0x20 ADD DUP3 DUP1 SLOAD PUSH2 0x17D5 SWAP1 PUSH2 0x46C7 JUMP JUMPDEST DUP1 ISZERO PUSH2 0x1822 JUMPI DUP1 PUSH1 0x1F LT PUSH2 0x17F7 JUMPI PUSH2 0x100 DUP1 DUP4 SLOAD DIV MUL DUP4 MSTORE SWAP2 PUSH1 0x20 ADD SWAP2 PUSH2 0x1822 JUMP JUMPDEST DUP3 ADD SWAP2 SWAP1 PUSH1 0x0 MSTORE PUSH1 0x20 PUSH1 0x0 KECCAK256 SWAP1 JUMPDEST DUP2 SLOAD DUP2 MSTORE SWAP1 PUSH1 0x1 ADD SWAP1 PUSH1 0x20 ADD DUP1 DUP4 GT PUSH2 0x1805 JUMPI DUP3 SWAP1 SUB PUSH1 0x1F AND DUP3 ADD SWAP2 JUMPDEST POP POP POP SWAP2 DUP4 MSTORE POP POP PUSH1 0x5 DUP3 ADD SLOAD PUSH1 0x1 PUSH1 0x1 PUSH1 0xA0 SHL SUB SWAP1 DUP2 AND PUSH1 0x20 DUP4 ADD MSTORE PUSH1 0x6 SWAP1 SWAP3 ADD SLOAD SWAP1 SWAP2 AND PUSH1 0x40 SWAP1 SWAP2 ADD MSTORE SWAP3 SWAP2 POP POP JUMP JUMPDEST CALLER PUSH1 0x0 DUP2 DUP2 MSTORE PUSH1 0xD PUSH1 0x20 MSTORE PUSH1 0x40 SWAP1 KECCAK256 SLOAD PUSH1 0xFF AND ISZERO PUSH2 0x18A5 JUMPI PUSH1 0x40 MLOAD PUSH3 0x461BCD PUSH1 0xE5 SHL DUP2 MSTORE PUSH1 0x20 PUSH1 0x4 DUP3 ADD MSTORE PUSH1 0xE PUSH1 0x24 DUP3 ADD MSTORE PUSH14 0x4E6F2072652D656E7472616E6379 PUSH1 0x90 SHL PUSH1 0x44 DUP3 ADD MSTORE PUSH1 0x64 ADD PUSH2 0xA9E JUMP JUMPDEST PUSH1 0x1 PUSH1 0x1 PUSH1 0xA0 SHL SUB DUP2 AND PUSH1 0x0 SWAP1 DUP2 MSTORE PUSH1 0xD PUSH1 0x20 MSTORE PUSH1 0x40 SWAP1 KECCAK256 DUP1 SLOAD PUSH1 0xFF NOT AND PUSH1 0x1 OR SWAP1 SSTORE CALLER PUSH2 0x18D2 DUP4 PUSH2 0x15BD JUMP JUMPDEST PUSH1 0x1 PUSH1 0x1 PUSH1 0xA0 SHL SUB AND EQ PUSH2 0x1928 JUMPI PUSH1 0x40 MLOAD PUSH3 0x461BCD PUSH1 0xE5 SHL DUP2 MSTORE PUSH1 0x20 PUSH1 0x4 DUP3 ADD MSTORE PUSH1 0x1A PUSH1 0x24 DUP3 ADD MSTORE PUSH32 0x416C6C6F776564206F6E6C7920666F72204E4654206F776E6572000000000000 PUSH1 0x44 DUP3 ADD MSTORE PUSH1 0x64 ADD PUSH2 0xA9E JUMP JUMPDEST PUSH1 0x0 DUP3 DUP2 MSTORE PUSH1 0x8 PUSH1 0x20 MSTORE PUSH1 0x40 SWAP1 KECCAK256 PUSH1 0x1 ADD SLOAD PUSH1 0xFF AND PUSH2 0x1989 JUMPI PUSH1 0x40 MLOAD PUSH3 0x461BCD PUSH1 0xE5 SHL DUP2 MSTORE PUSH1 0x20 PUSH1 0x4 DUP3 ADD MSTORE PUSH1 0x18 PUSH1 0x24 DUP3 ADD MSTORE PUSH32 0x41756374696F6E206973206E6F7420617661696C61626C650000000000000000 PUSH1 0x44 DUP3 ADD MSTORE PUSH1 0x64 ADD PUSH2 0xA9E JUMP JUMPDEST PUSH1 0x0 DUP3 DUP2 MSTORE PUSH1 0x5 PUSH1 0x20 MSTORE PUSH1 0x40 SWAP1 KECCAK256 SLOAD ISZERO PUSH2 0x19E5 JUMPI PUSH1 0x40 MLOAD PUSH3 0x461BCD PUSH1 0xE5 SHL DUP2 MSTORE PUSH1 0x20 PUSH1 0x4 DUP3 ADD MSTORE PUSH1 0x18 PUSH1 0x24 DUP3 ADD MSTORE PUSH32 0x41756374696F6E2063616E27742062652063616E63656C640000000000000000 PUSH1 0x44 DUP3 ADD MSTORE PUSH1 0x64 ADD PUSH2 0xA9E JUMP JUMPDEST PUSH1 0x0 SWAP2 DUP3 MSTORE PUSH1 0x8 PUSH1 0x20 SWAP1 DUP2 MSTORE PUSH1 0x40 DUP1 DUP5 KECCAK256 PUSH1 0x1 SWAP1 DUP2 ADD DUP1 SLOAD PUSH1 0xFF NOT SWAP1 DUP2 AND SWAP1 SWAP2 SSTORE PUSH1 0xB DUP5 MSTORE DUP3 DUP7 KECCAK256 DUP1 SLOAD DUP3 AND DUP2 SSTORE SWAP2 DUP3 ADD DUP7 SWAP1 SSTORE PUSH1 0x2 DUP3 ADD DUP7 SWAP1 SSTORE PUSH1 0x3 DUP3 ADD DUP7 SWAP1 SSTORE PUSH1 0x4 DUP3 ADD DUP7 SWAP1 SSTORE PUSH1 0x5 DUP3 ADD DUP7 SWAP1 SSTORE PUSH1 0x6 SWAP1 SWAP2 ADD DUP1 SLOAD PUSH1 0x1 PUSH1 0x1 PUSH1 0xA0 SHL SUB NOT AND SWAP1 SSTORE PUSH1 0x1 PUSH1 0x1 PUSH1 0xA0 SHL SUB SWAP4 SWAP1 SWAP4 AND DUP5 MSTORE PUSH1 0xD SWAP1 SWAP2 MSTORE SWAP1 SWAP2 KECCAK256 DUP1 SLOAD SWAP1 SWAP2 AND SWAP1 SSTORE JUMP JUMPDEST PUSH1 0x0 DUP2 DUP2 MSTORE PUSH1 0xB PUSH1 0x20 MSTORE PUSH1 0x40 SWAP1 KECCAK256 PUSH1 0x2 ADD SLOAD TIMESTAMP GT ISZERO PUSH2 0x1AEE JUMPI PUSH1 0x40 MLOAD PUSH3 0x461BCD PUSH1 0xE5 SHL DUP2 MSTORE PUSH1 0x20 PUSH1 0x4 DUP3 ADD MSTORE PUSH1 0x2D PUSH1 0x24 DUP3 ADD MSTORE PUSH32 0x41756374696F6E20697320616C72656164792066696E6973686564206F722064 PUSH1 0x44 DUP3 ADD MSTORE PUSH32 0x6F65736E27742065786973747300000000000000000000000000000000000000 PUSH1 0x64 DUP3 ADD MSTORE PUSH1 0x84 ADD PUSH2 0xA9E JUMP JUMPDEST PUSH1 0x0 DUP2 DUP2 MSTORE PUSH1 0xB PUSH1 0x20 MSTORE PUSH1 0x40 SWAP1 KECCAK256 PUSH1 0x6 ADD SLOAD CALLER SWAP1 PUSH1 0x1 PUSH1 0x1 PUSH1 0xA0 SHL SUB AND DUP2 SUB PUSH2 0x1B59 JUMPI PUSH1 0x40 MLOAD PUSH3 0x461BCD PUSH1 0xE5 SHL DUP2 MSTORE PUSH1 0x20 PUSH1 0x4 DUP3 ADD MSTORE PUSH1 0x1F PUSH1 0x24 DUP3 ADD MSTORE PUSH32 0x41756374696F6E2063726561746F722063616E2774206D616B65206269647300 PUSH1 0x44 DUP3 ADD MSTORE PUSH1 0x64 ADD PUSH2 0xA9E JUMP JUMPDEST PUSH1 0x0 DUP3 DUP2 MSTORE PUSH1 0xB PUSH1 0x20 SWAP1 DUP2 MSTORE PUSH1 0x40 DUP1 DUP4 KECCAK256 PUSH1 0x4 ADD SLOAD PUSH1 0x5 SWAP1 SWAP3 MSTORE SWAP1 SWAP2 KECCAK256 SLOAD CALLVALUE SWAP2 PUSH2 0x1B82 SWAP2 PUSH2 0x46B4 JUMP JUMPDEST DUP2 LT ISZERO PUSH2 0x1BD1 JUMPI PUSH1 0x40 MLOAD PUSH3 0x461BCD PUSH1 0xE5 SHL DUP2 MSTORE PUSH1 0x20 PUSH1 0x4 DUP3 ADD MSTORE PUSH1 0x18 PUSH1 0x24 DUP3 ADD MSTORE PUSH32 0x596F75722062696420697320756E73756666696369656E740000000000000000 PUSH1 0x44 DUP3 ADD MSTORE PUSH1 0x64 ADD PUSH2 0xA9E JUMP JUMPDEST PUSH1 0x40 MLOAD PUSH1 0x0 SWAP1 ADDRESS SWAP1 DUP4 SWAP1 DUP4 DUP2 DUP2 DUP2 DUP6 DUP8 GAS CALL SWAP3 POP POP POP RETURNDATASIZE DUP1 PUSH1 0x0 DUP2 EQ PUSH2 0x1C13 JUMPI PUSH1 0x40 MLOAD SWAP2 POP PUSH1 0x1F NOT PUSH1 0x3F RETURNDATASIZE ADD AND DUP3 ADD PUSH1 0x40 MSTORE RETURNDATASIZE DUP3 MSTORE RETURNDATASIZE PUSH1 0x0 PUSH1 0x20 DUP5 ADD RETURNDATACOPY PUSH2 0x1C18 JUMP JUMPDEST PUSH1 0x60 SWAP2 POP JUMPDEST POP POP SWAP1 POP DUP1 PUSH2 0x1C69 JUMPI PUSH1 0x40 MLOAD PUSH3 0x461BCD PUSH1 0xE5 SHL DUP2 MSTORE PUSH1 0x20 PUSH1 0x4 DUP3 ADD MSTORE PUSH1 0x6 PUSH1 0x24 DUP3 ADD MSTORE PUSH32 0x6572726F72310000000000000000000000000000000000000000000000000000 PUSH1 0x44 DUP3 ADD MSTORE PUSH1 0x64 ADD PUSH2 0xA9E JUMP JUMPDEST PUSH1 0x0 DUP5 DUP2 MSTORE PUSH1 0x6 PUSH1 0x20 SWAP1 DUP2 MSTORE PUSH1 0x40 DUP1 DUP4 KECCAK256 SLOAD PUSH1 0x5 SWAP1 SWAP3 MSTORE DUP1 DUP4 KECCAK256 SLOAD SWAP1 MLOAD PUSH1 0x1 PUSH1 0x1 PUSH1 0xA0 SHL SUB SWAP1 SWAP3 AND SWAP2 DUP4 DUP2 DUP2 DUP2 DUP6 DUP8 GAS CALL SWAP3 POP POP POP RETURNDATASIZE DUP1 PUSH1 0x0 DUP2 EQ PUSH2 0x1CCA JUMPI PUSH1 0x40 MLOAD SWAP2 POP PUSH1 0x1F NOT PUSH1 0x3F RETURNDATASIZE ADD AND DUP3 ADD PUSH1 0x40 MSTORE RETURNDATASIZE DUP3 MSTORE RETURNDATASIZE PUSH1 0x0 PUSH1 0x20 DUP5 ADD RETURNDATACOPY PUSH2 0x1CCF JUMP JUMPDEST PUSH1 0x60 SWAP2 POP JUMPDEST POP POP SWAP1 POP DUP1 PUSH2 0x1D20 JUMPI PUSH1 0x40 MLOAD PUSH3 0x461BCD PUSH1 0xE5 SHL DUP2 MSTORE PUSH1 0x20 PUSH1 0x4 DUP3 ADD MSTORE PUSH1 0x6 PUSH1 0x24 DUP3 ADD MSTORE PUSH32 0x6572726F72320000000000000000000000000000000000000000000000000000 PUSH1 0x44 DUP3 ADD MSTORE PUSH1 0x64 ADD PUSH2 0xA9E JUMP JUMPDEST PUSH1 0x0 DUP6 DUP2 MSTORE PUSH1 0x5 PUSH1 0x20 SWAP1 DUP2 MSTORE PUSH1 0x40 DUP1 DUP4 KECCAK256 DUP7 SWAP1 SSTORE PUSH1 0x6 DUP3 MSTORE DUP1 DUP4 KECCAK256 DUP1 SLOAD PUSH1 0x1 PUSH1 0x1 PUSH1 0xA0 SHL SUB NOT AND PUSH1 0x1 PUSH1 0x1 PUSH1 0xA0 SHL SUB DUP10 AND SWAP1 DUP2 OR SWAP1 SWAP2 SSTORE PUSH1 0xC DUP4 MSTORE DUP2 DUP5 KECCAK256 SWAP1 DUP5 MSTORE SWAP1 SWAP2 MSTORE DUP2 KECCAK256 DUP1 SLOAD DUP6 SWAP3 SWAP1 PUSH2 0x1D76 SWAP1 DUP5 SWAP1 PUSH2 0x46B4 JUMP JUMPDEST SWAP1 SWAP2 SSTORE POP POP PUSH1 0x0 DUP6 DUP2 MSTORE PUSH1 0xB PUSH1 0x20 MSTORE PUSH1 0x40 SWAP1 KECCAK256 PUSH1 0x2 ADD SLOAD PUSH2 0x12C SWAP1 PUSH2 0x1D9C SWAP1 TIMESTAMP SWAP1 PUSH2 0x467B JUMP JUMPDEST LT ISZERO PUSH2 0x1DCA JUMPI PUSH1 0x0 DUP6 DUP2 MSTORE PUSH1 0xB PUSH1 0x20 MSTORE PUSH1 0x40 DUP2 KECCAK256 PUSH1 0x2 ADD DUP1 SLOAD PUSH1 0xB4 SWAP3 SWAP1 PUSH2 0x1DC4 SWAP1 DUP5 SWAP1 PUSH2 0x46B4 JUMP JUMPDEST SWAP1 SWAP2 SSTORE POP POP JUMPDEST PUSH1 0x40 DUP1 MLOAD DUP7 DUP2 MSTORE PUSH1 0x20 DUP2 ADD DUP8 SWAP1 MSTORE PUSH1 0x1 PUSH1 0x1 PUSH1 0xA0 SHL SUB DUP7 AND DUP2 DUP4 ADD MSTORE PUSH1 0x60 DUP2 ADD DUP6 SWAP1 MSTORE SWAP1 MLOAD PUSH32 0x68CA22619736CE52A19D1B37CFEEA709881038C1F6C94062B4CF60527B5E3A12 SWAP2 DUP2 SWAP1 SUB PUSH1 0x80 ADD SWAP1 LOG1 POP POP POP POP POP JUMP JUMPDEST PUSH1 0x0 DUP2 DUP2 MSTORE PUSH1 0x8 PUSH1 0x20 MSTORE PUSH1 0x40 SWAP1 KECCAK256 PUSH1 0x5 ADD SLOAD PUSH1 0x1 PUSH1 0x1 PUSH1 0xA0 SHL SUB AND PUSH2 0x1E87 JUMPI PUSH1 0x40 MLOAD PUSH3 0x461BCD PUSH1 0xE5 SHL DUP2 MSTORE PUSH1 0x20 PUSH1 0x4 DUP3 ADD MSTORE PUSH1 0xF PUSH1 0x24 DUP3 ADD MSTORE PUSH32 0x556E617661696C61626C65204E46540000000000000000000000000000000000 PUSH1 0x44 DUP3 ADD MSTORE PUSH1 0x64 ADD PUSH2 0xA9E JUMP JUMPDEST PUSH1 0x0 DUP2 DUP2 MSTORE PUSH1 0x8 PUSH1 0x20 MSTORE PUSH1 0x40 SWAP1 KECCAK256 PUSH1 0x1 ADD SLOAD PUSH2 0x100 SWAP1 DIV PUSH1 0xFF AND PUSH2 0x1EED JUMPI PUSH1 0x40 MLOAD PUSH3 0x461BCD PUSH1 0xE5 SHL DUP2 MSTORE PUSH1 0x20 PUSH1 0x4 DUP3 ADD MSTORE PUSH1 0x12 PUSH1 0x24 DUP3 ADD MSTORE PUSH32 0x4E4654206E6F772069732073656C6C696E670000000000000000000000000000 PUSH1 0x44 DUP3 ADD MSTORE PUSH1 0x64 ADD PUSH2 0xA9E JUMP JUMPDEST PUSH1 0x0 DUP2 DUP2 MSTORE PUSH1 0x8 PUSH1 0x20 MSTORE PUSH1 0x40 SWAP1 KECCAK256 PUSH1 0x1 ADD SLOAD PUSH1 0xFF AND PUSH2 0x1F4E JUMPI PUSH1 0x40 MLOAD PUSH3 0x461BCD PUSH1 0xE5 SHL DUP2 MSTORE PUSH1 0x20 PUSH1 0x4 DUP3 ADD MSTORE PUSH1 0x15 PUSH1 0x24 DUP3 ADD MSTORE PUSH32 0x4E4654206E6F77206973206F6E2041756374696F6E0000000000000000000000 PUSH1 0x44 DUP3 ADD MSTORE PUSH1 0x64 ADD PUSH2 0xA9E JUMP JUMPDEST PUSH1 0x0 DUP2 DUP2 MSTORE PUSH1 0x8 PUSH1 0x20 MSTORE PUSH1 0x40 SWAP1 KECCAK256 PUSH1 0x5 ADD SLOAD PUSH1 0x1 PUSH1 0x1 PUSH1 0xA0 SHL SUB AND CALLER EQ PUSH2 0x1FC1 JUMPI PUSH1 0x40 MLOAD PUSH3 0x461BCD PUSH1 0xE5 SHL DUP2 MSTORE PUSH1 0x20 PUSH1 0x4 DUP3 ADD MSTORE PUSH1 0x21 PUSH1 0x24 DUP3 ADD MSTORE PUSH32 0x596F7520617265206E6F7420746865206F776E6572206F662074686973204E46 PUSH1 0x44 DUP3 ADD MSTORE PUSH1 0x15 PUSH1 0xFA SHL PUSH1 0x64 DUP3 ADD MSTORE PUSH1 0x84 ADD PUSH2 0xA9E JUMP JUMPDEST PUSH1 0x0 DUP2 DUP2 MSTORE PUSH1 0x8 PUSH1 0x20 DUP2 DUP2 MSTORE PUSH1 0x40 DUP1 DUP5 KECCAK256 PUSH1 0x2 DUP2 ADD DUP1 SLOAD DUP7 MSTORE PUSH1 0x4 DUP1 DUP6 MSTORE SWAP3 DUP7 KECCAK256 DUP1 SLOAD PUSH1 0xFF NOT AND SWAP1 SSTORE DUP7 DUP7 MSTORE SWAP4 SWAP1 SWAP3 MSTORE DUP4 DUP3 SSTORE PUSH1 0x1 DUP3 ADD DUP1 SLOAD PUSH3 0xFFFFFF NOT AND SWAP1 SSTORE SWAP2 DUP4 SWAP1 SSTORE PUSH1 0x3 DUP2 ADD DUP4 SWAP1 SSTORE SWAP2 SWAP1 PUSH2 0x201B SWAP1 DUP4 ADD DUP3 PUSH2 0x41D6 JUMP JUMPDEST POP PUSH1 0x5 DUP2 ADD DUP1 SLOAD PUSH1 0x1 PUSH1 0x1 PUSH1 0xA0 SHL SUB NOT SWAP1 DUP2 AND SWAP1 SWAP2 SSTORE PUSH1 0x6 SWAP1 SWAP2 ADD DUP1 SLOAD SWAP1 SWAP2 AND SWAP1 SSTORE PUSH2 0x2047 PUSH1 0x0 PUSH2 0x411B JUMP JUMPDEST PUSH1 0x40 DUP1 MLOAD CALLER DUP2 MSTORE PUSH1 0x20 DUP2 ADD DUP4 SWAP1 MSTORE PUSH32 0xCC16F5DBB4873280815C1EE09DBD06736CFFCC184412CF7A71A0FDB75D397CA5 SWAP2 ADD PUSH1 0x40 MLOAD DUP1 SWAP2 SUB SWAP1 LOG1 POP JUMP JUMPDEST PUSH1 0x0 DUP3 DUP2 MSTORE PUSH1 0xB PUSH1 0x20 MSTORE PUSH1 0x40 SWAP1 KECCAK256 PUSH1 0x6 ADD SLOAD PUSH1 0x1 PUSH1 0x1 PUSH1 0xA0 SHL SUB AND CALLER EQ PUSH2 0x20F6 JUMPI PUSH1 0x40 MLOAD PUSH3 0x461BCD PUSH1 0xE5 SHL DUP2 MSTORE PUSH1 0x20 PUSH1 0x4 DUP3 ADD MSTORE PUSH1 0x21 PUSH1 0x24 DUP3 ADD MSTORE PUSH32 0x596F7520617265206E6F7420746865206F776E6572206F662074686973204E46 PUSH1 0x44 DUP3 ADD MSTORE PUSH1 0x15 PUSH1 0xFA SHL PUSH1 0x64 DUP3 ADD MSTORE PUSH1 0x84 ADD PUSH2 0xA9E JUMP JUMPDEST PUSH1 0x0 DUP3 DUP2 MSTORE PUSH1 0xB PUSH1 0x20 MSTORE PUSH1 0x40 SWAP1 KECCAK256 SLOAD PUSH1 0xFF AND PUSH2 0x2154 JUMPI PUSH1 0x40 MLOAD PUSH3 0x461BCD PUSH1 0xE5 SHL DUP2 MSTORE PUSH1 0x20 PUSH1 0x4 DUP3 ADD MSTORE PUSH1 0x18 PUSH1 0x24 DUP3 ADD MSTORE PUSH32 0x41756374696F6E206973206E6F7420617661696C61626C650000000000000000 PUSH1 0x44 DUP3 ADD MSTORE PUSH1 0x64 ADD PUSH2 0xA9E JUMP JUMPDEST PUSH1 0x0 DUP3 DUP2 MSTORE PUSH1 0xB PUSH1 0x20 MSTORE PUSH1 0x40 SWAP1 KECCAK256 PUSH1 0x4 ADD SLOAD DUP2 SWAP1 SUB PUSH2 0x21DB JUMPI PUSH1 0x40 MLOAD PUSH3 0x461BCD PUSH1 0xE5 SHL DUP2 MSTORE PUSH1 0x20 PUSH1 0x4 DUP3 ADD MSTORE PUSH1 0x2F PUSH1 0x24 DUP3 ADD MSTORE PUSH32 0x596F7527726520747279696E67207365742074686520616C726561647920696E PUSH1 0x44 DUP3 ADD MSTORE PUSH32 0x7374616C6C6564206D696E206269640000000000000000000000000000000000 PUSH1 0x64 DUP3 ADD MSTORE PUSH1 0x84 ADD PUSH2 0xA9E JUMP JUMPDEST PUSH1 0x0 DUP3 DUP2 MSTORE PUSH1 0xB PUSH1 0x20 SWAP1 DUP2 MSTORE PUSH1 0x40 SWAP2 DUP3 SWAP1 KECCAK256 PUSH1 0x4 ADD DUP4 SWAP1 SSTORE DUP2 MLOAD DUP4 DUP2 MSTORE SWAP1 DUP2 ADD DUP5 SWAP1 MSTORE PUSH32 0x10E824432BCA887A0638381FC4C4C8C2EE186BB69B4813AD619F04A0DA94A2E4 SWAP2 ADD PUSH1 0x40 MLOAD DUP1 SWAP2 SUB SWAP1 LOG1 POP POP JUMP JUMPDEST PUSH1 0x60 PUSH1 0xA PUSH1 0x0 DUP4 DUP2 MSTORE PUSH1 0x20 ADD SWAP1 DUP2 MSTORE PUSH1 0x20 ADD PUSH1 0x0 KECCAK256 DUP1 SLOAD DUP1 PUSH1 0x20 MUL PUSH1 0x20 ADD PUSH1 0x40 MLOAD SWAP1 DUP2 ADD PUSH1 0x40 MSTORE DUP1 SWAP3 SWAP2 SWAP1 DUP2 DUP2 MSTORE PUSH1 0x20 ADD PUSH1 0x0 SWAP1 JUMPDEST DUP3 DUP3 LT ISZERO PUSH2 0x22B7 JUMPI PUSH1 0x0 DUP5 DUP2 MSTORE PUSH1 0x20 SWAP1 DUP2 SWAP1 KECCAK256 PUSH1 0x40 DUP1 MLOAD PUSH1 0x60 DUP2 ADD DUP3 MSTORE PUSH1 0x3 DUP7 MUL SWAP1 SWAP3 ADD DUP1 SLOAD DUP4 MSTORE PUSH1 0x1 DUP1 DUP3 ADD SLOAD DUP5 DUP7 ADD MSTORE PUSH1 0x2 SWAP1 SWAP2 ADD SLOAD PUSH1 0x1 PUSH1 0x1 PUSH1 0xA0 SHL SUB AND SWAP2 DUP4 ADD SWAP2 SWAP1 SWAP2 MSTORE SWAP1 DUP4 MSTORE SWAP1 SWAP3 ADD SWAP2 ADD PUSH2 0x2262 JUMP JUMPDEST POP POP POP POP SWAP1 POP SWAP2 SWAP1 POP JUMP JUMPDEST CALLER PUSH1 0x0 DUP2 DUP2 MSTORE PUSH1 0xD PUSH1 0x20 MSTORE PUSH1 0x40 SWAP1 KECCAK256 SLOAD PUSH1 0xFF AND ISZERO PUSH2 0x2313 JUMPI PUSH1 0x40 MLOAD PUSH3 0x461BCD PUSH1 0xE5 SHL DUP2 MSTORE PUSH1 0x20 PUSH1 0x4 DUP3 ADD MSTORE PUSH1 0xE PUSH1 0x24 DUP3 ADD MSTORE PUSH14 0x4E6F2072652D656E7472616E6379 PUSH1 0x90 SHL PUSH1 0x44 DUP3 ADD MSTORE PUSH1 0x64 ADD PUSH2 0xA9E JUMP JUMPDEST PUSH1 0x1 PUSH1 0x1 PUSH1 0xA0 SHL SUB DUP2 AND PUSH1 0x0 SWAP1 DUP2 MSTORE PUSH1 0xD PUSH1 0x20 MSTORE PUSH1 0x40 SWAP1 KECCAK256 DUP1 SLOAD PUSH1 0xFF NOT AND PUSH1 0x1 OR SWAP1 SSTORE DUP5 MLOAD PUSH1 0x2E EQ PUSH2 0x2387 JUMPI PUSH1 0x40 MLOAD PUSH3 0x461BCD PUSH1 0xE5 SHL DUP2 MSTORE PUSH1 0x20 PUSH1 0x4 DUP3 ADD MSTORE PUSH1 0x16 PUSH1 0x24 DUP3 ADD MSTORE PUSH32 0x496E76616C6964204E465420696D616765206861736800000000000000000000 PUSH1 0x44 DUP3 ADD MSTORE PUSH1 0x64 ADD PUSH2 0xA9E JUMP JUMPDEST PUSH1 0x0 DUP5 MLOAD GT PUSH2 0x23D8 JUMPI PUSH1 0x40 MLOAD PUSH3 0x461BCD PUSH1 0xE5 SHL DUP2 MSTORE PUSH1 0x20 PUSH1 0x4 DUP3 ADD MSTORE PUSH1 0x10 PUSH1 0x24 DUP3 ADD MSTORE PUSH32 0x496E76616C6964204E4654206E616D6500000000000000000000000000000000 PUSH1 0x44 DUP3 ADD MSTORE PUSH1 0x64 ADD PUSH2 0xA9E JUMP JUMPDEST PUSH1 0x0 DUP4 MLOAD GT PUSH2 0x2429 JUMPI PUSH1 0x40 MLOAD PUSH3 0x461BCD PUSH1 0xE5 SHL DUP2 MSTORE PUSH1 0x20 PUSH1 0x4 DUP3 ADD MSTORE PUSH1 0x17 PUSH1 0x24 DUP3 ADD MSTORE PUSH32 0x496E76616C6964204E4654206465736372697074696F6E000000000000000000 PUSH1 0x44 DUP3 ADD MSTORE PUSH1 0x64 ADD PUSH2 0xA9E JUMP JUMPDEST CALLER PUSH2 0x2476 JUMPI PUSH1 0x40 MLOAD PUSH3 0x461BCD PUSH1 0xE5 SHL DUP2 MSTORE PUSH1 0x20 PUSH1 0x4 DUP3 ADD MSTORE PUSH1 0x9 PUSH1 0x24 DUP3 ADD MSTORE PUSH32 0x4164647265737320300000000000000000000000000000000000000000000000 PUSH1 0x44 DUP3 ADD MSTORE PUSH1 0x64 ADD PUSH2 0xA9E JUMP JUMPDEST PUSH1 0x14 DUP3 PUSH1 0xFF AND GT ISZERO PUSH2 0x24F0 JUMPI PUSH1 0x40 MLOAD PUSH3 0x461BCD PUSH1 0xE5 SHL DUP2 MSTORE PUSH1 0x20 PUSH1 0x4 DUP3 ADD MSTORE PUSH1 0x23 PUSH1 0x24 DUP3 ADD MSTORE PUSH32 0x6D6178696D756D206665652073686F756C64206265206C657373207468616E20 PUSH1 0x44 DUP3 ADD MSTORE PUSH32 0x3230250000000000000000000000000000000000000000000000000000000000 PUSH1 0x64 DUP3 ADD MSTORE PUSH1 0x84 ADD PUSH2 0xA9E JUMP JUMPDEST PUSH1 0x20 DUP6 DUP2 ADD MLOAD PUSH1 0x0 DUP2 DUP2 MSTORE PUSH1 0x4 SWAP1 SWAP3 MSTORE PUSH1 0x40 SWAP1 SWAP2 KECCAK256 SLOAD PUSH1 0xFF AND ISZERO PUSH2 0x25A2 JUMPI PUSH1 0x40 MLOAD PUSH3 0x461BCD PUSH1 0xE5 SHL DUP2 MSTORE PUSH1 0x20 PUSH1 0x4 DUP3 ADD MSTORE PUSH1 0x43 PUSH1 0x24 DUP3 ADD MSTORE PUSH32 0x496D6167652068617368206973206E6F7420756E697175652E20596F75206172 PUSH1 0x44 DUP3 ADD MSTORE PUSH32 0x6520747279696E6720746F2075706C6F616420616E206578697374656420696D PUSH1 0x64 DUP3 ADD MSTORE PUSH32 0x6167650000000000000000000000000000000000000000000000000000000000 PUSH1 0x84 DUP3 ADD MSTORE PUSH1 0xA4 ADD PUSH2 0xA9E JUMP JUMPDEST PUSH1 0x0 DUP1 DUP8 DUP8 PUSH1 0x40 MLOAD PUSH1 0x20 ADD PUSH2 0x25B8 SWAP3 SWAP2 SWAP1 PUSH2 0x4701 JUMP JUMPDEST PUSH1 0x40 DUP1 MLOAD PUSH1 0x1F NOT DUP2 DUP5 SUB ADD DUP2 MSTORE SWAP2 DUP2 MSTORE DUP2 ADD MLOAD SWAP3 POP SWAP1 POP PUSH2 0x25DD PUSH1 0x0 DUP1 SLOAD PUSH1 0x1 ADD SWAP1 SSTORE JUMP JUMPDEST PUSH1 0x40 MLOAD DUP1 PUSH2 0x120 ADD PUSH1 0x40 MSTORE DUP1 PUSH2 0x25F2 PUSH1 0x0 SLOAD SWAP1 JUMP JUMPDEST DUP2 MSTORE PUSH1 0x20 ADD PUSH1 0x0 ISZERO ISZERO DUP2 MSTORE PUSH1 0x20 ADD PUSH1 0x0 ISZERO ISZERO DUP2 MSTORE PUSH1 0x20 ADD DUP7 PUSH1 0xFF AND DUP2 MSTORE PUSH1 0x20 ADD DUP5 DUP2 MSTORE PUSH1 0x20 ADD DUP4 DUP2 MSTORE PUSH1 0x20 ADD DUP8 DUP2 MSTORE PUSH1 0x20 ADD CALLER PUSH1 0x1 PUSH1 0x1 PUSH1 0xA0 SHL SUB AND DUP2 MSTORE PUSH1 0x20 ADD CALLER PUSH1 0x1 PUSH1 0x1 PUSH1 0xA0 SHL SUB AND DUP2 MSTORE POP PUSH1 0x8 PUSH1 0x0 PUSH2 0x264D PUSH1 0x0 SLOAD SWAP1 JUMP JUMPDEST DUP2 MSTORE PUSH1 0x20 DUP1 DUP3 ADD SWAP3 SWAP1 SWAP3 MSTORE PUSH1 0x40 SWAP1 DUP2 ADD PUSH1 0x0 KECCAK256 DUP4 MLOAD DUP2 SSTORE SWAP2 DUP4 ADD MLOAD PUSH1 0x1 DUP4 ADD DUP1 SLOAD SWAP3 DUP6 ADD MLOAD PUSH1 0x60 DUP7 ADD MLOAD PUSH1 0xFF AND PUSH3 0x10000 MUL PUSH3 0xFF0000 NOT SWAP2 ISZERO ISZERO PUSH2 0x100 MUL PUSH2 0xFF00 NOT SWAP5 ISZERO ISZERO SWAP5 SWAP1 SWAP5 AND PUSH2 0xFFFF NOT SWAP1 SWAP6 AND SWAP5 SWAP1 SWAP5 OR SWAP3 SWAP1 SWAP3 OR SWAP2 SWAP1 SWAP2 AND SWAP2 SWAP1 SWAP2 OR SWAP1 SSTORE PUSH1 0x80 DUP3 ADD MLOAD PUSH1 0x2 DUP3 ADD SSTORE PUSH1 0xA0 DUP3 ADD MLOAD PUSH1 0x3 DUP3 ADD SSTORE PUSH1 0xC0 DUP3 ADD MLOAD PUSH1 0x4 DUP3 ADD SWAP1 PUSH2 0x26D7 SWAP1 DUP3 PUSH2 0x477B JUMP JUMPDEST POP PUSH1 0xE0 DUP3 ADD MLOAD PUSH1 0x5 DUP3 ADD DUP1 SLOAD PUSH1 0x1 PUSH1 0x1 PUSH1 0xA0 SHL SUB NOT SWAP1 DUP2 AND PUSH1 0x1 PUSH1 0x1 PUSH1 0xA0 SHL SUB SWAP4 DUP5 AND OR SWAP1 SWAP2 SSTORE PUSH2 0x100 SWAP1 SWAP4 ADD MLOAD PUSH1 0x6 SWAP1 SWAP3 ADD DUP1 SLOAD SWAP1 SWAP4 AND SWAP2 AND OR SWAP1 SSTORE PUSH1 0x0 DUP4 DUP2 MSTORE PUSH1 0x4 PUSH1 0x20 SWAP1 DUP2 MSTORE PUSH1 0x40 DUP1 DUP4 KECCAK256 DUP1 SLOAD PUSH1 0xFF NOT AND PUSH1 0x1 OR SWAP1 SSTORE CALLER DUP4 MSTORE PUSH1 0x7 SWAP1 SWAP2 MSTORE DUP2 KECCAK256 DUP1 SLOAD PUSH4 0xFFFFFFFF AND SWAP2 PUSH2 0x274C DUP4 PUSH2 0x483B JUMP JUMPDEST SWAP2 SWAP1 PUSH2 0x100 EXP DUP2 SLOAD DUP2 PUSH4 0xFFFFFFFF MUL NOT AND SWAP1 DUP4 PUSH4 0xFFFFFFFF AND MUL OR SWAP1 SSTORE POP POP PUSH32 0x66B86F98FA6B1EE4CE95041A06EBCEAA1C0A078864C2D67E2A974F116158844E CALLER DUP10 DUP10 DUP10 PUSH1 0x40 MLOAD PUSH2 0x27A0 SWAP5 SWAP4 SWAP3 SWAP2 SWAP1 PUSH2 0x485E JUMP JUMPDEST PUSH1 0x40 MLOAD DUP1 SWAP2 SUB SWAP1 LOG1 POP POP POP PUSH1 0x1 PUSH1 0x1 PUSH1 0xA0 SHL SUB AND PUSH1 0x0 SWAP1 DUP2 MSTORE PUSH1 0xD PUSH1 0x20 MSTORE PUSH1 0x40 SWAP1 KECCAK256 DUP1 SLOAD PUSH1 0xFF NOT AND SWAP1 SSTORE POP POP POP POP JUMP JUMPDEST CALLER PUSH2 0x27DA DUP4 PUSH2 0x15BD JUMP JUMPDEST PUSH1 0x1 PUSH1 0x1 PUSH1 0xA0 SHL SUB AND EQ PUSH2 0x2830 JUMPI PUSH1 0x40 MLOAD PUSH3 0x461BCD PUSH1 0xE5 SHL DUP2 MSTORE PUSH1 0x20 PUSH1 0x4 DUP3 ADD MSTORE PUSH1 0x1A PUSH1 0x24 DUP3 ADD MSTORE PUSH32 0x416C6C6F776564206F6E6C7920666F72204E4654206F776E6572000000000000 PUSH1 0x44 DUP3 ADD MSTORE PUSH1 0x64 ADD PUSH2 0xA9E JUMP JUMPDEST PUSH1 0x0 DUP3 DUP2 MSTORE PUSH1 0xB PUSH1 0x20 MSTORE PUSH1 0x40 SWAP1 KECCAK256 SLOAD PUSH1 0xFF AND PUSH2 0x288E JUMPI PUSH1 0x40 MLOAD PUSH3 0x461BCD PUSH1 0xE5 SHL DUP2 MSTORE PUSH1 0x20 PUSH1 0x4 DUP3 ADD MSTORE PUSH1 0x18 PUSH1 0x24 DUP3 ADD MSTORE PUSH32 0x41756374696F6E206973206E6F7420617661696C61626C650000000000000000 PUSH1 0x44 DUP3 ADD MSTORE PUSH1 0x64 ADD PUSH2 0xA9E JUMP JUMPDEST PUSH1 0x0 DUP3 DUP2 MSTORE PUSH1 0x5 PUSH1 0x20 MSTORE PUSH1 0x40 SWAP1 KECCAK256 SLOAD ISZERO PUSH2 0x2936 JUMPI PUSH1 0x40 MLOAD PUSH3 0x461BCD PUSH1 0xE5 SHL DUP2 MSTORE PUSH1 0x20 PUSH1 0x4 DUP3 ADD MSTORE PUSH1 0x42 PUSH1 0x24 DUP3 ADD MSTORE PUSH32 0x596F752063616E2774206368616E676520746865207072696365206F66204E46 PUSH1 0x44 DUP3 ADD MSTORE PUSH32 0x542C20796F7520736F6D65626F647920616C7265616479206D61646520612062 PUSH1 0x64 DUP3 ADD MSTORE PUSH32 0x6964000000000000000000000000000000000000000000000000000000000000 PUSH1 0x84 DUP3 ADD MSTORE PUSH1 0xA4 ADD PUSH2 0xA9E JUMP JUMPDEST PUSH1 0x0 DUP2 GT PUSH2 0x2986 JUMPI PUSH1 0x40 MLOAD PUSH3 0x461BCD PUSH1 0xE5 SHL DUP2 MSTORE PUSH1 0x20 PUSH1 0x4 DUP3 ADD MSTORE PUSH1 0x17 PUSH1 0x24 DUP3 ADD MSTORE PUSH32 0x796F752063616E2774206D616B65204E46542066726565000000000000000000 PUSH1 0x44 DUP3 ADD MSTORE PUSH1 0x64 ADD PUSH2 0xA9E JUMP JUMPDEST PUSH1 0x0 SWAP2 DUP3 MSTORE PUSH1 0xB PUSH1 0x20 MSTORE PUSH1 0x40 SWAP1 SWAP2 KECCAK256 PUSH1 0x5 ADD SSTORE JUMP JUMPDEST PUSH1 0x0 PUSH2 0x7C3 PUSH1 0x1 SLOAD SWAP1 JUMP JUMPDEST PUSH1 0x20 DUP2 ADD MLOAD PUSH1 0x0 SWAP1 DUP2 JUMPDEST PUSH1 0x0 SLOAD DUP2 GT PUSH2 0x29EB JUMPI PUSH1 0x0 DUP2 DUP2 MSTORE PUSH1 0x8 PUSH1 0x20 MSTORE PUSH1 0x40 SWAP1 KECCAK256 PUSH1 0x2 ADD SLOAD DUP3 SWAP1 SUB PUSH2 0x29D9 JUMPI SWAP4 SWAP3 POP POP POP JUMP JUMPDEST DUP1 PUSH2 0x29E3 DUP2 PUSH2 0x48B1 JUMP JUMPDEST SWAP2 POP POP PUSH2 0x29B0 JUMP JUMPDEST POP PUSH1 0x0 SWAP4 SWAP3 POP POP POP JUMP JUMPDEST PUSH1 0x60 PUSH1 0x0 DUP1 JUMPDEST PUSH1 0x0 SLOAD DUP2 GT PUSH2 0x2A43 JUMPI PUSH1 0x0 DUP2 DUP2 MSTORE PUSH1 0x8 PUSH1 0x20 MSTORE PUSH1 0x40 SWAP1 KECCAK256 PUSH1 0x1 ADD SLOAD PUSH2 0x100 SWAP1 DIV PUSH1 0xFF AND ISZERO PUSH2 0x2A31 JUMPI DUP2 PUSH2 0x2A2D DUP2 PUSH2 0x48B1 JUMP JUMPDEST SWAP3 POP POP JUMPDEST DUP1 PUSH2 0x2A3B DUP2 PUSH2 0x48B1 JUMP JUMPDEST SWAP2 POP POP PUSH2 0x29FB JUMP JUMPDEST POP PUSH1 0x0 DUP2 PUSH8 0xFFFFFFFFFFFFFFFF DUP2 GT ISZERO PUSH2 0x2A5F JUMPI PUSH2 0x2A5F PUSH2 0x4427 JUMP JUMPDEST PUSH1 0x40 MLOAD SWAP1 DUP1 DUP3 MSTORE DUP1 PUSH1 0x20 MUL PUSH1 0x20 ADD DUP3 ADD PUSH1 0x40 MSTORE DUP1 ISZERO PUSH2 0x2AD5 JUMPI DUP2 PUSH1 0x20 ADD JUMPDEST PUSH1 0x40 DUP1 MLOAD PUSH2 0x120 DUP2 ADD DUP3 MSTORE PUSH1 0x0 DUP1 DUP3 MSTORE PUSH1 0x20 DUP1 DUP4 ADD DUP3 SWAP1 MSTORE SWAP3 DUP3 ADD DUP2 SWAP1 MSTORE PUSH1 0x60 DUP1 DUP4 ADD DUP3 SWAP1 MSTORE PUSH1 0x80 DUP4 ADD DUP3 SWAP1 MSTORE PUSH1 0xA0 DUP4 ADD DUP3 SWAP1 MSTORE PUSH1 0xC0 DUP4 ADD MSTORE PUSH1 0xE0 DUP3 ADD DUP2 SWAP1 MSTORE PUSH2 0x100 DUP3 ADD MSTORE DUP3 MSTORE PUSH1 0x0 NOT SWAP1 SWAP3 ADD SWAP2 ADD DUP2 PUSH2 0x2A7D JUMPI SWAP1 POP JUMPDEST POP PUSH1 0x0 SWAP3 POP SWAP1 POP PUSH1 0x1 JUMPDEST PUSH1 0x0 SLOAD DUP2 GT PUSH2 0x2C66 JUMPI PUSH1 0x0 DUP2 DUP2 MSTORE PUSH1 0x8 PUSH1 0x20 MSTORE PUSH1 0x40 SWAP1 KECCAK256 PUSH1 0x1 ADD SLOAD PUSH2 0x100 SWAP1 DIV PUSH1 0xFF AND ISZERO PUSH2 0x2C54 JUMPI PUSH1 0x0 DUP2 DUP2 MSTORE PUSH1 0x8 PUSH1 0x20 SWAP1 DUP2 MSTORE PUSH1 0x40 SWAP2 DUP3 SWAP1 KECCAK256 DUP3 MLOAD PUSH2 0x120 DUP2 ADD DUP5 MSTORE DUP2 SLOAD DUP2 MSTORE PUSH1 0x1 DUP3 ADD SLOAD PUSH1 0xFF DUP1 DUP3 AND ISZERO ISZERO SWAP5 DUP4 ADD SWAP5 SWAP1 SWAP5 MSTORE PUSH2 0x100 DUP2 DIV DUP5 AND ISZERO ISZERO SWAP5 DUP3 ADD SWAP5 SWAP1 SWAP5 MSTORE PUSH3 0x10000 SWAP1 SWAP4 DIV SWAP1 SWAP2 AND PUSH1 0x60 DUP4 ADD MSTORE PUSH1 0x2 DUP2 ADD SLOAD PUSH1 0x80 DUP4 ADD MSTORE PUSH1 0x3 DUP2 ADD SLOAD PUSH1 0xA0 DUP4 ADD MSTORE PUSH1 0x4 DUP2 ADD DUP1 SLOAD PUSH1 0xC0 DUP5 ADD SWAP2 SWAP1 PUSH2 0x2B81 SWAP1 PUSH2 0x46C7 JUMP JUMPDEST DUP1 PUSH1 0x1F ADD PUSH1 0x20 DUP1 SWAP2 DIV MUL PUSH1 0x20 ADD PUSH1 0x40 MLOAD SWAP1 DUP2 ADD PUSH1 0x40 MSTORE DUP1 SWAP3 SWAP2 SWAP1 DUP2 DUP2 MSTORE PUSH1 0x20 ADD DUP3 DUP1 SLOAD PUSH2 0x2BAD SWAP1 PUSH2 0x46C7 JUMP JUMPDEST DUP1 ISZERO PUSH2 0x2BFA JUMPI DUP1 PUSH1 0x1F LT PUSH2 0x2BCF JUMPI PUSH2 0x100 DUP1 DUP4 SLOAD DIV MUL DUP4 MSTORE SWAP2 PUSH1 0x20 ADD SWAP2 PUSH2 0x2BFA JUMP JUMPDEST DUP3 ADD SWAP2 SWAP1 PUSH1 0x0 MSTORE PUSH1 0x20 PUSH1 0x0 KECCAK256 SWAP1 JUMPDEST DUP2 SLOAD DUP2 MSTORE SWAP1 PUSH1 0x1 ADD SWAP1 PUSH1 0x20 ADD DUP1 DUP4 GT PUSH2 0x2BDD JUMPI DUP3 SWAP1 SUB PUSH1 0x1F AND DUP3 ADD SWAP2 JUMPDEST POP POP POP SWAP2 DUP4 MSTORE POP POP PUSH1 0x5 DUP3 ADD SLOAD PUSH1 0x1 PUSH1 0x1 PUSH1 0xA0 SHL SUB SWAP1 DUP2 AND PUSH1 0x20 DUP4 ADD MSTORE PUSH1 0x6 SWAP1 SWAP3 ADD SLOAD SWAP1 SWAP2 AND PUSH1 0x40 SWAP1 SWAP2 ADD MSTORE DUP3 MLOAD DUP4 SWAP1 DUP6 SWAP1 DUP2 LT PUSH2 0x2C3A JUMPI PUSH2 0x2C3A PUSH2 0x45F7 JUMP JUMPDEST PUSH1 0x20 MUL PUSH1 0x20 ADD ADD DUP2 SWAP1 MSTORE POP DUP3 DUP1 PUSH2 0x2C50 SWAP1 PUSH2 0x48B1 JUMP JUMPDEST SWAP4 POP POP JUMPDEST DUP1 PUSH2 0x2C5E DUP2 PUSH2 0x48B1 JUMP JUMPDEST SWAP2 POP POP PUSH2 0x2ADF JUMP JUMPDEST POP SWAP3 SWAP2 POP POP JUMP JUMPDEST PUSH1 0x0 DUP2 DUP2 MSTORE PUSH1 0xB PUSH1 0x20 MSTORE PUSH1 0x40 SWAP1 KECCAK256 PUSH1 0x6 ADD SLOAD CALLER PUSH1 0x1 PUSH1 0x1 PUSH1 0xA0 SHL SUB SWAP1 SWAP2 AND SUB PUSH2 0x2C95 JUMPI PUSH1 0x0 DUP1 REVERT JUMPDEST PUSH1 0x0 DUP2 DUP2 MSTORE PUSH1 0xB PUSH1 0x20 MSTORE PUSH1 0x40 SWAP1 KECCAK256 SLOAD PUSH1 0xFF AND PUSH2 0x2CF3 JUMPI PUSH1 0x40 MLOAD PUSH3 0x461BCD PUSH1 0xE5 SHL DUP2 MSTORE PUSH1 0x20 PUSH1 0x4 DUP3 ADD MSTORE PUSH1 0x18 PUSH1 0x24 DUP3 ADD MSTORE PUSH32 0x41756374696F6E206973206E6F7420617661696C61626C650000000000000000 PUSH1 0x44 DUP3 ADD MSTORE PUSH1 0x64 ADD PUSH2 0xA9E JUMP JUMPDEST PUSH1 0x0 DUP2 DUP2 MSTORE PUSH1 0xB PUSH1 0x20 MSTORE PUSH1 0x40 SWAP1 KECCAK256 PUSH1 0x2 ADD SLOAD TIMESTAMP LT PUSH2 0x2D53 JUMPI PUSH1 0x40 MLOAD PUSH3 0x461BCD PUSH1 0xE5 SHL DUP2 MSTORE PUSH1 0x20 PUSH1 0x4 DUP3 ADD MSTORE PUSH1 0x18 PUSH1 0x24 DUP3 ADD MSTORE PUSH32 0x41756374696F6E206973207374696C6C2072756E6E696E670000000000000000 PUSH1 0x44 DUP3 ADD MSTORE PUSH1 0x64 ADD PUSH2 0xA9E JUMP JUMPDEST PUSH1 0x0 DUP2 DUP2 MSTORE PUSH1 0xB PUSH1 0x20 MSTORE PUSH1 0x40 SWAP1 KECCAK256 PUSH1 0x6 ADD SLOAD PUSH2 0x2D7A SWAP1 CALLER SWAP1 PUSH1 0x1 PUSH1 0x1 PUSH1 0xA0 SHL SUB AND DUP4 PUSH2 0x4172 JUMP JUMPDEST PUSH2 0x2DEC JUMPI PUSH1 0x40 MLOAD PUSH3 0x461BCD PUSH1 0xE5 SHL DUP2 MSTORE PUSH1 0x20 PUSH1 0x4 DUP3 ADD MSTORE PUSH1 0x22 PUSH1 0x24 DUP3 ADD MSTORE PUSH32 0x596F7520617265206E6F74207468652077696E6E6572206F662074686973204E PUSH1 0x44 DUP3 ADD MSTORE PUSH32 0x4654000000000000000000000000000000000000000000000000000000000000 PUSH1 0x64 DUP3 ADD MSTORE PUSH1 0x84 ADD PUSH2 0xA9E JUMP JUMPDEST PUSH2 0x1436 DUP2 PUSH2 0x3CBD JUMP JUMPDEST PUSH1 0x60 PUSH1 0x0 PUSH2 0x2E02 PUSH1 0x0 SLOAD SWAP1 JUMP JUMPDEST PUSH8 0xFFFFFFFFFFFFFFFF DUP2 GT ISZERO PUSH2 0x2E1A JUMPI PUSH2 0x2E1A PUSH2 0x4427 JUMP JUMPDEST PUSH1 0x40 MLOAD SWAP1 DUP1 DUP3 MSTORE DUP1 PUSH1 0x20 MUL PUSH1 0x20 ADD DUP3 ADD PUSH1 0x40 MSTORE DUP1 ISZERO PUSH2 0x2E90 JUMPI DUP2 PUSH1 0x20 ADD JUMPDEST PUSH1 0x40 DUP1 MLOAD PUSH2 0x120 DUP2 ADD DUP3 MSTORE PUSH1 0x0 DUP1 DUP3 MSTORE PUSH1 0x20 DUP1 DUP4 ADD DUP3 SWAP1 MSTORE SWAP3 DUP3 ADD DUP2 SWAP1 MSTORE PUSH1 0x60 DUP1 DUP4 ADD DUP3 SWAP1 MSTORE PUSH1 0x80 DUP4 ADD DUP3 SWAP1 MSTORE PUSH1 0xA0 DUP4 ADD DUP3 SWAP1 MSTORE PUSH1 0xC0 DUP4 ADD MSTORE PUSH1 0xE0 DUP3 ADD DUP2 SWAP1 MSTORE PUSH2 0x100 DUP3 ADD MSTORE DUP3 MSTORE PUSH1 0x0 NOT SWAP1 SWAP3 ADD SWAP2 ADD DUP2 PUSH2 0x2E38 JUMPI SWAP1 POP JUMPDEST POP SWAP1 POP PUSH1 0x0 DUP1 JUMPDEST PUSH1 0x0 SLOAD DUP2 GT PUSH2 0x301F JUMPI PUSH1 0x0 DUP2 DUP2 MSTORE PUSH1 0x8 PUSH1 0x20 MSTORE PUSH1 0x40 SWAP1 KECCAK256 PUSH1 0x5 ADD SLOAD PUSH1 0x1 PUSH1 0x1 PUSH1 0xA0 SHL SUB AND ISZERO PUSH2 0x300D JUMPI PUSH1 0x0 DUP2 DUP2 MSTORE PUSH1 0x8 PUSH1 0x20 SWAP1 DUP2 MSTORE PUSH1 0x40 SWAP2 DUP3 SWAP1 KECCAK256 DUP3 MLOAD PUSH2 0x120 DUP2 ADD DUP5 MSTORE DUP2 SLOAD DUP2 MSTORE PUSH1 0x1 DUP3 ADD SLOAD PUSH1 0xFF DUP1 DUP3 AND ISZERO ISZERO SWAP5 DUP4 ADD SWAP5 SWAP1 SWAP5 MSTORE PUSH2 0x100 DUP2 DIV DUP5 AND ISZERO ISZERO SWAP5 DUP3 ADD SWAP5 SWAP1 SWAP5 MSTORE PUSH3 0x10000 SWAP1 SWAP4 DIV SWAP1 SWAP2 AND PUSH1 0x60 DUP4 ADD MSTORE PUSH1 0x2 DUP2 ADD SLOAD PUSH1 0x80 DUP4 ADD MSTORE PUSH1 0x3 DUP2 ADD SLOAD PUSH1 0xA0 DUP4 ADD MSTORE PUSH1 0x4 DUP2 ADD DUP1 SLOAD PUSH1 0xC0 DUP5 ADD SWAP2 SWAP1 PUSH2 0x2F3A SWAP1 PUSH2 0x46C7 JUMP JUMPDEST DUP1 PUSH1 0x1F ADD PUSH1 0x20 DUP1 SWAP2 DIV MUL PUSH1 0x20 ADD PUSH1 0x40 MLOAD SWAP1 DUP2 ADD PUSH1 0x40 MSTORE DUP1 SWAP3 SWAP2 SWAP1 DUP2 DUP2 MSTORE PUSH1 0x20 ADD DUP3 DUP1 SLOAD PUSH2 0x2F66 SWAP1 PUSH2 0x46C7 JUMP JUMPDEST DUP1 ISZERO PUSH2 0x2FB3 JUMPI DUP1 PUSH1 0x1F LT PUSH2 0x2F88 JUMPI PUSH2 0x100 DUP1 DUP4 SLOAD DIV MUL DUP4 MSTORE SWAP2 PUSH1 0x20 ADD SWAP2 PUSH2 0x2FB3 JUMP JUMPDEST DUP3 ADD SWAP2 SWAP1 PUSH1 0x0 MSTORE PUSH1 0x20 PUSH1 0x0 KECCAK256 SWAP1 JUMPDEST DUP2 SLOAD DUP2 MSTORE SWAP1 PUSH1 0x1 ADD SWAP1 PUSH1 0x20 ADD DUP1 DUP4 GT PUSH2 0x2F96 JUMPI DUP3 SWAP1 SUB PUSH1 0x1F AND DUP3 ADD SWAP2 JUMPDEST POP POP POP SWAP2 DUP4 MSTORE POP POP PUSH1 0x5 DUP3 ADD SLOAD PUSH1 0x1 PUSH1 0x1 PUSH1 0xA0 SHL SUB SWAP1 DUP2 AND PUSH1 0x20 DUP4 ADD MSTORE PUSH1 0x6 SWAP1 SWAP3 ADD SLOAD SWAP1 SWAP2 AND PUSH1 0x40 SWAP1 SWAP2 ADD MSTORE DUP4 MLOAD DUP5 SWAP1 DUP5 SWAP1 DUP2 LT PUSH2 0x2FF3 JUMPI PUSH2 0x2FF3 PUSH2 0x45F7 JUMP JUMPDEST PUSH1 0x20 MUL PUSH1 0x20 ADD ADD DUP2 SWAP1 MSTORE POP DUP2 DUP1 PUSH2 0x3009 SWAP1 PUSH2 0x48B1 JUMP JUMPDEST SWAP3 POP POP JUMPDEST DUP1 PUSH2 0x3017 DUP2 PUSH2 0x48B1 JUMP JUMPDEST SWAP2 POP POP PUSH2 0x2E97 JUMP JUMPDEST POP SWAP1 SWAP3 SWAP2 POP POP JUMP JUMPDEST CALLER PUSH1 0x0 DUP2 DUP2 MSTORE PUSH1 0xD PUSH1 0x20 MSTORE PUSH1 0x40 SWAP1 KECCAK256 SLOAD PUSH1 0xFF AND ISZERO PUSH2 0x3078 JUMPI PUSH1 0x40 MLOAD PUSH3 0x461BCD PUSH1 0xE5 SHL DUP2 MSTORE PUSH1 0x20 PUSH1 0x4 DUP3 ADD MSTORE PUSH1 0xE PUSH1 0x24 DUP3 ADD MSTORE PUSH14 0x4E6F2072652D656E7472616E6379 PUSH1 0x90 SHL PUSH1 0x44 DUP3 ADD MSTORE PUSH1 0x64 ADD PUSH2 0xA9E JUMP JUMPDEST PUSH1 0x1 PUSH1 0x1 PUSH1 0xA0 SHL SUB DUP2 AND PUSH1 0x0 SWAP1 DUP2 MSTORE PUSH1 0xD PUSH1 0x20 SWAP1 DUP2 MSTORE PUSH1 0x40 DUP1 DUP4 KECCAK256 DUP1 SLOAD PUSH1 0xFF NOT AND PUSH1 0x1 SWAP1 DUP2 OR SWAP1 SWAP2 SSTORE DUP6 DUP5 MSTORE PUSH1 0x8 SWAP1 SWAP3 MSTORE SWAP1 SWAP2 KECCAK256 ADD SLOAD PUSH1 0xFF AND ISZERO PUSH2 0x30FE JUMPI PUSH1 0x40 MLOAD PUSH3 0x461BCD PUSH1 0xE5 SHL DUP2 MSTORE PUSH1 0x20 PUSH1 0x4 DUP3 ADD MSTORE PUSH1 0x1A PUSH1 0x24 DUP3 ADD MSTORE PUSH32 0x4E465420697320616C726561647920696E2041756374696F6E21000000000000 PUSH1 0x44 DUP3 ADD MSTORE PUSH1 0x64 ADD PUSH2 0xA9E JUMP JUMPDEST PUSH1 0x0 DUP3 DUP2 MSTORE PUSH1 0x8 PUSH1 0x20 MSTORE PUSH1 0x40 SWAP1 KECCAK256 PUSH1 0x1 ADD SLOAD PUSH2 0x100 SWAP1 DIV PUSH1 0xFF AND ISZERO PUSH2 0x3165 JUMPI PUSH1 0x40 MLOAD PUSH3 0x461BCD PUSH1 0xE5 SHL DUP2 MSTORE PUSH1 0x20 PUSH1 0x4 DUP3 ADD MSTORE PUSH1 0x17 PUSH1 0x24 DUP3 ADD MSTORE PUSH32 0x4E465420697320616C7265616479206F6E2053616C6521000000000000000000 PUSH1 0x44 DUP3 ADD MSTORE PUSH1 0x64 ADD PUSH2 0xA9E JUMP JUMPDEST PUSH1 0x0 DUP4 GT PUSH2 0x31C4 JUMPI PUSH1 0x40 MLOAD PUSH3 0x461BCD PUSH1 0xE5 SHL DUP2 MSTORE PUSH1 0x20 PUSH1 0x4 DUP3 ADD MSTORE PUSH1 0x26 PUSH1 0x24 DUP3 ADD MSTORE PUSH32 0x4D696E696D616C2070726963652073686F756C64206265206772656174657220 PUSH1 0x44 DUP3 ADD MSTORE PUSH6 0x7468616E203 PUSH1 0xD4 SHL PUSH1 0x64 DUP3 ADD MSTORE PUSH1 0x84 ADD PUSH2 0xA9E JUMP JUMPDEST PUSH2 0x31CD DUP3 PUSH2 0x15BD JUMP JUMPDEST PUSH1 0x1 PUSH1 0x1 PUSH1 0xA0 SHL SUB AND CALLER PUSH1 0x1 PUSH1 0x1 PUSH1 0xA0 SHL SUB AND EQ PUSH2 0x3237 JUMPI PUSH1 0x40 MLOAD PUSH3 0x461BCD PUSH1 0xE5 SHL DUP2 MSTORE PUSH1 0x20 PUSH1 0x4 DUP3 ADD MSTORE PUSH1 0x21 PUSH1 0x24 DUP3 ADD MSTORE PUSH32 0x596F7520617265206E6F7420746865206F776E6572206F662074686973204E46 PUSH1 0x44 DUP3 ADD MSTORE PUSH1 0x15 PUSH1 0xFA SHL PUSH1 0x64 DUP3 ADD MSTORE PUSH1 0x84 ADD PUSH2 0xA9E JUMP JUMPDEST PUSH1 0x40 DUP1 MLOAD DUP1 DUP3 ADD DUP3 MSTORE DUP5 DUP2 MSTORE TIMESTAMP PUSH1 0x20 DUP1 DUP4 ADD SWAP2 DUP3 MSTORE PUSH1 0x0 DUP7 DUP2 MSTORE PUSH1 0x9 DUP3 MSTORE DUP5 DUP2 KECCAK256 SWAP4 MLOAD DUP5 SSTORE SWAP2 MLOAD PUSH1 0x1 SWAP4 DUP5 ADD SSTORE PUSH1 0x8 SWAP1 MSTORE SWAP2 SWAP1 SWAP2 KECCAK256 ADD DUP1 SLOAD PUSH2 0xFF00 NOT AND PUSH2 0x100 OR SWAP1 SSTORE PUSH2 0x3288 PUSH1 0x2 DUP1 SLOAD PUSH1 0x1 ADD SWAP1 SSTORE JUMP JUMPDEST PUSH1 0x40 DUP1 MLOAD DUP4 DUP2 MSTORE TIMESTAMP PUSH1 0x20 DUP3 ADD MSTORE SWAP1 DUP2 ADD DUP5 SWAP1 MSTORE CALLER PUSH1 0x60 DUP3 ADD MSTORE PUSH32 0xCD9B206D1405F2CF68CD4AAA665D590ED89CA3F1369BB7586AAD6DAD30A0C758 SWAP1 PUSH1 0x80 ADD PUSH1 0x40 MLOAD DUP1 SWAP2 SUB SWAP1 LOG1 PUSH1 0x1 PUSH1 0x1 PUSH1 0xA0 SHL SUB AND PUSH1 0x0 SWAP1 DUP2 MSTORE PUSH1 0xD PUSH1 0x20 MSTORE PUSH1 0x40 SWAP1 KECCAK256 DUP1 SLOAD PUSH1 0xFF NOT AND SWAP1 SSTORE POP POP JUMP JUMPDEST PUSH1 0x0 DUP2 DUP2 MSTORE PUSH1 0xB PUSH1 0x20 SWAP1 DUP2 MSTORE PUSH1 0x40 DUP1 DUP4 KECCAK256 DUP2 MLOAD PUSH1 0xE0 DUP2 ADD DUP4 MSTORE DUP2 SLOAD PUSH1 0xFF AND ISZERO ISZERO DUP2 MSTORE PUSH1 0x1 DUP3 ADD SLOAD SWAP4 DUP2 ADD SWAP4 SWAP1 SWAP4 MSTORE PUSH1 0x2 DUP2 ADD SLOAD SWAP2 DUP4 ADD DUP3 SWAP1 MSTORE PUSH1 0x3 DUP2 ADD SLOAD PUSH1 0x60 DUP5 ADD DUP2 SWAP1 MSTORE PUSH1 0x4 DUP3 ADD SLOAD PUSH1 0x80 DUP6 ADD MSTORE PUSH1 0x5 DUP3 ADD SLOAD PUSH1 0xA0 DUP6 ADD MSTORE PUSH1 0x6 SWAP1 SWAP2 ADD SLOAD PUSH1 0x1 PUSH1 0x1 PUSH1 0xA0 SHL SUB AND PUSH1 0xC0 DUP5 ADD MSTORE DUP4 SWAP3 DUP4 SWAP3 DUP4 SWAP3 SWAP1 PUSH2 0x336F DUP3 DUP3 PUSH2 0x467B JUMP JUMPDEST TIMESTAMP DUP5 PUSH1 0x40 ADD MLOAD PUSH2 0x337F SWAP2 SWAP1 PUSH2 0x467B JUMP JUMPDEST SWAP5 POP SWAP5 POP SWAP5 POP SWAP5 POP POP SWAP2 SWAP4 POP SWAP2 SWAP4 JUMP JUMPDEST PUSH1 0x60 PUSH1 0x0 DUP1 JUMPDEST PUSH1 0x0 SLOAD DUP2 GT PUSH2 0x33D8 JUMPI PUSH1 0x0 DUP2 DUP2 MSTORE PUSH1 0x8 PUSH1 0x20 MSTORE PUSH1 0x40 SWAP1 KECCAK256 PUSH1 0x1 ADD SLOAD PUSH1 0xFF AND ISZERO PUSH2 0x33C6 JUMPI DUP2 PUSH2 0x33C2 DUP2 PUSH2 0x48B1 JUMP JUMPDEST SWAP3 POP POP JUMPDEST DUP1 PUSH2 0x33D0 DUP2 PUSH2 0x48B1 JUMP JUMPDEST SWAP2 POP POP PUSH2 0x3395 JUMP JUMPDEST POP PUSH1 0x0 DUP2 PUSH8 0xFFFFFFFFFFFFFFFF DUP2 GT ISZERO PUSH2 0x33F4 JUMPI PUSH2 0x33F4 PUSH2 0x4427 JUMP JUMPDEST PUSH1 0x40 MLOAD SWAP1 DUP1 DUP3 MSTORE DUP1 PUSH1 0x20 MUL PUSH1 0x20 ADD DUP3 ADD PUSH1 0x40 MSTORE DUP1 ISZERO PUSH2 0x346A JUMPI DUP2 PUSH1 0x20 ADD JUMPDEST PUSH1 0x40 DUP1 MLOAD PUSH2 0x120 DUP2 ADD DUP3 MSTORE PUSH1 0x0 DUP1 DUP3 MSTORE PUSH1 0x20 DUP1 DUP4 ADD DUP3 SWAP1 MSTORE SWAP3 DUP3 ADD DUP2 SWAP1 MSTORE PUSH1 0x60 DUP1 DUP4 ADD DUP3 SWAP1 MSTORE PUSH1 0x80 DUP4 ADD DUP3 SWAP1 MSTORE PUSH1 0xA0 DUP4 ADD DUP3 SWAP1 MSTORE PUSH1 0xC0 DUP4 ADD MSTORE PUSH1 0xE0 DUP3 ADD DUP2 SWAP1 MSTORE PUSH2 0x100 DUP3 ADD MSTORE DUP3 MSTORE PUSH1 0x0 NOT SWAP1 SWAP3 ADD SWAP2 ADD DUP2 PUSH2 0x3412 JUMPI SWAP1 POP JUMPDEST POP SWAP1 POP PUSH1 0x0 SWAP2 POP PUSH1 0x0 JUMPDEST PUSH1 0x0 SLOAD DUP2 GT PUSH2 0x2C66 JUMPI PUSH1 0x0 DUP2 DUP2 MSTORE PUSH1 0x8 PUSH1 0x20 MSTORE PUSH1 0x40 SWAP1 KECCAK256 PUSH1 0x1 ADD SLOAD PUSH1 0xFF AND ISZERO PUSH2 0x35E4 JUMPI PUSH1 0x0 DUP2 DUP2 MSTORE PUSH1 0x8 PUSH1 0x20 SWAP1 DUP2 MSTORE PUSH1 0x40 SWAP2 DUP3 SWAP1 KECCAK256 DUP3 MLOAD PUSH2 0x120 DUP2 ADD DUP5 MSTORE DUP2 SLOAD DUP2 MSTORE PUSH1 0x1 DUP3 ADD SLOAD PUSH1 0xFF DUP1 DUP3 AND ISZERO ISZERO SWAP5 DUP4 ADD SWAP5 SWAP1 SWAP5 MSTORE PUSH2 0x100 DUP2 DIV DUP5 AND ISZERO ISZERO SWAP5 DUP3 ADD SWAP5 SWAP1 SWAP5 MSTORE PUSH3 0x10000 SWAP1 SWAP4 DIV SWAP1 SWAP2 AND PUSH1 0x60 DUP4 ADD MSTORE PUSH1 0x2 DUP2 ADD SLOAD PUSH1 0x80 DUP4 ADD MSTORE PUSH1 0x3 DUP2 ADD SLOAD PUSH1 0xA0 DUP4 ADD MSTORE PUSH1 0x4 DUP2 ADD DUP1 SLOAD PUSH1 0xC0 DUP5 ADD SWAP2 SWAP1 PUSH2 0x3511 SWAP1 PUSH2 0x46C7 JUMP JUMPDEST DUP1 PUSH1 0x1F ADD PUSH1 0x20 DUP1 SWAP2 DIV MUL PUSH1 0x20 ADD PUSH1 0x40 MLOAD SWAP1 DUP2 ADD PUSH1 0x40 MSTORE DUP1 SWAP3 SWAP2 SWAP1 DUP2 DUP2 MSTORE PUSH1 0x20 ADD DUP3 DUP1 SLOAD PUSH2 0x353D SWAP1 PUSH2 0x46C7 JUMP JUMPDEST DUP1 ISZERO PUSH2 0x358A JUMPI DUP1 PUSH1 0x1F LT PUSH2 0x355F JUMPI PUSH2 0x100 DUP1 DUP4 SLOAD DIV MUL DUP4 MSTORE SWAP2 PUSH1 0x20 ADD SWAP2 PUSH2 0x358A JUMP JUMPDEST DUP3 ADD SWAP2 SWAP1 PUSH1 0x0 MSTORE PUSH1 0x20 PUSH1 0x0 KECCAK256 SWAP1 JUMPDEST DUP2 SLOAD DUP2 MSTORE SWAP1 PUSH1 0x1 ADD SWAP1 PUSH1 0x20 ADD DUP1 DUP4 GT PUSH2 0x356D JUMPI DUP3 SWAP1 SUB PUSH1 0x1F AND DUP3 ADD SWAP2 JUMPDEST POP POP POP SWAP2 DUP4 MSTORE POP POP PUSH1 0x5 DUP3 ADD SLOAD PUSH1 0x1 PUSH1 0x1 PUSH1 0xA0 SHL SUB SWAP1 DUP2 AND PUSH1 0x20 DUP4 ADD MSTORE PUSH1 0x6 SWAP1 SWAP3 ADD SLOAD SWAP1 SWAP2 AND PUSH1 0x40 SWAP1 SWAP2 ADD MSTORE DUP3 MLOAD DUP4 SWAP1 DUP6 SWAP1 DUP2 LT PUSH2 0x35CA JUMPI PUSH2 0x35CA PUSH2 0x45F7 JUMP JUMPDEST PUSH1 0x20 MUL PUSH1 0x20 ADD ADD DUP2 SWAP1 MSTORE POP DUP3 DUP1 PUSH2 0x35E0 SWAP1 PUSH2 0x48B1 JUMP JUMPDEST SWAP4 POP POP JUMPDEST DUP1 PUSH2 0x35EE DUP2 PUSH2 0x48B1 JUMP JUMPDEST SWAP2 POP POP PUSH2 0x3474 JUMP JUMPDEST PUSH1 0x60 PUSH1 0x0 DUP1 JUMPDEST PUSH1 0x0 SLOAD DUP2 GT PUSH2 0x3648 JUMPI PUSH1 0x0 DUP2 DUP2 MSTORE PUSH1 0x8 PUSH1 0x20 MSTORE PUSH1 0x40 SWAP1 KECCAK256 PUSH1 0x5 ADD SLOAD CALLER PUSH1 0x1 PUSH1 0x1 PUSH1 0xA0 SHL SUB SWAP1 SWAP2 AND SUB PUSH2 0x3636 JUMPI DUP2 PUSH2 0x3632 DUP2 PUSH2 0x48B1 JUMP JUMPDEST SWAP3 POP POP JUMPDEST DUP1 PUSH2 0x3640 DUP2 PUSH2 0x48B1 JUMP JUMPDEST SWAP2 POP POP PUSH2 0x35FC JUMP JUMPDEST POP PUSH1 0x0 DUP2 PUSH8 0xFFFFFFFFFFFFFFFF DUP2 GT ISZERO PUSH2 0x3664 JUMPI PUSH2 0x3664 PUSH2 0x4427 JUMP JUMPDEST PUSH1 0x40 MLOAD SWAP1 DUP1 DUP3 MSTORE DUP1 PUSH1 0x20 MUL PUSH1 0x20 ADD DUP3 ADD PUSH1 0x40 MSTORE DUP1 ISZERO PUSH2 0x36DA JUMPI DUP2 PUSH1 0x20 ADD JUMPDEST PUSH1 0x40 DUP1 MLOAD PUSH2 0x120 DUP2 ADD DUP3 MSTORE PUSH1 0x0 DUP1 DUP3 MSTORE PUSH1 0x20 DUP1 DUP4 ADD DUP3 SWAP1 MSTORE SWAP3 DUP3 ADD DUP2 SWAP1 MSTORE PUSH1 0x60 DUP1 DUP4 ADD DUP3 SWAP1 MSTORE PUSH1 0x80 DUP4 ADD DUP3 SWAP1 MSTORE PUSH1 0xA0 DUP4 ADD DUP3 SWAP1 MSTORE PUSH1 0xC0 DUP4 ADD MSTORE PUSH1 0xE0 DUP3 ADD DUP2 SWAP1 MSTORE PUSH2 0x100 DUP3 ADD MSTORE DUP3 MSTORE PUSH1 0x0 NOT SWAP1 SWAP3 ADD SWAP2 ADD DUP2 PUSH2 0x3682 JUMPI SWAP1 POP JUMPDEST POP SWAP1 POP PUSH1 0x0 SWAP2 POP PUSH1 0x0 JUMPDEST PUSH1 0x0 SLOAD DUP2 GT PUSH2 0x2C66 JUMPI PUSH1 0x0 DUP2 DUP2 MSTORE PUSH1 0x8 PUSH1 0x20 MSTORE PUSH1 0x40 SWAP1 KECCAK256 PUSH1 0x5 ADD SLOAD CALLER PUSH1 0x1 PUSH1 0x1 PUSH1 0xA0 SHL SUB SWAP1 SWAP2 AND SUB PUSH2 0x385D JUMPI PUSH1 0x0 DUP2 DUP2 MSTORE PUSH1 0x8 PUSH1 0x20 SWAP1 DUP2 MSTORE PUSH1 0x40 SWAP2 DUP3 SWAP1 KECCAK256 DUP3 MLOAD PUSH2 0x120 DUP2 ADD DUP5 MSTORE DUP2 SLOAD DUP2 MSTORE PUSH1 0x1 DUP3 ADD SLOAD PUSH1 0xFF DUP1 DUP3 AND ISZERO ISZERO SWAP5 DUP4 ADD SWAP5 SWAP1 SWAP5 MSTORE PUSH2 0x100 DUP2 DIV DUP5 AND ISZERO ISZERO SWAP5 DUP3 ADD SWAP5 SWAP1 SWAP5 MSTORE PUSH3 0x10000 SWAP1 SWAP4 DIV SWAP1 SWAP2 AND PUSH1 0x60 DUP4 ADD MSTORE PUSH1 0x2 DUP2 ADD SLOAD PUSH1 0x80 DUP4 ADD MSTORE PUSH1 0x3 DUP2 ADD SLOAD PUSH1 0xA0 DUP4 ADD MSTORE PUSH1 0x4 DUP2 ADD DUP1 SLOAD PUSH1 0xC0 DUP5 ADD SWAP2 SWAP1 PUSH2 0x378A SWAP1 PUSH2 0x46C7 JUMP JUMPDEST DUP1 PUSH1 0x1F ADD PUSH1 0x20 DUP1 SWAP2 DIV MUL PUSH1 0x20 ADD PUSH1 0x40 MLOAD SWAP1 DUP2 ADD PUSH1 0x40 MSTORE DUP1 SWAP3 SWAP2 SWAP1 DUP2 DUP2 MSTORE PUSH1 0x20 ADD DUP3 DUP1 SLOAD PUSH2 0x37B6 SWAP1 PUSH2 0x46C7 JUMP JUMPDEST DUP1 ISZERO PUSH2 0x3803 JUMPI DUP1 PUSH1 0x1F LT PUSH2 0x37D8 JUMPI PUSH2 0x100 DUP1 DUP4 SLOAD DIV MUL DUP4 MSTORE SWAP2 PUSH1 0x20 ADD SWAP2 PUSH2 0x3803 JUMP JUMPDEST DUP3 ADD SWAP2 SWAP1 PUSH1 0x0 MSTORE PUSH1 0x20 PUSH1 0x0 KECCAK256 SWAP1 JUMPDEST DUP2 SLOAD DUP2 MSTORE SWAP1 PUSH1 0x1 ADD SWAP1 PUSH1 0x20 ADD DUP1 DUP4 GT PUSH2 0x37E6 JUMPI DUP3 SWAP1 SUB PUSH1 0x1F AND DUP3 ADD SWAP2 JUMPDEST POP POP POP SWAP2 DUP4 MSTORE POP POP PUSH1 0x5 DUP3 ADD SLOAD PUSH1 0x1 PUSH1 0x1 PUSH1 0xA0 SHL SUB SWAP1 DUP2 AND PUSH1 0x20 DUP4 ADD MSTORE PUSH1 0x6 SWAP1 SWAP3 ADD SLOAD SWAP1 SWAP2 AND PUSH1 0x40 SWAP1 SWAP2 ADD MSTORE DUP3 MLOAD DUP4 SWAP1 DUP6 SWAP1 DUP2 LT PUSH2 0x3843 JUMPI PUSH2 0x3843 PUSH2 0x45F7 JUMP JUMPDEST PUSH1 0x20 MUL PUSH1 0x20 ADD ADD DUP2 SWAP1 MSTORE POP DUP3 DUP1 PUSH2 0x3859 SWAP1 PUSH2 0x48B1 JUMP JUMPDEST SWAP4 POP POP JUMPDEST DUP1 PUSH2 0x3867 DUP2 PUSH2 0x48B1 JUMP JUMPDEST SWAP2 POP POP PUSH2 0x36E4 JUMP JUMPDEST PUSH1 0x0 DUP3 DUP2 MSTORE PUSH1 0x8 PUSH1 0x20 MSTORE PUSH1 0x40 DUP2 KECCAK256 PUSH1 0x1 ADD SLOAD PUSH1 0x64 SWAP1 PUSH2 0x3897 SWAP1 PUSH3 0x10000 SWAP1 DIV PUSH1 0xFF AND DUP5 PUSH2 0x4642 JUMP JUMPDEST PUSH2 0x38A1 SWAP2 SWAP1 PUSH2 0x4659 JUMP JUMPDEST PUSH1 0x0 DUP5 DUP2 MSTORE PUSH1 0xA PUSH1 0x20 MSTORE PUSH1 0x40 DUP2 KECCAK256 SLOAD SWAP2 SWAP3 POP PUSH2 0x38BD DUP3 DUP5 PUSH2 0x4659 JUMP JUMPDEST SWAP1 POP PUSH1 0x0 JUMPDEST DUP3 DUP2 LT ISZERO PUSH2 0x3972 JUMPI PUSH1 0x0 DUP7 DUP2 MSTORE PUSH1 0xA PUSH1 0x20 MSTORE PUSH1 0x40 DUP2 KECCAK256 DUP1 SLOAD DUP4 SWAP1 DUP2 LT PUSH2 0x38EA JUMPI PUSH2 0x38EA PUSH2 0x45F7 JUMP JUMPDEST PUSH1 0x0 SWAP2 DUP3 MSTORE PUSH1 0x20 DUP3 KECCAK256 PUSH1 0x3 SWAP2 SWAP1 SWAP2 MUL ADD PUSH1 0x2 ADD SLOAD PUSH1 0x40 MLOAD PUSH1 0x1 PUSH1 0x1 PUSH1 0xA0 SHL SUB SWAP1 SWAP2 AND SWAP3 POP DUP3 SWAP1 DUP6 SWAP1 DUP4 DUP2 DUP2 DUP2 DUP6 DUP8 GAS CALL SWAP3 POP POP POP RETURNDATASIZE DUP1 PUSH1 0x0 DUP2 EQ PUSH2 0x394A JUMPI PUSH1 0x40 MLOAD SWAP2 POP PUSH1 0x1F NOT PUSH1 0x3F RETURNDATASIZE ADD AND DUP3 ADD PUSH1 0x40 MSTORE RETURNDATASIZE DUP3 MSTORE RETURNDATASIZE PUSH1 0x0 PUSH1 0x20 DUP5 ADD RETURNDATACOPY PUSH2 0x394F JUMP JUMPDEST PUSH1 0x60 SWAP2 POP JUMPDEST POP POP SWAP1 POP DUP1 PUSH2 0x395D JUMPI PUSH1 0x0 DUP1 REVERT JUMPDEST POP POP DUP1 DUP1 PUSH2 0x396A SWAP1 PUSH2 0x48B1 JUMP JUMPDEST SWAP2 POP POP PUSH2 0x38C2 JUMP JUMPDEST POP PUSH1 0x0 DUP6 DUP2 MSTORE PUSH1 0x8 PUSH1 0x20 MSTORE PUSH1 0x40 DUP1 DUP3 KECCAK256 PUSH1 0x6 ADD SLOAD SWAP1 MLOAD PUSH1 0x1 PUSH1 0x1 PUSH1 0xA0 SHL SUB SWAP1 SWAP2 AND SWAP1 DUP6 SWAP1 DUP4 DUP2 DUP2 DUP2 DUP6 DUP8 GAS CALL SWAP3 POP POP POP RETURNDATASIZE DUP1 PUSH1 0x0 DUP2 EQ PUSH2 0x39CE JUMPI PUSH1 0x40 MLOAD SWAP2 POP PUSH1 0x1F NOT PUSH1 0x3F RETURNDATASIZE ADD AND DUP3 ADD PUSH1 0x40 MSTORE RETURNDATASIZE DUP3 MSTORE RETURNDATASIZE PUSH1 0x0 PUSH1 0x20 DUP5 ADD RETURNDATACOPY PUSH2 0x39D3 JUMP JUMPDEST PUSH1 0x60 SWAP2 POP JUMPDEST POP POP SWAP1 POP DUP1 PUSH2 0x39E1 JUMPI PUSH1 0x0 DUP1 REVERT JUMPDEST POP POP POP POP POP POP JUMP JUMPDEST DUP3 PUSH1 0x1 PUSH1 0x1 PUSH1 0xA0 SHL SUB AND PUSH2 0x39FC DUP3 PUSH2 0x15BD JUMP JUMPDEST PUSH1 0x1 PUSH1 0x1 PUSH1 0xA0 SHL SUB AND EQ PUSH2 0x3A52 JUMPI PUSH1 0x40 MLOAD PUSH3 0x461BCD PUSH1 0xE5 SHL DUP2 MSTORE PUSH1 0x20 PUSH1 0x4 DUP3 ADD MSTORE PUSH1 0x1D PUSH1 0x24 DUP3 ADD MSTORE PUSH32 0x7472616E736665722066726F6D20696E636F7272656374206F776E6572000000 PUSH1 0x44 DUP3 ADD MSTORE PUSH1 0x64 ADD PUSH2 0xA9E JUMP JUMPDEST PUSH1 0x1 PUSH1 0x1 PUSH1 0xA0 SHL SUB DUP3 AND PUSH2 0x3AA8 JUMPI PUSH1 0x40 MLOAD PUSH3 0x461BCD PUSH1 0xE5 SHL DUP2 MSTORE PUSH1 0x20 PUSH1 0x4 DUP3 ADD MSTORE PUSH1 0x1C PUSH1 0x24 DUP3 ADD MSTORE PUSH32 0x7472616E7366657220746F20746865207A65726F206164647265737300000000 PUSH1 0x44 DUP3 ADD MSTORE PUSH1 0x64 ADD PUSH2 0xA9E JUMP JUMPDEST PUSH1 0x0 DUP2 DUP2 MSTORE PUSH1 0x8 PUSH1 0x20 MSTORE PUSH1 0x40 DUP2 KECCAK256 PUSH1 0x1 ADD SLOAD PUSH2 0x100 SWAP1 DIV PUSH1 0xFF AND ISZERO PUSH2 0x3ADC JUMPI POP PUSH1 0x0 DUP2 DUP2 MSTORE PUSH1 0x9 PUSH1 0x20 MSTORE PUSH1 0x40 SWAP1 KECCAK256 SLOAD PUSH2 0x3AED JUMP JUMPDEST POP PUSH1 0x0 DUP2 DUP2 MSTORE PUSH1 0x5 PUSH1 0x20 MSTORE PUSH1 0x40 SWAP1 KECCAK256 SLOAD JUMPDEST PUSH1 0x0 DUP3 DUP2 MSTORE PUSH1 0xA PUSH1 0x20 SWAP1 DUP2 MSTORE PUSH1 0x40 DUP1 DUP4 KECCAK256 DUP2 MLOAD PUSH1 0x60 DUP2 ADD DUP4 MSTORE TIMESTAMP DUP2 MSTORE DUP1 DUP5 ADD DUP7 DUP2 MSTORE PUSH1 0x1 PUSH1 0x1 PUSH1 0xA0 SHL SUB DUP1 DUP11 AND DUP4 DUP7 ADD DUP2 DUP2 MSTORE DUP6 SLOAD PUSH1 0x1 DUP2 DUP2 ADD DUP9 SSTORE SWAP7 DUP11 MSTORE DUP9 DUP11 KECCAK256 SWAP6 MLOAD PUSH1 0x3 SWAP2 DUP3 MUL SWAP1 SWAP7 ADD SWAP6 DUP7 SSTORE SWAP4 MLOAD SWAP6 DUP6 ADD SWAP6 SWAP1 SWAP6 SSTORE SWAP4 MLOAD PUSH1 0x2 SWAP1 SWAP4 ADD DUP1 SLOAD SWAP4 SWAP1 SWAP2 AND PUSH1 0x1 PUSH1 0x1 PUSH1 0xA0 SHL SUB NOT SWAP4 DUP5 AND OR SWAP1 SSTORE DUP8 DUP7 MSTORE PUSH1 0x8 SWAP1 SWAP5 MSTORE SWAP2 SWAP1 SWAP4 KECCAK256 PUSH1 0x5 ADD DUP1 SLOAD SWAP1 SWAP2 AND SWAP1 SWAP3 OR SWAP1 SWAP2 SSTORE PUSH2 0x3B88 SWAP1 DUP1 SLOAD PUSH1 0x1 ADD SWAP1 SSTORE JUMP JUMPDEST PUSH1 0x40 DUP1 MLOAD PUSH1 0x1 PUSH1 0x1 PUSH1 0xA0 SHL SUB DUP1 DUP8 AND DUP3 MSTORE DUP6 AND PUSH1 0x20 DUP3 ADD MSTORE SWAP1 DUP2 ADD DUP4 SWAP1 MSTORE PUSH32 0xDDF252AD1BE2C89B69C2B068FC378DAA952BA7F163C4A11628F55A4DF523B3EF SWAP1 PUSH1 0x60 ADD PUSH1 0x40 MLOAD DUP1 SWAP2 SUB SWAP1 LOG1 POP POP POP POP JUMP JUMPDEST PUSH2 0x1436 DUP2 PUSH1 0x40 MLOAD PUSH1 0x24 ADD PUSH2 0x3BED SWAP2 SWAP1 PUSH2 0x428D JUMP JUMPDEST PUSH1 0x40 DUP1 MLOAD PUSH1 0x1F NOT DUP2 DUP5 SUB ADD DUP2 MSTORE SWAP2 SWAP1 MSTORE PUSH1 0x20 DUP2 ADD DUP1 MLOAD PUSH28 0xFFFFFFFFFFFFFFFFFFFFFFFFFFFFFFFFFFFFFFFFFFFFFFFFFFFFFFFF AND PUSH32 0x41304FAC00000000000000000000000000000000000000000000000000000000 OR SWAP1 MSTORE PUSH2 0x41B5 JUMP JUMPDEST PUSH2 0x1436 DUP2 PUSH1 0x40 MLOAD PUSH1 0x24 ADD PUSH2 0x3C60 SWAP2 DUP2 MSTORE PUSH1 0x20 ADD SWAP1 JUMP JUMPDEST PUSH1 0x40 DUP1 MLOAD PUSH1 0x1F NOT DUP2 DUP5 SUB ADD DUP2 MSTORE SWAP2 SWAP1 MSTORE PUSH1 0x20 DUP2 ADD DUP1 MLOAD PUSH28 0xFFFFFFFFFFFFFFFFFFFFFFFFFFFFFFFFFFFFFFFFFFFFFFFFFFFFFFFF AND PUSH32 0xF82C50F100000000000000000000000000000000000000000000000000000000 OR SWAP1 MSTORE PUSH2 0x41B5 JUMP JUMPDEST CALLER PUSH1 0x0 DUP2 DUP2 MSTORE PUSH1 0xD PUSH1 0x20 MSTORE PUSH1 0x40 SWAP1 KECCAK256 SLOAD PUSH1 0xFF AND ISZERO PUSH2 0x3D0E JUMPI PUSH1 0x40 MLOAD PUSH3 0x461BCD PUSH1 0xE5 SHL DUP2 MSTORE PUSH1 0x20 PUSH1 0x4 DUP3 ADD MSTORE PUSH1 0xE PUSH1 0x24 DUP3 ADD MSTORE PUSH14 0x4E6F2072652D656E7472616E6379 PUSH1 0x90 SHL PUSH1 0x44 DUP3 ADD MSTORE PUSH1 0x64 ADD PUSH2 0xA9E JUMP JUMPDEST PUSH1 0x1 PUSH1 0x1 PUSH1 0xA0 SHL SUB DUP1 DUP3 AND PUSH1 0x0 SWAP1 DUP2 MSTORE PUSH1 0xD PUSH1 0x20 SWAP1 DUP2 MSTORE PUSH1 0x40 DUP1 DUP4 KECCAK256 DUP1 SLOAD PUSH1 0xFF NOT AND PUSH1 0x1 SWAP1 DUP2 OR SWAP1 SWAP2 SSTORE DUP7 DUP5 MSTORE PUSH1 0xB DUP4 MSTORE SWAP3 DUP2 SWAP1 KECCAK256 DUP2 MLOAD PUSH1 0xE0 DUP2 ADD DUP4 MSTORE DUP2 SLOAD PUSH1 0xFF AND ISZERO ISZERO DUP1 DUP3 MSTORE SWAP5 DUP3 ADD SLOAD SWAP4 DUP2 ADD SWAP4 SWAP1 SWAP4 MSTORE PUSH1 0x2 DUP2 ADD SLOAD SWAP2 DUP4 ADD SWAP2 SWAP1 SWAP2 MSTORE PUSH1 0x3 DUP2 ADD SLOAD PUSH1 0x60 DUP4 ADD MSTORE PUSH1 0x4 DUP2 ADD SLOAD PUSH1 0x80 DUP4 ADD MSTORE PUSH1 0x5 DUP2 ADD SLOAD PUSH1 0xA0 DUP4 ADD MSTORE PUSH1 0x6 ADD SLOAD SWAP1 SWAP3 AND PUSH1 0xC0 DUP4 ADD MSTORE PUSH2 0x3DE2 JUMPI PUSH1 0x40 MLOAD PUSH3 0x461BCD PUSH1 0xE5 SHL DUP2 MSTORE PUSH1 0x20 PUSH1 0x4 DUP3 ADD MSTORE PUSH1 0x18 PUSH1 0x24 DUP3 ADD MSTORE PUSH32 0x41756374696F6E206973206E6F7420617661696C61626C650000000000000000 PUSH1 0x44 DUP3 ADD MSTORE PUSH1 0x64 ADD PUSH2 0xA9E JUMP JUMPDEST PUSH1 0x20 DUP2 DUP2 ADD MLOAD PUSH1 0x0 SWAP1 DUP2 MSTORE PUSH1 0x8 SWAP1 SWAP2 MSTORE PUSH1 0x40 SWAP1 KECCAK256 PUSH1 0x1 ADD SLOAD PUSH3 0x10000 SWAP1 DIV PUSH1 0xFF AND ISZERO PUSH2 0x3E29 JUMPI PUSH2 0x3E29 DUP2 PUSH1 0x20 ADD MLOAD PUSH1 0x5 PUSH1 0x0 DUP7 DUP2 MSTORE PUSH1 0x20 ADD SWAP1 DUP2 MSTORE PUSH1 0x20 ADD PUSH1 0x0 KECCAK256 SLOAD PUSH2 0x386F JUMP JUMPDEST PUSH1 0x20 DUP2 DUP2 ADD MLOAD PUSH1 0x0 SWAP1 DUP2 MSTORE PUSH1 0x8 DUP3 MSTORE PUSH1 0x40 DUP1 DUP3 KECCAK256 PUSH1 0x1 ADD SLOAD DUP7 DUP4 MSTORE PUSH1 0x5 SWAP1 SWAP4 MSTORE DUP2 KECCAK256 SLOAD SWAP1 SWAP2 PUSH1 0x64 SWAP2 PUSH2 0x3E64 SWAP2 PUSH3 0x10000 SWAP1 DIV PUSH1 0xFF AND SWAP1 PUSH2 0x4642 JUMP JUMPDEST PUSH2 0x3E6E SWAP2 SWAP1 PUSH2 0x4659 JUMP JUMPDEST PUSH1 0x0 DUP6 DUP2 MSTORE PUSH1 0x5 PUSH1 0x20 MSTORE PUSH1 0x40 SWAP1 KECCAK256 SLOAD PUSH2 0x3E87 SWAP2 SWAP1 PUSH2 0x467B JUMP JUMPDEST SWAP1 POP PUSH1 0x0 DUP3 PUSH1 0xC0 ADD MLOAD PUSH1 0x1 PUSH1 0x1 PUSH1 0xA0 SHL SUB AND DUP3 PUSH1 0x40 MLOAD PUSH1 0x0 PUSH1 0x40 MLOAD DUP1 DUP4 SUB DUP2 DUP6 DUP8 GAS CALL SWAP3 POP POP POP RETURNDATASIZE DUP1 PUSH1 0x0 DUP2 EQ PUSH2 0x3EDA JUMPI PUSH1 0x40 MLOAD SWAP2 POP PUSH1 0x1F NOT PUSH1 0x3F RETURNDATASIZE ADD AND DUP3 ADD PUSH1 0x40 MSTORE RETURNDATASIZE DUP3 MSTORE RETURNDATASIZE PUSH1 0x0 PUSH1 0x20 DUP5 ADD RETURNDATACOPY PUSH2 0x3EDF JUMP JUMPDEST PUSH1 0x60 SWAP2 POP JUMPDEST POP POP SWAP1 POP DUP1 PUSH2 0x3EED JUMPI PUSH1 0x0 DUP1 REVERT JUMPDEST PUSH1 0xC0 DUP4 ADD MLOAD PUSH1 0x0 DUP7 DUP2 MSTORE PUSH1 0x6 PUSH1 0x20 SWAP1 DUP2 MSTORE PUSH1 0x40 SWAP1 SWAP2 KECCAK256 SLOAD SWAP1 DUP6 ADD MLOAD PUSH2 0x3F1C SWAP3 SWAP2 PUSH1 0x1 PUSH1 0x1 PUSH1 0xA0 SHL SUB AND SWAP1 PUSH2 0x39E9 JUMP JUMPDEST PUSH1 0x20 DUP4 DUP2 ADD DUP1 MLOAD PUSH1 0x0 SWAP1 DUP2 MSTORE PUSH1 0xA DUP4 MSTORE PUSH1 0x40 DUP1 DUP3 KECCAK256 DUP2 MLOAD PUSH1 0x60 DUP1 DUP3 ADD DUP5 MSTORE TIMESTAMP DUP3 MSTORE DUP12 DUP6 MSTORE PUSH1 0x5 DUP8 MSTORE DUP4 DUP6 KECCAK256 SLOAD DUP3 DUP9 ADD SWAP1 DUP2 MSTORE DUP13 DUP7 MSTORE PUSH1 0x6 DUP1 DUP10 MSTORE DUP6 DUP8 KECCAK256 DUP1 SLOAD PUSH1 0x1 PUSH1 0x1 PUSH1 0xA0 SHL SUB SWAP1 DUP2 AND DUP7 DUP10 ADD SWAP1 DUP2 MSTORE DUP8 SLOAD PUSH1 0x1 DUP1 DUP3 ADD DUP11 SSTORE SWAP9 DUP12 MSTORE DUP13 DUP12 KECCAK256 SWAP8 MLOAD PUSH1 0x3 SWAP1 SWAP2 MUL SWAP1 SWAP8 ADD SWAP7 DUP8 SSTORE SWAP4 MLOAD SWAP7 DUP7 ADD SWAP7 SWAP1 SWAP7 SSTORE SWAP2 MLOAD PUSH1 0x2 SWAP1 SWAP5 ADD DUP1 SLOAD PUSH1 0x1 PUSH1 0x1 PUSH1 0xA0 SHL SUB NOT AND SWAP5 DUP7 AND SWAP5 SWAP1 SWAP5 OR SWAP1 SWAP4 SSTORE PUSH1 0xC0 DUP12 ADD MLOAD SWAP6 DUP14 SWAP1 MSTORE SWAP2 DUP8 MSTORE SWAP1 SLOAD SWAP5 MLOAD DUP4 MLOAD SWAP5 DUP4 AND DUP6 MSTORE SWAP5 SWAP1 SWAP2 AND SWAP5 DUP4 ADD SWAP5 SWAP1 SWAP5 MSTORE DUP2 ADD SWAP2 SWAP1 SWAP2 MSTORE PUSH32 0xDDF252AD1BE2C89B69C2B068FC378DAA952BA7F163C4A11628F55A4DF523B3EF SWAP2 ADD PUSH1 0x40 MLOAD DUP1 SWAP2 SUB SWAP1 LOG1 PUSH1 0xC0 DUP4 ADD MLOAD PUSH1 0x0 DUP7 DUP2 MSTORE PUSH1 0x6 PUSH1 0x20 SWAP1 DUP2 MSTORE PUSH1 0x40 DUP1 DUP4 KECCAK256 SLOAD PUSH1 0x5 DUP4 MSTORE SWAP3 DUP2 SWAP1 KECCAK256 SLOAD DUP3 DUP9 ADD MLOAD DUP3 MLOAD PUSH1 0x1 PUSH1 0x1 PUSH1 0xA0 SHL SUB SWAP7 DUP8 AND DUP2 MSTORE SWAP6 SWAP1 SWAP5 AND SWAP3 DUP6 ADD SWAP3 SWAP1 SWAP3 MSTORE DUP4 ADD MSTORE PUSH1 0x60 DUP3 ADD DUP8 SWAP1 MSTORE PUSH1 0x80 DUP3 ADD MSTORE PUSH32 0x3D3A66899DB8385FD8AF5FC229A533C64A8C8A994016AA79653B2029C5688E89 SWAP1 PUSH1 0xA0 ADD PUSH1 0x40 MLOAD DUP1 SWAP2 SUB SWAP1 LOG1 POP POP PUSH1 0x0 SWAP3 DUP4 MSTORE PUSH1 0xB PUSH1 0x20 SWAP1 DUP2 MSTORE PUSH1 0x40 DUP1 DUP6 KECCAK256 DUP1 SLOAD PUSH1 0xFF NOT SWAP1 DUP2 AND DUP3 SSTORE PUSH1 0x1 DUP1 DUP4 ADD DUP9 SWAP1 SSTORE PUSH1 0x2 DUP4 ADD DUP9 SWAP1 SSTORE PUSH1 0x3 DUP4 ADD DUP9 SWAP1 SSTORE PUSH1 0x4 DUP4 ADD DUP9 SWAP1 SSTORE PUSH1 0x5 DUP1 DUP5 ADD DUP10 SWAP1 SSTORE PUSH1 0x6 SWAP4 DUP5 ADD DUP1 SLOAD PUSH1 0x1 PUSH1 0x1 PUSH1 0xA0 SHL SUB NOT SWAP1 DUP2 AND SWAP1 SWAP2 SSTORE SWAP1 DUP7 MSTORE DUP5 DUP10 KECCAK256 DUP10 SWAP1 SSTORE SWAP3 DUP6 MSTORE DUP4 DUP9 KECCAK256 DUP1 SLOAD SWAP1 SWAP4 AND SWAP1 SWAP3 SSTORE SWAP4 DUP4 ADD MLOAD DUP7 MSTORE PUSH1 0x8 DUP4 MSTORE DUP2 DUP7 KECCAK256 ADD DUP1 SLOAD DUP5 AND SWAP1 SSTORE PUSH1 0x1 PUSH1 0x1 PUSH1 0xA0 SHL SUB SWAP4 SWAP1 SWAP4 AND DUP5 MSTORE PUSH1 0xD SWAP1 MSTORE SWAP2 KECCAK256 DUP1 SLOAD SWAP1 SWAP2 AND SWAP1 SSTORE JUMP JUMPDEST DUP1 SLOAD DUP1 PUSH2 0x416A JUMPI PUSH1 0x40 MLOAD PUSH3 0x461BCD PUSH1 0xE5 SHL DUP2 MSTORE PUSH1 0x20 PUSH1 0x4 DUP3 ADD MSTORE PUSH1 0x1B PUSH1 0x24 DUP3 ADD MSTORE PUSH32 0x436F756E7465723A2064656372656D656E74206F766572666C6F770000000000 PUSH1 0x44 DUP3 ADD MSTORE PUSH1 0x64 ADD PUSH2 0xA9E JUMP JUMPDEST PUSH1 0x0 NOT ADD SWAP1 SSTORE JUMP JUMPDEST PUSH1 0x0 DUP3 PUSH1 0x1 PUSH1 0x1 PUSH1 0xA0 SHL SUB AND DUP5 PUSH1 0x1 PUSH1 0x1 PUSH1 0xA0 SHL SUB AND EQ DUP1 PUSH2 0x41AD JUMPI POP PUSH1 0x0 DUP3 DUP2 MSTORE PUSH1 0x6 PUSH1 0x20 MSTORE PUSH1 0x40 SWAP1 KECCAK256 SLOAD PUSH1 0x1 PUSH1 0x1 PUSH1 0xA0 SHL SUB DUP6 DUP2 AND SWAP2 AND EQ JUMPDEST SWAP5 SWAP4 POP POP POP POP JUMP JUMPDEST DUP1 MLOAD PUSH11 0x636F6E736F6C652E6C6F67 PUSH1 0x20 DUP4 ADD PUSH1 0x0 DUP1 DUP5 DUP4 DUP6 GAS STATICCALL POP POP POP POP POP JUMP JUMPDEST POP DUP1 SLOAD PUSH2 0x41E2 SWAP1 PUSH2 0x46C7 JUMP JUMPDEST PUSH1 0x0 DUP3 SSTORE DUP1 PUSH1 0x1F LT PUSH2 0x41F2 JUMPI POP POP JUMP JUMPDEST PUSH1 0x1F ADD PUSH1 0x20 SWAP1 DIV SWAP1 PUSH1 0x0 MSTORE PUSH1 0x20 PUSH1 0x0 KECCAK256 SWAP1 DUP2 ADD SWAP1 PUSH2 0x1436 SWAP2 SWAP1 JUMPDEST DUP1 DUP3 GT ISZERO PUSH2 0x4220 JUMPI PUSH1 0x0 DUP2 SSTORE PUSH1 0x1 ADD PUSH2 0x420C JUMP JUMPDEST POP SWAP1 JUMP JUMPDEST PUSH1 0x0 PUSH1 0x20 DUP3 DUP5 SUB SLT ISZERO PUSH2 0x4236 JUMPI PUSH1 0x0 DUP1 REVERT JUMPDEST POP CALLDATALOAD SWAP2 SWAP1 POP JUMP JUMPDEST PUSH1 0x0 JUMPDEST DUP4 DUP2 LT ISZERO PUSH2 0x4258 JUMPI DUP2 DUP2 ADD MLOAD DUP4 DUP3 ADD MSTORE PUSH1 0x20 ADD PUSH2 0x4240 JUMP JUMPDEST POP POP PUSH1 0x0 SWAP2 ADD MSTORE JUMP JUMPDEST PUSH1 0x0 DUP2 MLOAD DUP1 DUP5 MSTORE PUSH2 0x4279 DUP2 PUSH1 0x20 DUP7 ADD PUSH1 0x20 DUP7 ADD PUSH2 0x423D JUMP JUMPDEST PUSH1 0x1F ADD PUSH1 0x1F NOT AND SWAP3 SWAP1 SWAP3 ADD PUSH1 0x20 ADD SWAP3 SWAP2 POP POP JUMP JUMPDEST PUSH1 0x20 DUP2 MSTORE PUSH1 0x0 PUSH2 0x42A0 PUSH1 0x20 DUP4 ADD DUP5 PUSH2 0x4261 JUMP JUMPDEST SWAP4 SWAP3 POP POP POP JUMP JUMPDEST PUSH1 0x0 DUP1 PUSH1 0x0 DUP1 PUSH1 0x80 DUP6 DUP8 SUB SLT ISZERO PUSH2 0x42BD JUMPI PUSH1 0x0 DUP1 REVERT JUMPDEST DUP5 CALLDATALOAD SWAP4 POP PUSH1 0x20 DUP6 ADD CALLDATALOAD SWAP3 POP PUSH1 0x40 DUP6 ADD CALLDATALOAD SWAP2 POP PUSH1 0x60 DUP6 ADD CALLDATALOAD PUSH2 0xFFFF DUP2 AND DUP2 EQ PUSH2 0x42E4 JUMPI PUSH1 0x0 DUP1 REVERT JUMPDEST SWAP4 SWAP7 SWAP3 SWAP6 POP SWAP1 SWAP4 POP POP JUMP JUMPDEST PUSH1 0x0 PUSH2 0x120 DUP3 MLOAD DUP5 MSTORE PUSH1 0x20 DUP4 ADD MLOAD ISZERO ISZERO PUSH1 0x20 DUP6 ADD MSTORE PUSH1 0x40 DUP4 ADD MLOAD PUSH2 0x4317 PUSH1 0x40 DUP7 ADD DUP3 ISZERO ISZERO SWAP1 MSTORE JUMP JUMPDEST POP PUSH1 0x60 DUP4 ADD MLOAD PUSH2 0x432C PUSH1 0x60 DUP7 ADD DUP3 PUSH1 0xFF AND SWAP1 MSTORE JUMP JUMPDEST POP PUSH1 0x80 DUP4 ADD MLOAD PUSH1 0x80 DUP6 ADD MSTORE PUSH1 0xA0 DUP4 ADD MLOAD PUSH1 0xA0 DUP6 ADD MSTORE PUSH1 0xC0 DUP4 ADD MLOAD DUP2 PUSH1 0xC0 DUP7 ADD MSTORE PUSH2 0x4358 DUP3 DUP7 ADD DUP3 PUSH2 0x4261 JUMP JUMPDEST SWAP2 POP POP PUSH1 0xE0 DUP4 ADD MLOAD PUSH2 0x4375 PUSH1 0xE0 DUP7 ADD DUP3 PUSH1 0x1 PUSH1 0x1 PUSH1 0xA0 SHL SUB AND SWAP1 MSTORE JUMP JUMPDEST POP PUSH2 0x100 DUP4 DUP2 ADD MLOAD PUSH1 0x1 PUSH1 0x1 PUSH1 0xA0 SHL SUB DUP2 AND DUP7 DUP4 ADD MSTORE PUSH2 0x8BE JUMP JUMPDEST PUSH1 0x20 DUP2 MSTORE PUSH1 0x0 PUSH2 0x42A0 PUSH1 0x20 DUP4 ADD DUP5 PUSH2 0x42EF JUMP JUMPDEST PUSH1 0x0 DUP1 PUSH1 0x40 DUP4 DUP6 SUB SLT ISZERO PUSH2 0x43B6 JUMPI PUSH1 0x0 DUP1 REVERT JUMPDEST POP POP DUP1 CALLDATALOAD SWAP3 PUSH1 0x20 SWAP1 SWAP2 ADD CALLDATALOAD SWAP2 POP JUMP JUMPDEST PUSH1 0x20 DUP1 DUP3 MSTORE DUP3 MLOAD DUP3 DUP3 ADD DUP2 SWAP1 MSTORE PUSH1 0x0 SWAP2 SWAP1 PUSH1 0x40 SWAP1 DUP2 DUP6 ADD SWAP1 DUP7 DUP5 ADD DUP6 JUMPDEST DUP3 DUP2 LT ISZERO PUSH2 0x441A JUMPI DUP2 MLOAD DUP1 MLOAD DUP6 MSTORE DUP7 DUP2 ADD MLOAD DUP8 DUP7 ADD MSTORE DUP6 ADD MLOAD PUSH1 0x1 PUSH1 0x1 PUSH1 0xA0 SHL SUB AND DUP6 DUP6 ADD MSTORE PUSH1 0x60 SWAP1 SWAP4 ADD SWAP3 SWAP1 DUP6 ADD SWAP1 PUSH1 0x1 ADD PUSH2 0x43E2 JUMP JUMPDEST POP SWAP2 SWAP8 SWAP7 POP POP POP POP POP POP POP JUMP JUMPDEST PUSH4 0x4E487B71 PUSH1 0xE0 SHL PUSH1 0x0 MSTORE PUSH1 0x41 PUSH1 0x4 MSTORE PUSH1 0x24 PUSH1 0x0 REVERT JUMPDEST PUSH1 0x0 DUP3 PUSH1 0x1F DUP4 ADD SLT PUSH2 0x444E JUMPI PUSH1 0x0 DUP1 REVERT JUMPDEST DUP2 CALLDATALOAD PUSH8 0xFFFFFFFFFFFFFFFF DUP1 DUP3 GT ISZERO PUSH2 0x4469 JUMPI PUSH2 0x4469 PUSH2 0x4427 JUMP JUMPDEST PUSH1 0x40 MLOAD PUSH1 0x1F DUP4 ADD PUSH1 0x1F NOT SWAP1 DUP2 AND PUSH1 0x3F ADD AND DUP2 ADD SWAP1 DUP3 DUP3 GT DUP2 DUP4 LT OR ISZERO PUSH2 0x4491 JUMPI PUSH2 0x4491 PUSH2 0x4427 JUMP JUMPDEST DUP2 PUSH1 0x40 MSTORE DUP4 DUP2 MSTORE DUP7 PUSH1 0x20 DUP6 DUP9 ADD ADD GT ISZERO PUSH2 0x44AA JUMPI PUSH1 0x0 DUP1 REVERT JUMPDEST DUP4 PUSH1 0x20 DUP8 ADD PUSH1 0x20 DUP4 ADD CALLDATACOPY PUSH1 0x0 PUSH1 0x20 DUP6 DUP4 ADD ADD MSTORE DUP1 SWAP5 POP POP POP POP POP SWAP3 SWAP2 POP POP JUMP JUMPDEST PUSH1 0x0 DUP1 PUSH1 0x0 DUP1 PUSH1 0x80 DUP6 DUP8 SUB SLT ISZERO PUSH2 0x44E0 JUMPI PUSH1 0x0 DUP1 REVERT JUMPDEST DUP5 CALLDATALOAD PUSH8 0xFFFFFFFFFFFFFFFF DUP1 DUP3 GT ISZERO PUSH2 0x44F8 JUMPI PUSH1 0x0 DUP1 REVERT JUMPDEST PUSH2 0x4504 DUP9 DUP4 DUP10 ADD PUSH2 0x443D JUMP JUMPDEST SWAP6 POP PUSH1 0x20 DUP8 ADD CALLDATALOAD SWAP2 POP DUP1 DUP3 GT ISZERO PUSH2 0x451A JUMPI PUSH1 0x0 DUP1 REVERT JUMPDEST PUSH2 0x4526 DUP9 DUP4 DUP10 ADD PUSH2 0x443D JUMP JUMPDEST SWAP5 POP PUSH1 0x40 DUP8 ADD CALLDATALOAD SWAP2 POP DUP1 DUP3 GT ISZERO PUSH2 0x453C JUMPI PUSH1 0x0 DUP1 REVERT JUMPDEST POP PUSH2 0x4549 DUP8 DUP3 DUP9 ADD PUSH2 0x443D JUMP JUMPDEST SWAP3 POP POP PUSH1 0x60 DUP6 ADD CALLDATALOAD PUSH1 0xFF DUP2 AND DUP2 EQ PUSH2 0x42E4 JUMPI PUSH1 0x0 DUP1 REVERT JUMPDEST PUSH1 0x0 PUSH1 0x20 DUP3 DUP5 SUB SLT ISZERO PUSH2 0x4572 JUMPI PUSH1 0x0 DUP1 REVERT JUMPDEST DUP2 CALLDATALOAD PUSH8 0xFFFFFFFFFFFFFFFF DUP2 GT ISZERO PUSH2 0x4589 JUMPI PUSH1 0x0 DUP1 REVERT JUMPDEST PUSH2 0x41AD DUP5 DUP3 DUP6 ADD PUSH2 0x443D JUMP JUMPDEST PUSH1 0x0 PUSH1 0x20 DUP1 DUP4 ADD DUP2 DUP5 MSTORE DUP1 DUP6 MLOAD DUP1 DUP4 MSTORE PUSH1 0x40 DUP7 ADD SWAP2 POP PUSH1 0x40 DUP2 PUSH1 0x5 SHL DUP8 ADD ADD SWAP3 POP DUP4 DUP8 ADD PUSH1 0x0 JUMPDEST DUP3 DUP2 LT ISZERO PUSH2 0x45EA JUMPI PUSH1 0x3F NOT DUP9 DUP7 SUB ADD DUP5 MSTORE PUSH2 0x45D8 DUP6 DUP4 MLOAD PUSH2 0x42EF JUMP JUMPDEST SWAP5 POP SWAP3 DUP6 ADD SWAP3 SWAP1 DUP6 ADD SWAP1 PUSH1 0x1 ADD PUSH2 0x45BC JUMP JUMPDEST POP SWAP3 SWAP8 SWAP7 POP POP POP POP POP POP POP JUMP JUMPDEST PUSH4 0x4E487B71 PUSH1 0xE0 SHL PUSH1 0x0 MSTORE PUSH1 0x32 PUSH1 0x4 MSTORE PUSH1 0x24 PUSH1 0x0 REVERT JUMPDEST PUSH4 0x4E487B71 PUSH1 0xE0 SHL PUSH1 0x0 MSTORE PUSH1 0x11 PUSH1 0x4 MSTORE PUSH1 0x24 PUSH1 0x0 REVERT JUMPDEST PUSH1 0x0 PUSH1 0xFF DUP3 AND PUSH1 0xFF DUP2 SUB PUSH2 0x4639 JUMPI PUSH2 0x4639 PUSH2 0x460D JUMP JUMPDEST PUSH1 0x1 ADD SWAP3 SWAP2 POP POP JUMP JUMPDEST DUP1 DUP3 MUL DUP2 ISZERO DUP3 DUP3 DIV DUP5 EQ OR PUSH2 0x1625 JUMPI PUSH2 0x1625 PUSH2 0x460D JUMP JUMPDEST PUSH1 0x0 DUP3 PUSH2 0x4676 JUMPI PUSH4 0x4E487B71 PUSH1 0xE0 SHL PUSH1 0x0 MSTORE PUSH1 0x12 PUSH1 0x4 MSTORE PUSH1 0x24 PUSH1 0x0 REVERT JUMPDEST POP DIV SWAP1 JUMP JUMPDEST DUP2 DUP2 SUB DUP2 DUP2 GT ISZERO PUSH2 0x1625 JUMPI PUSH2 0x1625 PUSH2 0x460D JUMP JUMPDEST PUSH2 0xFFFF DUP2 DUP2 AND DUP4 DUP3 AND MUL DUP1 DUP3 AND SWAP2 SWAP1 DUP3 DUP2 EQ PUSH2 0x46AC JUMPI PUSH2 0x46AC PUSH2 0x460D JUMP JUMPDEST POP POP SWAP3 SWAP2 POP POP JUMP JUMPDEST DUP1 DUP3 ADD DUP1 DUP3 GT ISZERO PUSH2 0x1625 JUMPI PUSH2 0x1625 PUSH2 0x460D JUMP JUMPDEST PUSH1 0x1 DUP2 DUP2 SHR SWAP1 DUP3 AND DUP1 PUSH2 0x46DB JUMPI PUSH1 0x7F DUP3 AND SWAP2 POP JUMPDEST PUSH1 0x20 DUP3 LT DUP2 SUB PUSH2 0x46FB JUMPI PUSH4 0x4E487B71 PUSH1 0xE0 SHL PUSH1 0x0 MSTORE PUSH1 0x22 PUSH1 0x4 MSTORE PUSH1 0x24 PUSH1 0x0 REVERT JUMPDEST POP SWAP2 SWAP1 POP JUMP JUMPDEST PUSH1 0x0 DUP4 MLOAD PUSH2 0x4713 DUP2 DUP5 PUSH1 0x20 DUP9 ADD PUSH2 0x423D JUMP JUMPDEST DUP4 MLOAD SWAP1 DUP4 ADD SWAP1 PUSH2 0x4727 DUP2 DUP4 PUSH1 0x20 DUP9 ADD PUSH2 0x423D JUMP JUMPDEST ADD SWAP5 SWAP4 POP POP POP POP JUMP JUMPDEST PUSH1 0x1F DUP3 GT ISZERO PUSH2 0x4776 JUMPI PUSH1 0x0 DUP2 DUP2 MSTORE PUSH1 0x20 DUP2 KECCAK256 PUSH1 0x1F DUP6 ADD PUSH1 0x5 SHR DUP2 ADD PUSH1 0x20 DUP7 LT ISZERO PUSH2 0x4757 JUMPI POP DUP1 JUMPDEST PUSH1 0x1F DUP6 ADD PUSH1 0x5 SHR DUP3 ADD SWAP2 POP JUMPDEST DUP2 DUP2 LT ISZERO PUSH2 0x39E1 JUMPI DUP3 DUP2 SSTORE PUSH1 0x1 ADD PUSH2 0x4763 JUMP JUMPDEST POP POP POP JUMP JUMPDEST DUP2 MLOAD PUSH8 0xFFFFFFFFFFFFFFFF DUP2 GT ISZERO PUSH2 0x4795 JUMPI PUSH2 0x4795 PUSH2 0x4427 JUMP JUMPDEST PUSH2 0x47A9 DUP2 PUSH2 0x47A3 DUP5 SLOAD PUSH2 0x46C7 JUMP JUMPDEST DUP5 PUSH2 0x4730 JUMP JUMPDEST PUSH1 0x20 DUP1 PUSH1 0x1F DUP4 GT PUSH1 0x1 DUP2 EQ PUSH2 0x47DE JUMPI PUSH1 0x0 DUP5 ISZERO PUSH2 0x47C6 JUMPI POP DUP6 DUP4 ADD MLOAD JUMPDEST PUSH1 0x0 NOT PUSH1 0x3 DUP7 SWAP1 SHL SHR NOT AND PUSH1 0x1 DUP6 SWAP1 SHL OR DUP6 SSTORE PUSH2 0x39E1 JUMP JUMPDEST PUSH1 0x0 DUP6 DUP2 MSTORE PUSH1 0x20 DUP2 KECCAK256 PUSH1 0x1F NOT DUP7 AND SWAP2 JUMPDEST DUP3 DUP2 LT ISZERO PUSH2 0x480D JUMPI DUP9 DUP7 ADD MLOAD DUP3 SSTORE SWAP5 DUP5 ADD SWAP5 PUSH1 0x1 SWAP1 SWAP2 ADD SWAP1 DUP5 ADD PUSH2 0x47EE JUMP JUMPDEST POP DUP6 DUP3 LT ISZERO PUSH2 0x482B JUMPI DUP8 DUP6 ADD MLOAD PUSH1 0x0 NOT PUSH1 0x3 DUP9 SWAP1 SHL PUSH1 0xF8 AND SHR NOT AND DUP2 SSTORE JUMPDEST POP POP POP POP POP PUSH1 0x1 SWAP1 DUP2 SHL ADD SWAP1 SSTORE POP JUMP JUMPDEST PUSH1 0x0 PUSH4 0xFFFFFFFF DUP1 DUP4 AND DUP2 DUP2 SUB PUSH2 0x4854 JUMPI PUSH2 0x4854 PUSH2 0x460D JUMP JUMPDEST PUSH1 0x1 ADD SWAP4 SWAP3 POP POP POP JUMP JUMPDEST PUSH1 0x1 PUSH1 0x1 PUSH1 0xA0 SHL SUB DUP6 AND DUP2 MSTORE PUSH1 0x80 PUSH1 0x20 DUP3 ADD MSTORE PUSH1 0x0 PUSH2 0x4880 PUSH1 0x80 DUP4 ADD DUP7 PUSH2 0x4261 JUMP JUMPDEST DUP3 DUP2 SUB PUSH1 0x40 DUP5 ADD MSTORE PUSH2 0x4892 DUP2 DUP7 PUSH2 0x4261 JUMP JUMPDEST SWAP1 POP DUP3 DUP2 SUB PUSH1 0x60 DUP5 ADD MSTORE PUSH2 0x48A6 DUP2 DUP6 PUSH2 0x4261 JUMP JUMPDEST SWAP8 SWAP7 POP POP POP POP POP POP POP JUMP JUMPDEST PUSH1 0x0 PUSH1 0x1 DUP3 ADD PUSH2 0x48C3 JUMPI PUSH2 0x48C3 PUSH2 0x460D JUMP JUMPDEST POP PUSH1 0x1 ADD SWAP1 JUMP INVALID LOG2 PUSH5 0x6970667358 0x22 SLT KECCAK256 COINBASE SELFBALANCE SWAP3 PUSH27 0x75EDA41D1AD1F324741B878BBEBF240FB98716F4A20056F27FFDAC 0xBA PUSH5 0x736F6C6343 STOP ADDMOD GT STOP CALLER "},"gasEstimates":{"creation":{"codeDepositCost":"3737600","executionCost":"4221","totalCost":"3741821"},"external":{"":"208","_burn(uint256)":"infinite","buyAuctionNft(uint256)":"infinite","buyNft(uint256)":"infinite","cancelAuction(uint256)":"155685","cancelSellNft(uint256)":"89960","changeAuctionNftPrice(uint256,uint256)":"29171","claimPrize(uint256)":"infinite","createAuction(uint256,uint256,uint256,uint16)":"infinite","createNFT(string,string,string,uint8)":"infinite","createSellNft(uint256,uint256)":"152643","getAllNFTs()":"infinite","getAuctionCount()":"2430","getAuctionHighestBid(uint256)":"2516","getAuctionHighestBidder(uint256)":"2588","getAuctionInfoById(uint256)":"15762","getAuctionNFTprice(uint256)":"2501","getAuctionNFTs()":"infinite","getAuctionTime(uint256)":"infinite","getBalance()":"296","getNFTcount()":"2371","getNFThistory(uint256)":"infinite","getNftById(uint256)":"infinite","getNftIdByImageHash(string)":"infinite","getNftPicHash(uint256)":"infinite","getNftPicName(uint256)":"infinite","getNftSaleInfoById(uint256)":"4820","getNftSalepriceById(uint256)":"2517","getSaleNFTs()":"infinite","getSellCount()":"2409","getTest()":"271","getTransferCount()":"2366","getUserNFTs()":"infinite","isEnded(uint256)":"2567","ownerOf(uint256)":"2650","placeBid(uint256)":"infinite","setMinBid(uint256,uint256)":"30439"},"internal":{"_ownerOf(uint256)":"infinite","endAuction(uint256)":"infinite","exists(uint256)":"infinite","isOriginal(string memory)":"infinite","payRoyalties(uint256,uint256)":"infinite","transfer(address,address,uint256)":"infinite","winnerOrSeller(address,address,uint256)":"2298"}},"methodIdentifiers":{"_burn(uint256)":"9b1f9e74","buyAuctionNft(uint256)":"484eae10","buyNft(uint256)":"243adbdd","cancelAuction(uint256)":"96b5a755","cancelSellNft(uint256)":"59f48271","changeAuctionNftPrice(uint256,uint256)":"bf07e7c6","claimPrize(uint256)":"d7098154","createAuction(uint256,uint256,uint256,uint16)":"306466a0","createNFT(string,string,string,uint8)":"bb24aa43","createSellNft(uint256,uint256)":"ecefb955","getAllNFTs()":"e0391b09","getAuctionCount()":"c44e6640","getAuctionHighestBid(uint256)":"c26e748c","getAuctionHighestBidder(uint256)":"dfab114b","getAuctionInfoById(uint256)":"73df8a1b","getAuctionNFTprice(uint256)":"33eb5919","getAuctionNFTs()":"fd9aa2cb","getAuctionTime(uint256)":"f1b42435","getBalance()":"12065fe0","getNFTcount()":"5fdac09c","getNFThistory(uint256)":"baa4e557","getNftById(uint256)":"95a81b8f","getNftIdByImageHash(string)":"d1c09173","getNftPicHash(uint256)":"0f611e19","getNftPicName(uint256)":"0b53ff3e","getNftSaleInfoById(uint256)":"34db89e0","getNftSalepriceById(uint256)":"83979246","getSaleNFTs()":"d2718b6d","getSellCount()":"34516038","getTest()":"a8cd0a80","getTransferCount()":"040e55f5","getUserNFTs()":"fdc5ab8e","isEnded(uint256)":"b66f7a8b","ownerOf(uint256)":"6352211e","placeBid(uint256)":"9979ef45","setMinBid(uint256,uint256)":"9b84309b"}},"storageLayout":{"storage":[{"astId":176,"contract":"contracts/Auction.sol:Auction","label":"nftCounter","offset":0,"slot":"0","type":"t_struct(Counter)5_storage"},{"astId":179,"contract":"contracts/Auction.sol:Auction","label":"auctionCounter","offset":0,"slot":"1","type":"t_struct(Counter)5_storage"},{"astId":182,"contract":"contracts/Auction.sol:Auction","label":"sellCounter","offset":0,"slot":"2","type":"t_struct(Counter)5_storage"},{"astId":185,"contract":"contracts/Auction.sol:Auction","label":"transferCounter","offset":0,"slot":"3","type":"t_struct(Counter)5_storage"},{"astId":189,"contract":"contracts/Auction.sol:Auction","label":"metadataURIs","offset":0,"slot":"4","type":"t_mapping(t_bytes32,t_bool)"},{"astId":193,"contract":"contracts/Auction.sol:Auction","label":"highestBid","offset":0,"slot":"5","type":"t_mapping(t_uint256,t_uint256)"},{"astId":197,"contract":"contracts/Auction.sol:Auction","label":"highestBidder","offset":0,"slot":"6","type":"t_mapping(t_uint256,t_address)"},{"astId":201,"contract":"contracts/Auction.sol:Auction","label":"topArtists","offset":0,"slot":"7","type":"t_mapping(t_address,t_uint32)"},{"astId":206,"contract":"contracts/Auction.sol:Auction","label":"nfts","offset":0,"slot":"8","type":"t_mapping(t_uint256,t_struct(NFT)247_storage)"},{"astId":211,"contract":"contracts/Auction.sol:Auction","label":"NftSales","offset":0,"slot":"9","type":"t_mapping(t_uint256,t_struct(SaleInfo)259_storage)"},{"astId":217,"contract":"contracts/Auction.sol:Auction","label":"previousNFTowners","offset":0,"slot":"10","type":"t_mapping(t_uint256,t_array(t_struct(NFThistory)254_storage)dyn_storage)"},{"astId":222,"contract":"contracts/Auction.sol:Auction","label":"auctions","offset":0,"slot":"11","type":"t_mapping(t_uint256,t_struct(AuctionInfo)274_storage)"},{"astId":228,"contract":"contracts/Auction.sol:Auction","label":"auctionBids","offset":0,"slot":"12","type":"t_mapping(t_uint256,t_mapping(t_address,t_uint256))"},{"astId":278,"contract":"contracts/Auction.sol:Auction","label":"locked","offset":0,"slot":"13","type":"t_mapping(t_address,t_bool)"}],"types":{"t_address":{"encoding":"inplace","label":"address","numberOfBytes":"20"},"t_array(t_struct(NFThistory)254_storage)dyn_storage":{"base":"t_struct(NFThistory)254_storage","encoding":"dynamic_array","label":"struct Auction.NFThistory[]","numberOfBytes":"32"},"t_bool":{"encoding":"inplace","label":"bool","numberOfBytes":"1"},"t_bytes32":{"encoding":"inplace","label":"bytes32","numberOfBytes":"32"},"t_mapping(t_address,t_bool)":{"encoding":"mapping","key":"t_address","label":"mapping(address => bool)","numberOfBytes":"32","value":"t_bool"},"t_mapping(t_address,t_uint256)":{"encoding":"mapping","key":"t_address","label":"mapping(address => uint256)","numberOfBytes":"32","value":"t_uint256"},"t_mapping(t_address,t_uint32)":{"encoding":"mapping","key":"t_address","label":"mapping(address => uint32)","numberOfBytes":"32","value":"t_uint32"},"t_mapping(t_bytes32,t_bool)":{"encoding":"mapping","key":"t_bytes32","label":"mapping(bytes32 => bool)","numberOfBytes":"32","value":"t_bool"},"t_mapping(t_uint256,t_address)":{"encoding":"mapping","key":"t_uint256","label":"mapping(uint256 => address)","numberOfBytes":"32","value":"t_address"},"t_mapping(t_uint256,t_array(t_struct(NFThistory)254_storage)dyn_storage)":{"encoding":"mapping","key":"t_uint256","label":"mapping(uint256 => struct Auction.NFThistory[])","numberOfBytes":"32","value":"t_array(t_struct(NFThistory)254_storage)dyn_storage"},"t_mapping(t_uint256,t_mapping(t_address,t_uint256))":{"encoding":"mapping","key":"t_uint256","label":"mapping(uint256 => mapping(address => uint256))","numberOfBytes":"32","value":"t_mapping(t_address,t_uint256)"},"t_mapping(t_uint256,t_struct(AuctionInfo)274_storage)":{"encoding":"mapping","key":"t_uint256","label":"mapping(uint256 => struct Auction.AuctionInfo)","numberOfBytes":"32","value":"t_struct(AuctionInfo)274_storage"},"t_mapping(t_uint256,t_struct(NFT)247_storage)":{"encoding":"mapping","key":"t_uint256","label":"mapping(uint256 => struct Auction.NFT)","numberOfBytes":"32","value":"t_struct(NFT)247_storage"},"t_mapping(t_uint256,t_struct(SaleInfo)259_storage)":{"encoding":"mapping","key":"t_uint256","label":"mapping(uint256 => struct Auction.SaleInfo)","numberOfBytes":"32","value":"t_struct(SaleInfo)259_storage"},"t_mapping(t_uint256,t_uint256)":{"encoding":"mapping","key":"t_uint256","label":"mapping(uint256 => uint256)","numberOfBytes":"32","value":"t_uint256"},"t_string_storage":{"encoding":"bytes","label":"string","numberOfBytes":"32"},"t_struct(AuctionInfo)274_storage":{"encoding":"inplace","label":"struct Auction.AuctionInfo","members":[{"astId":261,"contract":"contracts/Auction.sol:Auction","label":"progress","offset":0,"slot":"0","type":"t_bool"},{"astId":263,"contract":"contracts/Auction.sol:Auction","label":"nftId","offset":0,"slot":"1","type":"t_uint256"},{"astId":265,"contract":"contracts/Auction.sol:Auction","label":"endTime","offset":0,"slot":"2","type":"t_uint256"},{"astId":267,"contract":"contracts/Auction.sol:Auction","label":"startedTime","offset":0,"slot":"3","type":"t_uint256"},{"astId":269,"contract":"contracts/Auction.sol:Auction","label":"minBid","offset":0,"slot":"4","type":"t_uint256"},{"astId":271,"contract":"contracts/Auction.sol:Auction","label":"salePrice","offset":0,"slot":"5","type":"t_uint256"},{"astId":273,"contract":"contracts/Auction.sol:Auction","label":"nftOwner","offset":0,"slot":"6","type":"t_address"}],"numberOfBytes":"224"},"t_struct(Counter)5_storage":{"encoding":"inplace","label":"struct Counters.Counter","members":[{"astId":4,"contract":"contracts/Auction.sol:Auction","label":"_value","offset":0,"slot":"0","type":"t_uint256"}],"numberOfBytes":"32"},"t_struct(NFT)247_storage":{"encoding":"inplace","label":"struct Auction.NFT","members":[{"astId":230,"contract":"contracts/Auction.sol:Auction","label":"id","offset":0,"slot":"0","type":"t_uint256"},{"astId":232,"contract":"contracts/Auction.sol:Auction","label":"onAuction","offset":0,"slot":"1","type":"t_bool"},{"astId":234,"contract":"contracts/Auction.sol:Auction","label":"onSale","offset":1,"slot":"1","type":"t_bool"},{"astId":236,"contract":"contracts/Auction.sol:Auction","label":"royaltyFee","offset":2,"slot":"1","type":"t_uint8"},{"astId":238,"contract":"contracts/Auction.sol:Auction","label":"PartOfMetadataURI","offset":0,"slot":"2","type":"t_bytes32"},{"astId":240,"contract":"contracts/Auction.sol:Auction","label":"PartOfMetadataURIAndName","offset":0,"slot":"3","type":"t_bytes32"},{"astId":242,"contract":"contracts/Auction.sol:Auction","label":"description","offset":0,"slot":"4","type":"t_string_storage"},{"astId":244,"contract":"contracts/Auction.sol:Auction","label":"owner","offset":0,"slot":"5","type":"t_address"},{"astId":246,"contract":"contracts/Auction.sol:Auction","label":"creator","offset":0,"slot":"6","type":"t_address"}],"numberOfBytes":"224"},"t_struct(NFThistory)254_storage":{"encoding":"inplace","label":"struct Auction.NFThistory","members":[{"astId":249,"contract":"contracts/Auction.sol:Auction","label":"time","offset":0,"slot":"0","type":"t_uint256"},{"astId":251,"contract":"contracts/Auction.sol:Auction","label":"sellPrice","offset":0,"slot":"1","type":"t_uint256"},{"astId":253,"contract":"contracts/Auction.sol:Auction","label":"boughtBy","offset":0,"slot":"2","type":"t_address"}],"numberOfBytes":"96"},"t_struct(SaleInfo)259_storage":{"encoding":"inplace","label":"struct Auction.SaleInfo","members":[{"astId":256,"contract":"contracts/Auction.sol:Auction","label":"price","offset":0,"slot":"0","type":"t_uint256"},{"astId":258,"contract":"contracts/Auction.sol:Auction","label":"createdAt","offset":0,"slot":"1","type":"t_uint256"}],"numberOfBytes":"64"},"t_uint256":{"encoding":"inplace","label":"uint256","numberOfBytes":"32"},"t_uint32":{"encoding":"inplace","label":"uint32","numberOfBytes":"4"},"t_uint8":{"encoding":"inplace","label":"uint8","numberOfBytes":"1"}}},"userdoc":{"kind":"user","methods":{},"version":1}}}}