{"contracts/Auction.sol":{"Auction":{"abi":[{"anonymous":false,"inputs":[{"indexed":false,"internalType":"address","name":"nftOwner","type":"address"},{"indexed":false,"internalType":"uint32","name":"nftId","type":"uint32"}],"name":"Burn","type":"event"},{"anonymous":false,"inputs":[{"indexed":false,"internalType":"address","name":"creator","type":"address"},{"indexed":false,"internalType":"uint256","name":"startedPrice","type":"uint256"},{"indexed":false,"internalType":"uint32","name":"auctionId","type":"uint32"},{"indexed":false,"internalType":"uint32","name":"nftId","type":"uint32"}],"name":"CreateAuction","type":"event"},{"anonymous":false,"inputs":[{"indexed":false,"internalType":"address","name":"nftCreator","type":"address"},{"indexed":false,"internalType":"string","name":"imageHash","type":"string"},{"indexed":false,"internalType":"string","name":"imageName","type":"string"}],"name":"CreateNFT","type":"event"},{"anonymous":false,"inputs":[{"indexed":false,"internalType":"address","name":"seller","type":"address"},{"indexed":false,"internalType":"address","name":"buyer","type":"address"},{"indexed":false,"internalType":"uint256","name":"finalPrice","type":"uint256"},{"indexed":false,"internalType":"uint32","name":"auctionId","type":"uint32"},{"indexed":false,"internalType":"uint32","name":"nftId","type":"uint32"}],"name":"EndAuction","type":"event"},{"anonymous":false,"inputs":[{"indexed":false,"internalType":"uint32","name":"auctionId","type":"uint32"},{"indexed":false,"internalType":"uint32","name":"nftId","type":"uint32"},{"indexed":false,"internalType":"address","name":"bidder","type":"address"},{"indexed":false,"internalType":"uint256","name":"amount","type":"uint256"}],"name":"NewBid","type":"event"},{"anonymous":false,"inputs":[{"indexed":false,"internalType":"uint256","name":"newMinBid","type":"uint256"},{"indexed":false,"internalType":"uint32","name":"auctionId","type":"uint32"}],"name":"SetMinimalBid","type":"event"},{"anonymous":false,"inputs":[{"indexed":false,"internalType":"address","name":"from","type":"address"},{"indexed":false,"internalType":"address","name":"to","type":"address"},{"indexed":false,"internalType":"uint32","name":"nftId","type":"uint32"}],"name":"Transfer","type":"event"},{"stateMutability":"payable","type":"fallback"},{"inputs":[{"internalType":"uint32","name":"nftId","type":"uint32"}],"name":"_burn","outputs":[],"stateMutability":"nonpayable","type":"function"},{"inputs":[{"internalType":"uint256","name":"_price","type":"uint256"},{"internalType":"uint32","name":"_nftId","type":"uint32"},{"internalType":"uint16","name":"_auctionTime","type":"uint16"}],"name":"createAuction","outputs":[],"stateMutability":"nonpayable","type":"function"},{"inputs":[{"internalType":"string","name":"_imageHash","type":"string"},{"internalType":"string","name":"_title","type":"string"},{"internalType":"string","name":"_description","type":"string"},{"internalType":"uint256","name":"_salesPrice","type":"uint256"}],"name":"createNFT","outputs":[],"stateMutability":"nonpayable","type":"function"},{"inputs":[{"internalType":"uint32","name":"_auctionId","type":"uint32"}],"name":"getAuctionHighestBid","outputs":[{"internalType":"uint256","name":"","type":"uint256"}],"stateMutability":"view","type":"function"},{"inputs":[{"internalType":"uint32","name":"_auctionId","type":"uint32"}],"name":"getAuctionHighestBidder","outputs":[{"internalType":"address","name":"","type":"address"}],"stateMutability":"view","type":"function"},{"inputs":[{"internalType":"uint32","name":"_auctionId","type":"uint32"}],"name":"getAuctionTime","outputs":[{"internalType":"uint256","name":"","type":"uint256"},{"internalType":"uint256","name":"","type":"uint256"},{"internalType":"uint256","name":"","type":"uint256"},{"internalType":"uint256","name":"","type":"uint256"}],"stateMutability":"view","type":"function"},{"inputs":[],"name":"getBalance","outputs":[{"internalType":"uint256","name":"","type":"uint256"}],"stateMutability":"view","type":"function"},{"inputs":[{"internalType":"uint32","name":"_auctionId","type":"uint32"}],"name":"isEnded","outputs":[{"internalType":"bool","name":"","type":"bool"}],"stateMutability":"view","type":"function"},{"inputs":[{"internalType":"uint32","name":"nftId","type":"uint32"}],"name":"ownerOf","outputs":[{"internalType":"address","name":"","type":"address"}],"stateMutability":"view","type":"function"},{"inputs":[{"internalType":"uint32","name":"_nftId","type":"uint32"},{"internalType":"uint32","name":"_auctionId","type":"uint32"}],"name":"placeBid","outputs":[],"stateMutability":"payable","type":"function"},{"inputs":[{"internalType":"uint32","name":"_auctionId","type":"uint32"},{"internalType":"uint256","name":"_minBid","type":"uint256"}],"name":"setMinBid","outputs":[],"stateMutability":"nonpayable","type":"function"},{"stateMutability":"payable","type":"receive"}],"devdoc":{"kind":"dev","methods":{},"version":1},"evm":{"bytecode":{"linkReferences":{},"object":"608060405234801561001057600080fd5b50612867806100206000396000f3fe6080604052600436106100a05760003560e01c8063c353870011610064578063c3538700146101a3578063ca1e217f146101e0578063d59fe09a14610209578063db0d4f9f14610225578063e5418fbf14610262578063f8440b561461028b576100a7565b806312065fe0146100a957806317849572146100d457806323b7ec3b1461011457806361d6721314610151578063b0e888fc1461017a576100a7565b366100a757005b005b3480156100b557600080fd5b506100be6102c8565b6040516100cb91906116db565b60405180910390f35b3480156100e057600080fd5b506100fb60048036038101906100f69190611746565b6102d0565b60405161010b9493929190611773565b60405180910390f35b34801561012057600080fd5b5061013b60048036038101906101369190611746565b6103f7565b60405161014891906117f9565b60405180910390f35b34801561015d57600080fd5b5061017860048036038101906101739190611746565b61047d565b005b34801561018657600080fd5b506101a1600480360381019061019c9190611840565b61067b565b005b3480156101af57600080fd5b506101ca60048036038101906101c59190611746565b6107fe565b6040516101d7919061189b565b60405180910390f35b3480156101ec57600080fd5b50610207600480360381019061020291906119fc565b61082c565b005b610223600480360381019061021e9190611ab7565b610c90565b005b34801561023157600080fd5b5061024c60048036038101906102479190611746565b6110e6565b60405161025991906116db565b60405180910390f35b34801561026e57600080fd5b5061028960048036038101906102849190611b31565b61110f565b005b34801561029757600080fd5b506102b260048036038101906102ad9190611746565b61156b565b6040516102bf91906117f9565b60405180910390f35b600047905090565b6000806000806000600660008763ffffffff1663ffffffff1681526020019081526020016000206040518060c00160405290816000820160009054906101000a900460ff161515151581526020016000820160019054906101000a900463ffffffff1663ffffffff1663ffffffff1681526020016001820154815260200160028201548152602001600382015481526020016004820160009054906101000a900473ffffffffffffffffffffffffffffffffffffffff1673ffffffffffffffffffffffffffffffffffffffff1673ffffffffffffffffffffffffffffffffffffffff1681525050905080606001518160400151826060015183604001516103d79190611bb3565b4284604001516103e79190611bb3565b9450945094509450509193509193565b600080610403836115b4565b9050600073ffffffffffffffffffffffffffffffffffffffff168173ffffffffffffffffffffffffffffffffffffffff1603610474576040517f08c379a000000000000000000000000000000000000000000000000000000000815260040161046b90611c44565b60405180910390fd5b80915050919050565b61048681611600565b6104c5576040517f08c379a00000000000000000000000000000000000000000000000000000000081526004016104bc90611cb0565b60405180910390fd5b3373ffffffffffffffffffffffffffffffffffffffff16600560008363ffffffff1663ffffffff16815260200190815260200160002060050160009054906101000a900473ffffffffffffffffffffffffffffffffffffffff1673ffffffffffffffffffffffffffffffffffffffff1614610575576040517f08c379a000000000000000000000000000000000000000000000000000000000815260040161056c90611d42565b60405180910390fd5b60026000600560008463ffffffff1663ffffffff16815260200190815260200160002060010154815260200190815260200160002060006101000a81549060ff0219169055600560008263ffffffff1663ffffffff168152602001908152602001600020600080820160006101000a81549060ff02191690556001820160009055600282016000905560038201600090556004820160006106169190611665565b6005820160006101000a81549073ffffffffffffffffffffffffffffffffffffffff021916905550507f0866ce58cff25f1369001ade6576ab36e718743ef4997ccd9672674335f10a413382604051610670929190611d71565b60405180910390a150565b3373ffffffffffffffffffffffffffffffffffffffff16600660008463ffffffff1663ffffffff16815260200190815260200160002060040160009054906101000a900473ffffffffffffffffffffffffffffffffffffffff1673ffffffffffffffffffffffffffffffffffffffff161461072b576040517f08c379a000000000000000000000000000000000000000000000000000000000815260040161072290611d42565b60405180910390fd5b600660008363ffffffff1663ffffffff16815260200190815260200160002060000160009054906101000a900460ff1661079a576040517f08c379a000000000000000000000000000000000000000000000000000000000815260040161079190611de6565b60405180910390fd5b80600660008463ffffffff1663ffffffff168152602001908152602001600020600301819055507fb89c59f106acbce3383979d323f1be7129108065445b12225a28b3e662f750dd81836040516107f2929190611e06565b60405180910390a15050565b600042600660008463ffffffff1663ffffffff16815260200190815260200160002060010154109050919050565b33600860008273ffffffffffffffffffffffffffffffffffffffff1673ffffffffffffffffffffffffffffffffffffffff16815260200190815260200160002060009054906101000a900460ff16156108ba576040517f08c379a00000000000000000000000000000000000000000000000000000000081526004016108b190611e7b565b60405180910390fd5b6001600860008373ffffffffffffffffffffffffffffffffffffffff1673ffffffffffffffffffffffffffffffffffffffff16815260200190815260200160002060006101000a81548160ff0219169083151502179055506000845103610956576040517f08c379a000000000000000000000000000000000000000000000000000000000815260040161094d90611ee7565b60405180910390fd5b600083510361099a576040517f08c379a000000000000000000000000000000000000000000000000000000000815260040161099190611ee7565b60405180910390fd5b600073ffffffffffffffffffffffffffffffffffffffff163373ffffffffffffffffffffffffffffffffffffffff1603610a09576040517f08c379a0000000000000000000000000000000000000000000000000000000008152600401610a0090611f53565b60405180910390fd5b60008211610a1657600080fd5b6000602086015190506002600082815260200190815260200160002060009054906101000a900460ff1615610a80576040517f08c379a0000000000000000000000000000000000000000000000000000000008152600401610a779061200b565b60405180910390fd5b6000808787604051602001610a9692919061209c565b60405160208183030381529060405290506012602e820101519150610abb6000611641565b6040518060c001604052806000151581526020018481526020018381526020018681526020018781526020013373ffffffffffffffffffffffffffffffffffffffff1681525060056000610b0f6000611657565b63ffffffff1663ffffffff16815260200190815260200160002060008201518160000160006101000a81548160ff0219169083151502179055506020820151816001015560408201518160020155606082015181600301556080820151816004019081610b7c91906122cc565b5060a08201518160050160006101000a81548173ffffffffffffffffffffffffffffffffffffffff021916908373ffffffffffffffffffffffffffffffffffffffff16021790555090505060016002600085815260200190815260200160002060006101000a81548160ff0219169083151502179055507f4f8ad30422c34becfa0e49ba52845c6c7963438c6dcde5c0699ab44c6de43f21338989604051610c26939291906123d7565b60405180910390a15050506000600860008373ffffffffffffffffffffffffffffffffffffffff1673ffffffffffffffffffffffffffffffffffffffff16815260200190815260200160002060006101000a81548160ff0219169083151502179055505050505050565b610c99816107fe565b15610cd9576040517f08c379a0000000000000000000000000000000000000000000000000000000008152600401610cd09061248e565b60405180910390fd5b60003390506000349050600660008463ffffffff1663ffffffff16815260200190815260200160002060030154600360008563ffffffff1663ffffffff16815260200190815260200160002054610d3091906124ae565b811015610d72576040517f08c379a0000000000000000000000000000000000000000000000000000000008152600401610d699061252e565b60405180910390fd5b60003073ffffffffffffffffffffffffffffffffffffffff1682604051610d989061257f565b60006040518083038185875af1925050503d8060008114610dd5576040519150601f19603f3d011682016040523d82523d6000602084013e610dda565b606091505b5050905080610e1e576040517f08c379a0000000000000000000000000000000000000000000000000000000008152600401610e15906125e0565b60405180910390fd5b6000600460008663ffffffff1663ffffffff16815260200190815260200160002060009054906101000a900473ffffffffffffffffffffffffffffffffffffffff1673ffffffffffffffffffffffffffffffffffffffff16600360008763ffffffff1663ffffffff16815260200190815260200160002054604051610ea29061257f565b60006040518083038185875af1925050503d8060008114610edf576040519150601f19603f3d011682016040523d82523d6000602084013e610ee4565b606091505b5050905080610f28576040517f08c379a0000000000000000000000000000000000000000000000000000000008152600401610f1f9061264c565b60405180910390fd5b82600360008763ffffffff1663ffffffff1681526020019081526020016000206000828254610f5791906124ae565b9250508190555083600460008763ffffffff1663ffffffff16815260200190815260200160002060006101000a81548173ffffffffffffffffffffffffffffffffffffffff021916908373ffffffffffffffffffffffffffffffffffffffff16021790555082600760008763ffffffff1663ffffffff16815260200190815260200160002060008673ffffffffffffffffffffffffffffffffffffffff1673ffffffffffffffffffffffffffffffffffffffff168152602001908152602001600020600082825461102891906124ae565b9250508190555061012c42600660008863ffffffff1663ffffffff168152602001908152602001600020600101546110609190611bb3565b10156110a15760b4600660008763ffffffff1663ffffffff168152602001908152602001600020600101600082825461109991906124ae565b925050819055505b7f9616315166379eb0d1c4c0f9c80af9eb01e46bd027f4cfd15c48bbe2041a7357858786866040516110d6949392919061266c565b60405180910390a1505050505050565b6000600360008363ffffffff1663ffffffff168152602001908152602001600020549050919050565b33600860008273ffffffffffffffffffffffffffffffffffffffff1673ffffffffffffffffffffffffffffffffffffffff16815260200190815260200160002060009054906101000a900460ff161561119d576040517f08c379a000000000000000000000000000000000000000000000000000000000815260040161119490611e7b565b60405180910390fd5b6001600860008373ffffffffffffffffffffffffffffffffffffffff1673ffffffffffffffffffffffffffffffffffffffff16815260200190815260200160002060006101000a81548160ff02191690831515021790555060008411611238576040517f08c379a000000000000000000000000000000000000000000000000000000000815260040161122f90612723565b60405180910390fd5b6000339050611246846103f7565b73ffffffffffffffffffffffffffffffffffffffff168173ffffffffffffffffffffffffffffffffffffffff16146112b3576040517f08c379a00000000000000000000000000000000000000000000000000000000081526004016112aa90611d42565b60405180910390fd5b600560008563ffffffff1663ffffffff16815260200190815260200160002060000160009054906101000a900460ff1615611323576040517f08c379a000000000000000000000000000000000000000000000000000000000815260040161131a9061278f565b60405180910390fd5b61132d6001611641565b60006113396001611657565b90506040518060c001604052806001151581526020018663ffffffff168152602001603c8661136891906127af565b61ffff164261137791906124ae565b81526020014281526020018781526020018373ffffffffffffffffffffffffffffffffffffffff16815250600660008363ffffffff1663ffffffff16815260200190815260200160002060008201518160000160006101000a81548160ff02191690831515021790555060208201518160000160016101000a81548163ffffffff021916908363ffffffff16021790555060408201518160010155606082015181600201556080820151816003015560a08201518160040160006101000a81548173ffffffffffffffffffffffffffffffffffffffff021916908373ffffffffffffffffffffffffffffffffffffffff16021790555090505081600460008363ffffffff1663ffffffff16815260200190815260200160002060006101000a81548173ffffffffffffffffffffffffffffffffffffffff021916908373ffffffffffffffffffffffffffffffffffffffff1602179055507ff2a44d84ac8ffbc8a349fa1e7694f72d3ff8d23134ff37f07a03ac72500803018287838860405161150394939291906127ec565b60405180910390a150506000600860008373ffffffffffffffffffffffffffffffffffffffff1673ffffffffffffffffffffffffffffffffffffffff16815260200190815260200160002060006101000a81548160ff02191690831515021790555050505050565b6000600460008363ffffffff1663ffffffff16815260200190815260200160002060009054906101000a900473ffffffffffffffffffffffffffffffffffffffff169050919050565b6000600560008363ffffffff1663ffffffff16815260200190815260200160002060050160009054906101000a900473ffffffffffffffffffffffffffffffffffffffff169050919050565b60008073ffffffffffffffffffffffffffffffffffffffff16611622836115b4565b73ffffffffffffffffffffffffffffffffffffffff1614159050919050565b6001816000016000828254019250508190555050565b600081600001549050919050565b508054611671906120ef565b6000825580601f1061168357506116a2565b601f0160209004906000526020600020908101906116a191906116a5565b5b50565b5b808211156116be5760008160009055506001016116a6565b5090565b6000819050919050565b6116d5816116c2565b82525050565b60006020820190506116f060008301846116cc565b92915050565b6000604051905090565b600080fd5b600080fd5b600063ffffffff82169050919050565b6117238161170a565b811461172e57600080fd5b50565b6000813590506117408161171a565b92915050565b60006020828403121561175c5761175b611700565b5b600061176a84828501611731565b91505092915050565b600060808201905061178860008301876116cc565b61179560208301866116cc565b6117a260408301856116cc565b6117af60608301846116cc565b95945050505050565b600073ffffffffffffffffffffffffffffffffffffffff82169050919050565b60006117e3826117b8565b9050919050565b6117f3816117d8565b82525050565b600060208201905061180e60008301846117ea565b92915050565b61181d816116c2565b811461182857600080fd5b50565b60008135905061183a81611814565b92915050565b6000806040838503121561185757611856611700565b5b600061186585828601611731565b92505060206118768582860161182b565b9150509250929050565b60008115159050919050565b61189581611880565b82525050565b60006020820190506118b0600083018461188c565b92915050565b600080fd5b600080fd5b6000601f19601f8301169050919050565b7f4e487b7100000000000000000000000000000000000000000000000000000000600052604160045260246000fd5b611909826118c0565b810181811067ffffffffffffffff82111715611928576119276118d1565b5b80604052505050565b600061193b6116f6565b90506119478282611900565b919050565b600067ffffffffffffffff821115611967576119666118d1565b5b611970826118c0565b9050602081019050919050565b82818337600083830152505050565b600061199f61199a8461194c565b611931565b9050828152602081018484840111156119bb576119ba6118bb565b5b6119c684828561197d565b509392505050565b600082601f8301126119e3576119e26118b6565b5b81356119f384826020860161198c565b91505092915050565b60008060008060808587031215611a1657611a15611700565b5b600085013567ffffffffffffffff811115611a3457611a33611705565b5b611a40878288016119ce565b945050602085013567ffffffffffffffff811115611a6157611a60611705565b5b611a6d878288016119ce565b935050604085013567ffffffffffffffff811115611a8e57611a8d611705565b5b611a9a878288016119ce565b9250506060611aab8782880161182b565b91505092959194509250565b60008060408385031215611ace57611acd611700565b5b6000611adc85828601611731565b9250506020611aed85828601611731565b9150509250929050565b600061ffff82169050919050565b611b0e81611af7565b8114611b1957600080fd5b50565b600081359050611b2b81611b05565b92915050565b600080600060608486031215611b4a57611b49611700565b5b6000611b588682870161182b565b9350506020611b6986828701611731565b9250506040611b7a86828701611b1c565b9150509250925092565b7f4e487b7100000000000000000000000000000000000000000000000000000000600052601160045260246000fd5b6000611bbe826116c2565b9150611bc9836116c2565b9250828203905081811115611be157611be0611b84565b5b92915050565b600082825260208201905092915050565b7f496e76616c6964204e4654204944000000000000000000000000000000000000600082015250565b6000611c2e600e83611be7565b9150611c3982611bf8565b602082019050919050565b60006020820190508181036000830152611c5d81611c21565b9050919050565b7f556e617661696c61626c65204e46540000000000000000000000000000000000600082015250565b6000611c9a600f83611be7565b9150611ca582611c64565b602082019050919050565b60006020820190508181036000830152611cc981611c8d565b9050919050565b7f596f7520617265206e6f7420746865206f776e6572206f662074686973204e4660008201527f5400000000000000000000000000000000000000000000000000000000000000602082015250565b6000611d2c602183611be7565b9150611d3782611cd0565b604082019050919050565b60006020820190508181036000830152611d5b81611d1f565b9050919050565b611d6b8161170a565b82525050565b6000604082019050611d8660008301856117ea565b611d936020830184611d62565b9392505050565b7f41756374696f6e206973206e6f7420617661696c61626c650000000000000000600082015250565b6000611dd0601883611be7565b9150611ddb82611d9a565b602082019050919050565b60006020820190508181036000830152611dff81611dc3565b9050919050565b6000604082019050611e1b60008301856116cc565b611e286020830184611d62565b9392505050565b7f4e6f2072652d656e7472616e6379000000000000000000000000000000000000600082015250565b6000611e65600e83611be7565b9150611e7082611e2f565b602082019050919050565b60006020820190508181036000830152611e9481611e58565b9050919050565b7f496e76616c6964204e4654206e616d6500000000000000000000000000000000600082015250565b6000611ed1601083611be7565b9150611edc82611e9b565b602082019050919050565b60006020820190508181036000830152611f0081611ec4565b9050919050565b7f4164647265737320300000000000000000000000000000000000000000000000600082015250565b6000611f3d600983611be7565b9150611f4882611f07565b602082019050919050565b60006020820190508181036000830152611f6c81611f30565b9050919050565b7f496d6167652068617368206973206e6f7420756e697175652e20596f7520617260008201527f6520747279696e6720746f2075706c6f616420616e206578697374656420696d60208201527f6167650000000000000000000000000000000000000000000000000000000000604082015250565b6000611ff5604383611be7565b915061200082611f73565b606082019050919050565b6000602082019050818103600083015261202481611fe8565b9050919050565b600081519050919050565b600081905092915050565b60005b8381101561205f578082015181840152602081019050612044565b60008484015250505050565b60006120768261202b565b6120808185612036565b9350612090818560208601612041565b80840191505092915050565b60006120a8828561206b565b91506120b4828461206b565b91508190509392505050565b7f4e487b7100000000000000000000000000000000000000000000000000000000600052602260045260246000fd5b6000600282049050600182168061210757607f821691505b60208210810361211a576121196120c0565b5b50919050565b60008190508160005260206000209050919050565b60006020601f8301049050919050565b600082821b905092915050565b6000600883026121827fffffffffffffffffffffffffffffffffffffffffffffffffffffffffffffffff82612145565b61218c8683612145565b95508019841693508086168417925050509392505050565b6000819050919050565b60006121c96121c46121bf846116c2565b6121a4565b6116c2565b9050919050565b6000819050919050565b6121e3836121ae565b6121f76121ef826121d0565b848454612152565b825550505050565b600090565b61220c6121ff565b6122178184846121da565b505050565b5b8181101561223b57612230600082612204565b60018101905061221d565b5050565b601f8211156122805761225181612120565b61225a84612135565b81016020851015612269578190505b61227d61227585612135565b83018261221c565b50505b505050565b600082821c905092915050565b60006122a360001984600802612285565b1980831691505092915050565b60006122bc8383612292565b9150826002028217905092915050565b6122d58261202b565b67ffffffffffffffff8111156122ee576122ed6118d1565b5b6122f882546120ef565b61230382828561223f565b600060209050601f8311600181146123365760008415612324578287015190505b61232e85826122b0565b865550612396565b601f19841661234486612120565b60005b8281101561236c57848901518255600182019150602085019450602081019050612347565b868310156123895784890151612385601f891682612292565b8355505b6001600288020188555050505b505050505050565b60006123a98261202b565b6123b38185611be7565b93506123c3818560208601612041565b6123cc816118c0565b840191505092915050565b60006060820190506123ec60008301866117ea565b81810360208301526123fe818561239e565b90508181036040830152612412818461239e565b9050949350505050565b7f41756374696f6e20697320616c72656164792066696e6973686564206f72206460008201527f6f65736e27742065786973747300000000000000000000000000000000000000602082015250565b6000612478602d83611be7565b91506124838261241c565b604082019050919050565b600060208201905081810360008301526124a78161246b565b9050919050565b60006124b9826116c2565b91506124c4836116c2565b92508282019050808211156124dc576124db611b84565b5b92915050565b7f596f75722062696420697320756e73756666696369656e740000000000000000600082015250565b6000612518601883611be7565b9150612523826124e2565b602082019050919050565b600060208201905081810360008301526125478161250b565b9050919050565b600081905092915050565b50565b600061256960008361254e565b915061257482612559565b600082019050919050565b600061258a8261255c565b9150819050919050565b7f6572726f72310000000000000000000000000000000000000000000000000000600082015250565b60006125ca600683611be7565b91506125d582612594565b602082019050919050565b600060208201905081810360008301526125f9816125bd565b9050919050565b7f6572726f72320000000000000000000000000000000000000000000000000000600082015250565b6000612636600683611be7565b915061264182612600565b602082019050919050565b6000602082019050818103600083015261266581612629565b9050919050565b60006080820190506126816000830187611d62565b61268e6020830186611d62565b61269b60408301856117ea565b6126a860608301846116cc565b95945050505050565b7f4d696e696d616c2070726963652073686f756c6420626520677265617465722060008201527f7468616e20300000000000000000000000000000000000000000000000000000602082015250565b600061270d602683611be7565b9150612718826126b1565b604082019050919050565b6000602082019050818103600083015261273c81612700565b9050919050565b7f4e465420697320616c726561647920696e2041756374696f6e21000000000000600082015250565b6000612779601a83611be7565b915061278482612743565b602082019050919050565b600060208201905081810360008301526127a88161276c565b9050919050565b60006127ba82611af7565b91506127c583611af7565b92508282026127d381611af7565b91508082146127e5576127e4611b84565b5b5092915050565b600060808201905061280160008301876117ea565b61280e60208301866116cc565b61281b6040830185611d62565b6128286060830184611d62565b9594505050505056fea26469706673582212204fcaea007848f82be9de86c41f2bc8566bdb9423a823ee2c01fa2b64efe17b1e64736f6c63430008110033","opcodes":"PUSH1 0x80 PUSH1 0x40 MSTORE CALLVALUE DUP1 ISZERO PUSH2 0x10 JUMPI PUSH1 0x0 DUP1 REVERT JUMPDEST POP PUSH2 0x2867 DUP1 PUSH2 0x20 PUSH1 0x0 CODECOPY PUSH1 0x0 RETURN INVALID PUSH1 0x80 PUSH1 0x40 MSTORE PUSH1 0x4 CALLDATASIZE LT PUSH2 0xA0 JUMPI PUSH1 0x0 CALLDATALOAD PUSH1 0xE0 SHR DUP1 PUSH4 0xC3538700 GT PUSH2 0x64 JUMPI DUP1 PUSH4 0xC3538700 EQ PUSH2 0x1A3 JUMPI DUP1 PUSH4 0xCA1E217F EQ PUSH2 0x1E0 JUMPI DUP1 PUSH4 0xD59FE09A EQ PUSH2 0x209 JUMPI DUP1 PUSH4 0xDB0D4F9F EQ PUSH2 0x225 JUMPI DUP1 PUSH4 0xE5418FBF EQ PUSH2 0x262 JUMPI DUP1 PUSH4 0xF8440B56 EQ PUSH2 0x28B JUMPI PUSH2 0xA7 JUMP JUMPDEST DUP1 PUSH4 0x12065FE0 EQ PUSH2 0xA9 JUMPI DUP1 PUSH4 0x17849572 EQ PUSH2 0xD4 JUMPI DUP1 PUSH4 0x23B7EC3B EQ PUSH2 0x114 JUMPI DUP1 PUSH4 0x61D67213 EQ PUSH2 0x151 JUMPI DUP1 PUSH4 0xB0E888FC EQ PUSH2 0x17A JUMPI PUSH2 0xA7 JUMP JUMPDEST CALLDATASIZE PUSH2 0xA7 JUMPI STOP JUMPDEST STOP JUMPDEST CALLVALUE DUP1 ISZERO PUSH2 0xB5 JUMPI PUSH1 0x0 DUP1 REVERT JUMPDEST POP PUSH2 0xBE PUSH2 0x2C8 JUMP JUMPDEST PUSH1 0x40 MLOAD PUSH2 0xCB SWAP2 SWAP1 PUSH2 0x16DB JUMP JUMPDEST PUSH1 0x40 MLOAD DUP1 SWAP2 SUB SWAP1 RETURN JUMPDEST CALLVALUE DUP1 ISZERO PUSH2 0xE0 JUMPI PUSH1 0x0 DUP1 REVERT JUMPDEST POP PUSH2 0xFB PUSH1 0x4 DUP1 CALLDATASIZE SUB DUP2 ADD SWAP1 PUSH2 0xF6 SWAP2 SWAP1 PUSH2 0x1746 JUMP JUMPDEST PUSH2 0x2D0 JUMP JUMPDEST PUSH1 0x40 MLOAD PUSH2 0x10B SWAP5 SWAP4 SWAP3 SWAP2 SWAP1 PUSH2 0x1773 JUMP JUMPDEST PUSH1 0x40 MLOAD DUP1 SWAP2 SUB SWAP1 RETURN JUMPDEST CALLVALUE DUP1 ISZERO PUSH2 0x120 JUMPI PUSH1 0x0 DUP1 REVERT JUMPDEST POP PUSH2 0x13B PUSH1 0x4 DUP1 CALLDATASIZE SUB DUP2 ADD SWAP1 PUSH2 0x136 SWAP2 SWAP1 PUSH2 0x1746 JUMP JUMPDEST PUSH2 0x3F7 JUMP JUMPDEST PUSH1 0x40 MLOAD PUSH2 0x148 SWAP2 SWAP1 PUSH2 0x17F9 JUMP JUMPDEST PUSH1 0x40 MLOAD DUP1 SWAP2 SUB SWAP1 RETURN JUMPDEST CALLVALUE DUP1 ISZERO PUSH2 0x15D JUMPI PUSH1 0x0 DUP1 REVERT JUMPDEST POP PUSH2 0x178 PUSH1 0x4 DUP1 CALLDATASIZE SUB DUP2 ADD SWAP1 PUSH2 0x173 SWAP2 SWAP1 PUSH2 0x1746 JUMP JUMPDEST PUSH2 0x47D JUMP JUMPDEST STOP JUMPDEST CALLVALUE DUP1 ISZERO PUSH2 0x186 JUMPI PUSH1 0x0 DUP1 REVERT JUMPDEST POP PUSH2 0x1A1 PUSH1 0x4 DUP1 CALLDATASIZE SUB DUP2 ADD SWAP1 PUSH2 0x19C SWAP2 SWAP1 PUSH2 0x1840 JUMP JUMPDEST PUSH2 0x67B JUMP JUMPDEST STOP JUMPDEST CALLVALUE DUP1 ISZERO PUSH2 0x1AF JUMPI PUSH1 0x0 DUP1 REVERT JUMPDEST POP PUSH2 0x1CA PUSH1 0x4 DUP1 CALLDATASIZE SUB DUP2 ADD SWAP1 PUSH2 0x1C5 SWAP2 SWAP1 PUSH2 0x1746 JUMP JUMPDEST PUSH2 0x7FE JUMP JUMPDEST PUSH1 0x40 MLOAD PUSH2 0x1D7 SWAP2 SWAP1 PUSH2 0x189B JUMP JUMPDEST PUSH1 0x40 MLOAD DUP1 SWAP2 SUB SWAP1 RETURN JUMPDEST CALLVALUE DUP1 ISZERO PUSH2 0x1EC JUMPI PUSH1 0x0 DUP1 REVERT JUMPDEST POP PUSH2 0x207 PUSH1 0x4 DUP1 CALLDATASIZE SUB DUP2 ADD SWAP1 PUSH2 0x202 SWAP2 SWAP1 PUSH2 0x19FC JUMP JUMPDEST PUSH2 0x82C JUMP JUMPDEST STOP JUMPDEST PUSH2 0x223 PUSH1 0x4 DUP1 CALLDATASIZE SUB DUP2 ADD SWAP1 PUSH2 0x21E SWAP2 SWAP1 PUSH2 0x1AB7 JUMP JUMPDEST PUSH2 0xC90 JUMP JUMPDEST STOP JUMPDEST CALLVALUE DUP1 ISZERO PUSH2 0x231 JUMPI PUSH1 0x0 DUP1 REVERT JUMPDEST POP PUSH2 0x24C PUSH1 0x4 DUP1 CALLDATASIZE SUB DUP2 ADD SWAP1 PUSH2 0x247 SWAP2 SWAP1 PUSH2 0x1746 JUMP JUMPDEST PUSH2 0x10E6 JUMP JUMPDEST PUSH1 0x40 MLOAD PUSH2 0x259 SWAP2 SWAP1 PUSH2 0x16DB JUMP JUMPDEST PUSH1 0x40 MLOAD DUP1 SWAP2 SUB SWAP1 RETURN JUMPDEST CALLVALUE DUP1 ISZERO PUSH2 0x26E JUMPI PUSH1 0x0 DUP1 REVERT JUMPDEST POP PUSH2 0x289 PUSH1 0x4 DUP1 CALLDATASIZE SUB DUP2 ADD SWAP1 PUSH2 0x284 SWAP2 SWAP1 PUSH2 0x1B31 JUMP JUMPDEST PUSH2 0x110F JUMP JUMPDEST STOP JUMPDEST CALLVALUE DUP1 ISZERO PUSH2 0x297 JUMPI PUSH1 0x0 DUP1 REVERT JUMPDEST POP PUSH2 0x2B2 PUSH1 0x4 DUP1 CALLDATASIZE SUB DUP2 ADD SWAP1 PUSH2 0x2AD SWAP2 SWAP1 PUSH2 0x1746 JUMP JUMPDEST PUSH2 0x156B JUMP JUMPDEST PUSH1 0x40 MLOAD PUSH2 0x2BF SWAP2 SWAP1 PUSH2 0x17F9 JUMP JUMPDEST PUSH1 0x40 MLOAD DUP1 SWAP2 SUB SWAP1 RETURN JUMPDEST PUSH1 0x0 SELFBALANCE SWAP1 POP SWAP1 JUMP JUMPDEST PUSH1 0x0 DUP1 PUSH1 0x0 DUP1 PUSH1 0x0 PUSH1 0x6 PUSH1 0x0 DUP8 PUSH4 0xFFFFFFFF AND PUSH4 0xFFFFFFFF AND DUP2 MSTORE PUSH1 0x20 ADD SWAP1 DUP2 MSTORE PUSH1 0x20 ADD PUSH1 0x0 KECCAK256 PUSH1 0x40 MLOAD DUP1 PUSH1 0xC0 ADD PUSH1 0x40 MSTORE SWAP1 DUP2 PUSH1 0x0 DUP3 ADD PUSH1 0x0 SWAP1 SLOAD SWAP1 PUSH2 0x100 EXP SWAP1 DIV PUSH1 0xFF AND ISZERO ISZERO ISZERO ISZERO DUP2 MSTORE PUSH1 0x20 ADD PUSH1 0x0 DUP3 ADD PUSH1 0x1 SWAP1 SLOAD SWAP1 PUSH2 0x100 EXP SWAP1 DIV PUSH4 0xFFFFFFFF AND PUSH4 0xFFFFFFFF AND PUSH4 0xFFFFFFFF AND DUP2 MSTORE PUSH1 0x20 ADD PUSH1 0x1 DUP3 ADD SLOAD DUP2 MSTORE PUSH1 0x20 ADD PUSH1 0x2 DUP3 ADD SLOAD DUP2 MSTORE PUSH1 0x20 ADD PUSH1 0x3 DUP3 ADD SLOAD DUP2 MSTORE PUSH1 0x20 ADD PUSH1 0x4 DUP3 ADD PUSH1 0x0 SWAP1 SLOAD SWAP1 PUSH2 0x100 EXP SWAP1 DIV PUSH20 0xFFFFFFFFFFFFFFFFFFFFFFFFFFFFFFFFFFFFFFFF AND PUSH20 0xFFFFFFFFFFFFFFFFFFFFFFFFFFFFFFFFFFFFFFFF AND PUSH20 0xFFFFFFFFFFFFFFFFFFFFFFFFFFFFFFFFFFFFFFFF AND DUP2 MSTORE POP POP SWAP1 POP DUP1 PUSH1 0x60 ADD MLOAD DUP2 PUSH1 0x40 ADD MLOAD DUP3 PUSH1 0x60 ADD MLOAD DUP4 PUSH1 0x40 ADD MLOAD PUSH2 0x3D7 SWAP2 SWAP1 PUSH2 0x1BB3 JUMP JUMPDEST TIMESTAMP DUP5 PUSH1 0x40 ADD MLOAD PUSH2 0x3E7 SWAP2 SWAP1 PUSH2 0x1BB3 JUMP JUMPDEST SWAP5 POP SWAP5 POP SWAP5 POP SWAP5 POP POP SWAP2 SWAP4 POP SWAP2 SWAP4 JUMP JUMPDEST PUSH1 0x0 DUP1 PUSH2 0x403 DUP4 PUSH2 0x15B4 JUMP JUMPDEST SWAP1 POP PUSH1 0x0 PUSH20 0xFFFFFFFFFFFFFFFFFFFFFFFFFFFFFFFFFFFFFFFF AND DUP2 PUSH20 0xFFFFFFFFFFFFFFFFFFFFFFFFFFFFFFFFFFFFFFFF AND SUB PUSH2 0x474 JUMPI PUSH1 0x40 MLOAD PUSH32 0x8C379A000000000000000000000000000000000000000000000000000000000 DUP2 MSTORE PUSH1 0x4 ADD PUSH2 0x46B SWAP1 PUSH2 0x1C44 JUMP JUMPDEST PUSH1 0x40 MLOAD DUP1 SWAP2 SUB SWAP1 REVERT JUMPDEST DUP1 SWAP2 POP POP SWAP2 SWAP1 POP JUMP JUMPDEST PUSH2 0x486 DUP2 PUSH2 0x1600 JUMP JUMPDEST PUSH2 0x4C5 JUMPI PUSH1 0x40 MLOAD PUSH32 0x8C379A000000000000000000000000000000000000000000000000000000000 DUP2 MSTORE PUSH1 0x4 ADD PUSH2 0x4BC SWAP1 PUSH2 0x1CB0 JUMP JUMPDEST PUSH1 0x40 MLOAD DUP1 SWAP2 SUB SWAP1 REVERT JUMPDEST CALLER PUSH20 0xFFFFFFFFFFFFFFFFFFFFFFFFFFFFFFFFFFFFFFFF AND PUSH1 0x5 PUSH1 0x0 DUP4 PUSH4 0xFFFFFFFF AND PUSH4 0xFFFFFFFF AND DUP2 MSTORE PUSH1 0x20 ADD SWAP1 DUP2 MSTORE PUSH1 0x20 ADD PUSH1 0x0 KECCAK256 PUSH1 0x5 ADD PUSH1 0x0 SWAP1 SLOAD SWAP1 PUSH2 0x100 EXP SWAP1 DIV PUSH20 0xFFFFFFFFFFFFFFFFFFFFFFFFFFFFFFFFFFFFFFFF AND PUSH20 0xFFFFFFFFFFFFFFFFFFFFFFFFFFFFFFFFFFFFFFFF AND EQ PUSH2 0x575 JUMPI PUSH1 0x40 MLOAD PUSH32 0x8C379A000000000000000000000000000000000000000000000000000000000 DUP2 MSTORE PUSH1 0x4 ADD PUSH2 0x56C SWAP1 PUSH2 0x1D42 JUMP JUMPDEST PUSH1 0x40 MLOAD DUP1 SWAP2 SUB SWAP1 REVERT JUMPDEST PUSH1 0x2 PUSH1 0x0 PUSH1 0x5 PUSH1 0x0 DUP5 PUSH4 0xFFFFFFFF AND PUSH4 0xFFFFFFFF AND DUP2 MSTORE PUSH1 0x20 ADD SWAP1 DUP2 MSTORE PUSH1 0x20 ADD PUSH1 0x0 KECCAK256 PUSH1 0x1 ADD SLOAD DUP2 MSTORE PUSH1 0x20 ADD SWAP1 DUP2 MSTORE PUSH1 0x20 ADD PUSH1 0x0 KECCAK256 PUSH1 0x0 PUSH2 0x100 EXP DUP2 SLOAD SWAP1 PUSH1 0xFF MUL NOT AND SWAP1 SSTORE PUSH1 0x5 PUSH1 0x0 DUP3 PUSH4 0xFFFFFFFF AND PUSH4 0xFFFFFFFF AND DUP2 MSTORE PUSH1 0x20 ADD SWAP1 DUP2 MSTORE PUSH1 0x20 ADD PUSH1 0x0 KECCAK256 PUSH1 0x0 DUP1 DUP3 ADD PUSH1 0x0 PUSH2 0x100 EXP DUP2 SLOAD SWAP1 PUSH1 0xFF MUL NOT AND SWAP1 SSTORE PUSH1 0x1 DUP3 ADD PUSH1 0x0 SWAP1 SSTORE PUSH1 0x2 DUP3 ADD PUSH1 0x0 SWAP1 SSTORE PUSH1 0x3 DUP3 ADD PUSH1 0x0 SWAP1 SSTORE PUSH1 0x4 DUP3 ADD PUSH1 0x0 PUSH2 0x616 SWAP2 SWAP1 PUSH2 0x1665 JUMP JUMPDEST PUSH1 0x5 DUP3 ADD PUSH1 0x0 PUSH2 0x100 EXP DUP2 SLOAD SWAP1 PUSH20 0xFFFFFFFFFFFFFFFFFFFFFFFFFFFFFFFFFFFFFFFF MUL NOT AND SWAP1 SSTORE POP POP PUSH32 0x866CE58CFF25F1369001ADE6576AB36E718743EF4997CCD9672674335F10A41 CALLER DUP3 PUSH1 0x40 MLOAD PUSH2 0x670 SWAP3 SWAP2 SWAP1 PUSH2 0x1D71 JUMP JUMPDEST PUSH1 0x40 MLOAD DUP1 SWAP2 SUB SWAP1 LOG1 POP JUMP JUMPDEST CALLER PUSH20 0xFFFFFFFFFFFFFFFFFFFFFFFFFFFFFFFFFFFFFFFF AND PUSH1 0x6 PUSH1 0x0 DUP5 PUSH4 0xFFFFFFFF AND PUSH4 0xFFFFFFFF AND DUP2 MSTORE PUSH1 0x20 ADD SWAP1 DUP2 MSTORE PUSH1 0x20 ADD PUSH1 0x0 KECCAK256 PUSH1 0x4 ADD PUSH1 0x0 SWAP1 SLOAD SWAP1 PUSH2 0x100 EXP SWAP1 DIV PUSH20 0xFFFFFFFFFFFFFFFFFFFFFFFFFFFFFFFFFFFFFFFF AND PUSH20 0xFFFFFFFFFFFFFFFFFFFFFFFFFFFFFFFFFFFFFFFF AND EQ PUSH2 0x72B JUMPI PUSH1 0x40 MLOAD PUSH32 0x8C379A000000000000000000000000000000000000000000000000000000000 DUP2 MSTORE PUSH1 0x4 ADD PUSH2 0x722 SWAP1 PUSH2 0x1D42 JUMP JUMPDEST PUSH1 0x40 MLOAD DUP1 SWAP2 SUB SWAP1 REVERT JUMPDEST PUSH1 0x6 PUSH1 0x0 DUP4 PUSH4 0xFFFFFFFF AND PUSH4 0xFFFFFFFF AND DUP2 MSTORE PUSH1 0x20 ADD SWAP1 DUP2 MSTORE PUSH1 0x20 ADD PUSH1 0x0 KECCAK256 PUSH1 0x0 ADD PUSH1 0x0 SWAP1 SLOAD SWAP1 PUSH2 0x100 EXP SWAP1 DIV PUSH1 0xFF AND PUSH2 0x79A JUMPI PUSH1 0x40 MLOAD PUSH32 0x8C379A000000000000000000000000000000000000000000000000000000000 DUP2 MSTORE PUSH1 0x4 ADD PUSH2 0x791 SWAP1 PUSH2 0x1DE6 JUMP JUMPDEST PUSH1 0x40 MLOAD DUP1 SWAP2 SUB SWAP1 REVERT JUMPDEST DUP1 PUSH1 0x6 PUSH1 0x0 DUP5 PUSH4 0xFFFFFFFF AND PUSH4 0xFFFFFFFF AND DUP2 MSTORE PUSH1 0x20 ADD SWAP1 DUP2 MSTORE PUSH1 0x20 ADD PUSH1 0x0 KECCAK256 PUSH1 0x3 ADD DUP2 SWAP1 SSTORE POP PUSH32 0xB89C59F106ACBCE3383979D323F1BE7129108065445B12225A28B3E662F750DD DUP2 DUP4 PUSH1 0x40 MLOAD PUSH2 0x7F2 SWAP3 SWAP2 SWAP1 PUSH2 0x1E06 JUMP JUMPDEST PUSH1 0x40 MLOAD DUP1 SWAP2 SUB SWAP1 LOG1 POP POP JUMP JUMPDEST PUSH1 0x0 TIMESTAMP PUSH1 0x6 PUSH1 0x0 DUP5 PUSH4 0xFFFFFFFF AND PUSH4 0xFFFFFFFF AND DUP2 MSTORE PUSH1 0x20 ADD SWAP1 DUP2 MSTORE PUSH1 0x20 ADD PUSH1 0x0 KECCAK256 PUSH1 0x1 ADD SLOAD LT SWAP1 POP SWAP2 SWAP1 POP JUMP JUMPDEST CALLER PUSH1 0x8 PUSH1 0x0 DUP3 PUSH20 0xFFFFFFFFFFFFFFFFFFFFFFFFFFFFFFFFFFFFFFFF AND PUSH20 0xFFFFFFFFFFFFFFFFFFFFFFFFFFFFFFFFFFFFFFFF AND DUP2 MSTORE PUSH1 0x20 ADD SWAP1 DUP2 MSTORE PUSH1 0x20 ADD PUSH1 0x0 KECCAK256 PUSH1 0x0 SWAP1 SLOAD SWAP1 PUSH2 0x100 EXP SWAP1 DIV PUSH1 0xFF AND ISZERO PUSH2 0x8BA JUMPI PUSH1 0x40 MLOAD PUSH32 0x8C379A000000000000000000000000000000000000000000000000000000000 DUP2 MSTORE PUSH1 0x4 ADD PUSH2 0x8B1 SWAP1 PUSH2 0x1E7B JUMP JUMPDEST PUSH1 0x40 MLOAD DUP1 SWAP2 SUB SWAP1 REVERT JUMPDEST PUSH1 0x1 PUSH1 0x8 PUSH1 0x0 DUP4 PUSH20 0xFFFFFFFFFFFFFFFFFFFFFFFFFFFFFFFFFFFFFFFF AND PUSH20 0xFFFFFFFFFFFFFFFFFFFFFFFFFFFFFFFFFFFFFFFF AND DUP2 MSTORE PUSH1 0x20 ADD SWAP1 DUP2 MSTORE PUSH1 0x20 ADD PUSH1 0x0 KECCAK256 PUSH1 0x0 PUSH2 0x100 EXP DUP2 SLOAD DUP2 PUSH1 0xFF MUL NOT AND SWAP1 DUP4 ISZERO ISZERO MUL OR SWAP1 SSTORE POP PUSH1 0x0 DUP5 MLOAD SUB PUSH2 0x956 JUMPI PUSH1 0x40 MLOAD PUSH32 0x8C379A000000000000000000000000000000000000000000000000000000000 DUP2 MSTORE PUSH1 0x4 ADD PUSH2 0x94D SWAP1 PUSH2 0x1EE7 JUMP JUMPDEST PUSH1 0x40 MLOAD DUP1 SWAP2 SUB SWAP1 REVERT JUMPDEST PUSH1 0x0 DUP4 MLOAD SUB PUSH2 0x99A JUMPI PUSH1 0x40 MLOAD PUSH32 0x8C379A000000000000000000000000000000000000000000000000000000000 DUP2 MSTORE PUSH1 0x4 ADD PUSH2 0x991 SWAP1 PUSH2 0x1EE7 JUMP JUMPDEST PUSH1 0x40 MLOAD DUP1 SWAP2 SUB SWAP1 REVERT JUMPDEST PUSH1 0x0 PUSH20 0xFFFFFFFFFFFFFFFFFFFFFFFFFFFFFFFFFFFFFFFF AND CALLER PUSH20 0xFFFFFFFFFFFFFFFFFFFFFFFFFFFFFFFFFFFFFFFF AND SUB PUSH2 0xA09 JUMPI PUSH1 0x40 MLOAD PUSH32 0x8C379A000000000000000000000000000000000000000000000000000000000 DUP2 MSTORE PUSH1 0x4 ADD PUSH2 0xA00 SWAP1 PUSH2 0x1F53 JUMP JUMPDEST PUSH1 0x40 MLOAD DUP1 SWAP2 SUB SWAP1 REVERT JUMPDEST PUSH1 0x0 DUP3 GT PUSH2 0xA16 JUMPI PUSH1 0x0 DUP1 REVERT JUMPDEST PUSH1 0x0 PUSH1 0x20 DUP7 ADD MLOAD SWAP1 POP PUSH1 0x2 PUSH1 0x0 DUP3 DUP2 MSTORE PUSH1 0x20 ADD SWAP1 DUP2 MSTORE PUSH1 0x20 ADD PUSH1 0x0 KECCAK256 PUSH1 0x0 SWAP1 SLOAD SWAP1 PUSH2 0x100 EXP SWAP1 DIV PUSH1 0xFF AND ISZERO PUSH2 0xA80 JUMPI PUSH1 0x40 MLOAD PUSH32 0x8C379A000000000000000000000000000000000000000000000000000000000 DUP2 MSTORE PUSH1 0x4 ADD PUSH2 0xA77 SWAP1 PUSH2 0x200B JUMP JUMPDEST PUSH1 0x40 MLOAD DUP1 SWAP2 SUB SWAP1 REVERT JUMPDEST PUSH1 0x0 DUP1 DUP8 DUP8 PUSH1 0x40 MLOAD PUSH1 0x20 ADD PUSH2 0xA96 SWAP3 SWAP2 SWAP1 PUSH2 0x209C JUMP JUMPDEST PUSH1 0x40 MLOAD PUSH1 0x20 DUP2 DUP4 SUB SUB DUP2 MSTORE SWAP1 PUSH1 0x40 MSTORE SWAP1 POP PUSH1 0x12 PUSH1 0x2E DUP3 ADD ADD MLOAD SWAP2 POP PUSH2 0xABB PUSH1 0x0 PUSH2 0x1641 JUMP JUMPDEST PUSH1 0x40 MLOAD DUP1 PUSH1 0xC0 ADD PUSH1 0x40 MSTORE DUP1 PUSH1 0x0 ISZERO ISZERO DUP2 MSTORE PUSH1 0x20 ADD DUP5 DUP2 MSTORE PUSH1 0x20 ADD DUP4 DUP2 MSTORE PUSH1 0x20 ADD DUP7 DUP2 MSTORE PUSH1 0x20 ADD DUP8 DUP2 MSTORE PUSH1 0x20 ADD CALLER PUSH20 0xFFFFFFFFFFFFFFFFFFFFFFFFFFFFFFFFFFFFFFFF AND DUP2 MSTORE POP PUSH1 0x5 PUSH1 0x0 PUSH2 0xB0F PUSH1 0x0 PUSH2 0x1657 JUMP JUMPDEST PUSH4 0xFFFFFFFF AND PUSH4 0xFFFFFFFF AND DUP2 MSTORE PUSH1 0x20 ADD SWAP1 DUP2 MSTORE PUSH1 0x20 ADD PUSH1 0x0 KECCAK256 PUSH1 0x0 DUP3 ADD MLOAD DUP2 PUSH1 0x0 ADD PUSH1 0x0 PUSH2 0x100 EXP DUP2 SLOAD DUP2 PUSH1 0xFF MUL NOT AND SWAP1 DUP4 ISZERO ISZERO MUL OR SWAP1 SSTORE POP PUSH1 0x20 DUP3 ADD MLOAD DUP2 PUSH1 0x1 ADD SSTORE PUSH1 0x40 DUP3 ADD MLOAD DUP2 PUSH1 0x2 ADD SSTORE PUSH1 0x60 DUP3 ADD MLOAD DUP2 PUSH1 0x3 ADD SSTORE PUSH1 0x80 DUP3 ADD MLOAD DUP2 PUSH1 0x4 ADD SWAP1 DUP2 PUSH2 0xB7C SWAP2 SWAP1 PUSH2 0x22CC JUMP JUMPDEST POP PUSH1 0xA0 DUP3 ADD MLOAD DUP2 PUSH1 0x5 ADD PUSH1 0x0 PUSH2 0x100 EXP DUP2 SLOAD DUP2 PUSH20 0xFFFFFFFFFFFFFFFFFFFFFFFFFFFFFFFFFFFFFFFF MUL NOT AND SWAP1 DUP4 PUSH20 0xFFFFFFFFFFFFFFFFFFFFFFFFFFFFFFFFFFFFFFFF AND MUL OR SWAP1 SSTORE POP SWAP1 POP POP PUSH1 0x1 PUSH1 0x2 PUSH1 0x0 DUP6 DUP2 MSTORE PUSH1 0x20 ADD SWAP1 DUP2 MSTORE PUSH1 0x20 ADD PUSH1 0x0 KECCAK256 PUSH1 0x0 PUSH2 0x100 EXP DUP2 SLOAD DUP2 PUSH1 0xFF MUL NOT AND SWAP1 DUP4 ISZERO ISZERO MUL OR SWAP1 SSTORE POP PUSH32 0x4F8AD30422C34BECFA0E49BA52845C6C7963438C6DCDE5C0699AB44C6DE43F21 CALLER DUP10 DUP10 PUSH1 0x40 MLOAD PUSH2 0xC26 SWAP4 SWAP3 SWAP2 SWAP1 PUSH2 0x23D7 JUMP JUMPDEST PUSH1 0x40 MLOAD DUP1 SWAP2 SUB SWAP1 LOG1 POP POP POP PUSH1 0x0 PUSH1 0x8 PUSH1 0x0 DUP4 PUSH20 0xFFFFFFFFFFFFFFFFFFFFFFFFFFFFFFFFFFFFFFFF AND PUSH20 0xFFFFFFFFFFFFFFFFFFFFFFFFFFFFFFFFFFFFFFFF AND DUP2 MSTORE PUSH1 0x20 ADD SWAP1 DUP2 MSTORE PUSH1 0x20 ADD PUSH1 0x0 KECCAK256 PUSH1 0x0 PUSH2 0x100 EXP DUP2 SLOAD DUP2 PUSH1 0xFF MUL NOT AND SWAP1 DUP4 ISZERO ISZERO MUL OR SWAP1 SSTORE POP POP POP POP POP POP JUMP JUMPDEST PUSH2 0xC99 DUP2 PUSH2 0x7FE JUMP JUMPDEST ISZERO PUSH2 0xCD9 JUMPI PUSH1 0x40 MLOAD PUSH32 0x8C379A000000000000000000000000000000000000000000000000000000000 DUP2 MSTORE PUSH1 0x4 ADD PUSH2 0xCD0 SWAP1 PUSH2 0x248E JUMP JUMPDEST PUSH1 0x40 MLOAD DUP1 SWAP2 SUB SWAP1 REVERT JUMPDEST PUSH1 0x0 CALLER SWAP1 POP PUSH1 0x0 CALLVALUE SWAP1 POP PUSH1 0x6 PUSH1 0x0 DUP5 PUSH4 0xFFFFFFFF AND PUSH4 0xFFFFFFFF AND DUP2 MSTORE PUSH1 0x20 ADD SWAP1 DUP2 MSTORE PUSH1 0x20 ADD PUSH1 0x0 KECCAK256 PUSH1 0x3 ADD SLOAD PUSH1 0x3 PUSH1 0x0 DUP6 PUSH4 0xFFFFFFFF AND PUSH4 0xFFFFFFFF AND DUP2 MSTORE PUSH1 0x20 ADD SWAP1 DUP2 MSTORE PUSH1 0x20 ADD PUSH1 0x0 KECCAK256 SLOAD PUSH2 0xD30 SWAP2 SWAP1 PUSH2 0x24AE JUMP JUMPDEST DUP2 LT ISZERO PUSH2 0xD72 JUMPI PUSH1 0x40 MLOAD PUSH32 0x8C379A000000000000000000000000000000000000000000000000000000000 DUP2 MSTORE PUSH1 0x4 ADD PUSH2 0xD69 SWAP1 PUSH2 0x252E JUMP JUMPDEST PUSH1 0x40 MLOAD DUP1 SWAP2 SUB SWAP1 REVERT JUMPDEST PUSH1 0x0 ADDRESS PUSH20 0xFFFFFFFFFFFFFFFFFFFFFFFFFFFFFFFFFFFFFFFF AND DUP3 PUSH1 0x40 MLOAD PUSH2 0xD98 SWAP1 PUSH2 0x257F JUMP JUMPDEST PUSH1 0x0 PUSH1 0x40 MLOAD DUP1 DUP4 SUB DUP2 DUP6 DUP8 GAS CALL SWAP3 POP POP POP RETURNDATASIZE DUP1 PUSH1 0x0 DUP2 EQ PUSH2 0xDD5 JUMPI PUSH1 0x40 MLOAD SWAP2 POP PUSH1 0x1F NOT PUSH1 0x3F RETURNDATASIZE ADD AND DUP3 ADD PUSH1 0x40 MSTORE RETURNDATASIZE DUP3 MSTORE RETURNDATASIZE PUSH1 0x0 PUSH1 0x20 DUP5 ADD RETURNDATACOPY PUSH2 0xDDA JUMP JUMPDEST PUSH1 0x60 SWAP2 POP JUMPDEST POP POP SWAP1 POP DUP1 PUSH2 0xE1E JUMPI PUSH1 0x40 MLOAD PUSH32 0x8C379A000000000000000000000000000000000000000000000000000000000 DUP2 MSTORE PUSH1 0x4 ADD PUSH2 0xE15 SWAP1 PUSH2 0x25E0 JUMP JUMPDEST PUSH1 0x40 MLOAD DUP1 SWAP2 SUB SWAP1 REVERT JUMPDEST PUSH1 0x0 PUSH1 0x4 PUSH1 0x0 DUP7 PUSH4 0xFFFFFFFF AND PUSH4 0xFFFFFFFF AND DUP2 MSTORE PUSH1 0x20 ADD SWAP1 DUP2 MSTORE PUSH1 0x20 ADD PUSH1 0x0 KECCAK256 PUSH1 0x0 SWAP1 SLOAD SWAP1 PUSH2 0x100 EXP SWAP1 DIV PUSH20 0xFFFFFFFFFFFFFFFFFFFFFFFFFFFFFFFFFFFFFFFF AND PUSH20 0xFFFFFFFFFFFFFFFFFFFFFFFFFFFFFFFFFFFFFFFF AND PUSH1 0x3 PUSH1 0x0 DUP8 PUSH4 0xFFFFFFFF AND PUSH4 0xFFFFFFFF AND DUP2 MSTORE PUSH1 0x20 ADD SWAP1 DUP2 MSTORE PUSH1 0x20 ADD PUSH1 0x0 KECCAK256 SLOAD PUSH1 0x40 MLOAD PUSH2 0xEA2 SWAP1 PUSH2 0x257F JUMP JUMPDEST PUSH1 0x0 PUSH1 0x40 MLOAD DUP1 DUP4 SUB DUP2 DUP6 DUP8 GAS CALL SWAP3 POP POP POP RETURNDATASIZE DUP1 PUSH1 0x0 DUP2 EQ PUSH2 0xEDF JUMPI PUSH1 0x40 MLOAD SWAP2 POP PUSH1 0x1F NOT PUSH1 0x3F RETURNDATASIZE ADD AND DUP3 ADD PUSH1 0x40 MSTORE RETURNDATASIZE DUP3 MSTORE RETURNDATASIZE PUSH1 0x0 PUSH1 0x20 DUP5 ADD RETURNDATACOPY PUSH2 0xEE4 JUMP JUMPDEST PUSH1 0x60 SWAP2 POP JUMPDEST POP POP SWAP1 POP DUP1 PUSH2 0xF28 JUMPI PUSH1 0x40 MLOAD PUSH32 0x8C379A000000000000000000000000000000000000000000000000000000000 DUP2 MSTORE PUSH1 0x4 ADD PUSH2 0xF1F SWAP1 PUSH2 0x264C JUMP JUMPDEST PUSH1 0x40 MLOAD DUP1 SWAP2 SUB SWAP1 REVERT JUMPDEST DUP3 PUSH1 0x3 PUSH1 0x0 DUP8 PUSH4 0xFFFFFFFF AND PUSH4 0xFFFFFFFF AND DUP2 MSTORE PUSH1 0x20 ADD SWAP1 DUP2 MSTORE PUSH1 0x20 ADD PUSH1 0x0 KECCAK256 PUSH1 0x0 DUP3 DUP3 SLOAD PUSH2 0xF57 SWAP2 SWAP1 PUSH2 0x24AE JUMP JUMPDEST SWAP3 POP POP DUP2 SWAP1 SSTORE POP DUP4 PUSH1 0x4 PUSH1 0x0 DUP8 PUSH4 0xFFFFFFFF AND PUSH4 0xFFFFFFFF AND DUP2 MSTORE PUSH1 0x20 ADD SWAP1 DUP2 MSTORE PUSH1 0x20 ADD PUSH1 0x0 KECCAK256 PUSH1 0x0 PUSH2 0x100 EXP DUP2 SLOAD DUP2 PUSH20 0xFFFFFFFFFFFFFFFFFFFFFFFFFFFFFFFFFFFFFFFF MUL NOT AND SWAP1 DUP4 PUSH20 0xFFFFFFFFFFFFFFFFFFFFFFFFFFFFFFFFFFFFFFFF AND MUL OR SWAP1 SSTORE POP DUP3 PUSH1 0x7 PUSH1 0x0 DUP8 PUSH4 0xFFFFFFFF AND PUSH4 0xFFFFFFFF AND DUP2 MSTORE PUSH1 0x20 ADD SWAP1 DUP2 MSTORE PUSH1 0x20 ADD PUSH1 0x0 KECCAK256 PUSH1 0x0 DUP7 PUSH20 0xFFFFFFFFFFFFFFFFFFFFFFFFFFFFFFFFFFFFFFFF AND PUSH20 0xFFFFFFFFFFFFFFFFFFFFFFFFFFFFFFFFFFFFFFFF AND DUP2 MSTORE PUSH1 0x20 ADD SWAP1 DUP2 MSTORE PUSH1 0x20 ADD PUSH1 0x0 KECCAK256 PUSH1 0x0 DUP3 DUP3 SLOAD PUSH2 0x1028 SWAP2 SWAP1 PUSH2 0x24AE JUMP JUMPDEST SWAP3 POP POP DUP2 SWAP1 SSTORE POP PUSH2 0x12C TIMESTAMP PUSH1 0x6 PUSH1 0x0 DUP9 PUSH4 0xFFFFFFFF AND PUSH4 0xFFFFFFFF AND DUP2 MSTORE PUSH1 0x20 ADD SWAP1 DUP2 MSTORE PUSH1 0x20 ADD PUSH1 0x0 KECCAK256 PUSH1 0x1 ADD SLOAD PUSH2 0x1060 SWAP2 SWAP1 PUSH2 0x1BB3 JUMP JUMPDEST LT ISZERO PUSH2 0x10A1 JUMPI PUSH1 0xB4 PUSH1 0x6 PUSH1 0x0 DUP8 PUSH4 0xFFFFFFFF AND PUSH4 0xFFFFFFFF AND DUP2 MSTORE PUSH1 0x20 ADD SWAP1 DUP2 MSTORE PUSH1 0x20 ADD PUSH1 0x0 KECCAK256 PUSH1 0x1 ADD PUSH1 0x0 DUP3 DUP3 SLOAD PUSH2 0x1099 SWAP2 SWAP1 PUSH2 0x24AE JUMP JUMPDEST SWAP3 POP POP DUP2 SWAP1 SSTORE POP JUMPDEST PUSH32 0x9616315166379EB0D1C4C0F9C80AF9EB01E46BD027F4CFD15C48BBE2041A7357 DUP6 DUP8 DUP7 DUP7 PUSH1 0x40 MLOAD PUSH2 0x10D6 SWAP5 SWAP4 SWAP3 SWAP2 SWAP1 PUSH2 0x266C JUMP JUMPDEST PUSH1 0x40 MLOAD DUP1 SWAP2 SUB SWAP1 LOG1 POP POP POP POP POP POP JUMP JUMPDEST PUSH1 0x0 PUSH1 0x3 PUSH1 0x0 DUP4 PUSH4 0xFFFFFFFF AND PUSH4 0xFFFFFFFF AND DUP2 MSTORE PUSH1 0x20 ADD SWAP1 DUP2 MSTORE PUSH1 0x20 ADD PUSH1 0x0 KECCAK256 SLOAD SWAP1 POP SWAP2 SWAP1 POP JUMP JUMPDEST CALLER PUSH1 0x8 PUSH1 0x0 DUP3 PUSH20 0xFFFFFFFFFFFFFFFFFFFFFFFFFFFFFFFFFFFFFFFF AND PUSH20 0xFFFFFFFFFFFFFFFFFFFFFFFFFFFFFFFFFFFFFFFF AND DUP2 MSTORE PUSH1 0x20 ADD SWAP1 DUP2 MSTORE PUSH1 0x20 ADD PUSH1 0x0 KECCAK256 PUSH1 0x0 SWAP1 SLOAD SWAP1 PUSH2 0x100 EXP SWAP1 DIV PUSH1 0xFF AND ISZERO PUSH2 0x119D JUMPI PUSH1 0x40 MLOAD PUSH32 0x8C379A000000000000000000000000000000000000000000000000000000000 DUP2 MSTORE PUSH1 0x4 ADD PUSH2 0x1194 SWAP1 PUSH2 0x1E7B JUMP JUMPDEST PUSH1 0x40 MLOAD DUP1 SWAP2 SUB SWAP1 REVERT JUMPDEST PUSH1 0x1 PUSH1 0x8 PUSH1 0x0 DUP4 PUSH20 0xFFFFFFFFFFFFFFFFFFFFFFFFFFFFFFFFFFFFFFFF AND PUSH20 0xFFFFFFFFFFFFFFFFFFFFFFFFFFFFFFFFFFFFFFFF AND DUP2 MSTORE PUSH1 0x20 ADD SWAP1 DUP2 MSTORE PUSH1 0x20 ADD PUSH1 0x0 KECCAK256 PUSH1 0x0 PUSH2 0x100 EXP DUP2 SLOAD DUP2 PUSH1 0xFF MUL NOT AND SWAP1 DUP4 ISZERO ISZERO MUL OR SWAP1 SSTORE POP PUSH1 0x0 DUP5 GT PUSH2 0x1238 JUMPI PUSH1 0x40 MLOAD PUSH32 0x8C379A000000000000000000000000000000000000000000000000000000000 DUP2 MSTORE PUSH1 0x4 ADD PUSH2 0x122F SWAP1 PUSH2 0x2723 JUMP JUMPDEST PUSH1 0x40 MLOAD DUP1 SWAP2 SUB SWAP1 REVERT JUMPDEST PUSH1 0x0 CALLER SWAP1 POP PUSH2 0x1246 DUP5 PUSH2 0x3F7 JUMP JUMPDEST PUSH20 0xFFFFFFFFFFFFFFFFFFFFFFFFFFFFFFFFFFFFFFFF AND DUP2 PUSH20 0xFFFFFFFFFFFFFFFFFFFFFFFFFFFFFFFFFFFFFFFF AND EQ PUSH2 0x12B3 JUMPI PUSH1 0x40 MLOAD PUSH32 0x8C379A000000000000000000000000000000000000000000000000000000000 DUP2 MSTORE PUSH1 0x4 ADD PUSH2 0x12AA SWAP1 PUSH2 0x1D42 JUMP JUMPDEST PUSH1 0x40 MLOAD DUP1 SWAP2 SUB SWAP1 REVERT JUMPDEST PUSH1 0x5 PUSH1 0x0 DUP6 PUSH4 0xFFFFFFFF AND PUSH4 0xFFFFFFFF AND DUP2 MSTORE PUSH1 0x20 ADD SWAP1 DUP2 MSTORE PUSH1 0x20 ADD PUSH1 0x0 KECCAK256 PUSH1 0x0 ADD PUSH1 0x0 SWAP1 SLOAD SWAP1 PUSH2 0x100 EXP SWAP1 DIV PUSH1 0xFF AND ISZERO PUSH2 0x1323 JUMPI PUSH1 0x40 MLOAD PUSH32 0x8C379A000000000000000000000000000000000000000000000000000000000 DUP2 MSTORE PUSH1 0x4 ADD PUSH2 0x131A SWAP1 PUSH2 0x278F JUMP JUMPDEST PUSH1 0x40 MLOAD DUP1 SWAP2 SUB SWAP1 REVERT JUMPDEST PUSH2 0x132D PUSH1 0x1 PUSH2 0x1641 JUMP JUMPDEST PUSH1 0x0 PUSH2 0x1339 PUSH1 0x1 PUSH2 0x1657 JUMP JUMPDEST SWAP1 POP PUSH1 0x40 MLOAD DUP1 PUSH1 0xC0 ADD PUSH1 0x40 MSTORE DUP1 PUSH1 0x1 ISZERO ISZERO DUP2 MSTORE PUSH1 0x20 ADD DUP7 PUSH4 0xFFFFFFFF AND DUP2 MSTORE PUSH1 0x20 ADD PUSH1 0x3C DUP7 PUSH2 0x1368 SWAP2 SWAP1 PUSH2 0x27AF JUMP JUMPDEST PUSH2 0xFFFF AND TIMESTAMP PUSH2 0x1377 SWAP2 SWAP1 PUSH2 0x24AE JUMP JUMPDEST DUP2 MSTORE PUSH1 0x20 ADD TIMESTAMP DUP2 MSTORE PUSH1 0x20 ADD DUP8 DUP2 MSTORE PUSH1 0x20 ADD DUP4 PUSH20 0xFFFFFFFFFFFFFFFFFFFFFFFFFFFFFFFFFFFFFFFF AND DUP2 MSTORE POP PUSH1 0x6 PUSH1 0x0 DUP4 PUSH4 0xFFFFFFFF AND PUSH4 0xFFFFFFFF AND DUP2 MSTORE PUSH1 0x20 ADD SWAP1 DUP2 MSTORE PUSH1 0x20 ADD PUSH1 0x0 KECCAK256 PUSH1 0x0 DUP3 ADD MLOAD DUP2 PUSH1 0x0 ADD PUSH1 0x0 PUSH2 0x100 EXP DUP2 SLOAD DUP2 PUSH1 0xFF MUL NOT AND SWAP1 DUP4 ISZERO ISZERO MUL OR SWAP1 SSTORE POP PUSH1 0x20 DUP3 ADD MLOAD DUP2 PUSH1 0x0 ADD PUSH1 0x1 PUSH2 0x100 EXP DUP2 SLOAD DUP2 PUSH4 0xFFFFFFFF MUL NOT AND SWAP1 DUP4 PUSH4 0xFFFFFFFF AND MUL OR SWAP1 SSTORE POP PUSH1 0x40 DUP3 ADD MLOAD DUP2 PUSH1 0x1 ADD SSTORE PUSH1 0x60 DUP3 ADD MLOAD DUP2 PUSH1 0x2 ADD SSTORE PUSH1 0x80 DUP3 ADD MLOAD DUP2 PUSH1 0x3 ADD SSTORE PUSH1 0xA0 DUP3 ADD MLOAD DUP2 PUSH1 0x4 ADD PUSH1 0x0 PUSH2 0x100 EXP DUP2 SLOAD DUP2 PUSH20 0xFFFFFFFFFFFFFFFFFFFFFFFFFFFFFFFFFFFFFFFF MUL NOT AND SWAP1 DUP4 PUSH20 0xFFFFFFFFFFFFFFFFFFFFFFFFFFFFFFFFFFFFFFFF AND MUL OR SWAP1 SSTORE POP SWAP1 POP POP DUP2 PUSH1 0x4 PUSH1 0x0 DUP4 PUSH4 0xFFFFFFFF AND PUSH4 0xFFFFFFFF AND DUP2 MSTORE PUSH1 0x20 ADD SWAP1 DUP2 MSTORE PUSH1 0x20 ADD PUSH1 0x0 KECCAK256 PUSH1 0x0 PUSH2 0x100 EXP DUP2 SLOAD DUP2 PUSH20 0xFFFFFFFFFFFFFFFFFFFFFFFFFFFFFFFFFFFFFFFF MUL NOT AND SWAP1 DUP4 PUSH20 0xFFFFFFFFFFFFFFFFFFFFFFFFFFFFFFFFFFFFFFFF AND MUL OR SWAP1 SSTORE POP PUSH32 0xF2A44D84AC8FFBC8A349FA1E7694F72D3FF8D23134FF37F07A03AC7250080301 DUP3 DUP8 DUP4 DUP9 PUSH1 0x40 MLOAD PUSH2 0x1503 SWAP5 SWAP4 SWAP3 SWAP2 SWAP1 PUSH2 0x27EC JUMP JUMPDEST PUSH1 0x40 MLOAD DUP1 SWAP2 SUB SWAP1 LOG1 POP POP PUSH1 0x0 PUSH1 0x8 PUSH1 0x0 DUP4 PUSH20 0xFFFFFFFFFFFFFFFFFFFFFFFFFFFFFFFFFFFFFFFF AND PUSH20 0xFFFFFFFFFFFFFFFFFFFFFFFFFFFFFFFFFFFFFFFF AND DUP2 MSTORE PUSH1 0x20 ADD SWAP1 DUP2 MSTORE PUSH1 0x20 ADD PUSH1 0x0 KECCAK256 PUSH1 0x0 PUSH2 0x100 EXP DUP2 SLOAD DUP2 PUSH1 0xFF MUL NOT AND SWAP1 DUP4 ISZERO ISZERO MUL OR SWAP1 SSTORE POP POP POP POP POP JUMP JUMPDEST PUSH1 0x0 PUSH1 0x4 PUSH1 0x0 DUP4 PUSH4 0xFFFFFFFF AND PUSH4 0xFFFFFFFF AND DUP2 MSTORE PUSH1 0x20 ADD SWAP1 DUP2 MSTORE PUSH1 0x20 ADD PUSH1 0x0 KECCAK256 PUSH1 0x0 SWAP1 SLOAD SWAP1 PUSH2 0x100 EXP SWAP1 DIV PUSH20 0xFFFFFFFFFFFFFFFFFFFFFFFFFFFFFFFFFFFFFFFF AND SWAP1 POP SWAP2 SWAP1 POP JUMP JUMPDEST PUSH1 0x0 PUSH1 0x5 PUSH1 0x0 DUP4 PUSH4 0xFFFFFFFF AND PUSH4 0xFFFFFFFF AND DUP2 MSTORE PUSH1 0x20 ADD SWAP1 DUP2 MSTORE PUSH1 0x20 ADD PUSH1 0x0 KECCAK256 PUSH1 0x5 ADD PUSH1 0x0 SWAP1 SLOAD SWAP1 PUSH2 0x100 EXP SWAP1 DIV PUSH20 0xFFFFFFFFFFFFFFFFFFFFFFFFFFFFFFFFFFFFFFFF AND SWAP1 POP SWAP2 SWAP1 POP JUMP JUMPDEST PUSH1 0x0 DUP1 PUSH20 0xFFFFFFFFFFFFFFFFFFFFFFFFFFFFFFFFFFFFFFFF AND PUSH2 0x1622 DUP4 PUSH2 0x15B4 JUMP JUMPDEST PUSH20 0xFFFFFFFFFFFFFFFFFFFFFFFFFFFFFFFFFFFFFFFF AND EQ ISZERO SWAP1 POP SWAP2 SWAP1 POP JUMP JUMPDEST PUSH1 0x1 DUP2 PUSH1 0x0 ADD PUSH1 0x0 DUP3 DUP3 SLOAD ADD SWAP3 POP POP DUP2 SWAP1 SSTORE POP POP JUMP JUMPDEST PUSH1 0x0 DUP2 PUSH1 0x0 ADD SLOAD SWAP1 POP SWAP2 SWAP1 POP JUMP JUMPDEST POP DUP1 SLOAD PUSH2 0x1671 SWAP1 PUSH2 0x20EF JUMP JUMPDEST PUSH1 0x0 DUP3 SSTORE DUP1 PUSH1 0x1F LT PUSH2 0x1683 JUMPI POP PUSH2 0x16A2 JUMP JUMPDEST PUSH1 0x1F ADD PUSH1 0x20 SWAP1 DIV SWAP1 PUSH1 0x0 MSTORE PUSH1 0x20 PUSH1 0x0 KECCAK256 SWAP1 DUP2 ADD SWAP1 PUSH2 0x16A1 SWAP2 SWAP1 PUSH2 0x16A5 JUMP JUMPDEST JUMPDEST POP JUMP JUMPDEST JUMPDEST DUP1 DUP3 GT ISZERO PUSH2 0x16BE JUMPI PUSH1 0x0 DUP2 PUSH1 0x0 SWAP1 SSTORE POP PUSH1 0x1 ADD PUSH2 0x16A6 JUMP JUMPDEST POP SWAP1 JUMP JUMPDEST PUSH1 0x0 DUP2 SWAP1 POP SWAP2 SWAP1 POP JUMP JUMPDEST PUSH2 0x16D5 DUP2 PUSH2 0x16C2 JUMP JUMPDEST DUP3 MSTORE POP POP JUMP JUMPDEST PUSH1 0x0 PUSH1 0x20 DUP3 ADD SWAP1 POP PUSH2 0x16F0 PUSH1 0x0 DUP4 ADD DUP5 PUSH2 0x16CC JUMP JUMPDEST SWAP3 SWAP2 POP POP JUMP JUMPDEST PUSH1 0x0 PUSH1 0x40 MLOAD SWAP1 POP SWAP1 JUMP JUMPDEST PUSH1 0x0 DUP1 REVERT JUMPDEST PUSH1 0x0 DUP1 REVERT JUMPDEST PUSH1 0x0 PUSH4 0xFFFFFFFF DUP3 AND SWAP1 POP SWAP2 SWAP1 POP JUMP JUMPDEST PUSH2 0x1723 DUP2 PUSH2 0x170A JUMP JUMPDEST DUP2 EQ PUSH2 0x172E JUMPI PUSH1 0x0 DUP1 REVERT JUMPDEST POP JUMP JUMPDEST PUSH1 0x0 DUP2 CALLDATALOAD SWAP1 POP PUSH2 0x1740 DUP2 PUSH2 0x171A JUMP JUMPDEST SWAP3 SWAP2 POP POP JUMP JUMPDEST PUSH1 0x0 PUSH1 0x20 DUP3 DUP5 SUB SLT ISZERO PUSH2 0x175C JUMPI PUSH2 0x175B PUSH2 0x1700 JUMP JUMPDEST JUMPDEST PUSH1 0x0 PUSH2 0x176A DUP5 DUP3 DUP6 ADD PUSH2 0x1731 JUMP JUMPDEST SWAP2 POP POP SWAP3 SWAP2 POP POP JUMP JUMPDEST PUSH1 0x0 PUSH1 0x80 DUP3 ADD SWAP1 POP PUSH2 0x1788 PUSH1 0x0 DUP4 ADD DUP8 PUSH2 0x16CC JUMP JUMPDEST PUSH2 0x1795 PUSH1 0x20 DUP4 ADD DUP7 PUSH2 0x16CC JUMP JUMPDEST PUSH2 0x17A2 PUSH1 0x40 DUP4 ADD DUP6 PUSH2 0x16CC JUMP JUMPDEST PUSH2 0x17AF PUSH1 0x60 DUP4 ADD DUP5 PUSH2 0x16CC JUMP JUMPDEST SWAP6 SWAP5 POP POP POP POP POP JUMP JUMPDEST PUSH1 0x0 PUSH20 0xFFFFFFFFFFFFFFFFFFFFFFFFFFFFFFFFFFFFFFFF DUP3 AND SWAP1 POP SWAP2 SWAP1 POP JUMP JUMPDEST PUSH1 0x0 PUSH2 0x17E3 DUP3 PUSH2 0x17B8 JUMP JUMPDEST SWAP1 POP SWAP2 SWAP1 POP JUMP JUMPDEST PUSH2 0x17F3 DUP2 PUSH2 0x17D8 JUMP JUMPDEST DUP3 MSTORE POP POP JUMP JUMPDEST PUSH1 0x0 PUSH1 0x20 DUP3 ADD SWAP1 POP PUSH2 0x180E PUSH1 0x0 DUP4 ADD DUP5 PUSH2 0x17EA JUMP JUMPDEST SWAP3 SWAP2 POP POP JUMP JUMPDEST PUSH2 0x181D DUP2 PUSH2 0x16C2 JUMP JUMPDEST DUP2 EQ PUSH2 0x1828 JUMPI PUSH1 0x0 DUP1 REVERT JUMPDEST POP JUMP JUMPDEST PUSH1 0x0 DUP2 CALLDATALOAD SWAP1 POP PUSH2 0x183A DUP2 PUSH2 0x1814 JUMP JUMPDEST SWAP3 SWAP2 POP POP JUMP JUMPDEST PUSH1 0x0 DUP1 PUSH1 0x40 DUP4 DUP6 SUB SLT ISZERO PUSH2 0x1857 JUMPI PUSH2 0x1856 PUSH2 0x1700 JUMP JUMPDEST JUMPDEST PUSH1 0x0 PUSH2 0x1865 DUP6 DUP3 DUP7 ADD PUSH2 0x1731 JUMP JUMPDEST SWAP3 POP POP PUSH1 0x20 PUSH2 0x1876 DUP6 DUP3 DUP7 ADD PUSH2 0x182B JUMP JUMPDEST SWAP2 POP POP SWAP3 POP SWAP3 SWAP1 POP JUMP JUMPDEST PUSH1 0x0 DUP2 ISZERO ISZERO SWAP1 POP SWAP2 SWAP1 POP JUMP JUMPDEST PUSH2 0x1895 DUP2 PUSH2 0x1880 JUMP JUMPDEST DUP3 MSTORE POP POP JUMP JUMPDEST PUSH1 0x0 PUSH1 0x20 DUP3 ADD SWAP1 POP PUSH2 0x18B0 PUSH1 0x0 DUP4 ADD DUP5 PUSH2 0x188C JUMP JUMPDEST SWAP3 SWAP2 POP POP JUMP JUMPDEST PUSH1 0x0 DUP1 REVERT JUMPDEST PUSH1 0x0 DUP1 REVERT JUMPDEST PUSH1 0x0 PUSH1 0x1F NOT PUSH1 0x1F DUP4 ADD AND SWAP1 POP SWAP2 SWAP1 POP JUMP JUMPDEST PUSH32 0x4E487B7100000000000000000000000000000000000000000000000000000000 PUSH1 0x0 MSTORE PUSH1 0x41 PUSH1 0x4 MSTORE PUSH1 0x24 PUSH1 0x0 REVERT JUMPDEST PUSH2 0x1909 DUP3 PUSH2 0x18C0 JUMP JUMPDEST DUP2 ADD DUP2 DUP2 LT PUSH8 0xFFFFFFFFFFFFFFFF DUP3 GT OR ISZERO PUSH2 0x1928 JUMPI PUSH2 0x1927 PUSH2 0x18D1 JUMP JUMPDEST JUMPDEST DUP1 PUSH1 0x40 MSTORE POP POP POP JUMP JUMPDEST PUSH1 0x0 PUSH2 0x193B PUSH2 0x16F6 JUMP JUMPDEST SWAP1 POP PUSH2 0x1947 DUP3 DUP3 PUSH2 0x1900 JUMP JUMPDEST SWAP2 SWAP1 POP JUMP JUMPDEST PUSH1 0x0 PUSH8 0xFFFFFFFFFFFFFFFF DUP3 GT ISZERO PUSH2 0x1967 JUMPI PUSH2 0x1966 PUSH2 0x18D1 JUMP JUMPDEST JUMPDEST PUSH2 0x1970 DUP3 PUSH2 0x18C0 JUMP JUMPDEST SWAP1 POP PUSH1 0x20 DUP2 ADD SWAP1 POP SWAP2 SWAP1 POP JUMP JUMPDEST DUP3 DUP2 DUP4 CALLDATACOPY PUSH1 0x0 DUP4 DUP4 ADD MSTORE POP POP POP JUMP JUMPDEST PUSH1 0x0 PUSH2 0x199F PUSH2 0x199A DUP5 PUSH2 0x194C JUMP JUMPDEST PUSH2 0x1931 JUMP JUMPDEST SWAP1 POP DUP3 DUP2 MSTORE PUSH1 0x20 DUP2 ADD DUP5 DUP5 DUP5 ADD GT ISZERO PUSH2 0x19BB JUMPI PUSH2 0x19BA PUSH2 0x18BB JUMP JUMPDEST JUMPDEST PUSH2 0x19C6 DUP5 DUP3 DUP6 PUSH2 0x197D JUMP JUMPDEST POP SWAP4 SWAP3 POP POP POP JUMP JUMPDEST PUSH1 0x0 DUP3 PUSH1 0x1F DUP4 ADD SLT PUSH2 0x19E3 JUMPI PUSH2 0x19E2 PUSH2 0x18B6 JUMP JUMPDEST JUMPDEST DUP2 CALLDATALOAD PUSH2 0x19F3 DUP5 DUP3 PUSH1 0x20 DUP7 ADD PUSH2 0x198C JUMP JUMPDEST SWAP2 POP POP SWAP3 SWAP2 POP POP JUMP JUMPDEST PUSH1 0x0 DUP1 PUSH1 0x0 DUP1 PUSH1 0x80 DUP6 DUP8 SUB SLT ISZERO PUSH2 0x1A16 JUMPI PUSH2 0x1A15 PUSH2 0x1700 JUMP JUMPDEST JUMPDEST PUSH1 0x0 DUP6 ADD CALLDATALOAD PUSH8 0xFFFFFFFFFFFFFFFF DUP2 GT ISZERO PUSH2 0x1A34 JUMPI PUSH2 0x1A33 PUSH2 0x1705 JUMP JUMPDEST JUMPDEST PUSH2 0x1A40 DUP8 DUP3 DUP9 ADD PUSH2 0x19CE JUMP JUMPDEST SWAP5 POP POP PUSH1 0x20 DUP6 ADD CALLDATALOAD PUSH8 0xFFFFFFFFFFFFFFFF DUP2 GT ISZERO PUSH2 0x1A61 JUMPI PUSH2 0x1A60 PUSH2 0x1705 JUMP JUMPDEST JUMPDEST PUSH2 0x1A6D DUP8 DUP3 DUP9 ADD PUSH2 0x19CE JUMP JUMPDEST SWAP4 POP POP PUSH1 0x40 DUP6 ADD CALLDATALOAD PUSH8 0xFFFFFFFFFFFFFFFF DUP2 GT ISZERO PUSH2 0x1A8E JUMPI PUSH2 0x1A8D PUSH2 0x1705 JUMP JUMPDEST JUMPDEST PUSH2 0x1A9A DUP8 DUP3 DUP9 ADD PUSH2 0x19CE JUMP JUMPDEST SWAP3 POP POP PUSH1 0x60 PUSH2 0x1AAB DUP8 DUP3 DUP9 ADD PUSH2 0x182B JUMP JUMPDEST SWAP2 POP POP SWAP3 SWAP6 SWAP2 SWAP5 POP SWAP3 POP JUMP JUMPDEST PUSH1 0x0 DUP1 PUSH1 0x40 DUP4 DUP6 SUB SLT ISZERO PUSH2 0x1ACE JUMPI PUSH2 0x1ACD PUSH2 0x1700 JUMP JUMPDEST JUMPDEST PUSH1 0x0 PUSH2 0x1ADC DUP6 DUP3 DUP7 ADD PUSH2 0x1731 JUMP JUMPDEST SWAP3 POP POP PUSH1 0x20 PUSH2 0x1AED DUP6 DUP3 DUP7 ADD PUSH2 0x1731 JUMP JUMPDEST SWAP2 POP POP SWAP3 POP SWAP3 SWAP1 POP JUMP JUMPDEST PUSH1 0x0 PUSH2 0xFFFF DUP3 AND SWAP1 POP SWAP2 SWAP1 POP JUMP JUMPDEST PUSH2 0x1B0E DUP2 PUSH2 0x1AF7 JUMP JUMPDEST DUP2 EQ PUSH2 0x1B19 JUMPI PUSH1 0x0 DUP1 REVERT JUMPDEST POP JUMP JUMPDEST PUSH1 0x0 DUP2 CALLDATALOAD SWAP1 POP PUSH2 0x1B2B DUP2 PUSH2 0x1B05 JUMP JUMPDEST SWAP3 SWAP2 POP POP JUMP JUMPDEST PUSH1 0x0 DUP1 PUSH1 0x0 PUSH1 0x60 DUP5 DUP7 SUB SLT ISZERO PUSH2 0x1B4A JUMPI PUSH2 0x1B49 PUSH2 0x1700 JUMP JUMPDEST JUMPDEST PUSH1 0x0 PUSH2 0x1B58 DUP7 DUP3 DUP8 ADD PUSH2 0x182B JUMP JUMPDEST SWAP4 POP POP PUSH1 0x20 PUSH2 0x1B69 DUP7 DUP3 DUP8 ADD PUSH2 0x1731 JUMP JUMPDEST SWAP3 POP POP PUSH1 0x40 PUSH2 0x1B7A DUP7 DUP3 DUP8 ADD PUSH2 0x1B1C JUMP JUMPDEST SWAP2 POP POP SWAP3 POP SWAP3 POP SWAP3 JUMP JUMPDEST PUSH32 0x4E487B7100000000000000000000000000000000000000000000000000000000 PUSH1 0x0 MSTORE PUSH1 0x11 PUSH1 0x4 MSTORE PUSH1 0x24 PUSH1 0x0 REVERT JUMPDEST PUSH1 0x0 PUSH2 0x1BBE DUP3 PUSH2 0x16C2 JUMP JUMPDEST SWAP2 POP PUSH2 0x1BC9 DUP4 PUSH2 0x16C2 JUMP JUMPDEST SWAP3 POP DUP3 DUP3 SUB SWAP1 POP DUP2 DUP2 GT ISZERO PUSH2 0x1BE1 JUMPI PUSH2 0x1BE0 PUSH2 0x1B84 JUMP JUMPDEST JUMPDEST SWAP3 SWAP2 POP POP JUMP JUMPDEST PUSH1 0x0 DUP3 DUP3 MSTORE PUSH1 0x20 DUP3 ADD SWAP1 POP SWAP3 SWAP2 POP POP JUMP JUMPDEST PUSH32 0x496E76616C6964204E4654204944000000000000000000000000000000000000 PUSH1 0x0 DUP3 ADD MSTORE POP JUMP JUMPDEST PUSH1 0x0 PUSH2 0x1C2E PUSH1 0xE DUP4 PUSH2 0x1BE7 JUMP JUMPDEST SWAP2 POP PUSH2 0x1C39 DUP3 PUSH2 0x1BF8 JUMP JUMPDEST PUSH1 0x20 DUP3 ADD SWAP1 POP SWAP2 SWAP1 POP JUMP JUMPDEST PUSH1 0x0 PUSH1 0x20 DUP3 ADD SWAP1 POP DUP2 DUP2 SUB PUSH1 0x0 DUP4 ADD MSTORE PUSH2 0x1C5D DUP2 PUSH2 0x1C21 JUMP JUMPDEST SWAP1 POP SWAP2 SWAP1 POP JUMP JUMPDEST PUSH32 0x556E617661696C61626C65204E46540000000000000000000000000000000000 PUSH1 0x0 DUP3 ADD MSTORE POP JUMP JUMPDEST PUSH1 0x0 PUSH2 0x1C9A PUSH1 0xF DUP4 PUSH2 0x1BE7 JUMP JUMPDEST SWAP2 POP PUSH2 0x1CA5 DUP3 PUSH2 0x1C64 JUMP JUMPDEST PUSH1 0x20 DUP3 ADD SWAP1 POP SWAP2 SWAP1 POP JUMP JUMPDEST PUSH1 0x0 PUSH1 0x20 DUP3 ADD SWAP1 POP DUP2 DUP2 SUB PUSH1 0x0 DUP4 ADD MSTORE PUSH2 0x1CC9 DUP2 PUSH2 0x1C8D JUMP JUMPDEST SWAP1 POP SWAP2 SWAP1 POP JUMP JUMPDEST PUSH32 0x596F7520617265206E6F7420746865206F776E6572206F662074686973204E46 PUSH1 0x0 DUP3 ADD MSTORE PUSH32 0x5400000000000000000000000000000000000000000000000000000000000000 PUSH1 0x20 DUP3 ADD MSTORE POP JUMP JUMPDEST PUSH1 0x0 PUSH2 0x1D2C PUSH1 0x21 DUP4 PUSH2 0x1BE7 JUMP JUMPDEST SWAP2 POP PUSH2 0x1D37 DUP3 PUSH2 0x1CD0 JUMP JUMPDEST PUSH1 0x40 DUP3 ADD SWAP1 POP SWAP2 SWAP1 POP JUMP JUMPDEST PUSH1 0x0 PUSH1 0x20 DUP3 ADD SWAP1 POP DUP2 DUP2 SUB PUSH1 0x0 DUP4 ADD MSTORE PUSH2 0x1D5B DUP2 PUSH2 0x1D1F JUMP JUMPDEST SWAP1 POP SWAP2 SWAP1 POP JUMP JUMPDEST PUSH2 0x1D6B DUP2 PUSH2 0x170A JUMP JUMPDEST DUP3 MSTORE POP POP JUMP JUMPDEST PUSH1 0x0 PUSH1 0x40 DUP3 ADD SWAP1 POP PUSH2 0x1D86 PUSH1 0x0 DUP4 ADD DUP6 PUSH2 0x17EA JUMP JUMPDEST PUSH2 0x1D93 PUSH1 0x20 DUP4 ADD DUP5 PUSH2 0x1D62 JUMP JUMPDEST SWAP4 SWAP3 POP POP POP JUMP JUMPDEST PUSH32 0x41756374696F6E206973206E6F7420617661696C61626C650000000000000000 PUSH1 0x0 DUP3 ADD MSTORE POP JUMP JUMPDEST PUSH1 0x0 PUSH2 0x1DD0 PUSH1 0x18 DUP4 PUSH2 0x1BE7 JUMP JUMPDEST SWAP2 POP PUSH2 0x1DDB DUP3 PUSH2 0x1D9A JUMP JUMPDEST PUSH1 0x20 DUP3 ADD SWAP1 POP SWAP2 SWAP1 POP JUMP JUMPDEST PUSH1 0x0 PUSH1 0x20 DUP3 ADD SWAP1 POP DUP2 DUP2 SUB PUSH1 0x0 DUP4 ADD MSTORE PUSH2 0x1DFF DUP2 PUSH2 0x1DC3 JUMP JUMPDEST SWAP1 POP SWAP2 SWAP1 POP JUMP JUMPDEST PUSH1 0x0 PUSH1 0x40 DUP3 ADD SWAP1 POP PUSH2 0x1E1B PUSH1 0x0 DUP4 ADD DUP6 PUSH2 0x16CC JUMP JUMPDEST PUSH2 0x1E28 PUSH1 0x20 DUP4 ADD DUP5 PUSH2 0x1D62 JUMP JUMPDEST SWAP4 SWAP3 POP POP POP JUMP JUMPDEST PUSH32 0x4E6F2072652D656E7472616E6379000000000000000000000000000000000000 PUSH1 0x0 DUP3 ADD MSTORE POP JUMP JUMPDEST PUSH1 0x0 PUSH2 0x1E65 PUSH1 0xE DUP4 PUSH2 0x1BE7 JUMP JUMPDEST SWAP2 POP PUSH2 0x1E70 DUP3 PUSH2 0x1E2F JUMP JUMPDEST PUSH1 0x20 DUP3 ADD SWAP1 POP SWAP2 SWAP1 POP JUMP JUMPDEST PUSH1 0x0 PUSH1 0x20 DUP3 ADD SWAP1 POP DUP2 DUP2 SUB PUSH1 0x0 DUP4 ADD MSTORE PUSH2 0x1E94 DUP2 PUSH2 0x1E58 JUMP JUMPDEST SWAP1 POP SWAP2 SWAP1 POP JUMP JUMPDEST PUSH32 0x496E76616C6964204E4654206E616D6500000000000000000000000000000000 PUSH1 0x0 DUP3 ADD MSTORE POP JUMP JUMPDEST PUSH1 0x0 PUSH2 0x1ED1 PUSH1 0x10 DUP4 PUSH2 0x1BE7 JUMP JUMPDEST SWAP2 POP PUSH2 0x1EDC DUP3 PUSH2 0x1E9B JUMP JUMPDEST PUSH1 0x20 DUP3 ADD SWAP1 POP SWAP2 SWAP1 POP JUMP JUMPDEST PUSH1 0x0 PUSH1 0x20 DUP3 ADD SWAP1 POP DUP2 DUP2 SUB PUSH1 0x0 DUP4 ADD MSTORE PUSH2 0x1F00 DUP2 PUSH2 0x1EC4 JUMP JUMPDEST SWAP1 POP SWAP2 SWAP1 POP JUMP JUMPDEST PUSH32 0x4164647265737320300000000000000000000000000000000000000000000000 PUSH1 0x0 DUP3 ADD MSTORE POP JUMP JUMPDEST PUSH1 0x0 PUSH2 0x1F3D PUSH1 0x9 DUP4 PUSH2 0x1BE7 JUMP JUMPDEST SWAP2 POP PUSH2 0x1F48 DUP3 PUSH2 0x1F07 JUMP JUMPDEST PUSH1 0x20 DUP3 ADD SWAP1 POP SWAP2 SWAP1 POP JUMP JUMPDEST PUSH1 0x0 PUSH1 0x20 DUP3 ADD SWAP1 POP DUP2 DUP2 SUB PUSH1 0x0 DUP4 ADD MSTORE PUSH2 0x1F6C DUP2 PUSH2 0x1F30 JUMP JUMPDEST SWAP1 POP SWAP2 SWAP1 POP JUMP JUMPDEST PUSH32 0x496D6167652068617368206973206E6F7420756E697175652E20596F75206172 PUSH1 0x0 DUP3 ADD MSTORE PUSH32 0x6520747279696E6720746F2075706C6F616420616E206578697374656420696D PUSH1 0x20 DUP3 ADD MSTORE PUSH32 0x6167650000000000000000000000000000000000000000000000000000000000 PUSH1 0x40 DUP3 ADD MSTORE POP JUMP JUMPDEST PUSH1 0x0 PUSH2 0x1FF5 PUSH1 0x43 DUP4 PUSH2 0x1BE7 JUMP JUMPDEST SWAP2 POP PUSH2 0x2000 DUP3 PUSH2 0x1F73 JUMP JUMPDEST PUSH1 0x60 DUP3 ADD SWAP1 POP SWAP2 SWAP1 POP JUMP JUMPDEST PUSH1 0x0 PUSH1 0x20 DUP3 ADD SWAP1 POP DUP2 DUP2 SUB PUSH1 0x0 DUP4 ADD MSTORE PUSH2 0x2024 DUP2 PUSH2 0x1FE8 JUMP JUMPDEST SWAP1 POP SWAP2 SWAP1 POP JUMP JUMPDEST PUSH1 0x0 DUP2 MLOAD SWAP1 POP SWAP2 SWAP1 POP JUMP JUMPDEST PUSH1 0x0 DUP2 SWAP1 POP SWAP3 SWAP2 POP POP JUMP JUMPDEST PUSH1 0x0 JUMPDEST DUP4 DUP2 LT ISZERO PUSH2 0x205F JUMPI DUP1 DUP3 ADD MLOAD DUP2 DUP5 ADD MSTORE PUSH1 0x20 DUP2 ADD SWAP1 POP PUSH2 0x2044 JUMP JUMPDEST PUSH1 0x0 DUP5 DUP5 ADD MSTORE POP POP POP POP JUMP JUMPDEST PUSH1 0x0 PUSH2 0x2076 DUP3 PUSH2 0x202B JUMP JUMPDEST PUSH2 0x2080 DUP2 DUP6 PUSH2 0x2036 JUMP JUMPDEST SWAP4 POP PUSH2 0x2090 DUP2 DUP6 PUSH1 0x20 DUP7 ADD PUSH2 0x2041 JUMP JUMPDEST DUP1 DUP5 ADD SWAP2 POP POP SWAP3 SWAP2 POP POP JUMP JUMPDEST PUSH1 0x0 PUSH2 0x20A8 DUP3 DUP6 PUSH2 0x206B JUMP JUMPDEST SWAP2 POP PUSH2 0x20B4 DUP3 DUP5 PUSH2 0x206B JUMP JUMPDEST SWAP2 POP DUP2 SWAP1 POP SWAP4 SWAP3 POP POP POP JUMP JUMPDEST PUSH32 0x4E487B7100000000000000000000000000000000000000000000000000000000 PUSH1 0x0 MSTORE PUSH1 0x22 PUSH1 0x4 MSTORE PUSH1 0x24 PUSH1 0x0 REVERT JUMPDEST PUSH1 0x0 PUSH1 0x2 DUP3 DIV SWAP1 POP PUSH1 0x1 DUP3 AND DUP1 PUSH2 0x2107 JUMPI PUSH1 0x7F DUP3 AND SWAP2 POP JUMPDEST PUSH1 0x20 DUP3 LT DUP2 SUB PUSH2 0x211A JUMPI PUSH2 0x2119 PUSH2 0x20C0 JUMP JUMPDEST JUMPDEST POP SWAP2 SWAP1 POP JUMP JUMPDEST PUSH1 0x0 DUP2 SWAP1 POP DUP2 PUSH1 0x0 MSTORE PUSH1 0x20 PUSH1 0x0 KECCAK256 SWAP1 POP SWAP2 SWAP1 POP JUMP JUMPDEST PUSH1 0x0 PUSH1 0x20 PUSH1 0x1F DUP4 ADD DIV SWAP1 POP SWAP2 SWAP1 POP JUMP JUMPDEST PUSH1 0x0 DUP3 DUP3 SHL SWAP1 POP SWAP3 SWAP2 POP POP JUMP JUMPDEST PUSH1 0x0 PUSH1 0x8 DUP4 MUL PUSH2 0x2182 PUSH32 0xFFFFFFFFFFFFFFFFFFFFFFFFFFFFFFFFFFFFFFFFFFFFFFFFFFFFFFFFFFFFFFFF DUP3 PUSH2 0x2145 JUMP JUMPDEST PUSH2 0x218C DUP7 DUP4 PUSH2 0x2145 JUMP JUMPDEST SWAP6 POP DUP1 NOT DUP5 AND SWAP4 POP DUP1 DUP7 AND DUP5 OR SWAP3 POP POP POP SWAP4 SWAP3 POP POP POP JUMP JUMPDEST PUSH1 0x0 DUP2 SWAP1 POP SWAP2 SWAP1 POP JUMP JUMPDEST PUSH1 0x0 PUSH2 0x21C9 PUSH2 0x21C4 PUSH2 0x21BF DUP5 PUSH2 0x16C2 JUMP JUMPDEST PUSH2 0x21A4 JUMP JUMPDEST PUSH2 0x16C2 JUMP JUMPDEST SWAP1 POP SWAP2 SWAP1 POP JUMP JUMPDEST PUSH1 0x0 DUP2 SWAP1 POP SWAP2 SWAP1 POP JUMP JUMPDEST PUSH2 0x21E3 DUP4 PUSH2 0x21AE JUMP JUMPDEST PUSH2 0x21F7 PUSH2 0x21EF DUP3 PUSH2 0x21D0 JUMP JUMPDEST DUP5 DUP5 SLOAD PUSH2 0x2152 JUMP JUMPDEST DUP3 SSTORE POP POP POP POP JUMP JUMPDEST PUSH1 0x0 SWAP1 JUMP JUMPDEST PUSH2 0x220C PUSH2 0x21FF JUMP JUMPDEST PUSH2 0x2217 DUP2 DUP5 DUP5 PUSH2 0x21DA JUMP JUMPDEST POP POP POP JUMP JUMPDEST JUMPDEST DUP2 DUP2 LT ISZERO PUSH2 0x223B JUMPI PUSH2 0x2230 PUSH1 0x0 DUP3 PUSH2 0x2204 JUMP JUMPDEST PUSH1 0x1 DUP2 ADD SWAP1 POP PUSH2 0x221D JUMP JUMPDEST POP POP JUMP JUMPDEST PUSH1 0x1F DUP3 GT ISZERO PUSH2 0x2280 JUMPI PUSH2 0x2251 DUP2 PUSH2 0x2120 JUMP JUMPDEST PUSH2 0x225A DUP5 PUSH2 0x2135 JUMP JUMPDEST DUP2 ADD PUSH1 0x20 DUP6 LT ISZERO PUSH2 0x2269 JUMPI DUP2 SWAP1 POP JUMPDEST PUSH2 0x227D PUSH2 0x2275 DUP6 PUSH2 0x2135 JUMP JUMPDEST DUP4 ADD DUP3 PUSH2 0x221C JUMP JUMPDEST POP POP JUMPDEST POP POP POP JUMP JUMPDEST PUSH1 0x0 DUP3 DUP3 SHR SWAP1 POP SWAP3 SWAP2 POP POP JUMP JUMPDEST PUSH1 0x0 PUSH2 0x22A3 PUSH1 0x0 NOT DUP5 PUSH1 0x8 MUL PUSH2 0x2285 JUMP JUMPDEST NOT DUP1 DUP4 AND SWAP2 POP POP SWAP3 SWAP2 POP POP JUMP JUMPDEST PUSH1 0x0 PUSH2 0x22BC DUP4 DUP4 PUSH2 0x2292 JUMP JUMPDEST SWAP2 POP DUP3 PUSH1 0x2 MUL DUP3 OR SWAP1 POP SWAP3 SWAP2 POP POP JUMP JUMPDEST PUSH2 0x22D5 DUP3 PUSH2 0x202B JUMP JUMPDEST PUSH8 0xFFFFFFFFFFFFFFFF DUP2 GT ISZERO PUSH2 0x22EE JUMPI PUSH2 0x22ED PUSH2 0x18D1 JUMP JUMPDEST JUMPDEST PUSH2 0x22F8 DUP3 SLOAD PUSH2 0x20EF JUMP JUMPDEST PUSH2 0x2303 DUP3 DUP3 DUP6 PUSH2 0x223F JUMP JUMPDEST PUSH1 0x0 PUSH1 0x20 SWAP1 POP PUSH1 0x1F DUP4 GT PUSH1 0x1 DUP2 EQ PUSH2 0x2336 JUMPI PUSH1 0x0 DUP5 ISZERO PUSH2 0x2324 JUMPI DUP3 DUP8 ADD MLOAD SWAP1 POP JUMPDEST PUSH2 0x232E DUP6 DUP3 PUSH2 0x22B0 JUMP JUMPDEST DUP7 SSTORE POP PUSH2 0x2396 JUMP JUMPDEST PUSH1 0x1F NOT DUP5 AND PUSH2 0x2344 DUP7 PUSH2 0x2120 JUMP JUMPDEST PUSH1 0x0 JUMPDEST DUP3 DUP2 LT ISZERO PUSH2 0x236C JUMPI DUP5 DUP10 ADD MLOAD DUP3 SSTORE PUSH1 0x1 DUP3 ADD SWAP2 POP PUSH1 0x20 DUP6 ADD SWAP5 POP PUSH1 0x20 DUP2 ADD SWAP1 POP PUSH2 0x2347 JUMP JUMPDEST DUP7 DUP4 LT ISZERO PUSH2 0x2389 JUMPI DUP5 DUP10 ADD MLOAD PUSH2 0x2385 PUSH1 0x1F DUP10 AND DUP3 PUSH2 0x2292 JUMP JUMPDEST DUP4 SSTORE POP JUMPDEST PUSH1 0x1 PUSH1 0x2 DUP9 MUL ADD DUP9 SSTORE POP POP POP JUMPDEST POP POP POP POP POP POP JUMP JUMPDEST PUSH1 0x0 PUSH2 0x23A9 DUP3 PUSH2 0x202B JUMP JUMPDEST PUSH2 0x23B3 DUP2 DUP6 PUSH2 0x1BE7 JUMP JUMPDEST SWAP4 POP PUSH2 0x23C3 DUP2 DUP6 PUSH1 0x20 DUP7 ADD PUSH2 0x2041 JUMP JUMPDEST PUSH2 0x23CC DUP2 PUSH2 0x18C0 JUMP JUMPDEST DUP5 ADD SWAP2 POP POP SWAP3 SWAP2 POP POP JUMP JUMPDEST PUSH1 0x0 PUSH1 0x60 DUP3 ADD SWAP1 POP PUSH2 0x23EC PUSH1 0x0 DUP4 ADD DUP7 PUSH2 0x17EA JUMP JUMPDEST DUP2 DUP2 SUB PUSH1 0x20 DUP4 ADD MSTORE PUSH2 0x23FE DUP2 DUP6 PUSH2 0x239E JUMP JUMPDEST SWAP1 POP DUP2 DUP2 SUB PUSH1 0x40 DUP4 ADD MSTORE PUSH2 0x2412 DUP2 DUP5 PUSH2 0x239E JUMP JUMPDEST SWAP1 POP SWAP5 SWAP4 POP POP POP POP JUMP JUMPDEST PUSH32 0x41756374696F6E20697320616C72656164792066696E6973686564206F722064 PUSH1 0x0 DUP3 ADD MSTORE PUSH32 0x6F65736E27742065786973747300000000000000000000000000000000000000 PUSH1 0x20 DUP3 ADD MSTORE POP JUMP JUMPDEST PUSH1 0x0 PUSH2 0x2478 PUSH1 0x2D DUP4 PUSH2 0x1BE7 JUMP JUMPDEST SWAP2 POP PUSH2 0x2483 DUP3 PUSH2 0x241C JUMP JUMPDEST PUSH1 0x40 DUP3 ADD SWAP1 POP SWAP2 SWAP1 POP JUMP JUMPDEST PUSH1 0x0 PUSH1 0x20 DUP3 ADD SWAP1 POP DUP2 DUP2 SUB PUSH1 0x0 DUP4 ADD MSTORE PUSH2 0x24A7 DUP2 PUSH2 0x246B JUMP JUMPDEST SWAP1 POP SWAP2 SWAP1 POP JUMP JUMPDEST PUSH1 0x0 PUSH2 0x24B9 DUP3 PUSH2 0x16C2 JUMP JUMPDEST SWAP2 POP PUSH2 0x24C4 DUP4 PUSH2 0x16C2 JUMP JUMPDEST SWAP3 POP DUP3 DUP3 ADD SWAP1 POP DUP1 DUP3 GT ISZERO PUSH2 0x24DC JUMPI PUSH2 0x24DB PUSH2 0x1B84 JUMP JUMPDEST JUMPDEST SWAP3 SWAP2 POP POP JUMP JUMPDEST PUSH32 0x596F75722062696420697320756E73756666696369656E740000000000000000 PUSH1 0x0 DUP3 ADD MSTORE POP JUMP JUMPDEST PUSH1 0x0 PUSH2 0x2518 PUSH1 0x18 DUP4 PUSH2 0x1BE7 JUMP JUMPDEST SWAP2 POP PUSH2 0x2523 DUP3 PUSH2 0x24E2 JUMP JUMPDEST PUSH1 0x20 DUP3 ADD SWAP1 POP SWAP2 SWAP1 POP JUMP JUMPDEST PUSH1 0x0 PUSH1 0x20 DUP3 ADD SWAP1 POP DUP2 DUP2 SUB PUSH1 0x0 DUP4 ADD MSTORE PUSH2 0x2547 DUP2 PUSH2 0x250B JUMP JUMPDEST SWAP1 POP SWAP2 SWAP1 POP JUMP JUMPDEST PUSH1 0x0 DUP2 SWAP1 POP SWAP3 SWAP2 POP POP JUMP JUMPDEST POP JUMP JUMPDEST PUSH1 0x0 PUSH2 0x2569 PUSH1 0x0 DUP4 PUSH2 0x254E JUMP JUMPDEST SWAP2 POP PUSH2 0x2574 DUP3 PUSH2 0x2559 JUMP JUMPDEST PUSH1 0x0 DUP3 ADD SWAP1 POP SWAP2 SWAP1 POP JUMP JUMPDEST PUSH1 0x0 PUSH2 0x258A DUP3 PUSH2 0x255C JUMP JUMPDEST SWAP2 POP DUP2 SWAP1 POP SWAP2 SWAP1 POP JUMP JUMPDEST PUSH32 0x6572726F72310000000000000000000000000000000000000000000000000000 PUSH1 0x0 DUP3 ADD MSTORE POP JUMP JUMPDEST PUSH1 0x0 PUSH2 0x25CA PUSH1 0x6 DUP4 PUSH2 0x1BE7 JUMP JUMPDEST SWAP2 POP PUSH2 0x25D5 DUP3 PUSH2 0x2594 JUMP JUMPDEST PUSH1 0x20 DUP3 ADD SWAP1 POP SWAP2 SWAP1 POP JUMP JUMPDEST PUSH1 0x0 PUSH1 0x20 DUP3 ADD SWAP1 POP DUP2 DUP2 SUB PUSH1 0x0 DUP4 ADD MSTORE PUSH2 0x25F9 DUP2 PUSH2 0x25BD JUMP JUMPDEST SWAP1 POP SWAP2 SWAP1 POP JUMP JUMPDEST PUSH32 0x6572726F72320000000000000000000000000000000000000000000000000000 PUSH1 0x0 DUP3 ADD MSTORE POP JUMP JUMPDEST PUSH1 0x0 PUSH2 0x2636 PUSH1 0x6 DUP4 PUSH2 0x1BE7 JUMP JUMPDEST SWAP2 POP PUSH2 0x2641 DUP3 PUSH2 0x2600 JUMP JUMPDEST PUSH1 0x20 DUP3 ADD SWAP1 POP SWAP2 SWAP1 POP JUMP JUMPDEST PUSH1 0x0 PUSH1 0x20 DUP3 ADD SWAP1 POP DUP2 DUP2 SUB PUSH1 0x0 DUP4 ADD MSTORE PUSH2 0x2665 DUP2 PUSH2 0x2629 JUMP JUMPDEST SWAP1 POP SWAP2 SWAP1 POP JUMP JUMPDEST PUSH1 0x0 PUSH1 0x80 DUP3 ADD SWAP1 POP PUSH2 0x2681 PUSH1 0x0 DUP4 ADD DUP8 PUSH2 0x1D62 JUMP JUMPDEST PUSH2 0x268E PUSH1 0x20 DUP4 ADD DUP7 PUSH2 0x1D62 JUMP JUMPDEST PUSH2 0x269B PUSH1 0x40 DUP4 ADD DUP6 PUSH2 0x17EA JUMP JUMPDEST PUSH2 0x26A8 PUSH1 0x60 DUP4 ADD DUP5 PUSH2 0x16CC JUMP JUMPDEST SWAP6 SWAP5 POP POP POP POP POP JUMP JUMPDEST PUSH32 0x4D696E696D616C2070726963652073686F756C64206265206772656174657220 PUSH1 0x0 DUP3 ADD MSTORE PUSH32 0x7468616E20300000000000000000000000000000000000000000000000000000 PUSH1 0x20 DUP3 ADD MSTORE POP JUMP JUMPDEST PUSH1 0x0 PUSH2 0x270D PUSH1 0x26 DUP4 PUSH2 0x1BE7 JUMP JUMPDEST SWAP2 POP PUSH2 0x2718 DUP3 PUSH2 0x26B1 JUMP JUMPDEST PUSH1 0x40 DUP3 ADD SWAP1 POP SWAP2 SWAP1 POP JUMP JUMPDEST PUSH1 0x0 PUSH1 0x20 DUP3 ADD SWAP1 POP DUP2 DUP2 SUB PUSH1 0x0 DUP4 ADD MSTORE PUSH2 0x273C DUP2 PUSH2 0x2700 JUMP JUMPDEST SWAP1 POP SWAP2 SWAP1 POP JUMP JUMPDEST PUSH32 0x4E465420697320616C726561647920696E2041756374696F6E21000000000000 PUSH1 0x0 DUP3 ADD MSTORE POP JUMP JUMPDEST PUSH1 0x0 PUSH2 0x2779 PUSH1 0x1A DUP4 PUSH2 0x1BE7 JUMP JUMPDEST SWAP2 POP PUSH2 0x2784 DUP3 PUSH2 0x2743 JUMP JUMPDEST PUSH1 0x20 DUP3 ADD SWAP1 POP SWAP2 SWAP1 POP JUMP JUMPDEST PUSH1 0x0 PUSH1 0x20 DUP3 ADD SWAP1 POP DUP2 DUP2 SUB PUSH1 0x0 DUP4 ADD MSTORE PUSH2 0x27A8 DUP2 PUSH2 0x276C JUMP JUMPDEST SWAP1 POP SWAP2 SWAP1 POP JUMP JUMPDEST PUSH1 0x0 PUSH2 0x27BA DUP3 PUSH2 0x1AF7 JUMP JUMPDEST SWAP2 POP PUSH2 0x27C5 DUP4 PUSH2 0x1AF7 JUMP JUMPDEST SWAP3 POP DUP3 DUP3 MUL PUSH2 0x27D3 DUP2 PUSH2 0x1AF7 JUMP JUMPDEST SWAP2 POP DUP1 DUP3 EQ PUSH2 0x27E5 JUMPI PUSH2 0x27E4 PUSH2 0x1B84 JUMP JUMPDEST JUMPDEST POP SWAP3 SWAP2 POP POP JUMP JUMPDEST PUSH1 0x0 PUSH1 0x80 DUP3 ADD SWAP1 POP PUSH2 0x2801 PUSH1 0x0 DUP4 ADD DUP8 PUSH2 0x17EA JUMP JUMPDEST PUSH2 0x280E PUSH1 0x20 DUP4 ADD DUP7 PUSH2 0x16CC JUMP JUMPDEST PUSH2 0x281B PUSH1 0x40 DUP4 ADD DUP6 PUSH2 0x1D62 JUMP JUMPDEST PUSH2 0x2828 PUSH1 0x60 DUP4 ADD DUP5 PUSH2 0x1D62 JUMP JUMPDEST SWAP6 SWAP5 POP POP POP POP POP JUMP INVALID LOG2 PUSH5 0x6970667358 0x22 SLT KECCAK256 0x4F 0xCA 0xEA STOP PUSH25 0x48F82BE9DE86C41F2BC8566BDB9423A823EE2C01FA2B64EFE1 PUSH28 0x1E64736F6C6343000811003300000000000000000000000000000000 "},"gasEstimates":{"creation":{"codeDepositCost":"2068600","executionCost":"2200","totalCost":"2070800"},"external":{"":"196","_burn(uint32)":"infinite","createAuction(uint256,uint32,uint16)":"infinite","createNFT(string,string,string,uint256)":"infinite","getAuctionHighestBid(uint32)":"2864","getAuctionHighestBidder(uint32)":"2993","getAuctionTime(uint32)":"infinite","getBalance()":"340","isEnded(uint32)":"2815","ownerOf(uint32)":"3068","placeBid(uint32,uint32)":"infinite","setMinBid(uint32,uint256)":"infinite"},"internal":{"_ownerOf(uint32)":"2266","endAuction(uint32)":"infinite","exists(uint32)":"2330","isOriginal(string memory)":"infinite","transfer(address,address,uint32)":"infinite","winnerOrSeller(address,address,uint32)":"infinite"}},"methodIdentifiers":{"_burn(uint32)":"61d67213","createAuction(uint256,uint32,uint16)":"e5418fbf","createNFT(string,string,string,uint256)":"ca1e217f","getAuctionHighestBid(uint32)":"db0d4f9f","getAuctionHighestBidder(uint32)":"f8440b56","getAuctionTime(uint32)":"17849572","getBalance()":"12065fe0","isEnded(uint32)":"c3538700","ownerOf(uint32)":"23b7ec3b","placeBid(uint32,uint32)":"d59fe09a","setMinBid(uint32,uint256)":"b0e888fc"}},"storageLayout":{"storage":[{"astId":151,"contract":"contracts/Auction.sol:Auction","label":"nftCounter","offset":0,"slot":"0","type":"t_struct(Counter)5_storage"},{"astId":154,"contract":"contracts/Auction.sol:Auction","label":"auctionCounter","offset":0,"slot":"1","type":"t_struct(Counter)5_storage"},{"astId":158,"contract":"contracts/Auction.sol:Auction","label":"metadataURIs","offset":0,"slot":"2","type":"t_mapping(t_bytes32,t_bool)"},{"astId":162,"contract":"contracts/Auction.sol:Auction","label":"highestBid","offset":0,"slot":"3","type":"t_mapping(t_uint32,t_uint256)"},{"astId":166,"contract":"contracts/Auction.sol:Auction","label":"highestBidder","offset":0,"slot":"4","type":"t_mapping(t_uint32,t_address)"},{"astId":171,"contract":"contracts/Auction.sol:Auction","label":"nfts","offset":0,"slot":"5","type":"t_mapping(t_uint32,t_struct(NFT)195_storage)"},{"astId":176,"contract":"contracts/Auction.sol:Auction","label":"auctions","offset":0,"slot":"6","type":"t_mapping(t_uint32,t_struct(AuctionInfo)208_storage)"},{"astId":182,"contract":"contracts/Auction.sol:Auction","label":"auctionBids","offset":0,"slot":"7","type":"t_mapping(t_uint32,t_mapping(t_address,t_uint256))"},{"astId":212,"contract":"contracts/Auction.sol:Auction","label":"locked","offset":0,"slot":"8","type":"t_mapping(t_address,t_bool)"}],"types":{"t_address":{"encoding":"inplace","label":"address","numberOfBytes":"20"},"t_bool":{"encoding":"inplace","label":"bool","numberOfBytes":"1"},"t_bytes32":{"encoding":"inplace","label":"bytes32","numberOfBytes":"32"},"t_mapping(t_address,t_bool)":{"encoding":"mapping","key":"t_address","label":"mapping(address => bool)","numberOfBytes":"32","value":"t_bool"},"t_mapping(t_address,t_uint256)":{"encoding":"mapping","key":"t_address","label":"mapping(address => uint256)","numberOfBytes":"32","value":"t_uint256"},"t_mapping(t_bytes32,t_bool)":{"encoding":"mapping","key":"t_bytes32","label":"mapping(bytes32 => bool)","numberOfBytes":"32","value":"t_bool"},"t_mapping(t_uint32,t_address)":{"encoding":"mapping","key":"t_uint32","label":"mapping(uint32 => address)","numberOfBytes":"32","value":"t_address"},"t_mapping(t_uint32,t_mapping(t_address,t_uint256))":{"encoding":"mapping","key":"t_uint32","label":"mapping(uint32 => mapping(address => uint256))","numberOfBytes":"32","value":"t_mapping(t_address,t_uint256)"},"t_mapping(t_uint32,t_struct(AuctionInfo)208_storage)":{"encoding":"mapping","key":"t_uint32","label":"mapping(uint32 => struct Auction.AuctionInfo)","numberOfBytes":"32","value":"t_struct(AuctionInfo)208_storage"},"t_mapping(t_uint32,t_struct(NFT)195_storage)":{"encoding":"mapping","key":"t_uint32","label":"mapping(uint32 => struct Auction.NFT)","numberOfBytes":"32","value":"t_struct(NFT)195_storage"},"t_mapping(t_uint32,t_uint256)":{"encoding":"mapping","key":"t_uint32","label":"mapping(uint32 => uint256)","numberOfBytes":"32","value":"t_uint256"},"t_string_storage":{"encoding":"bytes","label":"string","numberOfBytes":"32"},"t_struct(AuctionInfo)208_storage":{"encoding":"inplace","label":"struct Auction.AuctionInfo","members":[{"astId":197,"contract":"contracts/Auction.sol:Auction","label":"progress","offset":0,"slot":"0","type":"t_bool"},{"astId":199,"contract":"contracts/Auction.sol:Auction","label":"nftId","offset":1,"slot":"0","type":"t_uint32"},{"astId":201,"contract":"contracts/Auction.sol:Auction","label":"endTime","offset":0,"slot":"1","type":"t_uint256"},{"astId":203,"contract":"contracts/Auction.sol:Auction","label":"startedTime","offset":0,"slot":"2","type":"t_uint256"},{"astId":205,"contract":"contracts/Auction.sol:Auction","label":"minBid","offset":0,"slot":"3","type":"t_uint256"},{"astId":207,"contract":"contracts/Auction.sol:Auction","label":"nftOwner","offset":0,"slot":"4","type":"t_address"}],"numberOfBytes":"160"},"t_struct(Counter)5_storage":{"encoding":"inplace","label":"struct Counters.Counter","members":[{"astId":4,"contract":"contracts/Auction.sol:Auction","label":"_value","offset":0,"slot":"0","type":"t_uint256"}],"numberOfBytes":"32"},"t_struct(NFT)195_storage":{"encoding":"inplace","label":"struct Auction.NFT","members":[{"astId":184,"contract":"contracts/Auction.sol:Auction","label":"active","offset":0,"slot":"0","type":"t_bool"},{"astId":186,"contract":"contracts/Auction.sol:Auction","label":"PartOfMetadataURI","offset":0,"slot":"1","type":"t_bytes32"},{"astId":188,"contract":"contracts/Auction.sol:Auction","label":"PartOfMetadataURIAndName","offset":0,"slot":"2","type":"t_bytes32"},{"astId":190,"contract":"contracts/Auction.sol:Auction","label":"cost","offset":0,"slot":"3","type":"t_uint256"},{"astId":192,"contract":"contracts/Auction.sol:Auction","label":"description","offset":0,"slot":"4","type":"t_string_storage"},{"astId":194,"contract":"contracts/Auction.sol:Auction","label":"owner","offset":0,"slot":"5","type":"t_address"}],"numberOfBytes":"192"},"t_uint256":{"encoding":"inplace","label":"uint256","numberOfBytes":"32"},"t_uint32":{"encoding":"inplace","label":"uint32","numberOfBytes":"4"}}},"userdoc":{"kind":"user","methods":{},"version":1}}}}