{
  "_format": "hh-sol-artifact-1",
  "contractName": "Auction",
  "sourceName": "contracts/Auction.sol",
  "abi": [
    {
      "anonymous": false,
      "inputs": [
        {
          "indexed": false,
          "internalType": "address",
          "name": "nftOwner",
          "type": "address"
        },
        {
          "indexed": false,
          "internalType": "uint32",
          "name": "nftId",
          "type": "uint32"
        }
      ],
      "name": "Burn",
      "type": "event"
    },
    {
      "anonymous": false,
      "inputs": [
        {
          "indexed": false,
          "internalType": "address",
          "name": "creator",
          "type": "address"
        },
        {
          "indexed": false,
          "internalType": "uint256",
          "name": "startedPrice",
          "type": "uint256"
        },
        {
          "indexed": false,
          "internalType": "uint32",
          "name": "auctionId",
          "type": "uint32"
        },
        {
          "indexed": false,
          "internalType": "uint32",
          "name": "nftId",
          "type": "uint32"
        }
      ],
      "name": "CreateAuction",
      "type": "event"
    },
    {
      "anonymous": false,
      "inputs": [
        {
          "indexed": false,
          "internalType": "address",
          "name": "nftCreator",
          "type": "address"
        },
        {
          "indexed": false,
          "internalType": "string",
          "name": "imageHash",
          "type": "string"
        },
        {
          "indexed": false,
          "internalType": "string",
          "name": "imageName",
          "type": "string"
        }
      ],
      "name": "CreateNFT",
      "type": "event"
    },
    {
      "anonymous": false,
      "inputs": [
        {
          "indexed": false,
          "internalType": "address",
          "name": "seller",
          "type": "address"
        },
        {
          "indexed": false,
          "internalType": "address",
          "name": "buyer",
          "type": "address"
        },
        {
          "indexed": false,
          "internalType": "uint256",
          "name": "finalPrice",
          "type": "uint256"
        },
        {
          "indexed": false,
          "internalType": "uint32",
          "name": "auctionId",
          "type": "uint32"
        },
        {
          "indexed": false,
          "internalType": "uint32",
          "name": "nftId",
          "type": "uint32"
        }
      ],
      "name": "EndAuction",
      "type": "event"
    },
    {
      "anonymous": false,
      "inputs": [
        {
          "indexed": false,
          "internalType": "uint32",
          "name": "auctionId",
          "type": "uint32"
        },
        {
          "indexed": false,
          "internalType": "uint32",
          "name": "nftId",
          "type": "uint32"
        },
        {
          "indexed": false,
          "internalType": "address",
          "name": "bidder",
          "type": "address"
        },
        {
          "indexed": false,
          "internalType": "uint256",
          "name": "amount",
          "type": "uint256"
        }
      ],
      "name": "NewBid",
      "type": "event"
    },
    {
      "anonymous": false,
      "inputs": [
        {
          "indexed": false,
          "internalType": "uint256",
          "name": "newMinBid",
          "type": "uint256"
        },
        {
          "indexed": false,
          "internalType": "uint32",
          "name": "auctionId",
          "type": "uint32"
        }
      ],
      "name": "SetMinimalBid",
      "type": "event"
    },
    {
      "anonymous": false,
      "inputs": [
        {
          "indexed": false,
          "internalType": "address",
          "name": "from",
          "type": "address"
        },
        {
          "indexed": false,
          "internalType": "address",
          "name": "to",
          "type": "address"
        },
        {
          "indexed": false,
          "internalType": "uint32",
          "name": "nftId",
          "type": "uint32"
        }
      ],
      "name": "Transfer",
      "type": "event"
    },
    {
      "stateMutability": "payable",
      "type": "fallback"
    },
    {
      "inputs": [
        {
          "internalType": "uint32",
          "name": "nftId",
          "type": "uint32"
        }
      ],
      "name": "_burn",
      "outputs": [],
      "stateMutability": "nonpayable",
      "type": "function"
    },
    {
      "inputs": [
        {
          "internalType": "uint256",
          "name": "_price",
          "type": "uint256"
        },
        {
          "internalType": "uint32",
          "name": "_nftId",
          "type": "uint32"
        },
        {
          "internalType": "uint16",
          "name": "_auctionTime",
          "type": "uint16"
        }
      ],
      "name": "createAuction",
      "outputs": [],
      "stateMutability": "nonpayable",
      "type": "function"
    },
    {
      "inputs": [
        {
          "internalType": "string",
          "name": "_imageHash",
          "type": "string"
        },
        {
          "internalType": "string",
          "name": "_title",
          "type": "string"
        },
        {
          "internalType": "string",
          "name": "_description",
          "type": "string"
        },
        {
          "internalType": "uint256",
          "name": "_salesPrice",
          "type": "uint256"
        }
      ],
      "name": "createNFT",
      "outputs": [],
      "stateMutability": "nonpayable",
      "type": "function"
    },
    {
      "inputs": [
        {
          "internalType": "uint32",
          "name": "_auctionId",
          "type": "uint32"
        }
      ],
      "name": "getAuctionHighestBid",
      "outputs": [
        {
          "internalType": "uint256",
          "name": "",
          "type": "uint256"
        }
      ],
      "stateMutability": "view",
      "type": "function"
    },
    {
      "inputs": [
        {
          "internalType": "uint32",
          "name": "_auctionId",
          "type": "uint32"
        }
      ],
      "name": "getAuctionHighestBidder",
      "outputs": [
        {
          "internalType": "address",
          "name": "",
          "type": "address"
        }
      ],
      "stateMutability": "view",
      "type": "function"
    },
    {
      "inputs": [
        {
          "internalType": "uint32",
          "name": "_auctionId",
          "type": "uint32"
        }
      ],
      "name": "getAuctionTime",
      "outputs": [
        {
          "internalType": "uint256",
          "name": "",
          "type": "uint256"
        },
        {
          "internalType": "uint256",
          "name": "",
          "type": "uint256"
        },
        {
          "internalType": "uint256",
          "name": "",
          "type": "uint256"
        },
        {
          "internalType": "uint256",
          "name": "",
          "type": "uint256"
        }
      ],
      "stateMutability": "view",
      "type": "function"
    },
    {
      "inputs": [],
      "name": "getBalance",
      "outputs": [
        {
          "internalType": "uint256",
          "name": "",
          "type": "uint256"
        }
      ],
      "stateMutability": "view",
      "type": "function"
    },
    {
      "inputs": [
        {
          "internalType": "uint32",
          "name": "_auctionId",
          "type": "uint32"
        }
      ],
      "name": "isEnded",
      "outputs": [
        {
          "internalType": "bool",
          "name": "",
          "type": "bool"
        }
      ],
      "stateMutability": "view",
      "type": "function"
    },
    {
      "inputs": [
        {
          "internalType": "uint32",
          "name": "nftId",
          "type": "uint32"
        }
      ],
      "name": "ownerOf",
      "outputs": [
        {
          "internalType": "address",
          "name": "",
          "type": "address"
        }
      ],
      "stateMutability": "view",
      "type": "function"
    },
    {
      "inputs": [
        {
          "internalType": "uint32",
          "name": "_nftId",
          "type": "uint32"
        },
        {
          "internalType": "uint32",
          "name": "_auctionId",
          "type": "uint32"
        }
      ],
      "name": "placeBid",
      "outputs": [],
      "stateMutability": "payable",
      "type": "function"
    },
    {
      "inputs": [
        {
          "internalType": "uint32",
          "name": "_auctionId",
          "type": "uint32"
        },
        {
          "internalType": "uint256",
          "name": "_minBid",
          "type": "uint256"
        }
      ],
      "name": "setMinBid",
      "outputs": [],
      "stateMutability": "nonpayable",
      "type": "function"
    },
    {
      "stateMutability": "payable",
      "type": "receive"
    }
  ],
  "bytecode": "0x608060405234801561001057600080fd5b50612867806100206000396000f3fe6080604052600436106100a05760003560e01c8063c353870011610064578063c3538700146101a3578063ca1e217f146101e0578063d59fe09a14610209578063db0d4f9f14610225578063e5418fbf14610262578063f8440b561461028b576100a7565b806312065fe0146100a957806317849572146100d457806323b7ec3b1461011457806361d6721314610151578063b0e888fc1461017a576100a7565b366100a757005b005b3480156100b557600080fd5b506100be6102c8565b6040516100cb91906116db565b60405180910390f35b3480156100e057600080fd5b506100fb60048036038101906100f69190611746565b6102d0565b60405161010b9493929190611773565b60405180910390f35b34801561012057600080fd5b5061013b60048036038101906101369190611746565b6103f7565b60405161014891906117f9565b60405180910390f35b34801561015d57600080fd5b5061017860048036038101906101739190611746565b61047d565b005b34801561018657600080fd5b506101a1600480360381019061019c9190611840565b61067b565b005b3480156101af57600080fd5b506101ca60048036038101906101c59190611746565b6107fe565b6040516101d7919061189b565b60405180910390f35b3480156101ec57600080fd5b50610207600480360381019061020291906119fc565b61082c565b005b610223600480360381019061021e9190611ab7565b610c90565b005b34801561023157600080fd5b5061024c60048036038101906102479190611746565b6110e6565b60405161025991906116db565b60405180910390f35b34801561026e57600080fd5b5061028960048036038101906102849190611b31565b61110f565b005b34801561029757600080fd5b506102b260048036038101906102ad9190611746565b61156b565b6040516102bf91906117f9565b60405180910390f35b600047905090565b6000806000806000600660008763ffffffff1663ffffffff1681526020019081526020016000206040518060c00160405290816000820160009054906101000a900460ff161515151581526020016000820160019054906101000a900463ffffffff1663ffffffff1663ffffffff1681526020016001820154815260200160028201548152602001600382015481526020016004820160009054906101000a900473ffffffffffffffffffffffffffffffffffffffff1673ffffffffffffffffffffffffffffffffffffffff1673ffffffffffffffffffffffffffffffffffffffff1681525050905080606001518160400151826060015183604001516103d79190611bb3565b4284604001516103e79190611bb3565b9450945094509450509193509193565b600080610403836115b4565b9050600073ffffffffffffffffffffffffffffffffffffffff168173ffffffffffffffffffffffffffffffffffffffff1603610474576040517f08c379a000000000000000000000000000000000000000000000000000000000815260040161046b90611c44565b60405180910390fd5b80915050919050565b61048681611600565b6104c5576040517f08c379a00000000000000000000000000000000000000000000000000000000081526004016104bc90611cb0565b60405180910390fd5b3373ffffffffffffffffffffffffffffffffffffffff16600560008363ffffffff1663ffffffff16815260200190815260200160002060050160009054906101000a900473ffffffffffffffffffffffffffffffffffffffff1673ffffffffffffffffffffffffffffffffffffffff1614610575576040517f08c379a000000000000000000000000000000000000000000000000000000000815260040161056c90611d42565b60405180910390fd5b60026000600560008463ffffffff1663ffffffff16815260200190815260200160002060010154815260200190815260200160002060006101000a81549060ff0219169055600560008263ffffffff1663ffffffff168152602001908152602001600020600080820160006101000a81549060ff02191690556001820160009055600282016000905560038201600090556004820160006106169190611665565b6005820160006101000a81549073ffffffffffffffffffffffffffffffffffffffff021916905550507f0866ce58cff25f1369001ade6576ab36e718743ef4997ccd9672674335f10a413382604051610670929190611d71565b60405180910390a150565b3373ffffffffffffffffffffffffffffffffffffffff16600660008463ffffffff1663ffffffff16815260200190815260200160002060040160009054906101000a900473ffffffffffffffffffffffffffffffffffffffff1673ffffffffffffffffffffffffffffffffffffffff161461072b576040517f08c379a000000000000000000000000000000000000000000000000000000000815260040161072290611d42565b60405180910390fd5b600660008363ffffffff1663ffffffff16815260200190815260200160002060000160009054906101000a900460ff1661079a576040517f08c379a000000000000000000000000000000000000000000000000000000000815260040161079190611de6565b60405180910390fd5b80600660008463ffffffff1663ffffffff168152602001908152602001600020600301819055507fb89c59f106acbce3383979d323f1be7129108065445b12225a28b3e662f750dd81836040516107f2929190611e06565b60405180910390a15050565b600042600660008463ffffffff1663ffffffff16815260200190815260200160002060010154109050919050565b33600860008273ffffffffffffffffffffffffffffffffffffffff1673ffffffffffffffffffffffffffffffffffffffff16815260200190815260200160002060009054906101000a900460ff16156108ba576040517f08c379a00000000000000000000000000000000000000000000000000000000081526004016108b190611e7b565b60405180910390fd5b6001600860008373ffffffffffffffffffffffffffffffffffffffff1673ffffffffffffffffffffffffffffffffffffffff16815260200190815260200160002060006101000a81548160ff0219169083151502179055506000845103610956576040517f08c379a000000000000000000000000000000000000000000000000000000000815260040161094d90611ee7565b60405180910390fd5b600083510361099a576040517f08c379a000000000000000000000000000000000000000000000000000000000815260040161099190611ee7565b60405180910390fd5b600073ffffffffffffffffffffffffffffffffffffffff163373ffffffffffffffffffffffffffffffffffffffff1603610a09576040517f08c379a0000000000000000000000000000000000000000000000000000000008152600401610a0090611f53565b60405180910390fd5b60008211610a1657600080fd5b6000602086015190506002600082815260200190815260200160002060009054906101000a900460ff1615610a80576040517f08c379a0000000000000000000000000000000000000000000000000000000008152600401610a779061200b565b60405180910390fd5b6000808787604051602001610a9692919061209c565b60405160208183030381529060405290506012602e820101519150610abb6000611641565b6040518060c001604052806000151581526020018481526020018381526020018681526020018781526020013373ffffffffffffffffffffffffffffffffffffffff1681525060056000610b0f6000611657565b63ffffffff1663ffffffff16815260200190815260200160002060008201518160000160006101000a81548160ff0219169083151502179055506020820151816001015560408201518160020155606082015181600301556080820151816004019081610b7c91906122cc565b5060a08201518160050160006101000a81548173ffffffffffffffffffffffffffffffffffffffff021916908373ffffffffffffffffffffffffffffffffffffffff16021790555090505060016002600085815260200190815260200160002060006101000a81548160ff0219169083151502179055507f4f8ad30422c34becfa0e49ba52845c6c7963438c6dcde5c0699ab44c6de43f21338989604051610c26939291906123d7565b60405180910390a15050506000600860008373ffffffffffffffffffffffffffffffffffffffff1673ffffffffffffffffffffffffffffffffffffffff16815260200190815260200160002060006101000a81548160ff0219169083151502179055505050505050565b610c99816107fe565b15610cd9576040517f08c379a0000000000000000000000000000000000000000000000000000000008152600401610cd09061248e565b60405180910390fd5b60003390506000349050600660008463ffffffff1663ffffffff16815260200190815260200160002060030154600360008563ffffffff1663ffffffff16815260200190815260200160002054610d3091906124ae565b811015610d72576040517f08c379a0000000000000000000000000000000000000000000000000000000008152600401610d699061252e565b60405180910390fd5b60003073ffffffffffffffffffffffffffffffffffffffff1682604051610d989061257f565b60006040518083038185875af1925050503d8060008114610dd5576040519150601f19603f3d011682016040523d82523d6000602084013e610dda565b606091505b5050905080610e1e576040517f08c379a0000000000000000000000000000000000000000000000000000000008152600401610e15906125e0565b60405180910390fd5b6000600460008663ffffffff1663ffffffff16815260200190815260200160002060009054906101000a900473ffffffffffffffffffffffffffffffffffffffff1673ffffffffffffffffffffffffffffffffffffffff16600360008763ffffffff1663ffffffff16815260200190815260200160002054604051610ea29061257f565b60006040518083038185875af1925050503d8060008114610edf576040519150601f19603f3d011682016040523d82523d6000602084013e610ee4565b606091505b5050905080610f28576040517f08c379a0000000000000000000000000000000000000000000000000000000008152600401610f1f9061264c565b60405180910390fd5b82600360008763ffffffff1663ffffffff1681526020019081526020016000206000828254610f5791906124ae565b9250508190555083600460008763ffffffff1663ffffffff16815260200190815260200160002060006101000a81548173ffffffffffffffffffffffffffffffffffffffff021916908373ffffffffffffffffffffffffffffffffffffffff16021790555082600760008763ffffffff1663ffffffff16815260200190815260200160002060008673ffffffffffffffffffffffffffffffffffffffff1673ffffffffffffffffffffffffffffffffffffffff168152602001908152602001600020600082825461102891906124ae565b9250508190555061012c42600660008863ffffffff1663ffffffff168152602001908152602001600020600101546110609190611bb3565b10156110a15760b4600660008763ffffffff1663ffffffff168152602001908152602001600020600101600082825461109991906124ae565b925050819055505b7f9616315166379eb0d1c4c0f9c80af9eb01e46bd027f4cfd15c48bbe2041a7357858786866040516110d6949392919061266c565b60405180910390a1505050505050565b6000600360008363ffffffff1663ffffffff168152602001908152602001600020549050919050565b33600860008273ffffffffffffffffffffffffffffffffffffffff1673ffffffffffffffffffffffffffffffffffffffff16815260200190815260200160002060009054906101000a900460ff161561119d576040517f08c379a000000000000000000000000000000000000000000000000000000000815260040161119490611e7b565b60405180910390fd5b6001600860008373ffffffffffffffffffffffffffffffffffffffff1673ffffffffffffffffffffffffffffffffffffffff16815260200190815260200160002060006101000a81548160ff02191690831515021790555060008411611238576040517f08c379a000000000000000000000000000000000000000000000000000000000815260040161122f90612723565b60405180910390fd5b6000339050611246846103f7565b73ffffffffffffffffffffffffffffffffffffffff168173ffffffffffffffffffffffffffffffffffffffff16146112b3576040517f08c379a00000000000000000000000000000000000000000000000000000000081526004016112aa90611d42565b60405180910390fd5b600560008563ffffffff1663ffffffff16815260200190815260200160002060000160009054906101000a900460ff1615611323576040517f08c379a000000000000000000000000000000000000000000000000000000000815260040161131a9061278f565b60405180910390fd5b61132d6001611641565b60006113396001611657565b90506040518060c001604052806001151581526020018663ffffffff168152602001603c8661136891906127af565b61ffff164261137791906124ae565b81526020014281526020018781526020018373ffffffffffffffffffffffffffffffffffffffff16815250600660008363ffffffff1663ffffffff16815260200190815260200160002060008201518160000160006101000a81548160ff02191690831515021790555060208201518160000160016101000a81548163ffffffff021916908363ffffffff16021790555060408201518160010155606082015181600201556080820151816003015560a08201518160040160006101000a81548173ffffffffffffffffffffffffffffffffffffffff021916908373ffffffffffffffffffffffffffffffffffffffff16021790555090505081600460008363ffffffff1663ffffffff16815260200190815260200160002060006101000a81548173ffffffffffffffffffffffffffffffffffffffff021916908373ffffffffffffffffffffffffffffffffffffffff1602179055507ff2a44d84ac8ffbc8a349fa1e7694f72d3ff8d23134ff37f07a03ac72500803018287838860405161150394939291906127ec565b60405180910390a150506000600860008373ffffffffffffffffffffffffffffffffffffffff1673ffffffffffffffffffffffffffffffffffffffff16815260200190815260200160002060006101000a81548160ff02191690831515021790555050505050565b6000600460008363ffffffff1663ffffffff16815260200190815260200160002060009054906101000a900473ffffffffffffffffffffffffffffffffffffffff169050919050565b6000600560008363ffffffff1663ffffffff16815260200190815260200160002060050160009054906101000a900473ffffffffffffffffffffffffffffffffffffffff169050919050565b60008073ffffffffffffffffffffffffffffffffffffffff16611622836115b4565b73ffffffffffffffffffffffffffffffffffffffff1614159050919050565b6001816000016000828254019250508190555050565b600081600001549050919050565b508054611671906120ef565b6000825580601f1061168357506116a2565b601f0160209004906000526020600020908101906116a191906116a5565b5b50565b5b808211156116be5760008160009055506001016116a6565b5090565b6000819050919050565b6116d5816116c2565b82525050565b60006020820190506116f060008301846116cc565b92915050565b6000604051905090565b600080fd5b600080fd5b600063ffffffff82169050919050565b6117238161170a565b811461172e57600080fd5b50565b6000813590506117408161171a565b92915050565b60006020828403121561175c5761175b611700565b5b600061176a84828501611731565b91505092915050565b600060808201905061178860008301876116cc565b61179560208301866116cc565b6117a260408301856116cc565b6117af60608301846116cc565b95945050505050565b600073ffffffffffffffffffffffffffffffffffffffff82169050919050565b60006117e3826117b8565b9050919050565b6117f3816117d8565b82525050565b600060208201905061180e60008301846117ea565b92915050565b61181d816116c2565b811461182857600080fd5b50565b60008135905061183a81611814565b92915050565b6000806040838503121561185757611856611700565b5b600061186585828601611731565b92505060206118768582860161182b565b9150509250929050565b60008115159050919050565b61189581611880565b82525050565b60006020820190506118b0600083018461188c565b92915050565b600080fd5b600080fd5b6000601f19601f8301169050919050565b7f4e487b7100000000000000000000000000000000000000000000000000000000600052604160045260246000fd5b611909826118c0565b810181811067ffffffffffffffff82111715611928576119276118d1565b5b80604052505050565b600061193b6116f6565b90506119478282611900565b919050565b600067ffffffffffffffff821115611967576119666118d1565b5b611970826118c0565b9050602081019050919050565b82818337600083830152505050565b600061199f61199a8461194c565b611931565b9050828152602081018484840111156119bb576119ba6118bb565b5b6119c684828561197d565b509392505050565b600082601f8301126119e3576119e26118b6565b5b81356119f384826020860161198c565b91505092915050565b60008060008060808587031215611a1657611a15611700565b5b600085013567ffffffffffffffff811115611a3457611a33611705565b5b611a40878288016119ce565b945050602085013567ffffffffffffffff811115611a6157611a60611705565b5b611a6d878288016119ce565b935050604085013567ffffffffffffffff811115611a8e57611a8d611705565b5b611a9a878288016119ce565b9250506060611aab8782880161182b565b91505092959194509250565b60008060408385031215611ace57611acd611700565b5b6000611adc85828601611731565b9250506020611aed85828601611731565b9150509250929050565b600061ffff82169050919050565b611b0e81611af7565b8114611b1957600080fd5b50565b600081359050611b2b81611b05565b92915050565b600080600060608486031215611b4a57611b49611700565b5b6000611b588682870161182b565b9350506020611b6986828701611731565b9250506040611b7a86828701611b1c565b9150509250925092565b7f4e487b7100000000000000000000000000000000000000000000000000000000600052601160045260246000fd5b6000611bbe826116c2565b9150611bc9836116c2565b9250828203905081811115611be157611be0611b84565b5b92915050565b600082825260208201905092915050565b7f496e76616c6964204e4654204944000000000000000000000000000000000000600082015250565b6000611c2e600e83611be7565b9150611c3982611bf8565b602082019050919050565b60006020820190508181036000830152611c5d81611c21565b9050919050565b7f556e617661696c61626c65204e46540000000000000000000000000000000000600082015250565b6000611c9a600f83611be7565b9150611ca582611c64565b602082019050919050565b60006020820190508181036000830152611cc981611c8d565b9050919050565b7f596f7520617265206e6f7420746865206f776e6572206f662074686973204e4660008201527f5400000000000000000000000000000000000000000000000000000000000000602082015250565b6000611d2c602183611be7565b9150611d3782611cd0565b604082019050919050565b60006020820190508181036000830152611d5b81611d1f565b9050919050565b611d6b8161170a565b82525050565b6000604082019050611d8660008301856117ea565b611d936020830184611d62565b9392505050565b7f41756374696f6e206973206e6f7420617661696c61626c650000000000000000600082015250565b6000611dd0601883611be7565b9150611ddb82611d9a565b602082019050919050565b60006020820190508181036000830152611dff81611dc3565b9050919050565b6000604082019050611e1b60008301856116cc565b611e286020830184611d62565b9392505050565b7f4e6f2072652d656e7472616e6379000000000000000000000000000000000000600082015250565b6000611e65600e83611be7565b9150611e7082611e2f565b602082019050919050565b60006020820190508181036000830152611e9481611e58565b9050919050565b7f496e76616c6964204e4654206e616d6500000000000000000000000000000000600082015250565b6000611ed1601083611be7565b9150611edc82611e9b565b602082019050919050565b60006020820190508181036000830152611f0081611ec4565b9050919050565b7f4164647265737320300000000000000000000000000000000000000000000000600082015250565b6000611f3d600983611be7565b9150611f4882611f07565b602082019050919050565b60006020820190508181036000830152611f6c81611f30565b9050919050565b7f496d6167652068617368206973206e6f7420756e697175652e20596f7520617260008201527f6520747279696e6720746f2075706c6f616420616e206578697374656420696d60208201527f6167650000000000000000000000000000000000000000000000000000000000604082015250565b6000611ff5604383611be7565b915061200082611f73565b606082019050919050565b6000602082019050818103600083015261202481611fe8565b9050919050565b600081519050919050565b600081905092915050565b60005b8381101561205f578082015181840152602081019050612044565b60008484015250505050565b60006120768261202b565b6120808185612036565b9350612090818560208601612041565b80840191505092915050565b60006120a8828561206b565b91506120b4828461206b565b91508190509392505050565b7f4e487b7100000000000000000000000000000000000000000000000000000000600052602260045260246000fd5b6000600282049050600182168061210757607f821691505b60208210810361211a576121196120c0565b5b50919050565b60008190508160005260206000209050919050565b60006020601f8301049050919050565b600082821b905092915050565b6000600883026121827fffffffffffffffffffffffffffffffffffffffffffffffffffffffffffffffff82612145565b61218c8683612145565b95508019841693508086168417925050509392505050565b6000819050919050565b60006121c96121c46121bf846116c2565b6121a4565b6116c2565b9050919050565b6000819050919050565b6121e3836121ae565b6121f76121ef826121d0565b848454612152565b825550505050565b600090565b61220c6121ff565b6122178184846121da565b505050565b5b8181101561223b57612230600082612204565b60018101905061221d565b5050565b601f8211156122805761225181612120565b61225a84612135565b81016020851015612269578190505b61227d61227585612135565b83018261221c565b50505b505050565b600082821c905092915050565b60006122a360001984600802612285565b1980831691505092915050565b60006122bc8383612292565b9150826002028217905092915050565b6122d58261202b565b67ffffffffffffffff8111156122ee576122ed6118d1565b5b6122f882546120ef565b61230382828561223f565b600060209050601f8311600181146123365760008415612324578287015190505b61232e85826122b0565b865550612396565b601f19841661234486612120565b60005b8281101561236c57848901518255600182019150602085019450602081019050612347565b868310156123895784890151612385601f891682612292565b8355505b6001600288020188555050505b505050505050565b60006123a98261202b565b6123b38185611be7565b93506123c3818560208601612041565b6123cc816118c0565b840191505092915050565b60006060820190506123ec60008301866117ea565b81810360208301526123fe818561239e565b90508181036040830152612412818461239e565b9050949350505050565b7f41756374696f6e20697320616c72656164792066696e6973686564206f72206460008201527f6f65736e27742065786973747300000000000000000000000000000000000000602082015250565b6000612478602d83611be7565b91506124838261241c565b604082019050919050565b600060208201905081810360008301526124a78161246b565b9050919050565b60006124b9826116c2565b91506124c4836116c2565b92508282019050808211156124dc576124db611b84565b5b92915050565b7f596f75722062696420697320756e73756666696369656e740000000000000000600082015250565b6000612518601883611be7565b9150612523826124e2565b602082019050919050565b600060208201905081810360008301526125478161250b565b9050919050565b600081905092915050565b50565b600061256960008361254e565b915061257482612559565b600082019050919050565b600061258a8261255c565b9150819050919050565b7f6572726f72310000000000000000000000000000000000000000000000000000600082015250565b60006125ca600683611be7565b91506125d582612594565b602082019050919050565b600060208201905081810360008301526125f9816125bd565b9050919050565b7f6572726f72320000000000000000000000000000000000000000000000000000600082015250565b6000612636600683611be7565b915061264182612600565b602082019050919050565b6000602082019050818103600083015261266581612629565b9050919050565b60006080820190506126816000830187611d62565b61268e6020830186611d62565b61269b60408301856117ea565b6126a860608301846116cc565b95945050505050565b7f4d696e696d616c2070726963652073686f756c6420626520677265617465722060008201527f7468616e20300000000000000000000000000000000000000000000000000000602082015250565b600061270d602683611be7565b9150612718826126b1565b604082019050919050565b6000602082019050818103600083015261273c81612700565b9050919050565b7f4e465420697320616c726561647920696e2041756374696f6e21000000000000600082015250565b6000612779601a83611be7565b915061278482612743565b602082019050919050565b600060208201905081810360008301526127a88161276c565b9050919050565b60006127ba82611af7565b91506127c583611af7565b92508282026127d381611af7565b91508082146127e5576127e4611b84565b5b5092915050565b600060808201905061280160008301876117ea565b61280e60208301866116cc565b61281b6040830185611d62565b6128286060830184611d62565b9594505050505056fea26469706673582212206faeed5e924d95cc334462a41770881d54fd61fb1eea80eb0938bd1f040a5d3f64736f6c63430008110033",
  "linkReferences": {},
  "deployedLinkReferences": {},
  "networkType": "ethereum"
}